Component: ARM Compiler 5.06 update 4 (build 422) Tool: armlink [4d35d2]

==============================================================================

Section Cross References

    startup_stm32g473xx.o(STACK) refers (Special) to heapauxi.o(.text) for __use_two_region_memory
    startup_stm32g473xx.o(HEAP) refers (Special) to heapauxi.o(.text) for __use_two_region_memory
    startup_stm32g473xx.o(RESET) refers (Special) to heapauxi.o(.text) for __use_two_region_memory
    startup_stm32g473xx.o(RESET) refers to startup_stm32g473xx.o(STACK) for __initial_sp
    startup_stm32g473xx.o(RESET) refers to startup_stm32g473xx.o(.text) for Reset_Handler
    startup_stm32g473xx.o(RESET) refers to stm32g4xx_it.o(i.NMI_Handler) for NMI_Handler
    startup_stm32g473xx.o(RESET) refers to stm32g4xx_it.o(i.HardFault_Handler) for HardFault_Handler
    startup_stm32g473xx.o(RESET) refers to stm32g4xx_it.o(i.MemManage_Handler) for MemManage_Handler
    startup_stm32g473xx.o(RESET) refers to stm32g4xx_it.o(i.BusFault_Handler) for BusFault_Handler
    startup_stm32g473xx.o(RESET) refers to stm32g4xx_it.o(i.UsageFault_Handler) for UsageFault_Handler
    startup_stm32g473xx.o(RESET) refers to stm32g4xx_it.o(i.SVC_Handler) for SVC_Handler
    startup_stm32g473xx.o(RESET) refers to stm32g4xx_it.o(i.DebugMon_Handler) for DebugMon_Handler
    startup_stm32g473xx.o(RESET) refers to stm32g4xx_it.o(i.PendSV_Handler) for PendSV_Handler
    startup_stm32g473xx.o(RESET) refers to stm32g4xx_it.o(i.SysTick_Handler) for SysTick_Handler
    startup_stm32g473xx.o(RESET) refers to stm32g4xx_it.o(i.DMA1_Channel1_IRQHandler) for DMA1_Channel1_IRQHandler
    startup_stm32g473xx.o(RESET) refers to stm32g4xx_it.o(i.ADC1_2_IRQHandler) for ADC1_2_IRQHandler
    startup_stm32g473xx.o(RESET) refers to stm32g4xx_it.o(i.USB_LP_IRQHandler) for USB_LP_IRQHandler
    startup_stm32g473xx.o(RESET) refers to stm32g4xx_it.o(i.TIM1_UP_TIM16_IRQHandler) for TIM1_UP_TIM16_IRQHandler
==============================================================================

Removing Unused input sections from the image.

    Removing main.o(.rev16_text), (4 bytes).
    Removing main.o(.revsh_text), (4 bytes).
    Removing main.o(.rrx_text), (6 bytes).
    Removing gpio.o(.rev16_text), (4 bytes).
    Removing gpio.o(.revsh_text), (4 bytes).
    Removing gpio.o(.rrx_text), (6 bytes).
    Removing adc.o(.rev16_text), (4 bytes).
    Removing adc.o(.revsh_text), (4 bytes).
    Removing adc.o(.rrx_text), (6 bytes).
    Removing adc.o(i.HAL_ADC_MspDeInit), (152 bytes).
    Removing dma.o(.rev16_text), (4 bytes).
    Removing dma.o(.revsh_text), (4 bytes).
    Removing dma.o(.rrx_text), (6 bytes).
    Removing tim.o(.rev16_text), (4 bytes).
    Removing tim.o(.revsh_text), (4 bytes).
    Removing tim.o(.rrx_text), (6 bytes).
    Removing tim.o(i.HAL_TIMEx_HallSensor_MspDeInit), (52 bytes).
    Removing tim.o(i.HAL_TIM_Base_MspDeInit), (36 bytes).
==============================================================================

Image Symbol Table

    Local Symbols

    Symbol Name                              Value     Ov Type        Size  Object(Section)

    ../Core/Src/adc.c                        0x00000000   Number         0  adc.o ABSOLUTE
    ../Core/Src/dma.c                        0x00000000   Number         0  dma.o ABSOLUTE
    ../Core/Src/gpio.c                       0x00000000   Number         0  gpio.o ABSOLUTE
    ../Core/Src/main.c                       0x00000000   Number         0  main.o ABSOLUTE
    ../Core/Src/stm32g4xx_hal_msp.c          0x00000000   Number         0  stm32g4xx_hal_msp.o ABSOLUTE
    ../Core/Src/stm32g4xx_it.c               0x00000000   Number         0  stm32g4xx_it.o ABSOLUTE
    ../Core/Src/system_stm32g4xx.c           0x00000000   Number         0  system_stm32g4xx.o ABSOLUTE
    ../Core/Src/tim.c                        0x00000000   Number         0  tim.o ABSOLUTE
    ../Core/Src/usart.c                      0x00000000   Number         0  usart.o ABSOLUTE
    ../Core/Src/usb.c                        0x00000000   Number         0  usb.o ABSOLUTE
    ../Drivers/STM32G4xx_HAL_Driver/Src/stm32g4xx_hal.c 0x00000000   Number         0  stm32g4xx_hal.o ABSOLUTE
    ../Drivers/STM32G4xx_HAL_Driver/Src/stm32g4xx_hal_adc.c 0x00000000   Number         0  stm32g4xx_hal_adc.o ABSOLUTE
    ../Drivers/STM32G4xx_HAL_Driver/Src/stm32g4xx_hal_adc_ex.c 0x00000000   Number         0  stm32g4xx_hal_adc_ex.o ABSOLUTE
    ../Drivers/STM32G4xx_HAL_Driver/Src/stm32g4xx_hal_cortex.c 0x00000000   Number         0  stm32g4xx_hal_cortex.o ABSOLUTE
    ../Drivers/STM32G4xx_HAL_Driver/Src/stm32g4xx_hal_dma.c 0x00000000   Number         0  stm32g4xx_hal_dma.o ABSOLUTE
    ../Drivers/STM32G4xx_HAL_Driver/Src/stm32g4xx_hal_dma_ex.c 0x00000000   Number         0  stm32g4xx_hal_dma_ex.o ABSOLUTE
    ../Drivers/STM32G4xx_HAL_Driver/Src/stm32g4xx_hal_exti.c 0x00000000   Number         0  stm32g4xx_hal_exti.o ABSOLUTE
    ../Drivers/STM32G4xx_HAL_Driver/Src/stm32g4xx_hal_flash.c 0x00000000   Number         0  stm32g4xx_hal_flash.o ABSOLUTE
    ../Drivers/STM32G4xx_HAL_Driver/Src/stm32g4xx_hal_flash_ex.c 0x00000000   Number         0  stm32g4xx_hal_flash_ex.o ABSOLUTE
    ../Drivers/STM32G4xx_HAL_Driver/Src/stm32g4xx_hal_flash_ramfunc.c 0x00000000   Number         0  stm32g4xx_hal_flash_ramfunc.o ABSOLUTE
    ../Drivers/STM32G4xx_HAL_Driver/Src/stm32g4xx_hal_gpio.c 0x00000000   Number         0  stm32g4xx_hal_gpio.o ABSOLUTE
    ../Drivers/STM32G4xx_HAL_Driver/Src/stm32g4xx_hal_pcd.c 0x00000000   Number         0  stm32g4xx_hal_pcd.o ABSOLUTE
    ../Drivers/STM32G4xx_HAL_Driver/Src/stm32g4xx_hal_pcd_ex.c 0x00000000   Number         0  stm32g4xx_hal_pcd_ex.o ABSOLUTE
    ../Drivers/STM32G4xx_HAL_Driver/Src/stm32g4xx_hal_pwr.c 0x00000000   Number         0  stm32g4xx_hal_pwr.o ABSOLUTE
    ../Drivers/STM32G4xx_HAL_Driver/Src/stm32g4xx_hal_pwr_ex.c 0x00000000   Number         0  stm32g4xx_hal_pwr_ex.o ABSOLUTE
    ../Drivers/STM32G4xx_HAL_Driver/Src/stm32g4xx_hal_rcc.c 0x00000000   Number         0  stm32g4xx_hal_rcc.o ABSOLUTE
    ../Drivers/STM32G4xx_HAL_Driver/Src/stm32g4xx_hal_rcc_ex.c 0x00000000   Number         0  stm32g4xx_hal_rcc_ex.o ABSOLUTE
    ../Drivers/STM32G4xx_HAL_Driver/Src/stm32g4xx_hal_tim.c 0x00000000   Number         0  stm32g4xx_hal_tim.o ABSOLUTE
    ../Drivers/STM32G4xx_HAL_Driver/Src/stm32g4xx_hal_tim_ex.c 0x00000000   Number         0  stm32g4xx_hal_tim_ex.o ABSOLUTE
    ../Drivers/STM32G4xx_HAL_Driver/Src/stm32g4xx_hal_uart.c 0x00000000   Number         0  stm32g4xx_hal_uart.o ABSOLUTE
    ../Drivers/STM32G4xx_HAL_Driver/Src/stm32g4xx_hal_uart_ex.c 0x00000000   Number         0  stm32g4xx_hal_uart_ex.o ABSOLUTE
    ../Drivers/STM32G4xx_HAL_Driver/Src/stm32g4xx_ll_adc.c 0x00000000   Number         0  stm32g4xx_ll_adc.o ABSOLUTE
    ../Drivers/STM32G4xx_HAL_Driver/Src/stm32g4xx_ll_usb.c 0x00000000   Number         0  stm32g4xx_ll_usb.o ABSOLUTE
    ../clib/angel/boardlib.s                 0x00000000   Number         0  boardinit3.o ABSOLUTE
    ../clib/angel/boardlib.s                 0x00000000   Number         0  boardinit2.o ABSOLUTE
    ../clib/angel/boardlib.s                 0x00000000   Number         0  boardinit1.o ABSOLUTE
    ../clib/angel/boardlib.s                 0x00000000   Number         0  boardshut.o ABSOLUTE
    ../clib/angel/dczerorl2.s                0x00000000   Number         0  __dczerorl2.o ABSOLUTE
    ../clib/angel/handlers.s                 0x00000000   Number         0  __scatter_zi.o ABSOLUTE
    ../clib/angel/kernel.s                   0x00000000   Number         0  __rtentry.o ABSOLUTE
    ../clib/angel/kernel.s                   0x00000000   Number         0  rtexit.o ABSOLUTE
    ../clib/angel/kernel.s                   0x00000000   Number         0  __rtentry4.o ABSOLUTE
    ../clib/angel/kernel.s                   0x00000000   Number         0  __rtentry2.o ABSOLUTE
    ../clib/angel/kernel.s                   0x00000000   Number         0  rtexit2.o ABSOLUTE
    ../clib/angel/rt.s                       0x00000000   Number         0  aeabi_ldiv0.o ABSOLUTE
    ../clib/angel/rt.s                       0x00000000   Number         0  aeabi_ldiv0_sigfpe.o ABSOLUTE
    ../clib/angel/rt.s                       0x00000000   Number         0  rt_raise.o ABSOLUTE
    ../clib/angel/rt.s                       0x00000000   Number         0  rt_locale.o ABSOLUTE
    ../clib/angel/rt.s                       0x00000000   Number         0  rt_div0.o ABSOLUTE
    ../clib/angel/rt.s                       0x00000000   Number         0  rt_locale_intlibspace.o ABSOLUTE
    ../clib/angel/rt.s                       0x00000000   Number         0  rt_ctype_table.o ABSOLUTE
    ../clib/angel/scatter.s                  0x00000000   Number         0  __scatter.o ABSOLUTE
    ../clib/angel/startup.s                  0x00000000   Number         0  __main.o ABSOLUTE
    ../clib/angel/sys.s                      0x00000000   Number         0  use_no_semi_2.o ABSOLUTE
    ../clib/angel/sys.s                      0x00000000   Number         0  use_no_semi.o ABSOLUTE
    ../clib/angel/sys.s                      0x00000000   Number         0  sys_stackheap_outer.o ABSOLUTE
    ../clib/angel/sys.s                      0x00000000   Number         0  libspace.o ABSOLUTE
    ../clib/armsys.c                         0x00000000   Number         0  no_argv.o ABSOLUTE
    ../clib/armsys.c                         0x00000000   Number         0  argv_veneer.o ABSOLUTE
    ../clib/armsys.c                         0x00000000   Number         0  argv_veneer.o ABSOLUTE
    ../clib/armsys.c                         0x00000000   Number         0  _get_argv_nomalloc.o ABSOLUTE
    ../clib/bigflt.c                         0x00000000   Number         0  bigflt0.o ABSOLUTE
    ../clib/btod.s                           0x00000000   Number         0  btod.o ABSOLUTE
    ../clib/heapalloc.c                      0x00000000   Number         0  hrguard.o ABSOLUTE
    ../clib/heapaux.c                        0x00000000   Number         0  heapauxi.o ABSOLUTE
    ../clib/libinit.s                        0x00000000   Number         0  libshutdown.o ABSOLUTE
    ../clib/libinit.s                        0x00000000   Number         0  libshutdown2.o ABSOLUTE
    ../clib/libinit.s                        0x00000000   Number         0  libinit2.o ABSOLUTE
    ../clib/libinit.s                        0x00000000   Number         0  libinit.o ABSOLUTE
    ../clib/locale.c                         0x00000000   Number         0  _wcrtomb.o ABSOLUTE
    ../clib/locale.s                         0x00000000   Number         0  lc_ctype_c.o ABSOLUTE
    ../clib/locale.s                         0x00000000   Number         0  lc_numeric_c.o ABSOLUTE
    ../clib/longlong.s                       0x00000000   Number         0  lludiv10.o ABSOLUTE
    ../clib/longlong.s                       0x00000000   Number         0  lludivv7m.o ABSOLUTE
    ../clib/memcpset.s                       0x00000000   Number         0  rt_memclr_w.o ABSOLUTE
    ../clib/memcpset.s                       0x00000000   Number         0  strcmpv7m.o ABSOLUTE
    ../clib/memcpset.s                       0x00000000   Number         0  rt_memcpy_w.o ABSOLUTE
    ../clib/misc.s                           0x00000000   Number         0  printf_stubs.o ABSOLUTE
    ../clib/printf.c                         0x00000000   Number         0  _printf_str.o ABSOLUTE
    ../clib/printf.c                         0x00000000   Number         0  _printf_intcommon.o ABSOLUTE
    ../clib/printf.c                         0x00000000   Number         0  _printf_charcount.o ABSOLUTE
    ../clib/printf.c                         0x00000000   Number         0  _printf_char_common.o ABSOLUTE
    ../clib/printf.c                         0x00000000   Number         0  _sputc.o ABSOLUTE
    ../clib/printf.c                         0x00000000   Number         0  _printf_char_file.o ABSOLUTE
    ../clib/printf.c                         0x00000000   Number         0  _printf_longlong_dec.o ABSOLUTE
    ../clib/printf.c                         0x00000000   Number         0  _printf_oct_ll.o ABSOLUTE
    ../clib/printf.c                         0x00000000   Number         0  _printf_oct_int.o ABSOLUTE
    ../clib/printf.c                         0x00000000   Number         0  _printf_oct_int_ll.o ABSOLUTE
    ../clib/printf.c                         0x00000000   Number         0  _printf_hex_ll.o ABSOLUTE
    ../clib/printf.c                         0x00000000   Number         0  _printf_hex_int.o ABSOLUTE
    ../clib/printf.c                         0x00000000   Number         0  _printf_hex_int_ll.o ABSOLUTE
    ../clib/printf.c                         0x00000000   Number         0  _printf_hex_ptr.o ABSOLUTE
    ../clib/printf.c                         0x00000000   Number         0  _printf_hex_int_ptr.o ABSOLUTE
    ../clib/printf.c                         0x00000000   Number         0  _printf_hex_ll_ptr.o ABSOLUTE
    ../clib/printf.c                         0x00000000   Number         0  _printf_hex_int_ll_ptr.o ABSOLUTE
    ../clib/printf.c                         0x00000000   Number         0  _printf_fp_dec.o ABSOLUTE
    ../clib/printf.c                         0x00000000   Number         0  __printf_nopercent.o ABSOLUTE
    ../clib/printf.c                         0x00000000   Number         0  _printf_char.o ABSOLUTE
    ../clib/printf.c                         0x00000000   Number         0  _printf_wchar.o ABSOLUTE
    ../clib/printf.c                         0x00000000   Number         0  _printf_wctomb.o ABSOLUTE
    ../clib/printf.c                         0x00000000   Number         0  _printf_fp_hex.o ABSOLUTE
    ../clib/printf.c                         0x00000000   Number         0  _printf_fp_infnan.o ABSOLUTE
    ../clib/printf.c                         0x00000000   Number         0  _printf_pad.o ABSOLUTE
    ../clib/printf.c                         0x00000000   Number         0  __printf_flags_ss_wp.o ABSOLUTE
    ../clib/printf.c                         0x00000000   Number         0  __printf_ss_wp.o ABSOLUTE
    ../clib/printf.c                         0x00000000   Number         0  __printf_flags_wp.o ABSOLUTE
    ../clib/printf.c                         0x00000000   Number         0  __printf_wp.o ABSOLUTE
    ../clib/printf.c                         0x00000000   Number         0  __printf_flags_ss.o ABSOLUTE
    ../clib/printf.c                         0x00000000   Number         0  __printf_ss.o ABSOLUTE
    ../clib/printf.c                         0x00000000   Number         0  __printf_flags.o ABSOLUTE
    ../clib/printf.c                         0x00000000   Number         0  _printf_dec.o ABSOLUTE
    ../clib/printf.c                         0x00000000   Number         0  __printf.o ABSOLUTE
    ../clib/printf.c                         0x00000000   Number         0  noretval__2printf.o ABSOLUTE
    ../clib/printf.c                         0x00000000   Number         0  __2printf.o ABSOLUTE
    ../clib/printf.c                         0x00000000   Number         0  vsprintf.o ABSOLUTE
    ../clib/printf.c                         0x00000000   Number         0  _printf_truncate.o ABSOLUTE
    ../clib/printf_percent.s                 0x00000000   Number         0  _printf_lld.o ABSOLUTE
    ../clib/printf_percent.s                 0x00000000   Number         0  _printf_lli.o ABSOLUTE
    ../clib/printf_percent.s                 0x00000000   Number         0  _printf_d.o ABSOLUTE
    ../clib/printf_percent.s                 0x00000000   Number         0  _printf_percent_end.o ABSOLUTE
    ../clib/printf_percent.s                 0x00000000   Number         0  _printf_a.o ABSOLUTE
    ../clib/printf_percent.s                 0x00000000   Number         0  _printf_x.o ABSOLUTE
    ../clib/printf_percent.s                 0x00000000   Number         0  _printf_c.o ABSOLUTE
    ../clib/printf_percent.s                 0x00000000   Number         0  _printf_lc.o ABSOLUTE
    ../clib/printf_percent.s                 0x00000000   Number         0  _printf_e.o ABSOLUTE
    ../clib/printf_percent.s                 0x00000000   Number         0  _printf_llx.o ABSOLUTE
    ../clib/printf_percent.s                 0x00000000   Number         0  _printf_s.o ABSOLUTE
    ../clib/printf_percent.s                 0x00000000   Number         0  _printf_llo.o ABSOLUTE
    ../clib/printf_percent.s                 0x00000000   Number         0  _printf_ls.o ABSOLUTE
    ../clib/printf_percent.s                 0x00000000   Number         0  _printf_f.o ABSOLUTE
    ../clib/printf_percent.s                 0x00000000   Number         0  _printf_n.o ABSOLUTE
    ../clib/printf_percent.s                 0x00000000   Number         0  _printf_l.o ABSOLUTE
    ../clib/printf_percent.s                 0x00000000   Number         0  _printf_ll.o ABSOLUTE
    ../clib/printf_percent.s                 0x00000000   Number         0  _printf_u.o ABSOLUTE
    ../clib/printf_percent.s                 0x00000000   Number         0  _printf_p.o ABSOLUTE
    ../clib/printf_percent.s                 0x00000000   Number         0  _printf_llu.o ABSOLUTE
    ../clib/printf_percent.s                 0x00000000   Number         0  _printf_i.o ABSOLUTE
    ../clib/printf_percent.s                 0x00000000   Number         0  _printf_g.o ABSOLUTE
    ../clib/printf_percent.s                 0x00000000   Number         0  _printf_o.o ABSOLUTE
    ../clib/printf_percent.s                 0x00000000   Number         0  _printf_percent.o ABSOLUTE
    ../clib/signal.c                         0x00000000   Number         0  defsig_fpe_inner.o ABSOLUTE
    ../clib/signal.c                         0x00000000   Number         0  defsig_general.o ABSOLUTE
    ../clib/signal.c                         0x00000000   Number         0  defsig_rtmem_outer.o ABSOLUTE
    ../clib/signal.c                         0x00000000   Number         0  __raise.o ABSOLUTE
    ../clib/signal.c                         0x00000000   Number         0  defsig_segv_inner.o ABSOLUTE
    ../clib/signal.c                         0x00000000   Number         0  defsig_exit.o ABSOLUTE
    ../clib/signal.c                         0x00000000   Number         0  defsig_other.o ABSOLUTE
    ../clib/signal.c                         0x00000000   Number         0  defsig_fpe_outer.o ABSOLUTE
    ../clib/signal.c                         0x00000000   Number         0  defsig_fpe_formal.o ABSOLUTE
    ../clib/signal.c                         0x00000000   Number         0  defsig_stak_inner.o ABSOLUTE
    ../clib/signal.c                         0x00000000   Number         0  defsig_cppl_inner.o ABSOLUTE
    ../clib/signal.c                         0x00000000   Number         0  defsig_pvfn_inner.o ABSOLUTE
    ../clib/signal.c                         0x00000000   Number         0  defsig_rtmem_formal.o ABSOLUTE
    ../clib/signal.c                         0x00000000   Number         0  defsig_rtmem_inner.o ABSOLUTE
    ../clib/signal.c                         0x00000000   Number         0  defsig_rtred_inner.o ABSOLUTE
    ../clib/signal.c                         0x00000000   Number         0  defsig_abrt_inner.o ABSOLUTE
    ../clib/signal.s                         0x00000000   Number         0  defsig.o ABSOLUTE
    ../clib/stdio.c                          0x00000000   Number         0  ferror_locked.o ABSOLUTE
    ../clib/stdio.c                          0x00000000   Number         0  ferror.o ABSOLUTE
    ../clib/stdlib.c                         0x00000000   Number         0  exit.o ABSOLUTE
    ../clib/string.c                         0x00000000   Number         0  strlen.o ABSOLUTE
    ../fplib/ffixll.s                        0x00000000   Number         0  ffixll.o ABSOLUTE
    ../fplib/fnaninf.s                       0x00000000   Number         0  fnaninf.o ABSOLUTE
    ../fplib/fpinit.s                        0x00000000   Number         0  fpinit.o ABSOLUTE
    ../fplib/istatus.s                       0x00000000   Number         0  istatus.o ABSOLUTE
    ../fplib/printf1.s                       0x00000000   Number         0  printf1.o ABSOLUTE
    ../fplib/printf2.s                       0x00000000   Number         0  printf2.o ABSOLUTE
    ../fplib/printf2a.s                      0x00000000   Number         0  printf2a.o ABSOLUTE
    ../fplib/printf2b.s                      0x00000000   Number         0  printf2b.o ABSOLUTE
    ../fplib/usenofp.s                       0x00000000   Number         0  usenofp.o ABSOLUTE
    ../mathlib/fpclassify.c                  0x00000000   Number         0  fpclassify.o ABSOLUTE
    ..\Core\Src\adc.c                        0x00000000   Number         0  adc.o ABSOLUTE
    ..\Core\Src\dma.c                        0x00000000   Number         0  dma.o ABSOLUTE
    ..\Core\Src\gpio.c                       0x00000000   Number         0  gpio.o ABSOLUTE
    ..\Core\Src\main.c                       0x00000000   Number         0  main.o ABSOLUTE
    ..\Core\Src\stm32g4xx_hal_msp.c          0x00000000   Number         0  stm32g4xx_hal_msp.o ABSOLUTE
    ..\Core\Src\stm32g4xx_it.c               0x00000000   Number         0  stm32g4xx_it.o ABSOLUTE
    ..\Core\Src\system_stm32g4xx.c           0x00000000   Number         0  system_stm32g4xx.o ABSOLUTE
    ..\Core\Src\tim.c                        0x00000000   Number         0  tim.o ABSOLUTE
    ..\Core\Src\usart.c                      0x00000000   Number         0  usart.o ABSOLUTE
    ..\Core\Src\usb.c                        0x00000000   Number         0  usb.o ABSOLUTE
    ..\Drivers\STM32G4xx_HAL_Driver\Src\stm32g4xx_hal.c 0x00000000   Number         0  stm32g4xx_hal.o ABSOLUTE
    ..\Drivers\STM32G4xx_HAL_Driver\Src\stm32g4xx_hal_adc.c 0x00000000   Number         0  stm32g4xx_hal_adc.o ABSOLUTE
    ..\Drivers\STM32G4xx_HAL_Driver\Src\stm32g4xx_hal_adc_ex.c 0x00000000   Number         0  stm32g4xx_hal_adc_ex.o ABSOLUTE
    ..\Drivers\STM32G4xx_HAL_Driver\Src\stm32g4xx_hal_cortex.c 0x00000000   Number         0  stm32g4xx_hal_cortex.o ABSOLUTE
    ..\Drivers\STM32G4xx_HAL_Driver\Src\stm32g4xx_hal_dma.c 0x00000000   Number         0  stm32g4xx_hal_dma.o ABSOLUTE
    ..\Drivers\STM32G4xx_HAL_Driver\Src\stm32g4xx_hal_dma_ex.c 0x00000000   Number         0  stm32g4xx_hal_dma_ex.o ABSOLUTE
    ..\Drivers\STM32G4xx_HAL_Driver\Src\stm32g4xx_hal_exti.c 0x00000000   Number         0  stm32g4xx_hal_exti.o ABSOLUTE
    ..\Drivers\STM32G4xx_HAL_Driver\Src\stm32g4xx_hal_flash.c 0x00000000   Number         0  stm32g4xx_hal_flash.o ABSOLUTE
    ..\Drivers\STM32G4xx_HAL_Driver\Src\stm32g4xx_hal_flash_ex.c 0x00000000   Number         0  stm32g4xx_hal_flash_ex.o ABSOLUTE
    ..\Drivers\STM32G4xx_HAL_Driver\Src\stm32g4xx_hal_flash_ramfunc.c 0x00000000   Number         0  stm32g4xx_hal_flash_ramfunc.o ABSOLUTE
    ..\Drivers\STM32G4xx_HAL_Driver\Src\stm32g4xx_hal_gpio.c 0x00000000   Number         0  stm32g4xx_hal_gpio.o ABSOLUTE
    ..\Drivers\STM32G4xx_HAL_Driver\Src\stm32g4xx_hal_pcd.c 0x00000000   Number         0  stm32g4xx_hal_pcd.o ABSOLUTE
    ..\Drivers\STM32G4xx_HAL_Driver\Src\stm32g4xx_hal_pcd_ex.c 0x00000000   Number         0  stm32g4xx_hal_pcd_ex.o ABSOLUTE
    ..\Drivers\STM32G4xx_HAL_Driver\Src\stm32g4xx_hal_pwr.c 0x00000000   Number         0  stm32g4xx_hal_pwr.o ABSOLUTE
    ..\Drivers\STM32G4xx_HAL_Driver\Src\stm32g4xx_hal_pwr_ex.c 0x00000000   Number         0  stm32g4xx_hal_pwr_ex.o ABSOLUTE
    ..\Drivers\STM32G4xx_HAL_Driver\Src\stm32g4xx_hal_rcc.c 0x00000000   Number         0  stm32g4xx_hal_rcc.o ABSOLUTE
    ..\Drivers\STM32G4xx_HAL_Driver\Src\stm32g4xx_hal_rcc_ex.c 0x00000000   Number         0  stm32g4xx_hal_rcc_ex.o ABSOLUTE
    ..\Drivers\STM32G4xx_HAL_Driver\Src\stm32g4xx_hal_tim.c 0x00000000   Number         0  stm32g4xx_hal_tim.o ABSOLUTE
    ..\Drivers\STM32G4xx_HAL_Driver\Src\stm32g4xx_hal_tim_ex.c 0x00000000   Number         0  stm32g4xx_hal_tim_ex.o ABSOLUTE
    ..\Drivers\STM32G4xx_HAL_Driver\Src\stm32g4xx_hal_uart.c 0x00000000   Number         0  stm32g4xx_hal_uart.o ABSOLUTE
    ..\Drivers\STM32G4xx_HAL_Driver\Src\stm32g4xx_hal_uart_ex.c 0x00000000   Number         0  stm32g4xx_hal_uart_ex.o ABSOLUTE
    ..\Drivers\STM32G4xx_HAL_Driver\Src\stm32g4xx_ll_usb.c 0x00000000   Number         0  stm32g4xx_ll_usb.o ABSOLUTE
    arm_common_tables.c                      0x00000000   Number         0  arm_common_tables.o ABSOLUTE
    arm_cos_f32.c                            0x00000000   Number         0  arm_cos_f32.o ABSOLUTE
    arm_sin_f32.c                            0x00000000   Number         0  arm_sin_f32.o ABSOLUTE
    dc.s                                     0x00000000   Number         0  dc.o ABSOLUTE
    other_file\DEBUG\debug.c                 0x00000000   Number         0  debug.o ABSOLUTE
    other_file\\DEBUG\\debug.c               0x00000000   Number         0  debug.o ABSOLUTE
    other_file\\bsp\\bsp.c                   0x00000000   Number         0  bsp.o ABSOLUTE
    other_file\\bsp\\bsp_irq.c               0x00000000   Number         0  bsp_irq.o ABSOLUTE
    other_file\\bsp\\cc6920so\\cc6920so.c    0x00000000   Number         0  cc6920so.o ABSOLUTE
    other_file\\foc\\foc_abzenc.c            0x00000000   Number         0  foc_abzenc.o ABSOLUTE
    other_file\\foc\\foc_app.c               0x00000000   Number         0  foc_app.o ABSOLUTE
    other_file\\foc\\foc_current.c           0x00000000   Number         0  foc_current.o ABSOLUTE
    other_file\\foc\\foc_filter.c            0x00000000   Number         0  foc_filter.o ABSOLUTE
    other_file\\foc\\foc_flux.c              0x00000000   Number         0  foc_flux.o ABSOLUTE
    other_file\\foc\\foc_hall.c              0x00000000   Number         0  foc_hall.o ABSOLUTE
    other_file\\foc\\foc_hfi.c               0x00000000   Number         0  foc_hfi.o ABSOLUTE
    other_file\\foc\\foc_hw.c                0x00000000   Number         0  foc_hw.o ABSOLUTE
    other_file\\foc\\foc_math.c              0x00000000   Number         0  foc_math.o ABSOLUTE
    other_file\\foc\\foc_motor.c             0x00000000   Number         0  foc_motor.o ABSOLUTE
    other_file\\foc\\foc_pid.c               0x00000000   Number         0  foc_pid.o ABSOLUTE
    other_file\\foc\\foc_pwm.c               0x00000000   Number         0  foc_pwm.o ABSOLUTE
    other_file\\foc\\foc_sensorless.c        0x00000000   Number         0  foc_sensorless.o ABSOLUTE
    other_file\\foc\\foc_smo.c               0x00000000   Number         0  foc_smo.o ABSOLUTE
    other_file\\foc\\foc_vbus.c              0x00000000   Number         0  foc_vbus.o ABSOLUTE
    other_file\\foc\\foc_vf.c                0x00000000   Number         0  foc_vf.o ABSOLUTE
    other_file\\system_m4\\delay.c           0x00000000   Number         0  delay.o ABSOLUTE
    other_file\\system_m4\\my_usart.c        0x00000000   Number         0  my_usart.o ABSOLUTE
    other_file\\system_m4\\sys.c             0x00000000   Number         0  sys.o ABSOLUTE
    other_file\\usb\\STM32_USB_Device_Library\\Class\\CDC\\Src\\usbd_cdc.c 0x00000000   Number         0  usbd_cdc.o ABSOLUTE
    other_file\\usb\\STM32_USB_Device_Library\\Core\\Src\\usbd_core.c 0x00000000   Number         0  usbd_core.o ABSOLUTE
    other_file\\usb\\STM32_USB_Device_Library\\Core\\Src\\usbd_ctlreq.c 0x00000000   Number         0  usbd_ctlreq.o ABSOLUTE
    other_file\\usb\\STM32_USB_Device_Library\\Core\\Src\\usbd_ioreq.c 0x00000000   Number         0  usbd_ioreq.o ABSOLUTE
    other_file\\usb\\USB_APP\\usb_device.c   0x00000000   Number         0  usb_device.o ABSOLUTE
    other_file\\usb\\USB_APP\\usbd_cdc_if.c  0x00000000   Number         0  usbd_cdc_if.o ABSOLUTE
    other_file\\usb\\USB_APP\\usbd_conf.c    0x00000000   Number         0  usbd_conf.o ABSOLUTE
    other_file\\usb\\USB_APP\\usbd_desc.c    0x00000000   Number         0  usbd_desc.o ABSOLUTE
    other_file\bsp\bsp.c                     0x00000000   Number         0  bsp.o ABSOLUTE
    other_file\bsp\bsp_irq.c                 0x00000000   Number         0  bsp_irq.o ABSOLUTE
    other_file\bsp\cc6920so\cc6920so.c       0x00000000   Number         0  cc6920so.o ABSOLUTE
    other_file\foc\foc_abzenc.c              0x00000000   Number         0  foc_abzenc.o ABSOLUTE
    other_file\foc\foc_app.c                 0x00000000   Number         0  foc_app.o ABSOLUTE
    other_file\foc\foc_current.c             0x00000000   Number         0  foc_current.o ABSOLUTE
    other_file\foc\foc_filter.c              0x00000000   Number         0  foc_filter.o ABSOLUTE
    other_file\foc\foc_flux.c                0x00000000   Number         0  foc_flux.o ABSOLUTE
    other_file\foc\foc_hall.c                0x00000000   Number         0  foc_hall.o ABSOLUTE
    other_file\foc\foc_hfi.c                 0x00000000   Number         0  foc_hfi.o ABSOLUTE
    other_file\foc\foc_hw.c                  0x00000000   Number         0  foc_hw.o ABSOLUTE
    other_file\foc\foc_identify.c            0x00000000   Number         0  foc_identify.o ABSOLUTE
    other_file\foc\foc_math.c                0x00000000   Number         0  foc_math.o ABSOLUTE
    other_file\foc\foc_motor.c               0x00000000   Number         0  foc_motor.o ABSOLUTE
    other_file\foc\foc_pid.c                 0x00000000   Number         0  foc_pid.o ABSOLUTE
    other_file\foc\foc_pwm.c                 0x00000000   Number         0  foc_pwm.o ABSOLUTE
    other_file\foc\foc_sensorless.c          0x00000000   Number         0  foc_sensorless.o ABSOLUTE
    other_file\foc\foc_smo.c                 0x00000000   Number         0  foc_smo.o ABSOLUTE
    other_file\foc\foc_vbus.c                0x00000000   Number         0  foc_vbus.o ABSOLUTE
    other_file\foc\foc_vf.c                  0x00000000   Number         0  foc_vf.o ABSOLUTE
    other_file\system_m4\delay.c             0x00000000   Number         0  delay.o ABSOLUTE
    other_file\system_m4\my_usart.c          0x00000000   Number         0  my_usart.o ABSOLUTE
    other_file\system_m4\sys.c               0x00000000   Number         0  sys.o ABSOLUTE
    other_file\usb\STM32_USB_Device_Library\Class\CDC\Src\usbd_cdc.c 0x00000000   Number         0  usbd_cdc.o ABSOLUTE
    other_file\usb\STM32_USB_Device_Library\Core\Src\usbd_core.c 0x00000000   Number         0  usbd_core.o ABSOLUTE
    other_file\usb\STM32_USB_Device_Library\Core\Src\usbd_ctlreq.c 0x00000000   Number         0  usbd_ctlreq.o ABSOLUTE
    other_file\usb\STM32_USB_Device_Library\Core\Src\usbd_ioreq.c 0x00000000   Number         0  usbd_ioreq.o ABSOLUTE
    other_file\usb\USB_APP\usb_device.c      0x00000000   Number         0  usb_device.o ABSOLUTE
    other_file\usb\USB_APP\usbd_cdc_if.c     0x00000000   Number         0  usbd_cdc_if.o ABSOLUTE
    other_file\usb\USB_APP\usbd_conf.c       0x00000000   Number         0  usbd_conf.o ABSOLUTE
    other_file\usb\USB_APP\usbd_desc.c       0x00000000   Number         0  usbd_desc.o ABSOLUTE
    startup_stm32g473xx.s                    0x00000000   Number         0  startup_stm32g473xx.o ABSOLUTE
    RESET                                    0x08000000   Section      472  startup_stm32g473xx.o(RESET)
    !!!main                                  0x080001d8   Section        8  __main.o(!!!main)
    !!!scatter                               0x080001e0   Section       52  __scatter.o(!!!scatter)
    !!dczerorl2                              0x08000214   Section       90  __dczerorl2.o(!!dczerorl2)
    !!handler_zi                             0x08000270   Section       28  __scatter_zi.o(!!handler_zi)
    .ARM.Collect$$_printf_percent$$00000000  0x0800028c   Section        0  _printf_percent.o(.ARM.Collect$$_printf_percent$$00000000)
    .ARM.Collect$$_printf_percent$$00000009  0x0800028c   Section        6  _printf_d.o(.ARM.Collect$$_printf_percent$$00000009)
    .ARM.Collect$$_printf_percent$$00000017  0x08000292   Section        4  _printf_percent_end.o(.ARM.Collect$$_printf_percent$$00000017)
    .ARM.Collect$$libinit$$00000000          0x08000296   Section        2  libinit.o(.ARM.Collect$$libinit$$00000000)
    .ARM.Collect$$libinit$$00000001          0x08000298   Section        4  libinit2.o(.ARM.Collect$$libinit$$00000001)
    .ARM.Collect$$libinit$$00000004          0x0800029c   Section        0  libinit2.o(.ARM.Collect$$libinit$$00000004)
    .ARM.Collect$$libinit$$0000000A          0x0800029c   Section        0  libinit2.o(.ARM.Collect$$libinit$$0000000A)
    .ARM.Collect$$libinit$$0000000C          0x0800029c   Section        0  libinit2.o(.ARM.Collect$$libinit$$0000000C)
    .ARM.Collect$$libinit$$0000000E          0x0800029c   Section        0  libinit2.o(.ARM.Collect$$libinit$$0000000E)
    .ARM.Collect$$libinit$$00000011          0x0800029c   Section        0  libinit2.o(.ARM.Collect$$libinit$$00000011)
    .ARM.Collect$$libinit$$00000013          0x0800029c   Section        0  libinit2.o(.ARM.Collect$$libinit$$00000013)
    .ARM.Collect$$libinit$$00000015          0x0800029c   Section        0  libinit2.o(.ARM.Collect$$libinit$$00000015)
    .ARM.Collect$$libinit$$00000017          0x0800029c   Section        0  libinit2.o(.ARM.Collect$$libinit$$00000017)
    .ARM.Collect$$libinit$$00000019          0x0800029c   Section        0  libinit2.o(.ARM.Collect$$libinit$$00000019)
    .ARM.Collect$$libinit$$0000001B          0x0800029c   Section        0  libinit2.o(.ARM.Collect$$libinit$$0000001B)
    .ARM.Collect$$libinit$$0000001D          0x0800029c   Section        0  libinit2.o(.ARM.Collect$$libinit$$0000001D)
    .ARM.Collect$$libinit$$0000001F          0x0800029c   Section        0  libinit2.o(.ARM.Collect$$libinit$$0000001F)
    .ARM.Collect$$libinit$$00000021          0x0800029c   Section        0  libinit2.o(.ARM.Collect$$libinit$$00000021)
    .ARM.Collect$$libinit$$00000023          0x0800029c   Section        0  libinit2.o(.ARM.Collect$$libinit$$00000023)
    .ARM.Collect$$libinit$$00000025          0x0800029c   Section        0  libinit2.o(.ARM.Collect$$libinit$$00000025)
    .ARM.Collect$$libinit$$0000002C          0x0800029c   Section        0  libinit2.o(.ARM.Collect$$libinit$$0000002C)
    .ARM.Collect$$libinit$$0000002E          0x0800029c   Section        0  libinit2.o(.ARM.Collect$$libinit$$0000002E)
    .ARM.Collect$$libinit$$00000030          0x0800029c   Section        0  libinit2.o(.ARM.Collect$$libinit$$00000030)
    .ARM.Collect$$libinit$$00000032          0x0800029c   Section        0  libinit2.o(.ARM.Collect$$libinit$$00000032)
    .ARM.Collect$$libinit$$00000033          0x0800029c   Section        2  libinit2.o(.ARM.Collect$$libinit$$00000033)
    .ARM.Collect$$libshutdown$$00000000      0x0800029e   Section        2  libshutdown.o(.ARM.Collect$$libshutdown$$00000000)
    .ARM.Collect$$libshutdown$$00000002      0x080002a0   Section        0  libshutdown2.o(.ARM.Collect$$libshutdown$$00000002)
    .ARM.Collect$$libshutdown$$00000004      0x080002a0   Section        0  libshutdown2.o(.ARM.Collect$$libshutdown$$00000004)
    .ARM.Collect$$libshutdown$$00000007      0x080002a0   Section        0  libshutdown2.o(.ARM.Collect$$libshutdown$$00000007)
    .ARM.Collect$$libshutdown$$0000000A      0x080002a0   Section        0  libshutdown2.o(.ARM.Collect$$libshutdown$$0000000A)
    .ARM.Collect$$libshutdown$$0000000C      0x080002a0   Section        0  libshutdown2.o(.ARM.Collect$$libshutdown$$0000000C)
    .ARM.Collect$$libshutdown$$0000000F      0x080002a0   Section        0  libshutdown2.o(.ARM.Collect$$libshutdown$$0000000F)
    .ARM.Collect$$libshutdown$$00000010      0x080002a0   Section        2  libshutdown2.o(.ARM.Collect$$libshutdown$$00000010)
    .ARM.Collect$$rtentry$$00000000          0x080002a2   Section        0  __rtentry.o(.ARM.Collect$$rtentry$$00000000)
    .ARM.Collect$$rtentry$$00000002          0x080002a2   Section        0  __rtentry2.o(.ARM.Collect$$rtentry$$00000002)
    .ARM.Collect$$rtentry$$00000004          0x080002a2   Section        6  __rtentry4.o(.ARM.Collect$$rtentry$$00000004)
    .ARM.Collect$$rtentry$$00000009          0x080002a8   Section        0  __rtentry2.o(.ARM.Collect$$rtentry$$00000009)
    .ARM.Collect$$rtentry$$0000000A          0x080002a8   Section        4  __rtentry2.o(.ARM.Collect$$rtentry$$0000000A)
    .ARM.Collect$$rtentry$$0000000C          0x080002ac   Section        0  __rtentry2.o(.ARM.Collect$$rtentry$$0000000C)
    .ARM.Collect$$rtentry$$0000000D          0x080002ac   Section        8  __rtentry2.o(.ARM.Collect$$rtentry$$0000000D)
    .ARM.Collect$$rtexit$$00000000           0x080002b4   Section        2  rtexit.o(.ARM.Collect$$rtexit$$00000000)
    .ARM.Collect$$rtexit$$00000002           0x080002b6   Section        0  rtexit2.o(.ARM.Collect$$rtexit$$00000002)
    .ARM.Collect$$rtexit$$00000003           0x080002b6   Section        4  rtexit2.o(.ARM.Collect$$rtexit$$00000003)
    .ARM.Collect$$rtexit$$00000004           0x080002ba   Section        6  rtexit2.o(.ARM.Collect$$rtexit$$00000004)
    .text                                    0x080002c0   Section       60  startup_stm32g473xx.o(.text)
    $v0                                      0x080002c0   Number         0  startup_stm32g473xx.o(.text)
    .text                                    0x080002fc   Section        2  use_no_semi_2.o(.text)
    .text                                    0x080002fe   Section      238  lludivv7m.o(.text)
    .text                                    0x080003ec   Section        0  __2printf.o(.text)
    .text                                    0x08000404   Section        0  _printf_dec.o(.text)
    .text                                    0x0800047c   Section        0  __printf_flags_ss_wp.o(.text)
    .text                                    0x08000604   Section      100  rt_memcpy_w.o(.text)
    .text                                    0x08000668   Section       78  rt_memclr_w.o(.text)
    .text                                    0x080006b6   Section        0  heapauxi.o(.text)
    .text                                    0x080006bc   Section        2  use_no_semi.o(.text)
    .text                                    0x080006be   Section        0  _printf_intcommon.o(.text)
    .text                                    0x08000770   Section        0  _printf_char_common.o(.text)
    _printf_input_char                       0x08000771   Thumb Code    10  _printf_char_common.o(.text)
    .text                                    0x080007a0   Section        0  _printf_char_file.o(.text)
    .text                                    0x080007c4   Section        0  ferror.o(.text)
    .text                                    0x080007cc   Section       74  sys_stackheap_outer.o(.text)
    .text                                    0x08000816   Section        0  exit.o(.text)
    .text                                    0x08000828   Section        8  libspace.o(.text)
    [Anonymous Symbol]                       0x08000830   Section        0  arm_cos_f32.o(.text.arm_cos_f32)
    [Anonymous Symbol]                       0x080008c8   Section        0  arm_sin_f32.o(.text.arm_sin_f32)
    i.ADC1_2_IRQHandler                      0x08000958   Section        0  stm32g4xx_it.o(i.ADC1_2_IRQHandler)
    i.ADC3_IRQHandler                        0x08000974   Section        0  stm32g4xx_it.o(i.ADC3_IRQHandler)
    i.ADC_DMAConvCplt                        0x08000980   Section        0  stm32g4xx_hal_adc.o(i.ADC_DMAConvCplt)
    i.ADC_DMAError                           0x080009e8   Section        0  stm32g4xx_hal_adc.o(i.ADC_DMAError)
    i.ADC_DMAHalfConvCplt                    0x08000a02   Section        0  stm32g4xx_hal_adc.o(i.ADC_DMAHalfConvCplt)
    i.ADC_Disable                            0x08000a0c   Section        0  stm32g4xx_hal_adc.o(i.ADC_Disable)
    i.ADC_Enable                             0x08000a7c   Section        0  stm32g4xx_hal_adc.o(i.ADC_Enable)
    i.BSP_Init                               0x08000b40   Section        0  bsp.o(i.BSP_Init)
    i.BusFault_Handler                       0x08000b78   Section        0  stm32g4xx_it.o(i.BusFault_Handler)
    i.CC6920SO_CalcCur                       0x08000b7c   Section        0  cc6920so.o(i.CC6920SO_CalcCur)
    i.CDC_Control_FS                         0x08000bd0   Section        0  usbd_cdc_if.o(i.CDC_Control_FS)
    CDC_Control_FS                           0x08000bd1   Thumb Code    78  usbd_cdc_if.o(i.CDC_Control_FS)
    i.CDC_DeInit_FS                          0x08000c24   Section        0  usbd_cdc_if.o(i.CDC_DeInit_FS)
    CDC_DeInit_FS                            0x08000c25   Thumb Code     4  usbd_cdc_if.o(i.CDC_DeInit_FS)
    i.CDC_Init_FS                            0x08000c28   Section        0  usbd_cdc_if.o(i.CDC_Init_FS)
    CDC_Init_FS                              0x08000c29   Thumb Code    14  usbd_cdc_if.o(i.CDC_Init_FS)
    i.CDC_Receive_FS                         0x08000c40   Section        0  usbd_cdc_if.o(i.CDC_Receive_FS)
    CDC_Receive_FS                           0x08000c41   Thumb Code    24  usbd_cdc_if.o(i.CDC_Receive_FS)
    i.DMA1_Channel1_IRQHandler               0x08000c5c   Section        0  stm32g4xx_it.o(i.DMA1_Channel1_IRQHandler)
    i.DMA_CalcDMAMUXChannelBaseAndMask       0x08000c68   Section        0  stm32g4xx_hal_dma.o(i.DMA_CalcDMAMUXChannelBaseAndMask)
    DMA_CalcDMAMUXChannelBaseAndMask         0x08000c69   Thumb Code    54  stm32g4xx_hal_dma.o(i.DMA_CalcDMAMUXChannelBaseAndMask)
    i.DMA_CalcDMAMUXRequestGenBaseAndMask    0x08000ca8   Section        0  stm32g4xx_hal_dma.o(i.DMA_CalcDMAMUXRequestGenBaseAndMask)
    DMA_CalcDMAMUXRequestGenBaseAndMask      0x08000ca9   Thumb Code    30  stm32g4xx_hal_dma.o(i.DMA_CalcDMAMUXRequestGenBaseAndMask)
    i.DMA_SetConfig                          0x08000ccc   Section        0  stm32g4xx_hal_dma.o(i.DMA_SetConfig)
    DMA_SetConfig                            0x08000ccd   Thumb Code    62  stm32g4xx_hal_dma.o(i.DMA_SetConfig)
    i.DebugMon_Handler                       0x08000d0a   Section        0  stm32g4xx_it.o(i.DebugMon_Handler)
    i.Debug_Task                             0x08000d0c   Section        0  debug.o(i.Debug_Task)
    i.Error_Handler                          0x08000dcc   Section        0  main.o(i.Error_Handler)
    i.FOC_ABZENC_Angle_Calc                  0x08000dd0   Section        0  foc_abzenc.o(i.FOC_ABZENC_Angle_Calc)
    i.FOC_ABZENC_HW_Dir                      0x08000e34   Section        0  foc_hw.o(i.FOC_ABZENC_HW_Dir)
    i.FOC_ABZENC_HW_GetCount                 0x08000e48   Section        0  foc_hw.o(i.FOC_ABZENC_HW_GetCount)
    i.FOC_ABZENC_HW_IRQHandler               0x08000e54   Section        0  foc_hw.o(i.FOC_ABZENC_HW_IRQHandler)
    i.FOC_ABZENC_HW_Init                     0x08000ea0   Section        0  foc_hw.o(i.FOC_ABZENC_HW_Init)
    i.FOC_ABZENC_Init                        0x08000ec0   Section        0  foc_abzenc.o(i.FOC_ABZENC_Init)
    i.FOC_ABZENC_Speed_Calc_M                0x08000ee0   Section        0  foc_abzenc.o(i.FOC_ABZENC_Speed_Calc_M)
    i.FOC_App_Run                            0x08000f98   Section        0  foc_app.o(i.FOC_App_Run)
    i.FOC_CURRENT_HW_Init                    0x08000fd0   Section        0  foc_hw.o(i.FOC_CURRENT_HW_Init)
    i.FOC_CURRENT_Init                       0x08001008   Section        0  foc_current.o(i.FOC_CURRENT_Init)
    i.FOC_CURRENT_OffsetCalc                 0x08001034   Section        0  foc_current.o(i.FOC_CURRENT_OffsetCalc)
    i.FOC_CURRENT_Update                     0x08001178   Section        0  foc_hw.o(i.FOC_CURRENT_Update)
    i.FOC_Clarke                             0x080011f8   Section        0  foc_math.o(i.FOC_Clarke)
    i.FOC_ERR                                0x08001214   Section        0  foc_math.o(i.FOC_ERR)
    i.FOC_FLUX_Angle_Calc                    0x08001240   Section        0  foc_flux.o(i.FOC_FLUX_Angle_Calc)
    i.FOC_FLUX_Angle_PLL                     0x08001338   Section        0  foc_flux.o(i.FOC_FLUX_Angle_PLL)
    i.FOC_FLUX_Clear                         0x080013e0   Section        0  foc_flux.o(i.FOC_FLUX_Clear)
    i.FOC_FLUX_EFFECTIVE_Angle_Calc          0x080013f8   Section        0  foc_flux.o(i.FOC_FLUX_EFFECTIVE_Angle_Calc)
    i.FOC_FLUX_I_Calc                        0x0800144c   Section        0  foc_flux.o(i.FOC_FLUX_I_Calc)
    i.FOC_FLUX_Init                          0x080014a8   Section        0  foc_flux.o(i.FOC_FLUX_Init)
    i.FOC_FLUX_Speed_Calc                    0x0800152c   Section        0  foc_flux.o(i.FOC_FLUX_Speed_Calc)
    i.FOC_FLUX_V_Calc                        0x080015ac   Section        0  foc_flux.o(i.FOC_FLUX_V_Calc)
    i.FOC_HALL_Angle_Calc                    0x08001664   Section        0  foc_hall.o(i.FOC_HALL_Angle_Calc)
    i.FOC_HALL_HW_IRQ_Handler                0x0800170c   Section        0  foc_hw.o(i.FOC_HALL_HW_IRQ_Handler)
    i.FOC_HALL_Init                          0x08001890   Section        0  foc_hall.o(i.FOC_HALL_Init)
    i.FOC_HFI_Angle_Calc                     0x080019cc   Section        0  foc_hfi.o(i.FOC_HFI_Angle_Calc)
    i.FOC_HFI_Clear                          0x08001a80   Section        0  foc_hfi.o(i.FOC_HFI_Clear)
    i.FOC_HFI_Init                           0x08001a86   Section        0  foc_hfi.o(i.FOC_HFI_Init)
    i.FOC_HFI_Inject                         0x08001ac0   Section        0  foc_hfi.o(i.FOC_HFI_Inject)
    i.FOC_HFI_InjectPolIdent                 0x08001af4   Section        0  foc_hfi.o(i.FOC_HFI_InjectPolIdent)
    i.FOC_HFI_Speed_Calc                     0x08001bc4   Section        0  foc_hfi.o(i.FOC_HFI_Speed_Calc)
    i.FOC_HFI_alphabeta_HF                   0x08001c00   Section        0  foc_hfi.o(i.FOC_HFI_alphabeta_HF)
    i.FOC_HFI_alphabeta_LF                   0x08001c16   Section        0  foc_hfi.o(i.FOC_HFI_alphabeta_LF)
    i.FOC_Hall_Speed_Calc                    0x08001c2c   Section        0  foc_hall.o(i.FOC_Hall_Speed_Calc)
    i.FOC_Init                               0x08001c6c   Section        0  foc_app.o(i.FOC_Init)
    i.FOC_Motor_Init                         0x08001dfc   Section        0  foc_motor.o(i.FOC_Motor_Init)
    i.FOC_Motor_Run                          0x08001e04   Section        0  foc_motor.o(i.FOC_Motor_Run)
    i.FOC_Motor_Speed_Calc                   0x08001ef0   Section        0  foc_motor.o(i.FOC_Motor_Speed_Calc)
    i.FOC_Motor_Speed_Ctrl                   0x08001f24   Section        0  foc_motor.o(i.FOC_Motor_Speed_Ctrl)
    i.FOC_PWM_HW_Init                        0x08001f54   Section        0  foc_hw.o(i.FOC_PWM_HW_Init)
    i.FOC_PWM_HW_ON_OFF                      0x08001f84   Section        0  foc_hw.o(i.FOC_PWM_HW_ON_OFF)
    i.FOC_PWM_Init                           0x08002010   Section        0  foc_pwm.o(i.FOC_PWM_Init)
    i.FOC_PWM_Run                            0x08002030   Section        0  foc_pwm.o(i.FOC_PWM_Run)
    i.FOC_PWM_StartAll                       0x0800207c   Section        0  foc_pwm.o(i.FOC_PWM_StartAll)
    i.FOC_PWM_StopALL                        0x08002090   Section        0  foc_pwm.o(i.FOC_PWM_StopALL)
    i.FOC_Rev_Park                           0x080020a4   Section        0  foc_math.o(i.FOC_Rev_Park)
    i.FOC_SIGN_Judgment                      0x080020e8   Section        0  foc_math.o(i.FOC_SIGN_Judgment)
    i.FOC_SL_DirErr                          0x080020fc   Section        0  foc_sensorless.o(i.FOC_SL_DirErr)
    i.FOC_SL_HFI_SMO_SW                      0x08002198   Section        0  foc_sensorless.o(i.FOC_SL_HFI_SMO_SW)
    i.FOC_SL_RUN                             0x0800229c   Section        0  foc_sensorless.o(i.FOC_SL_RUN)
    i.FOC_SMO_Angle_Calc                     0x08002464   Section        0  foc_smo.o(i.FOC_SMO_Angle_Calc)
    i.FOC_SMO_Clear                          0x0800253c   Section        0  foc_smo.o(i.FOC_SMO_Clear)
    i.FOC_SMO_Init                           0x08002560   Section        0  foc_smo.o(i.FOC_SMO_Init)
    i.FOC_SMO_Speed_Calc                     0x08002584   Section        0  foc_smo.o(i.FOC_SMO_Speed_Calc)
    i.FOC_Sensorless_Init                    0x0800260c   Section        0  foc_sensorless.o(i.FOC_Sensorless_Init)
    i.FOC_Sensorless_Speed_Cale              0x080026ac   Section        0  foc_sensorless.o(i.FOC_Sensorless_Speed_Cale)
    i.FOC_VBUS_Calc                          0x080026fc   Section        0  foc_vbus.o(i.FOC_VBUS_Calc)
    i.FOC_VBUS_HW_Init                       0x0800274c   Section        0  foc_hw.o(i.FOC_VBUS_HW_Init)
    i.FOC_VBUS_Init                          0x0800275c   Section        0  foc_vbus.o(i.FOC_VBUS_Init)
    i.FOC_VBUS_Protect                       0x08002774   Section        0  foc_vbus.o(i.FOC_VBUS_Protect)
    i.FOC_VF_Angle_Calc                      0x080027bc   Section        0  foc_vf.o(i.FOC_VF_Angle_Calc)
    i.FOC_VF_Init                            0x080027ee   Section        0  foc_vf.o(i.FOC_VF_Init)
    i.FOC_VF_Speed_Calc                      0x08002800   Section        0  foc_vf.o(i.FOC_VF_Speed_Calc)
    i.Foc_Park                               0x08002858   Section        0  foc_math.o(i.Foc_Park)
    i.HAL_ADCEx_Calibration_Start            0x0800289c   Section        0  stm32g4xx_hal_adc_ex.o(i.HAL_ADCEx_Calibration_Start)
    i.HAL_ADCEx_EndOfSamplingCallback        0x08002930   Section        0  stm32g4xx_hal_adc_ex.o(i.HAL_ADCEx_EndOfSamplingCallback)
    i.HAL_ADCEx_InjectedConfigChannel        0x08002934   Section        0  stm32g4xx_hal_adc_ex.o(i.HAL_ADCEx_InjectedConfigChannel)
    i.HAL_ADCEx_InjectedConvCpltCallback     0x08002e94   Section        0  foc_hw.o(i.HAL_ADCEx_InjectedConvCpltCallback)
    i.HAL_ADCEx_InjectedGetValue             0x08002ed0   Section        0  stm32g4xx_hal_adc_ex.o(i.HAL_ADCEx_InjectedGetValue)
    i.HAL_ADCEx_InjectedQueueOverflowCallback 0x08002efe   Section        0  stm32g4xx_hal_adc_ex.o(i.HAL_ADCEx_InjectedQueueOverflowCallback)
    i.HAL_ADCEx_InjectedStart_IT             0x08002f00   Section        0  stm32g4xx_hal_adc_ex.o(i.HAL_ADCEx_InjectedStart_IT)
    i.HAL_ADCEx_LevelOutOfWindow2Callback    0x08003058   Section        0  stm32g4xx_hal_adc_ex.o(i.HAL_ADCEx_LevelOutOfWindow2Callback)
    i.HAL_ADCEx_LevelOutOfWindow3Callback    0x0800305a   Section        0  stm32g4xx_hal_adc_ex.o(i.HAL_ADCEx_LevelOutOfWindow3Callback)
    i.HAL_ADCEx_MultiModeConfigChannel       0x0800305c   Section        0  stm32g4xx_hal_adc_ex.o(i.HAL_ADCEx_MultiModeConfigChannel)
    i.HAL_ADC_ConfigChannel                  0x080031bc   Section        0  stm32g4xx_hal_adc.o(i.HAL_ADC_ConfigChannel)
    i.HAL_ADC_ConvCpltCallback               0x08003628   Section        0  foc_hw.o(i.HAL_ADC_ConvCpltCallback)
    i.HAL_ADC_ConvHalfCpltCallback           0x08003640   Section        0  stm32g4xx_hal_adc.o(i.HAL_ADC_ConvHalfCpltCallback)
    i.HAL_ADC_ErrorCallback                  0x08003642   Section        0  stm32g4xx_hal_adc.o(i.HAL_ADC_ErrorCallback)
    i.HAL_ADC_IRQHandler                     0x08003644   Section        0  stm32g4xx_hal_adc.o(i.HAL_ADC_IRQHandler)
    i.HAL_ADC_Init                           0x080038fc   Section        0  stm32g4xx_hal_adc.o(i.HAL_ADC_Init)
    i.HAL_ADC_LevelOutOfWindowCallback       0x08003b2c   Section        0  stm32g4xx_hal_adc.o(i.HAL_ADC_LevelOutOfWindowCallback)
    i.HAL_ADC_MspInit                        0x08003b30   Section        0  adc.o(i.HAL_ADC_MspInit)
    i.HAL_ADC_Start_DMA                      0x08003cf0   Section        0  stm32g4xx_hal_adc.o(i.HAL_ADC_Start_DMA)
    i.HAL_DMA_IRQHandler                     0x08003e1c   Section        0  stm32g4xx_hal_dma.o(i.HAL_DMA_IRQHandler)
    i.HAL_DMA_Init                           0x08003ed8   Section        0  stm32g4xx_hal_dma.o(i.HAL_DMA_Init)
    i.HAL_DMA_Start_IT                       0x08003f98   Section        0  stm32g4xx_hal_dma.o(i.HAL_DMA_Start_IT)
    i.HAL_Delay                              0x08004024   Section        0  stm32g4xx_hal.o(i.HAL_Delay)
    i.HAL_GPIO_Init                          0x08004048   Section        0  stm32g4xx_hal_gpio.o(i.HAL_GPIO_Init)
    i.HAL_GPIO_ReadPin                       0x08004290   Section        0  stm32g4xx_hal_gpio.o(i.HAL_GPIO_ReadPin)
    i.HAL_GPIO_TogglePin                     0x0800429a   Section        0  stm32g4xx_hal_gpio.o(i.HAL_GPIO_TogglePin)
    i.HAL_GPIO_WritePin                      0x080042aa   Section        0  stm32g4xx_hal_gpio.o(i.HAL_GPIO_WritePin)
    i.HAL_GetTick                            0x080042b4   Section        0  stm32g4xx_hal.o(i.HAL_GetTick)
    i.HAL_IncTick                            0x080042c0   Section        0  stm32g4xx_hal.o(i.HAL_IncTick)
    i.HAL_Init                               0x080042d0   Section        0  stm32g4xx_hal.o(i.HAL_Init)
    i.HAL_InitTick                           0x080042f0   Section        0  stm32g4xx_hal.o(i.HAL_InitTick)
    i.HAL_MspInit                            0x08004334   Section        0  stm32g4xx_hal_msp.o(i.HAL_MspInit)
    i.HAL_NVIC_EnableIRQ                     0x08004370   Section        0  stm32g4xx_hal_cortex.o(i.HAL_NVIC_EnableIRQ)
    i.HAL_NVIC_SetPriority                   0x0800438c   Section        0  stm32g4xx_hal_cortex.o(i.HAL_NVIC_SetPriority)
    i.HAL_NVIC_SetPriorityGrouping           0x080043cc   Section        0  stm32g4xx_hal_cortex.o(i.HAL_NVIC_SetPriorityGrouping)
    i.HAL_PCDEx_ActivateLPM                  0x080043f0   Section        0  stm32g4xx_hal_pcd_ex.o(i.HAL_PCDEx_ActivateLPM)
    i.HAL_PCDEx_LPM_Callback                 0x08004414   Section        0  stm32g4xx_hal_pcd_ex.o(i.HAL_PCDEx_LPM_Callback)
    i.HAL_PCDEx_PMAConfig                    0x08004416   Section        0  stm32g4xx_hal_pcd_ex.o(i.HAL_PCDEx_PMAConfig)
    i.HAL_PCD_DataInStageCallback            0x08004452   Section        0  usbd_conf.o(i.HAL_PCD_DataInStageCallback)
    i.HAL_PCD_DataOutStageCallback           0x08004464   Section        0  usbd_conf.o(i.HAL_PCD_DataOutStageCallback)
    i.HAL_PCD_EP_Close                       0x08004478   Section        0  stm32g4xx_hal_pcd.o(i.HAL_PCD_EP_Close)
    i.HAL_PCD_EP_ClrStall                    0x080044c2   Section        0  stm32g4xx_hal_pcd.o(i.HAL_PCD_EP_ClrStall)
    i.HAL_PCD_EP_DB_Receive                  0x0800451c   Section        0  stm32g4xx_hal_pcd.o(i.HAL_PCD_EP_DB_Receive)
    HAL_PCD_EP_DB_Receive                    0x0800451d   Thumb Code   220  stm32g4xx_hal_pcd.o(i.HAL_PCD_EP_DB_Receive)
    i.HAL_PCD_EP_DB_Transmit                 0x080045f8   Section        0  stm32g4xx_hal_pcd.o(i.HAL_PCD_EP_DB_Transmit)
    HAL_PCD_EP_DB_Transmit                   0x080045f9   Thumb Code   832  stm32g4xx_hal_pcd.o(i.HAL_PCD_EP_DB_Transmit)
    i.HAL_PCD_EP_GetRxCount                  0x08004938   Section        0  stm32g4xx_hal_pcd.o(i.HAL_PCD_EP_GetRxCount)
    i.HAL_PCD_EP_Open                        0x0800494a   Section        0  stm32g4xx_hal_pcd.o(i.HAL_PCD_EP_Open)
    i.HAL_PCD_EP_Receive                     0x080049a2   Section        0  stm32g4xx_hal_pcd.o(i.HAL_PCD_EP_Receive)
    i.HAL_PCD_EP_SetStall                    0x080049d0   Section        0  stm32g4xx_hal_pcd.o(i.HAL_PCD_EP_SetStall)
    i.HAL_PCD_EP_Transmit                    0x08004a2e   Section        0  stm32g4xx_hal_pcd.o(i.HAL_PCD_EP_Transmit)
    i.HAL_PCD_IRQHandler                     0x08004a5c   Section        0  stm32g4xx_hal_pcd.o(i.HAL_PCD_IRQHandler)
    i.HAL_PCD_Init                           0x08004ba8   Section        0  stm32g4xx_hal_pcd.o(i.HAL_PCD_Init)
    i.HAL_PCD_MspInit                        0x08004c44   Section        0  usb.o(i.HAL_PCD_MspInit)
    i.HAL_PCD_ResetCallback                  0x08004c9c   Section        0  usbd_conf.o(i.HAL_PCD_ResetCallback)
    i.HAL_PCD_ResumeCallback                 0x08004d00   Section        0  usbd_conf.o(i.HAL_PCD_ResumeCallback)
    i.HAL_PCD_SOFCallback                    0x08004d40   Section        0  usbd_conf.o(i.HAL_PCD_SOFCallback)
    i.HAL_PCD_SetAddress                     0x08004d48   Section        0  stm32g4xx_hal_pcd.o(i.HAL_PCD_SetAddress)
    i.HAL_PCD_SetupStageCallback             0x08004d6e   Section        0  usbd_conf.o(i.HAL_PCD_SetupStageCallback)
    i.HAL_PCD_Start                          0x08004d7c   Section        0  stm32g4xx_hal_pcd.o(i.HAL_PCD_Start)
    i.HAL_PCD_SuspendCallback                0x08004da8   Section        0  usbd_conf.o(i.HAL_PCD_SuspendCallback)
    i.HAL_PWREx_ControlVoltageScaling        0x08004df8   Section        0  stm32g4xx_hal_pwr_ex.o(i.HAL_PWREx_ControlVoltageScaling)
    i.HAL_PWREx_DisableUCPDDeadBattery       0x08004eb4   Section        0  stm32g4xx_hal_pwr_ex.o(i.HAL_PWREx_DisableUCPDDeadBattery)
    i.HAL_RCCEx_CRSConfig                    0x08004ec4   Section        0  stm32g4xx_hal_rcc_ex.o(i.HAL_RCCEx_CRSConfig)
    i.HAL_RCCEx_PeriphCLKConfig              0x08004f10   Section        0  stm32g4xx_hal_rcc_ex.o(i.HAL_RCCEx_PeriphCLKConfig)
    i.HAL_RCC_ClockConfig                    0x08005210   Section        0  stm32g4xx_hal_rcc.o(i.HAL_RCC_ClockConfig)
    i.HAL_RCC_GetPCLK1Freq                   0x080053ec   Section        0  stm32g4xx_hal_rcc.o(i.HAL_RCC_GetPCLK1Freq)
    i.HAL_RCC_GetPCLK2Freq                   0x08005410   Section        0  stm32g4xx_hal_rcc.o(i.HAL_RCC_GetPCLK2Freq)
    i.HAL_RCC_GetSysClockFreq                0x08005434   Section        0  stm32g4xx_hal_rcc.o(i.HAL_RCC_GetSysClockFreq)
    i.HAL_RCC_OscConfig                      0x080054a4   Section        0  stm32g4xx_hal_rcc.o(i.HAL_RCC_OscConfig)
    i.HAL_SYSCFG_DisableVREFBUF              0x080058a8   Section        0  stm32g4xx_hal.o(i.HAL_SYSCFG_DisableVREFBUF)
    i.HAL_SYSCFG_VREFBUF_HighImpedanceConfig 0x080058b8   Section        0  stm32g4xx_hal.o(i.HAL_SYSCFG_VREFBUF_HighImpedanceConfig)
    i.HAL_SYSTICK_CLKSourceConfig            0x080058cc   Section        0  stm32g4xx_hal_cortex.o(i.HAL_SYSTICK_CLKSourceConfig)
    i.HAL_SYSTICK_Config                     0x080058e4   Section        0  stm32g4xx_hal_cortex.o(i.HAL_SYSTICK_Config)
    i.HAL_TIMEx_Break2Callback               0x0800590c   Section        0  stm32g4xx_hal_tim_ex.o(i.HAL_TIMEx_Break2Callback)
    i.HAL_TIMEx_BreakCallback                0x0800590e   Section        0  stm32g4xx_hal_tim_ex.o(i.HAL_TIMEx_BreakCallback)
    i.HAL_TIMEx_CommutCallback               0x08005910   Section        0  stm32g4xx_hal_tim_ex.o(i.HAL_TIMEx_CommutCallback)
    i.HAL_TIMEx_ConfigBreakDeadTime          0x08005914   Section        0  stm32g4xx_hal_tim_ex.o(i.HAL_TIMEx_ConfigBreakDeadTime)
    i.HAL_TIMEx_DirectionChangeCallback      0x080059bc   Section        0  stm32g4xx_hal_tim_ex.o(i.HAL_TIMEx_DirectionChangeCallback)
    i.HAL_TIMEx_EncoderIndexCallback         0x080059be   Section        0  stm32g4xx_hal_tim_ex.o(i.HAL_TIMEx_EncoderIndexCallback)
    i.HAL_TIMEx_HallSensor_Init              0x080059c0   Section        0  stm32g4xx_hal_tim_ex.o(i.HAL_TIMEx_HallSensor_Init)
    i.HAL_TIMEx_HallSensor_MspInit           0x08005a9c   Section        0  tim.o(i.HAL_TIMEx_HallSensor_MspInit)
    i.HAL_TIMEx_IndexErrorCallback           0x08005b0c   Section        0  stm32g4xx_hal_tim_ex.o(i.HAL_TIMEx_IndexErrorCallback)
    i.HAL_TIMEx_MasterConfigSynchronization  0x08005b10   Section        0  stm32g4xx_hal_tim_ex.o(i.HAL_TIMEx_MasterConfigSynchronization)
    i.HAL_TIMEx_PWMN_Start                   0x08005bc8   Section        0  stm32g4xx_hal_tim_ex.o(i.HAL_TIMEx_PWMN_Start)
    i.HAL_TIMEx_PWMN_Stop                    0x08005c94   Section        0  stm32g4xx_hal_tim_ex.o(i.HAL_TIMEx_PWMN_Stop)
    i.HAL_TIMEx_TransitionErrorCallback      0x08005cfc   Section        0  stm32g4xx_hal_tim_ex.o(i.HAL_TIMEx_TransitionErrorCallback)
    i.HAL_TIM_Base_Init                      0x08005cfe   Section        0  stm32g4xx_hal_tim.o(i.HAL_TIM_Base_Init)
    i.HAL_TIM_Base_MspInit                   0x08005d60   Section        0  tim.o(i.HAL_TIM_Base_MspInit)
    i.HAL_TIM_Base_Start_IT                  0x08005d9c   Section        0  stm32g4xx_hal_tim.o(i.HAL_TIM_Base_Start_IT)
    i.HAL_TIM_Encoder_Init                   0x08005e28   Section        0  stm32g4xx_hal_tim.o(i.HAL_TIM_Encoder_Init)
    i.HAL_TIM_Encoder_MspInit                0x08005ed0   Section        0  tim.o(i.HAL_TIM_Encoder_MspInit)
    i.HAL_TIM_Encoder_Start                  0x08005f30   Section        0  stm32g4xx_hal_tim.o(i.HAL_TIM_Encoder_Start)
    i.HAL_TIM_IC_CaptureCallback             0x08005fc0   Section        0  foc_hw.o(i.HAL_TIM_IC_CaptureCallback)
    i.HAL_TIM_IC_ConfigChannel               0x08005ff4   Section        0  stm32g4xx_hal_tim.o(i.HAL_TIM_IC_ConfigChannel)
    i.HAL_TIM_IC_Init                        0x08006118   Section        0  stm32g4xx_hal_tim.o(i.HAL_TIM_IC_Init)
    i.HAL_TIM_IC_MspInit                     0x0800617c   Section        0  tim.o(i.HAL_TIM_IC_MspInit)
    i.HAL_TIM_IC_Start_IT                    0x080061ec   Section        0  stm32g4xx_hal_tim.o(i.HAL_TIM_IC_Start_IT)
    i.HAL_TIM_IRQHandler                     0x0800632c   Section        0  stm32g4xx_hal_tim.o(i.HAL_TIM_IRQHandler)
    i.HAL_TIM_MspPostInit                    0x080064d0   Section        0  tim.o(i.HAL_TIM_MspPostInit)
    i.HAL_TIM_OC_DelayElapsedCallback        0x08006564   Section        0  foc_hw.o(i.HAL_TIM_OC_DelayElapsedCallback)
    i.HAL_TIM_OC_Start_IT                    0x08006568   Section        0  stm32g4xx_hal_tim.o(i.HAL_TIM_OC_Start_IT)
    i.HAL_TIM_OC_Stop_IT                     0x080066a8   Section        0  stm32g4xx_hal_tim.o(i.HAL_TIM_OC_Stop_IT)
    i.HAL_TIM_PWM_ConfigChannel              0x080067a0   Section        0  stm32g4xx_hal_tim.o(i.HAL_TIM_PWM_ConfigChannel)
    i.HAL_TIM_PWM_Init                       0x080068c4   Section        0  stm32g4xx_hal_tim.o(i.HAL_TIM_PWM_Init)
    i.HAL_TIM_PWM_MspInit                    0x08006928   Section        0  tim.o(i.HAL_TIM_PWM_MspInit)
    i.HAL_TIM_PWM_PulseFinishedCallback      0x08006964   Section        0  stm32g4xx_hal_tim.o(i.HAL_TIM_PWM_PulseFinishedCallback)
    i.HAL_TIM_PWM_Start                      0x08006968   Section        0  stm32g4xx_hal_tim.o(i.HAL_TIM_PWM_Start)
    i.HAL_TIM_PWM_Stop                       0x08006a7c   Section        0  stm32g4xx_hal_tim.o(i.HAL_TIM_PWM_Stop)
    i.HAL_TIM_PeriodElapsedCallback          0x08006b34   Section        0  foc_hw.o(i.HAL_TIM_PeriodElapsedCallback)
    i.HAL_TIM_TriggerCallback                0x08006b6c   Section        0  stm32g4xx_hal_tim.o(i.HAL_TIM_TriggerCallback)
    i.HAL_UARTEx_DisableFifoMode             0x08006b6e   Section        0  stm32g4xx_hal_uart_ex.o(i.HAL_UARTEx_DisableFifoMode)
    i.HAL_UARTEx_SetRxFifoThreshold          0x08006bac   Section        0  stm32g4xx_hal_uart_ex.o(i.HAL_UARTEx_SetRxFifoThreshold)
    i.HAL_UARTEx_SetTxFifoThreshold          0x08006bf8   Section        0  stm32g4xx_hal_uart_ex.o(i.HAL_UARTEx_SetTxFifoThreshold)
    i.HAL_UART_Init                          0x08006c44   Section        0  stm32g4xx_hal_uart.o(i.HAL_UART_Init)
    i.HAL_UART_MspInit                       0x08006cb0   Section        0  usart.o(i.HAL_UART_MspInit)
    i.Hall_Parameter_Calculate               0x08006d2c   Section        0  foc_hall.o(i.Hall_Parameter_Calculate)
    i.Hall_Parameter_Debug                   0x08006d2e   Section        0  foc_hall.o(i.Hall_Parameter_Debug)
    i.Hall_SectorComp_Caculate               0x08006d30   Section        0  foc_hall.o(i.Hall_SectorComp_Caculate)
    i.HardFault_Handler                      0x08006d66   Section        0  stm32g4xx_it.o(i.HardFault_Handler)
    i.IntToUnicode                           0x08006d68   Section        0  usbd_desc.o(i.IntToUnicode)
    IntToUnicode                             0x08006d69   Thumb Code    56  usbd_desc.o(i.IntToUnicode)
    i.LL_ADC_GetOffsetChannel                0x08006da0   Section        0  stm32g4xx_hal_adc.o(i.LL_ADC_GetOffsetChannel)
    LL_ADC_GetOffsetChannel                  0x08006da1   Thumb Code    12  stm32g4xx_hal_adc.o(i.LL_ADC_GetOffsetChannel)
    i.LL_ADC_GetOffsetChannel                0x08006dac   Section        0  stm32g4xx_hal_adc_ex.o(i.LL_ADC_GetOffsetChannel)
    LL_ADC_GetOffsetChannel                  0x08006dad   Thumb Code    12  stm32g4xx_hal_adc_ex.o(i.LL_ADC_GetOffsetChannel)
    i.LL_ADC_INJ_IsConversionOngoing         0x08006db8   Section        0  stm32g4xx_hal_adc.o(i.LL_ADC_INJ_IsConversionOngoing)
    LL_ADC_INJ_IsConversionOngoing           0x08006db9   Thumb Code     8  stm32g4xx_hal_adc.o(i.LL_ADC_INJ_IsConversionOngoing)
    i.LL_ADC_INJ_IsConversionOngoing         0x08006dc0   Section        0  stm32g4xx_hal_adc_ex.o(i.LL_ADC_INJ_IsConversionOngoing)
    LL_ADC_INJ_IsConversionOngoing           0x08006dc1   Thumb Code     8  stm32g4xx_hal_adc_ex.o(i.LL_ADC_INJ_IsConversionOngoing)
    i.LL_ADC_REG_IsConversionOngoing         0x08006dc8   Section        0  stm32g4xx_hal_adc.o(i.LL_ADC_REG_IsConversionOngoing)
    LL_ADC_REG_IsConversionOngoing           0x08006dc9   Thumb Code     8  stm32g4xx_hal_adc.o(i.LL_ADC_REG_IsConversionOngoing)
    i.LL_ADC_REG_IsConversionOngoing         0x08006dd0   Section        0  stm32g4xx_hal_adc_ex.o(i.LL_ADC_REG_IsConversionOngoing)
    LL_ADC_REG_IsConversionOngoing           0x08006dd1   Thumb Code     8  stm32g4xx_hal_adc_ex.o(i.LL_ADC_REG_IsConversionOngoing)
    i.LL_ADC_REG_IsTriggerSourceSWStart      0x08006dd8   Section        0  stm32g4xx_hal_adc.o(i.LL_ADC_REG_IsTriggerSourceSWStart)
    LL_ADC_REG_IsTriggerSourceSWStart        0x08006dd9   Thumb Code    16  stm32g4xx_hal_adc.o(i.LL_ADC_REG_IsTriggerSourceSWStart)
    i.LL_ADC_SetChannelSamplingTime          0x08006de8   Section        0  stm32g4xx_hal_adc.o(i.LL_ADC_SetChannelSamplingTime)
    LL_ADC_SetChannelSamplingTime            0x08006de9   Thumb Code    30  stm32g4xx_hal_adc.o(i.LL_ADC_SetChannelSamplingTime)
    i.LL_ADC_SetChannelSamplingTime          0x08006e06   Section        0  stm32g4xx_hal_adc_ex.o(i.LL_ADC_SetChannelSamplingTime)
    LL_ADC_SetChannelSamplingTime            0x08006e07   Thumb Code    30  stm32g4xx_hal_adc_ex.o(i.LL_ADC_SetChannelSamplingTime)
    i.LL_ADC_SetOffsetState                  0x08006e24   Section        0  stm32g4xx_hal_adc.o(i.LL_ADC_SetOffsetState)
    LL_ADC_SetOffsetState                    0x08006e25   Thumb Code    16  stm32g4xx_hal_adc.o(i.LL_ADC_SetOffsetState)
    i.LL_ADC_SetOffsetState                  0x08006e34   Section        0  stm32g4xx_hal_adc_ex.o(i.LL_ADC_SetOffsetState)
    LL_ADC_SetOffsetState                    0x08006e35   Thumb Code    16  stm32g4xx_hal_adc_ex.o(i.LL_ADC_SetOffsetState)
    i.Limit_Angle                            0x08006e44   Section        0  foc_math.o(i.Limit_Angle)
    i.MX_ADC1_Init                           0x08006e84   Section        0  adc.o(i.MX_ADC1_Init)
    i.MX_ADC2_Init                           0x08006f68   Section        0  adc.o(i.MX_ADC2_Init)
    i.MX_ADC3_Init                           0x08007034   Section        0  adc.o(i.MX_ADC3_Init)
    i.MX_DMA_Init                            0x08007118   Section        0  dma.o(i.MX_DMA_Init)
    i.MX_GPIO_Init                           0x08007154   Section        0  gpio.o(i.MX_GPIO_Init)
    i.MX_TIM1_Init                           0x080071c0   Section        0  tim.o(i.MX_TIM1_Init)
    i.MX_TIM2_Init                           0x080072cc   Section        0  tim.o(i.MX_TIM2_Init)
    i.MX_TIM3_Init                           0x08007338   Section        0  tim.o(i.MX_TIM3_Init)
    i.MX_TIM5_Init                           0x080073a8   Section        0  tim.o(i.MX_TIM5_Init)
    i.MX_TIM6_Init                           0x08007404   Section        0  tim.o(i.MX_TIM6_Init)
    i.MX_USART1_UART_Init                    0x0800744c   Section        0  usart.o(i.MX_USART1_UART_Init)
    i.MX_USB_Device_Init                     0x080074b4   Section        0  usb_device.o(i.MX_USB_Device_Init)
    i.MX_USB_PCD_Init                        0x080074f0   Section        0  usb.o(i.MX_USB_PCD_Init)
    i.MemManage_Handler                      0x08007528   Section        0  stm32g4xx_it.o(i.MemManage_Handler)
    i.Motor_ABZ_ENC_CALIB                    0x0800752c   Section        0  foc_motor.o(i.Motor_ABZ_ENC_CALIB)
    i.Motor_ABZ_ENC_RUN                      0x08007590   Section        0  foc_motor.o(i.Motor_ABZ_ENC_RUN)
    i.Motor_HALL_RUN                         0x08007658   Section        0  foc_motor.o(i.Motor_HALL_RUN)
    i.Motor_Run_Open                         0x08007720   Section        0  foc_motor.o(i.Motor_Run_Open)
    i.Motor_SL_RUN                           0x080077a8   Section        0  foc_motor.o(i.Motor_SL_RUN)
    i.Move_Filter_Clear                      0x0800794c   Section        0  foc_filter.o(i.Move_Filter_Clear)
    i.Move_Filter_Init                       0x0800797c   Section        0  foc_filter.o(i.Move_Filter_Init)
    i.Move_Filter_calculate                  0x080079a0   Section        0  foc_filter.o(i.Move_Filter_calculate)
    i.Move_Filter_fill                       0x080079e0   Section        0  foc_filter.o(i.Move_Filter_fill)
    i.NMI_Handler                            0x08007a2a   Section        0  stm32g4xx_it.o(i.NMI_Handler)
    i.PCD_EP_ISR_Handler                     0x08007a2c   Section        0  stm32g4xx_hal_pcd.o(i.PCD_EP_ISR_Handler)
    PCD_EP_ISR_Handler                       0x08007a2d   Thumb Code   918  stm32g4xx_hal_pcd.o(i.PCD_EP_ISR_Handler)
    i.PID_Clear                              0x08007dc4   Section        0  foc_pid.o(i.PID_Clear)
    i.PID_Init                               0x08007e00   Section        0  foc_pid.o(i.PID_Init)
    i.PID_Position_ctrl                      0x08007e2c   Section        0  foc_pid.o(i.PID_Position_ctrl)
    i.PLL_Cale_HFI                           0x0800808c   Section        0  foc_filter.o(i.PLL_Cale_HFI)
    i.PLL_Cale_SMO                           0x08008134   Section        0  foc_filter.o(i.PLL_Cale_SMO)
    i.PLL_Clear                              0x080081e0   Section        0  foc_filter.o(i.PLL_Clear)
    i.PLL_Init                               0x08008204   Section        0  foc_filter.o(i.PLL_Init)
    i.PendSV_Handler                         0x08008212   Section        0  stm32g4xx_it.o(i.PendSV_Handler)
    i.SVC_Handler                            0x08008214   Section        0  stm32g4xx_it.o(i.SVC_Handler)
    i.SWAPBYTE                               0x08008216   Section        0  usbd_ctlreq.o(i.SWAPBYTE)
    SWAPBYTE                                 0x08008217   Thumb Code    10  usbd_ctlreq.o(i.SWAPBYTE)
    i.Sat                                    0x08008220   Section        0  foc_smo.o(i.Sat)
    Sat                                      0x08008221   Thumb Code    46  foc_smo.o(i.Sat)
    i.Sector_Judgment                        0x08008250   Section        0  foc_pwm.o(i.Sector_Judgment)
    Sector_Judgment                          0x08008251   Thumb Code   116  foc_pwm.o(i.Sector_Judgment)
    i.SysTick_Handler                        0x080082c8   Section        0  stm32g4xx_it.o(i.SysTick_Handler)
    i.SystemClock_Config                     0x080082f4   Section        0  main.o(i.SystemClock_Config)
    i.SystemInit                             0x08008364   Section        0  system_stm32g4xx.o(i.SystemInit)
    i.TIM1_UP_TIM16_IRQHandler               0x08008374   Section        0  stm32g4xx_it.o(i.TIM1_UP_TIM16_IRQHandler)
    i.TIM2_IRQHandler                        0x08008380   Section        0  stm32g4xx_it.o(i.TIM2_IRQHandler)
    i.TIM5_IRQHandler                        0x0800838c   Section        0  stm32g4xx_it.o(i.TIM5_IRQHandler)
    i.TIM6_DAC_IRQHandler                    0x08008398   Section        0  stm32g4xx_it.o(i.TIM6_DAC_IRQHandler)
    i.TIM_Base_SetConfig                     0x080083a4   Section        0  stm32g4xx_hal_tim.o(i.TIM_Base_SetConfig)
    i.TIM_CCxChannelCmd                      0x08008488   Section        0  stm32g4xx_hal_tim.o(i.TIM_CCxChannelCmd)
    i.TIM_CCxNChannelCmd                     0x080084a2   Section        0  stm32g4xx_hal_tim_ex.o(i.TIM_CCxNChannelCmd)
    TIM_CCxNChannelCmd                       0x080084a3   Thumb Code    26  stm32g4xx_hal_tim_ex.o(i.TIM_CCxNChannelCmd)
    i.TIM_OC1_SetConfig                      0x080084bc   Section        0  stm32g4xx_hal_tim.o(i.TIM_OC1_SetConfig)
    TIM_OC1_SetConfig                        0x080084bd   Thumb Code   144  stm32g4xx_hal_tim.o(i.TIM_OC1_SetConfig)
    i.TIM_OC2_SetConfig                      0x08008568   Section        0  stm32g4xx_hal_tim.o(i.TIM_OC2_SetConfig)
    i.TIM_OC3_SetConfig                      0x08008608   Section        0  stm32g4xx_hal_tim.o(i.TIM_OC3_SetConfig)
    TIM_OC3_SetConfig                        0x08008609   Thumb Code   130  stm32g4xx_hal_tim.o(i.TIM_OC3_SetConfig)
    i.TIM_OC4_SetConfig                      0x080086a8   Section        0  stm32g4xx_hal_tim.o(i.TIM_OC4_SetConfig)
    TIM_OC4_SetConfig                        0x080086a9   Thumb Code   132  stm32g4xx_hal_tim.o(i.TIM_OC4_SetConfig)
    i.TIM_OC5_SetConfig                      0x08008748   Section        0  stm32g4xx_hal_tim.o(i.TIM_OC5_SetConfig)
    TIM_OC5_SetConfig                        0x08008749   Thumb Code    92  stm32g4xx_hal_tim.o(i.TIM_OC5_SetConfig)
    i.TIM_OC6_SetConfig                      0x080087c0   Section        0  stm32g4xx_hal_tim.o(i.TIM_OC6_SetConfig)
    TIM_OC6_SetConfig                        0x080087c1   Thumb Code    94  stm32g4xx_hal_tim.o(i.TIM_OC6_SetConfig)
    i.TIM_TI1_SetConfig                      0x0800883c   Section        0  stm32g4xx_hal_tim.o(i.TIM_TI1_SetConfig)
    i.TIM_TI2_SetConfig                      0x080088bc   Section        0  stm32g4xx_hal_tim.o(i.TIM_TI2_SetConfig)
    TIM_TI2_SetConfig                        0x080088bd   Thumb Code    54  stm32g4xx_hal_tim.o(i.TIM_TI2_SetConfig)
    i.UARTEx_SetNbDataToProcess              0x080088f4   Section        0  stm32g4xx_hal_uart_ex.o(i.UARTEx_SetNbDataToProcess)
    UARTEx_SetNbDataToProcess                0x080088f5   Thumb Code    62  stm32g4xx_hal_uart_ex.o(i.UARTEx_SetNbDataToProcess)
    i.UART_AdvFeatureConfig                  0x08008938   Section        0  stm32g4xx_hal_uart.o(i.UART_AdvFeatureConfig)
    i.UART_CheckIdleState                    0x08008a00   Section        0  stm32g4xx_hal_uart.o(i.UART_CheckIdleState)
    i.UART_EndRxTransfer                     0x08008aac   Section        0  stm32g4xx_hal_uart.o(i.UART_EndRxTransfer)
    UART_EndRxTransfer                       0x08008aad   Thumb Code    78  stm32g4xx_hal_uart.o(i.UART_EndRxTransfer)
    i.UART_SetConfig                         0x08008b00   Section        0  stm32g4xx_hal_uart.o(i.UART_SetConfig)
    i.UART_WaitOnFlagUntilTimeout            0x08008d98   Section        0  stm32g4xx_hal_uart.o(i.UART_WaitOnFlagUntilTimeout)
    i.USBD_CDC_ConfigStrDescriptor           0x08008e2c   Section        0  usbd_desc.o(i.USBD_CDC_ConfigStrDescriptor)
    i.USBD_CDC_DataIn                        0x08008e4c   Section        0  usbd_cdc.o(i.USBD_CDC_DataIn)
    USBD_CDC_DataIn                          0x08008e4d   Thumb Code    94  usbd_cdc.o(i.USBD_CDC_DataIn)
    i.USBD_CDC_DataOut                       0x08008eaa   Section        0  usbd_cdc.o(i.USBD_CDC_DataOut)
    USBD_CDC_DataOut                         0x08008eab   Thumb Code    42  usbd_cdc.o(i.USBD_CDC_DataOut)
    i.USBD_CDC_DeInit                        0x08008ed4   Section        0  usbd_cdc.o(i.USBD_CDC_DeInit)
    USBD_CDC_DeInit                          0x08008ed5   Thumb Code    64  usbd_cdc.o(i.USBD_CDC_DeInit)
    i.USBD_CDC_DeviceDescriptor              0x08008f14   Section        0  usbd_desc.o(i.USBD_CDC_DeviceDescriptor)
    i.USBD_CDC_EP0_RxReady                   0x08008f20   Section        0  usbd_cdc.o(i.USBD_CDC_EP0_RxReady)
    USBD_CDC_EP0_RxReady                     0x08008f21   Thumb Code    46  usbd_cdc.o(i.USBD_CDC_EP0_RxReady)
    i.USBD_CDC_GetDeviceQualifierDescriptor  0x08008f50   Section        0  usbd_cdc.o(i.USBD_CDC_GetDeviceQualifierDescriptor)
    i.USBD_CDC_GetFSCfgDesc                  0x08008f5c   Section        0  usbd_cdc.o(i.USBD_CDC_GetFSCfgDesc)
    USBD_CDC_GetFSCfgDesc                    0x08008f5d   Thumb Code     8  usbd_cdc.o(i.USBD_CDC_GetFSCfgDesc)
    i.USBD_CDC_GetHSCfgDesc                  0x08008f68   Section        0  usbd_cdc.o(i.USBD_CDC_GetHSCfgDesc)
    USBD_CDC_GetHSCfgDesc                    0x08008f69   Thumb Code     8  usbd_cdc.o(i.USBD_CDC_GetHSCfgDesc)
    i.USBD_CDC_GetOtherSpeedCfgDesc          0x08008f74   Section        0  usbd_cdc.o(i.USBD_CDC_GetOtherSpeedCfgDesc)
    USBD_CDC_GetOtherSpeedCfgDesc            0x08008f75   Thumb Code     8  usbd_cdc.o(i.USBD_CDC_GetOtherSpeedCfgDesc)
    i.USBD_CDC_Init                          0x08008f80   Section        0  usbd_cdc.o(i.USBD_CDC_Init)
    USBD_CDC_Init                            0x08008f81   Thumb Code   138  usbd_cdc.o(i.USBD_CDC_Init)
    i.USBD_CDC_InterfaceStrDescriptor        0x08009010   Section        0  usbd_desc.o(i.USBD_CDC_InterfaceStrDescriptor)
    i.USBD_CDC_LangIDStrDescriptor           0x08009034   Section        0  usbd_desc.o(i.USBD_CDC_LangIDStrDescriptor)
    i.USBD_CDC_ManufacturerStrDescriptor     0x08009040   Section        0  usbd_desc.o(i.USBD_CDC_ManufacturerStrDescriptor)
    i.USBD_CDC_ProductStrDescriptor          0x08009068   Section        0  usbd_desc.o(i.USBD_CDC_ProductStrDescriptor)
    i.USBD_CDC_ReceivePacket                 0x080090a0   Section        0  usbd_cdc.o(i.USBD_CDC_ReceivePacket)
    i.USBD_CDC_RegisterInterface             0x080090c8   Section        0  usbd_cdc.o(i.USBD_CDC_RegisterInterface)
    i.USBD_CDC_SerialStrDescriptor           0x080090d8   Section        0  usbd_desc.o(i.USBD_CDC_SerialStrDescriptor)
    i.USBD_CDC_SetRxBuffer                   0x08009110   Section        0  usbd_cdc.o(i.USBD_CDC_SetRxBuffer)
    i.USBD_CDC_SetTxBuffer                   0x08009122   Section        0  usbd_cdc.o(i.USBD_CDC_SetTxBuffer)
    i.USBD_CDC_Setup                         0x08009138   Section        0  usbd_cdc.o(i.USBD_CDC_Setup)
    USBD_CDC_Setup                           0x08009139   Thumb Code   190  usbd_cdc.o(i.USBD_CDC_Setup)
    i.USBD_CDC_TransmitPacket                0x080091f6   Section        0  usbd_cdc.o(i.USBD_CDC_TransmitPacket)
    i.USBD_Clock_Config                      0x0800922c   Section        0  usb_device.o(i.USBD_Clock_Config)
    i.USBD_ClrClassConfig                    0x08009288   Section        0  usbd_core.o(i.USBD_ClrClassConfig)
    i.USBD_CtlContinueRx                     0x08009298   Section        0  usbd_ioreq.o(i.USBD_CtlContinueRx)
    i.USBD_CtlContinueSendData               0x080092a8   Section        0  usbd_ioreq.o(i.USBD_CtlContinueSendData)
    i.USBD_CtlError                          0x080092b8   Section        0  usbd_ctlreq.o(i.USBD_CtlError)
    i.USBD_CtlPrepareRx                      0x080092ce   Section        0  usbd_ioreq.o(i.USBD_CtlPrepareRx)
    i.USBD_CtlReceiveStatus                  0x080092ec   Section        0  usbd_ioreq.o(i.USBD_CtlReceiveStatus)
    i.USBD_CtlSendData                       0x08009302   Section        0  usbd_ioreq.o(i.USBD_CtlSendData)
    i.USBD_CtlSendStatus                     0x0800931c   Section        0  usbd_ioreq.o(i.USBD_CtlSendStatus)
    i.USBD_GetDescriptor                     0x08009332   Section        0  usbd_ctlreq.o(i.USBD_GetDescriptor)
    USBD_GetDescriptor                       0x08009333   Thumb Code   230  usbd_ctlreq.o(i.USBD_GetDescriptor)
    i.USBD_GetString                         0x08009418   Section        0  usbd_ctlreq.o(i.USBD_GetString)
    i.USBD_Get_USB_Status                    0x08009460   Section        0  usbd_conf.o(i.USBD_Get_USB_Status)
    USBD_Get_USB_Status                      0x08009461   Thumb Code    24  usbd_conf.o(i.USBD_Get_USB_Status)
    i.USBD_Init                              0x08009478   Section        0  usbd_core.o(i.USBD_Init)
    i.USBD_LL_ClearStallEP                   0x0800949e   Section        0  usbd_conf.o(i.USBD_LL_ClearStallEP)
    i.USBD_LL_CloseEP                        0x080094b0   Section        0  usbd_conf.o(i.USBD_LL_CloseEP)
    i.USBD_LL_DataInStage                    0x080094c2   Section        0  usbd_core.o(i.USBD_LL_DataInStage)
    i.USBD_LL_DataOutStage                   0x0800956a   Section        0  usbd_core.o(i.USBD_LL_DataOutStage)
    i.USBD_LL_GetRxDataSize                  0x080095d6   Section        0  usbd_conf.o(i.USBD_LL_GetRxDataSize)
    i.USBD_LL_Init                           0x080095e0   Section        0  usbd_conf.o(i.USBD_LL_Init)
    i.USBD_LL_IsStallEP                      0x08009654   Section        0  usbd_conf.o(i.USBD_LL_IsStallEP)
    i.USBD_LL_OpenEP                         0x08009672   Section        0  usbd_conf.o(i.USBD_LL_OpenEP)
    i.USBD_LL_PrepareReceive                 0x0800968a   Section        0  usbd_conf.o(i.USBD_LL_PrepareReceive)
    i.USBD_LL_Reset                          0x0800969c   Section        0  usbd_core.o(i.USBD_LL_Reset)
    i.USBD_LL_Resume                         0x080096f6   Section        0  usbd_core.o(i.USBD_LL_Resume)
    i.USBD_LL_SOF                            0x0800970a   Section        0  usbd_core.o(i.USBD_LL_SOF)
    i.USBD_LL_SetSpeed                       0x0800972a   Section        0  usbd_core.o(i.USBD_LL_SetSpeed)
    i.USBD_LL_SetUSBAddress                  0x08009730   Section        0  usbd_conf.o(i.USBD_LL_SetUSBAddress)
    i.USBD_LL_SetupStage                     0x0800974c   Section        0  usbd_core.o(i.USBD_LL_SetupStage)
    i.USBD_LL_StallEP                        0x080097ac   Section        0  usbd_conf.o(i.USBD_LL_StallEP)
    i.USBD_LL_Start                          0x080097be   Section        0  usbd_conf.o(i.USBD_LL_Start)
    i.USBD_LL_Suspend                        0x080097d0   Section        0  usbd_core.o(i.USBD_LL_Suspend)
    i.USBD_LL_Transmit                       0x080097e2   Section        0  usbd_conf.o(i.USBD_LL_Transmit)
    i.USBD_ParseSetupRequest                 0x080097f4   Section        0  usbd_ctlreq.o(i.USBD_ParseSetupRequest)
    i.USBD_RegisterClass                     0x08009820   Section        0  usbd_core.o(i.USBD_RegisterClass)
    i.USBD_SetClassConfig                    0x08009844   Section        0  usbd_core.o(i.USBD_SetClassConfig)
    i.USBD_SetConfig                         0x08009858   Section        0  usbd_ctlreq.o(i.USBD_SetConfig)
    USBD_SetConfig                           0x08009859   Thumb Code   182  usbd_ctlreq.o(i.USBD_SetConfig)
    i.USBD_Start                             0x08009914   Section        0  usbd_core.o(i.USBD_Start)
    i.USBD_StdDevReq                         0x08009918   Section        0  usbd_ctlreq.o(i.USBD_StdDevReq)
    i.USBD_StdEPReq                          0x08009a2c   Section        0  usbd_ctlreq.o(i.USBD_StdEPReq)
    i.USBD_StdItfReq                         0x08009b6c   Section        0  usbd_ctlreq.o(i.USBD_StdItfReq)
    i.USB_ActivateEndpoint                   0x08009bbe   Section        0  stm32g4xx_ll_usb.o(i.USB_ActivateEndpoint)
    i.USB_DeactivateEndpoint                 0x08009e5a   Section        0  stm32g4xx_ll_usb.o(i.USB_DeactivateEndpoint)
    i.USB_DevConnect                         0x08009f68   Section        0  stm32g4xx_ll_usb.o(i.USB_DevConnect)
    i.USB_DevInit                            0x08009f76   Section        0  stm32g4xx_ll_usb.o(i.USB_DevInit)
    i.USB_DisableGlobalInt                   0x08009f88   Section        0  stm32g4xx_ll_usb.o(i.USB_DisableGlobalInt)
    i.USB_EPClearStall                       0x08009f98   Section        0  stm32g4xx_ll_usb.o(i.USB_EPClearStall)
    i.USB_EPSetStall                         0x0800a010   Section        0  stm32g4xx_ll_usb.o(i.USB_EPSetStall)
    i.USB_EPStartXfer                        0x0800a042   Section        0  stm32g4xx_ll_usb.o(i.USB_EPStartXfer)
    i.USB_EnableGlobalInt                    0x0800a524   Section        0  stm32g4xx_ll_usb.o(i.USB_EnableGlobalInt)
    i.USB_LP_IRQHandler                      0x0800a538   Section        0  stm32g4xx_it.o(i.USB_LP_IRQHandler)
    i.USB_ReadInterrupts                     0x0800a544   Section        0  stm32g4xx_ll_usb.o(i.USB_ReadInterrupts)
    i.USB_ReadPMA                            0x0800a54a   Section        0  stm32g4xx_ll_usb.o(i.USB_ReadPMA)
    i.USB_SetDevAddress                      0x0800a572   Section        0  stm32g4xx_ll_usb.o(i.USB_SetDevAddress)
    i.USB_WritePMA                           0x0800a580   Section        0  stm32g4xx_ll_usb.o(i.USB_WritePMA)
    i.UsageFault_Handler                     0x0800a5a6   Section        0  stm32g4xx_it.o(i.UsageFault_Handler)
    i.VectorActionTime                       0x0800a5a8   Section        0  foc_pwm.o(i.VectorActionTime)
    VectorActionTime                         0x0800a5a9   Thumb Code   590  foc_pwm.o(i.VectorActionTime)
    i._MecAngle_to_ElAngle                   0x0800a804   Section        0  foc_math.o(i._MecAngle_to_ElAngle)
    i.__ARM_isinff                           0x0800a812   Section        0  foc_pid.o(i.__ARM_isinff)
    __ARM_isinff                             0x0800a813   Thumb Code    18  foc_pid.o(i.__ARM_isinff)
    i.__ARM_isnanf                           0x0800a824   Section        0  foc_pid.o(i.__ARM_isnanf)
    __ARM_isnanf                             0x0800a825   Thumb Code    12  foc_pid.o(i.__ARM_isnanf)
    i.__NVIC_SetPriority                     0x0800a830   Section        0  stm32g4xx_hal_cortex.o(i.__NVIC_SetPriority)
    __NVIC_SetPriority                       0x0800a831   Thumb Code    32  stm32g4xx_hal_cortex.o(i.__NVIC_SetPriority)
    i._is_digit                              0x0800a850   Section        0  __printf_wp.o(i._is_digit)
    i._sys_exit                              0x0800a85e   Section        0  my_usart.o(i._sys_exit)
    i.cdc_vcp_data_rx                        0x0800a860   Section        0  usbd_cdc_if.o(i.cdc_vcp_data_rx)
    i.cdc_vcp_data_tx                        0x0800a8b8   Section        0  usbd_cdc_if.o(i.cdc_vcp_data_tx)
    i.delay_init                             0x0800a8d4   Section        0  delay.o(i.delay_init)
    i.delay_ms                               0x0800a904   Section        0  delay.o(i.delay_ms)
    i.delay_us                               0x0800a920   Section        0  delay.o(i.delay_us)
    i.fputc                                  0x0800a954   Section        0  my_usart.o(i.fputc)
    i.main                                   0x0800a96c   Section        0  main.o(i.main)
    i.uart_init                              0x0800a9b0   Section        0  my_usart.o(i.uart_init)
    x$fpl$fnaninf                            0x0800a9d4   Section      140  fnaninf.o(x$fpl$fnaninf)
    $v0                                      0x0800a9d4   Number         0  fnaninf.o(x$fpl$fnaninf)
    x$fpl$fpinit                             0x0800aa60   Section       10  fpinit.o(x$fpl$fpinit)
    $v0                                      0x0800aa60   Number         0  fpinit.o(x$fpl$fpinit)
    x$fpl$llsfromf                           0x0800aa6c   Section      134  ffixll.o(x$fpl$llsfromf)
    $v0                                      0x0800aa6c   Number         0  ffixll.o(x$fpl$llsfromf)
    .constdata                               0x0800aaf2   Section       24  stm32g4xx_hal_uart.o(.constdata)
    x$fpl$usenofp                            0x0800aaf2   Section        0  usenofp.o(x$fpl$usenofp)
    .constdata                               0x0800ab0a   Section       16  stm32g4xx_hal_uart_ex.o(.constdata)
    numerator                                0x0800ab0a   Data           8  stm32g4xx_hal_uart_ex.o(.constdata)
    denominator                              0x0800ab12   Data           8  stm32g4xx_hal_uart_ex.o(.constdata)
    .constdata                               0x0800ab1a   Section       16  system_stm32g4xx.o(.constdata)
    .constdata                               0x0800ab2a   Section        8  system_stm32g4xx.o(.constdata)
    .constdata                               0x0800ab34   Section        8  foc_motor.o(.constdata)
    .constdata                               0x0800ab3c   Section       17  __printf_flags_ss_wp.o(.constdata)
    maptable                                 0x0800ab3c   Data          17  __printf_flags_ss_wp.o(.constdata)
    .data                                    0x20000000   Section        4  adc.o(.data)
    HAL_RCC_ADC12_CLK_ENABLED                0x20000000   Data           4  adc.o(.data)
    .data                                    0x20000004   Section        4  stm32g4xx_it.o(.data)
    .data                                    0x20000008   Section       12  stm32g4xx_hal.o(.data)
    .data                                    0x20000014   Section        4  system_stm32g4xx.o(.data)
    .data                                    0x20000018   Section        8  delay.o(.data)
    g_fac_us                                 0x20000018   Data           4  delay.o(.data)
    .data                                    0x20000020   Section        4  my_usart.o(.data)
    .data                                    0x20000024   Section        1  usbd_ctlreq.o(.data)
    cfgidx                                   0x20000024   Data           1  usbd_ctlreq.o(.data)
    .data                                    0x20000028   Section      215  usbd_cdc.o(.data)
    USBD_CDC_DeviceQualifierDesc             0x20000028   Data          10  usbd_cdc.o(.data)
    USBD_CDC_CfgHSDesc                       0x20000034   Data          67  usbd_cdc.o(.data)
    USBD_CDC_CfgFSDesc                       0x20000078   Data          67  usbd_cdc.o(.data)
    USBD_CDC_OtherSpeedCfgDesc               0x200000bc   Data          67  usbd_cdc.o(.data)
    .data                                    0x20000100   Section       56  usbd_cdc.o(.data)
    .data                                    0x20000138   Section       12  usbd_cdc_if.o(.data)
    .data                                    0x20000144   Section       20  usbd_cdc_if.o(.data)
    .data                                    0x20000158   Section        1  usbd_conf.o(.data)
    .data                                    0x2000015c   Section       28  usbd_desc.o(.data)
    .data                                    0x20000178   Section       50  usbd_desc.o(.data)
    .data                                    0x200001ac   Section       84  debug.o(.data)
    .data                                    0x20000200   Section        3  foc_hw.o(.data)
    .data                                    0x20000204   Section    28372  foc_app.o(.data)
    .bss                                     0x200070d8   Section      420  adc.o(.bss)
    .bss                                     0x2000727c   Section      380  tim.o(.bss)
    .bss                                     0x200073f8   Section      148  usart.o(.bss)
    .bss                                     0x2000748c   Section      732  usb.o(.bss)
    .bss                                     0x20007768   Section      540  usbd_cdc.o(.bss)
    .bss                                     0x20007984   Section      720  usb_device.o(.bss)
    .bss                                     0x20007c54   Section      600  usbd_cdc_if.o(.bss)
    .bss                                     0x20007eac   Section      256  usbd_desc.o(.bss)
    .bss                                     0x20007fac   Section       96  libspace.o(.bss)
    HEAP                                     0x20008010   Section        0  startup_stm32g473xx.o(HEAP)
    STACK                                    0x20008010   Section     1024  startup_stm32g473xx.o(STACK)
    Heap_Mem                                 0x20008010   Data           0  startup_stm32g473xx.o(HEAP)
    Stack_Mem                                0x20008010   Data        1024  startup_stm32g473xx.o(STACK)
    __initial_sp                             0x20008410   Data           0  startup_stm32g473xx.o(STACK)

    Global Symbols

    Symbol Name                              Value     Ov Type        Size  Object(Section)

    BuildAttributes$$THM_ISAv4$E$P$D$K$B$S$7EM$VFPi3$EXTD16$VFPS$VFMA$PE$A:L22UL41UL21$X:L11$S22US41US21$IEEE1$IW$USESV6$~STKCKD$USESV7$~SHL$OTIME$ROPI$IEEEJ$EBA8$UX$STANDARDLIB$REQ8$PRES8$EABIv2 0x00000000   Number         0  anon$$obj.o ABSOLUTE
    __ARM_use_no_argv                        0x00000000   Number         0  main.o ABSOLUTE
    _printf_flags                            0x00000000   Number         0  printf_stubs.o ABSOLUTE
    _printf_return_value                     0x00000000   Number         0  printf_stubs.o ABSOLUTE
    _printf_sizespec                         0x00000000   Number         0  printf_stubs.o ABSOLUTE
    _printf_widthprec                        0x00000000   Number         0  printf_stubs.o ABSOLUTE
    __ARM_exceptions_init                     - Undefined Weak Reference
    __alloca_initialize                       - Undefined Weak Reference
    __arm_preinit_                            - Undefined Weak Reference
    __cpp_initialize__aeabi_                  - Undefined Weak Reference
    __cxa_finalize                            - Undefined Weak Reference
    __sigvec_lookup                           - Undefined Weak Reference
    _atexit_init                              - Undefined Weak Reference
    _call_atexit_fns                          - Undefined Weak Reference
    _clock_init                               - Undefined Weak Reference
    _fp_trap_init                             - Undefined Weak Reference
    _fp_trap_shutdown                         - Undefined Weak Reference
    _get_lc_collate                           - Undefined Weak Reference
    _get_lc_monetary                          - Undefined Weak Reference
    _get_lc_time                              - Undefined Weak Reference
    _getenv_init                              - Undefined Weak Reference
    _handle_redirection                       - Undefined Weak Reference
    _init_alloc                               - Undefined Weak Reference
    _init_user_alloc                          - Undefined Weak Reference
    _initio                                   - Undefined Weak Reference
    _mutex_acquire                            - Undefined Weak Reference
    _mutex_release                            - Undefined Weak Reference
    _printf_mbtowc                            - Undefined Weak Reference
    _printf_wc                                - Undefined Weak Reference
    _rand_init                                - Undefined Weak Reference
    _signal_finish                            - Undefined Weak Reference
    _signal_init                              - Undefined Weak Reference
    _terminate_alloc                          - Undefined Weak Reference
    _terminate_user_alloc                     - Undefined Weak Reference
    _terminateio                              - Undefined Weak Reference
    __Vectors_Size                           0x000001d8   Number         0  startup_stm32g473xx.o ABSOLUTE
    __Vectors                                0x08000000   Data           4  startup_stm32g473xx.o(RESET)
    __Vectors_End                            0x080001d8   Data           0  startup_stm32g473xx.o(RESET)
    __main                                   0x080001d9   Thumb Code     8  __main.o(!!!main)
    __scatterload                            0x080001e1   Thumb Code     0  __scatter.o(!!!scatter)
    __scatterload_rt2                        0x080001e1   Thumb Code    44  __scatter.o(!!!scatter)
    __scatterload_rt2_thumb_only             0x080001e1   Thumb Code     0  __scatter.o(!!!scatter)
    __scatterload_null                       0x080001ef   Thumb Code     0  __scatter.o(!!!scatter)
    __decompress                             0x08000215   Thumb Code    90  __dczerorl2.o(!!dczerorl2)
    __decompress1                            0x08000215   Thumb Code     0  __dczerorl2.o(!!dczerorl2)
    __scatterload_zeroinit                   0x08000271   Thumb Code    28  __scatter_zi.o(!!handler_zi)
    _printf_d                                0x0800028d   Thumb Code     0  _printf_d.o(.ARM.Collect$$_printf_percent$$00000009)
    _printf_percent                          0x0800028d   Thumb Code     0  _printf_percent.o(.ARM.Collect$$_printf_percent$$00000000)
    _printf_percent_end                      0x08000293   Thumb Code     0  _printf_percent_end.o(.ARM.Collect$$_printf_percent$$00000017)
    __rt_lib_init                            0x08000297   Thumb Code     0  libinit.o(.ARM.Collect$$libinit$$00000000)
    __rt_lib_init_fp_1                       0x08000299   Thumb Code     0  libinit2.o(.ARM.Collect$$libinit$$00000001)
    __rt_lib_init_alloca_1                   0x0800029d   Thumb Code     0  libinit2.o(.ARM.Collect$$libinit$$0000002E)
    __rt_lib_init_argv_1                     0x0800029d   Thumb Code     0  libinit2.o(.ARM.Collect$$libinit$$0000002C)
    __rt_lib_init_atexit_1                   0x0800029d   Thumb Code     0  libinit2.o(.ARM.Collect$$libinit$$0000001B)
    __rt_lib_init_clock_1                    0x0800029d   Thumb Code     0  libinit2.o(.ARM.Collect$$libinit$$00000021)
    __rt_lib_init_cpp_1                      0x0800029d   Thumb Code     0  libinit2.o(.ARM.Collect$$libinit$$00000032)
    __rt_lib_init_exceptions_1               0x0800029d   Thumb Code     0  libinit2.o(.ARM.Collect$$libinit$$00000030)
    __rt_lib_init_fp_trap_1                  0x0800029d   Thumb Code     0  libinit2.o(.ARM.Collect$$libinit$$0000001F)
    __rt_lib_init_getenv_1                   0x0800029d   Thumb Code     0  libinit2.o(.ARM.Collect$$libinit$$00000023)
    __rt_lib_init_heap_1                     0x0800029d   Thumb Code     0  libinit2.o(.ARM.Collect$$libinit$$0000000A)
    __rt_lib_init_lc_collate_1               0x0800029d   Thumb Code     0  libinit2.o(.ARM.Collect$$libinit$$00000011)
    __rt_lib_init_lc_ctype_1                 0x0800029d   Thumb Code     0  libinit2.o(.ARM.Collect$$libinit$$00000013)
    __rt_lib_init_lc_monetary_1              0x0800029d   Thumb Code     0  libinit2.o(.ARM.Collect$$libinit$$00000015)
    __rt_lib_init_lc_numeric_1               0x0800029d   Thumb Code     0  libinit2.o(.ARM.Collect$$libinit$$00000017)
    __rt_lib_init_lc_time_1                  0x0800029d   Thumb Code     0  libinit2.o(.ARM.Collect$$libinit$$00000019)
    __rt_lib_init_preinit_1                  0x0800029d   Thumb Code     0  libinit2.o(.ARM.Collect$$libinit$$00000004)
    __rt_lib_init_rand_1                     0x0800029d   Thumb Code     0  libinit2.o(.ARM.Collect$$libinit$$0000000E)
    __rt_lib_init_return                     0x0800029d   Thumb Code     0  libinit2.o(.ARM.Collect$$libinit$$00000033)
    __rt_lib_init_signal_1                   0x0800029d   Thumb Code     0  libinit2.o(.ARM.Collect$$libinit$$0000001D)
    __rt_lib_init_stdio_1                    0x0800029d   Thumb Code     0  libinit2.o(.ARM.Collect$$libinit$$00000025)
    __rt_lib_init_user_alloc_1               0x0800029d   Thumb Code     0  libinit2.o(.ARM.Collect$$libinit$$0000000C)
    __rt_lib_shutdown                        0x0800029f   Thumb Code     0  libshutdown.o(.ARM.Collect$$libshutdown$$00000000)
    __rt_lib_shutdown_cpp_1                  0x080002a1   Thumb Code     0  libshutdown2.o(.ARM.Collect$$libshutdown$$00000002)
    __rt_lib_shutdown_fp_trap_1              0x080002a1   Thumb Code     0  libshutdown2.o(.ARM.Collect$$libshutdown$$00000007)
    __rt_lib_shutdown_heap_1                 0x080002a1   Thumb Code     0  libshutdown2.o(.ARM.Collect$$libshutdown$$0000000F)
    __rt_lib_shutdown_return                 0x080002a1   Thumb Code     0  libshutdown2.o(.ARM.Collect$$libshutdown$$00000010)
    __rt_lib_shutdown_signal_1               0x080002a1   Thumb Code     0  libshutdown2.o(.ARM.Collect$$libshutdown$$0000000A)
    __rt_lib_shutdown_stdio_1                0x080002a1   Thumb Code     0  libshutdown2.o(.ARM.Collect$$libshutdown$$00000004)
    __rt_lib_shutdown_user_alloc_1           0x080002a1   Thumb Code     0  libshutdown2.o(.ARM.Collect$$libshutdown$$0000000C)
    __rt_entry                               0x080002a3   Thumb Code     0  __rtentry.o(.ARM.Collect$$rtentry$$00000000)
    __rt_entry_presh_1                       0x080002a3   Thumb Code     0  __rtentry2.o(.ARM.Collect$$rtentry$$00000002)
    __rt_entry_sh                            0x080002a3   Thumb Code     0  __rtentry4.o(.ARM.Collect$$rtentry$$00000004)
    __rt_entry_li                            0x080002a9   Thumb Code     0  __rtentry2.o(.ARM.Collect$$rtentry$$0000000A)
    __rt_entry_postsh_1                      0x080002a9   Thumb Code     0  __rtentry2.o(.ARM.Collect$$rtentry$$00000009)
    __rt_entry_main                          0x080002ad   Thumb Code     0  __rtentry2.o(.ARM.Collect$$rtentry$$0000000D)
    __rt_entry_postli_1                      0x080002ad   Thumb Code     0  __rtentry2.o(.ARM.Collect$$rtentry$$0000000C)
    __rt_exit                                0x080002b5   Thumb Code     0  rtexit.o(.ARM.Collect$$rtexit$$00000000)
    __rt_exit_ls                             0x080002b7   Thumb Code     0  rtexit2.o(.ARM.Collect$$rtexit$$00000003)
    __rt_exit_prels_1                        0x080002b7   Thumb Code     0  rtexit2.o(.ARM.Collect$$rtexit$$00000002)
    __rt_exit_exit                           0x080002bb   Thumb Code     0  rtexit2.o(.ARM.Collect$$rtexit$$00000004)
    Reset_Handler                            0x080002c1   Thumb Code     8  startup_stm32g473xx.o(.text)
    ADC4_IRQHandler                          0x080002db   Thumb Code     0  startup_stm32g473xx.o(.text)
    ADC5_IRQHandler                          0x080002db   Thumb Code     0  startup_stm32g473xx.o(.text)
    COMP1_2_3_IRQHandler                     0x080002db   Thumb Code     0  startup_stm32g473xx.o(.text)
    COMP4_5_6_IRQHandler                     0x080002db   Thumb Code     0  startup_stm32g473xx.o(.text)
    COMP7_IRQHandler                         0x080002db   Thumb Code     0  startup_stm32g473xx.o(.text)
    CORDIC_IRQHandler                        0x080002db   Thumb Code     0  startup_stm32g473xx.o(.text)
    CRS_IRQHandler                           0x080002db   Thumb Code     0  startup_stm32g473xx.o(.text)
    DMA1_Channel2_IRQHandler                 0x080002db   Thumb Code     0  startup_stm32g473xx.o(.text)
    DMA1_Channel3_IRQHandler                 0x080002db   Thumb Code     0  startup_stm32g473xx.o(.text)
    DMA1_Channel4_IRQHandler                 0x080002db   Thumb Code     0  startup_stm32g473xx.o(.text)
    DMA1_Channel5_IRQHandler                 0x080002db   Thumb Code     0  startup_stm32g473xx.o(.text)
    DMA1_Channel6_IRQHandler                 0x080002db   Thumb Code     0  startup_stm32g473xx.o(.text)
    DMA1_Channel7_IRQHandler                 0x080002db   Thumb Code     0  startup_stm32g473xx.o(.text)
    DMA1_Channel8_IRQHandler                 0x080002db   Thumb Code     0  startup_stm32g473xx.o(.text)
    DMA2_Channel1_IRQHandler                 0x080002db   Thumb Code     0  startup_stm32g473xx.o(.text)
    DMA2_Channel2_IRQHandler                 0x080002db   Thumb Code     0  startup_stm32g473xx.o(.text)
    DMA2_Channel3_IRQHandler                 0x080002db   Thumb Code     0  startup_stm32g473xx.o(.text)
    DMA2_Channel4_IRQHandler                 0x080002db   Thumb Code     0  startup_stm32g473xx.o(.text)
    DMA2_Channel5_IRQHandler                 0x080002db   Thumb Code     0  startup_stm32g473xx.o(.text)
    DMA2_Channel6_IRQHandler                 0x080002db   Thumb Code     0  startup_stm32g473xx.o(.text)
    DMA2_Channel7_IRQHandler                 0x080002db   Thumb Code     0  startup_stm32g473xx.o(.text)
    DMA2_Channel8_IRQHandler                 0x080002db   Thumb Code     0  startup_stm32g473xx.o(.text)
    DMAMUX_OVR_IRQHandler                    0x080002db   Thumb Code     0  startup_stm32g473xx.o(.text)
    EXTI0_IRQHandler                         0x080002db   Thumb Code     0  startup_stm32g473xx.o(.text)
    EXTI15_10_IRQHandler                     0x080002db   Thumb Code     0  startup_stm32g473xx.o(.text)
    EXTI1_IRQHandler                         0x080002db   Thumb Code     0  startup_stm32g473xx.o(.text)
    EXTI2_IRQHandler                         0x080002db   Thumb Code     0  startup_stm32g473xx.o(.text)
    EXTI3_IRQHandler                         0x080002db   Thumb Code     0  startup_stm32g473xx.o(.text)
    EXTI4_IRQHandler                         0x080002db   Thumb Code     0  startup_stm32g473xx.o(.text)
    EXTI9_5_IRQHandler                       0x080002db   Thumb Code     0  startup_stm32g473xx.o(.text)
    FDCAN1_IT0_IRQHandler                    0x080002db   Thumb Code     0  startup_stm32g473xx.o(.text)
    FDCAN1_IT1_IRQHandler                    0x080002db   Thumb Code     0  startup_stm32g473xx.o(.text)
    FDCAN2_IT0_IRQHandler                    0x080002db   Thumb Code     0  startup_stm32g473xx.o(.text)
    FDCAN2_IT1_IRQHandler                    0x080002db   Thumb Code     0  startup_stm32g473xx.o(.text)
    FDCAN3_IT0_IRQHandler                    0x080002db   Thumb Code     0  startup_stm32g473xx.o(.text)
    FDCAN3_IT1_IRQHandler                    0x080002db   Thumb Code     0  startup_stm32g473xx.o(.text)
    FLASH_IRQHandler                         0x080002db   Thumb Code     0  startup_stm32g473xx.o(.text)
    FMAC_IRQHandler                          0x080002db   Thumb Code     0  startup_stm32g473xx.o(.text)
    FMC_IRQHandler                           0x080002db   Thumb Code     0  startup_stm32g473xx.o(.text)
    FPU_IRQHandler                           0x080002db   Thumb Code     0  startup_stm32g473xx.o(.text)
    I2C1_ER_IRQHandler                       0x080002db   Thumb Code     0  startup_stm32g473xx.o(.text)
    I2C1_EV_IRQHandler                       0x080002db   Thumb Code     0  startup_stm32g473xx.o(.text)
    I2C2_ER_IRQHandler                       0x080002db   Thumb Code     0  startup_stm32g473xx.o(.text)
    I2C2_EV_IRQHandler                       0x080002db   Thumb Code     0  startup_stm32g473xx.o(.text)
    I2C3_ER_IRQHandler                       0x080002db   Thumb Code     0  startup_stm32g473xx.o(.text)
    I2C3_EV_IRQHandler                       0x080002db   Thumb Code     0  startup_stm32g473xx.o(.text)
    I2C4_ER_IRQHandler                       0x080002db   Thumb Code     0  startup_stm32g473xx.o(.text)
    I2C4_EV_IRQHandler                       0x080002db   Thumb Code     0  startup_stm32g473xx.o(.text)
    LPTIM1_IRQHandler                        0x080002db   Thumb Code     0  startup_stm32g473xx.o(.text)
    LPUART1_IRQHandler                       0x080002db   Thumb Code     0  startup_stm32g473xx.o(.text)
    PVD_PVM_IRQHandler                       0x080002db   Thumb Code     0  startup_stm32g473xx.o(.text)
    QUADSPI_IRQHandler                       0x080002db   Thumb Code     0  startup_stm32g473xx.o(.text)
    RCC_IRQHandler                           0x080002db   Thumb Code     0  startup_stm32g473xx.o(.text)
    RNG_IRQHandler                           0x080002db   Thumb Code     0  startup_stm32g473xx.o(.text)
    RTC_Alarm_IRQHandler                     0x080002db   Thumb Code     0  startup_stm32g473xx.o(.text)
    RTC_TAMP_LSECSS_IRQHandler               0x080002db   Thumb Code     0  startup_stm32g473xx.o(.text)
    RTC_WKUP_IRQHandler                      0x080002db   Thumb Code     0  startup_stm32g473xx.o(.text)
    SAI1_IRQHandler                          0x080002db   Thumb Code     0  startup_stm32g473xx.o(.text)
    SPI1_IRQHandler                          0x080002db   Thumb Code     0  startup_stm32g473xx.o(.text)
    SPI2_IRQHandler                          0x080002db   Thumb Code     0  startup_stm32g473xx.o(.text)
    SPI3_IRQHandler                          0x080002db   Thumb Code     0  startup_stm32g473xx.o(.text)
    SPI4_IRQHandler                          0x080002db   Thumb Code     0  startup_stm32g473xx.o(.text)
    TIM1_BRK_TIM15_IRQHandler                0x080002db   Thumb Code     0  startup_stm32g473xx.o(.text)
    TIM1_CC_IRQHandler                       0x080002db   Thumb Code     0  startup_stm32g473xx.o(.text)
    TIM1_TRG_COM_TIM17_IRQHandler            0x080002db   Thumb Code     0  startup_stm32g473xx.o(.text)
    TIM20_BRK_IRQHandler                     0x080002db   Thumb Code     0  startup_stm32g473xx.o(.text)
    TIM20_CC_IRQHandler                      0x080002db   Thumb Code     0  startup_stm32g473xx.o(.text)
    TIM20_TRG_COM_IRQHandler                 0x080002db   Thumb Code     0  startup_stm32g473xx.o(.text)
    TIM20_UP_IRQHandler                      0x080002db   Thumb Code     0  startup_stm32g473xx.o(.text)
    TIM3_IRQHandler                          0x080002db   Thumb Code     0  startup_stm32g473xx.o(.text)
    TIM4_IRQHandler                          0x080002db   Thumb Code     0  startup_stm32g473xx.o(.text)
    TIM7_DAC_IRQHandler                      0x080002db   Thumb Code     0  startup_stm32g473xx.o(.text)
    TIM8_BRK_IRQHandler                      0x080002db   Thumb Code     0  startup_stm32g473xx.o(.text)
    TIM8_CC_IRQHandler                       0x080002db   Thumb Code     0  startup_stm32g473xx.o(.text)
    TIM8_TRG_COM_IRQHandler                  0x080002db   Thumb Code     0  startup_stm32g473xx.o(.text)
    TIM8_UP_IRQHandler                       0x080002db   Thumb Code     0  startup_stm32g473xx.o(.text)
    UART4_IRQHandler                         0x080002db   Thumb Code     0  startup_stm32g473xx.o(.text)
    UART5_IRQHandler                         0x080002db   Thumb Code     0  startup_stm32g473xx.o(.text)
    UCPD1_IRQHandler                         0x080002db   Thumb Code     0  startup_stm32g473xx.o(.text)
    USART1_IRQHandler                        0x080002db   Thumb Code     0  startup_stm32g473xx.o(.text)
    USART2_IRQHandler                        0x080002db   Thumb Code     0  startup_stm32g473xx.o(.text)
    USART3_IRQHandler                        0x080002db   Thumb Code     0  startup_stm32g473xx.o(.text)
    USBWakeUp_IRQHandler                     0x080002db   Thumb Code     0  startup_stm32g473xx.o(.text)
    USB_HP_IRQHandler                        0x080002db   Thumb Code     0  startup_stm32g473xx.o(.text)
    WWDG_IRQHandler                          0x080002db   Thumb Code     0  startup_stm32g473xx.o(.text)
    __user_initial_stackheap                 0x080002dd   Thumb Code     0  startup_stm32g473xx.o(.text)
    __use_no_semihosting                     0x080002fd   Thumb Code     2  use_no_semi_2.o(.text)
    __aeabi_uldivmod                         0x080002ff   Thumb Code     0  lludivv7m.o(.text)
    _ll_udiv                                 0x080002ff   Thumb Code   238  lludivv7m.o(.text)
    __2printf                                0x080003ed   Thumb Code    20  __2printf.o(.text)
    _printf_int_dec                          0x08000405   Thumb Code   104  _printf_dec.o(.text)
    __printf                                 0x0800047d   Thumb Code   388  __printf_flags_ss_wp.o(.text)
    __aeabi_memcpy4                          0x08000605   Thumb Code     0  rt_memcpy_w.o(.text)
    __aeabi_memcpy8                          0x08000605   Thumb Code     0  rt_memcpy_w.o(.text)
    __rt_memcpy_w                            0x08000605   Thumb Code   100  rt_memcpy_w.o(.text)
    _memcpy_lastbytes_aligned                0x0800064d   Thumb Code     0  rt_memcpy_w.o(.text)
    __aeabi_memclr4                          0x08000669   Thumb Code     0  rt_memclr_w.o(.text)
    __aeabi_memclr8                          0x08000669   Thumb Code     0  rt_memclr_w.o(.text)
    __rt_memclr_w                            0x08000669   Thumb Code    78  rt_memclr_w.o(.text)
    _memset_w                                0x0800066d   Thumb Code     0  rt_memclr_w.o(.text)
    __use_two_region_memory                  0x080006b7   Thumb Code     2  heapauxi.o(.text)
    __rt_heap_escrow$2region                 0x080006b9   Thumb Code     2  heapauxi.o(.text)
    __rt_heap_expand$2region                 0x080006bb   Thumb Code     2  heapauxi.o(.text)
    __semihosting$guard                      0x080006bd   Thumb Code     0  use_no_semi.o(.text)
    __use_no_semihosting_swi                 0x080006bd   Thumb Code     2  use_no_semi.o(.text)
    _printf_int_common                       0x080006bf   Thumb Code   178  _printf_intcommon.o(.text)
    _printf_char_common                      0x0800077b   Thumb Code    32  _printf_char_common.o(.text)
    _printf_char_file                        0x080007a1   Thumb Code    32  _printf_char_file.o(.text)
    ferror                                   0x080007c5   Thumb Code     8  ferror.o(.text)
    __user_setup_stackheap                   0x080007cd   Thumb Code    74  sys_stackheap_outer.o(.text)
    exit                                     0x08000817   Thumb Code    18  exit.o(.text)
    __user_libspace                          0x08000829   Thumb Code     8  libspace.o(.text)
    __user_perproc_libspace                  0x08000829   Thumb Code     0  libspace.o(.text)
    __user_perthread_libspace                0x08000829   Thumb Code     0  libspace.o(.text)
    arm_cos_f32                              0x08000831   Thumb Code   152  arm_cos_f32.o(.text.arm_cos_f32)
    arm_sin_f32                              0x080008c9   Thumb Code   144  arm_sin_f32.o(.text.arm_sin_f32)
    ADC1_2_IRQHandler                        0x08000959   Thumb Code    18  stm32g4xx_it.o(i.ADC1_2_IRQHandler)
    ADC3_IRQHandler                          0x08000975   Thumb Code     6  stm32g4xx_it.o(i.ADC3_IRQHandler)
    ADC_DMAConvCplt                          0x08000981   Thumb Code   104  stm32g4xx_hal_adc.o(i.ADC_DMAConvCplt)
    ADC_DMAError                             0x080009e9   Thumb Code    26  stm32g4xx_hal_adc.o(i.ADC_DMAError)
    ADC_DMAHalfConvCplt                      0x08000a03   Thumb Code    10  stm32g4xx_hal_adc.o(i.ADC_DMAHalfConvCplt)
    ADC_Disable                              0x08000a0d   Thumb Code   106  stm32g4xx_hal_adc.o(i.ADC_Disable)
    ADC_Enable                               0x08000a7d   Thumb Code   172  stm32g4xx_hal_adc.o(i.ADC_Enable)
    BSP_Init                                 0x08000b41   Thumb Code    40  bsp.o(i.BSP_Init)
    BusFault_Handler                         0x08000b79   Thumb Code     2  stm32g4xx_it.o(i.BusFault_Handler)
    CC6920SO_CalcCur                         0x08000b7d   Thumb Code    68  cc6920so.o(i.CC6920SO_CalcCur)
    DMA1_Channel1_IRQHandler                 0x08000c5d   Thumb Code     6  stm32g4xx_it.o(i.DMA1_Channel1_IRQHandler)
    DebugMon_Handler                         0x08000d0b   Thumb Code     2  stm32g4xx_it.o(i.DebugMon_Handler)
    Debug_Task                               0x08000d0d   Thumb Code   182  debug.o(i.Debug_Task)
    Error_Handler                            0x08000dcd   Thumb Code     4  main.o(i.Error_Handler)
    FOC_ABZENC_Angle_Calc                    0x08000dd1   Thumb Code    96  foc_abzenc.o(i.FOC_ABZENC_Angle_Calc)
    FOC_ABZENC_HW_Dir                        0x08000e35   Thumb Code    16  foc_hw.o(i.FOC_ABZENC_HW_Dir)
    FOC_ABZENC_HW_GetCount                   0x08000e49   Thumb Code     8  foc_hw.o(i.FOC_ABZENC_HW_GetCount)
    FOC_ABZENC_HW_IRQHandler                 0x08000e55   Thumb Code    40  foc_hw.o(i.FOC_ABZENC_HW_IRQHandler)
    FOC_ABZENC_HW_Init                       0x08000ea1   Thumb Code    22  foc_hw.o(i.FOC_ABZENC_HW_Init)
    FOC_ABZENC_Init                          0x08000ec1   Thumb Code    32  foc_abzenc.o(i.FOC_ABZENC_Init)
    FOC_ABZENC_Speed_Calc_M                  0x08000ee1   Thumb Code   178  foc_abzenc.o(i.FOC_ABZENC_Speed_Calc_M)
    FOC_App_Run                              0x08000f99   Thumb Code    40  foc_app.o(i.FOC_App_Run)
    FOC_CURRENT_HW_Init                      0x08000fd1   Thumb Code    46  foc_hw.o(i.FOC_CURRENT_HW_Init)
    FOC_CURRENT_Init                         0x08001009   Thumb Code    42  foc_current.o(i.FOC_CURRENT_Init)
    FOC_CURRENT_OffsetCalc                   0x08001035   Thumb Code   220  foc_current.o(i.FOC_CURRENT_OffsetCalc)
    FOC_CURRENT_Update                       0x08001179   Thumb Code   118  foc_hw.o(i.FOC_CURRENT_Update)
    FOC_Clarke                               0x080011f9   Thumb Code    22  foc_math.o(i.FOC_Clarke)
    FOC_ERR                                  0x08001215   Thumb Code    34  foc_math.o(i.FOC_ERR)
    FOC_FLUX_Angle_Calc                      0x08001241   Thumb Code   242  foc_flux.o(i.FOC_FLUX_Angle_Calc)
    FOC_FLUX_Angle_PLL                       0x08001339   Thumb Code   160  foc_flux.o(i.FOC_FLUX_Angle_PLL)
    FOC_FLUX_Clear                           0x080013e1   Thumb Code    20  foc_flux.o(i.FOC_FLUX_Clear)
    FOC_FLUX_EFFECTIVE_Angle_Calc            0x080013f9   Thumb Code    84  foc_flux.o(i.FOC_FLUX_EFFECTIVE_Angle_Calc)
    FOC_FLUX_I_Calc                          0x0800144d   Thumb Code    92  foc_flux.o(i.FOC_FLUX_I_Calc)
    FOC_FLUX_Init                            0x080014a9   Thumb Code   110  foc_flux.o(i.FOC_FLUX_Init)
    FOC_FLUX_Speed_Calc                      0x0800152d   Thumb Code   106  foc_flux.o(i.FOC_FLUX_Speed_Calc)
    FOC_FLUX_V_Calc                          0x080015ad   Thumb Code   180  foc_flux.o(i.FOC_FLUX_V_Calc)
    FOC_HALL_Angle_Calc                      0x08001665   Thumb Code   160  foc_hall.o(i.FOC_HALL_Angle_Calc)
    FOC_HALL_HW_IRQ_Handler                  0x0800170d   Thumb Code   374  foc_hw.o(i.FOC_HALL_HW_IRQ_Handler)
    FOC_HALL_Init                            0x08001891   Thumb Code   230  foc_hall.o(i.FOC_HALL_Init)
    FOC_HFI_Angle_Calc                       0x080019cd   Thumb Code   180  foc_hfi.o(i.FOC_HFI_Angle_Calc)
    FOC_HFI_Clear                            0x08001a81   Thumb Code     6  foc_hfi.o(i.FOC_HFI_Clear)
    FOC_HFI_Init                             0x08001a87   Thumb Code    58  foc_hfi.o(i.FOC_HFI_Init)
    FOC_HFI_Inject                           0x08001ac1   Thumb Code    52  foc_hfi.o(i.FOC_HFI_Inject)
    FOC_HFI_InjectPolIdent                   0x08001af5   Thumb Code   198  foc_hfi.o(i.FOC_HFI_InjectPolIdent)
    FOC_HFI_Speed_Calc                       0x08001bc5   Thumb Code    52  foc_hfi.o(i.FOC_HFI_Speed_Calc)
    FOC_HFI_alphabeta_HF                     0x08001c01   Thumb Code    22  foc_hfi.o(i.FOC_HFI_alphabeta_HF)
    FOC_HFI_alphabeta_LF                     0x08001c17   Thumb Code    22  foc_hfi.o(i.FOC_HFI_alphabeta_LF)
    FOC_Hall_Speed_Calc                      0x08001c2d   Thumb Code    54  foc_hall.o(i.FOC_Hall_Speed_Calc)
    FOC_Init                                 0x08001c6d   Thumb Code   270  foc_app.o(i.FOC_Init)
    FOC_Motor_Init                           0x08001dfd   Thumb Code     6  foc_motor.o(i.FOC_Motor_Init)
    FOC_Motor_Run                            0x08001e05   Thumb Code   194  foc_motor.o(i.FOC_Motor_Run)
    FOC_Motor_Speed_Calc                     0x08001ef1   Thumb Code    50  foc_motor.o(i.FOC_Motor_Speed_Calc)
    FOC_Motor_Speed_Ctrl                     0x08001f25   Thumb Code    44  foc_motor.o(i.FOC_Motor_Speed_Ctrl)
    FOC_PWM_HW_Init                          0x08001f55   Thumb Code    40  foc_hw.o(i.FOC_PWM_HW_Init)
    FOC_PWM_HW_ON_OFF                        0x08001f85   Thumb Code   134  foc_hw.o(i.FOC_PWM_HW_ON_OFF)
    FOC_PWM_Init                             0x08002011   Thumb Code    32  foc_pwm.o(i.FOC_PWM_Init)
    FOC_PWM_Run                              0x08002031   Thumb Code    76  foc_pwm.o(i.FOC_PWM_Run)
    FOC_PWM_StartAll                         0x0800207d   Thumb Code    20  foc_pwm.o(i.FOC_PWM_StartAll)
    FOC_PWM_StopALL                          0x08002091   Thumb Code    20  foc_pwm.o(i.FOC_PWM_StopALL)
    FOC_Rev_Park                             0x080020a5   Thumb Code    68  foc_math.o(i.FOC_Rev_Park)
    FOC_SIGN_Judgment                        0x080020e9   Thumb Code    18  foc_math.o(i.FOC_SIGN_Judgment)
    FOC_SL_DirErr                            0x080020fd   Thumb Code   142  foc_sensorless.o(i.FOC_SL_DirErr)
    FOC_SL_HFI_SMO_SW                        0x08002199   Thumb Code   248  foc_sensorless.o(i.FOC_SL_HFI_SMO_SW)
    FOC_SL_RUN                               0x0800229d   Thumb Code   452  foc_sensorless.o(i.FOC_SL_RUN)
    FOC_SMO_Angle_Calc                       0x08002465   Thumb Code   212  foc_smo.o(i.FOC_SMO_Angle_Calc)
    FOC_SMO_Clear                            0x0800253d   Thumb Code    30  foc_smo.o(i.FOC_SMO_Clear)
    FOC_SMO_Init                             0x08002561   Thumb Code    34  foc_smo.o(i.FOC_SMO_Init)
    FOC_SMO_Speed_Calc                       0x08002585   Thumb Code   110  foc_smo.o(i.FOC_SMO_Speed_Calc)
    FOC_Sensorless_Init                      0x0800260d   Thumb Code   154  foc_sensorless.o(i.FOC_Sensorless_Init)
    FOC_Sensorless_Speed_Cale                0x080026ad   Thumb Code    78  foc_sensorless.o(i.FOC_Sensorless_Speed_Cale)
    FOC_VBUS_Calc                            0x080026fd   Thumb Code    68  foc_vbus.o(i.FOC_VBUS_Calc)
    FOC_VBUS_HW_Init                         0x0800274d   Thumb Code    12  foc_hw.o(i.FOC_VBUS_HW_Init)
    FOC_VBUS_Init                            0x0800275d   Thumb Code    22  foc_vbus.o(i.FOC_VBUS_Init)
    FOC_VBUS_Protect                         0x08002775   Thumb Code    46  foc_vbus.o(i.FOC_VBUS_Protect)
    FOC_VF_Angle_Calc                        0x080027bd   Thumb Code    50  foc_vf.o(i.FOC_VF_Angle_Calc)
    FOC_VF_Init                              0x080027ef   Thumb Code    18  foc_vf.o(i.FOC_VF_Init)
    FOC_VF_Speed_Calc                        0x08002801   Thumb Code    80  foc_vf.o(i.FOC_VF_Speed_Calc)
    Foc_Park                                 0x08002859   Thumb Code    68  foc_math.o(i.Foc_Park)
    HAL_ADCEx_Calibration_Start              0x0800289d   Thumb Code   138  stm32g4xx_hal_adc_ex.o(i.HAL_ADCEx_Calibration_Start)
    HAL_ADCEx_EndOfSamplingCallback          0x08002931   Thumb Code     2  stm32g4xx_hal_adc_ex.o(i.HAL_ADCEx_EndOfSamplingCallback)
    HAL_ADCEx_InjectedConfigChannel          0x08002935   Thumb Code  1324  stm32g4xx_hal_adc_ex.o(i.HAL_ADCEx_InjectedConfigChannel)
    HAL_ADCEx_InjectedConvCpltCallback       0x08002e95   Thumb Code    46  foc_hw.o(i.HAL_ADCEx_InjectedConvCpltCallback)
    HAL_ADCEx_InjectedGetValue               0x08002ed1   Thumb Code    46  stm32g4xx_hal_adc_ex.o(i.HAL_ADCEx_InjectedGetValue)
    HAL_ADCEx_InjectedQueueOverflowCallback  0x08002eff   Thumb Code     2  stm32g4xx_hal_adc_ex.o(i.HAL_ADCEx_InjectedQueueOverflowCallback)
    HAL_ADCEx_InjectedStart_IT               0x08002f01   Thumb Code   320  stm32g4xx_hal_adc_ex.o(i.HAL_ADCEx_InjectedStart_IT)
    HAL_ADCEx_LevelOutOfWindow2Callback      0x08003059   Thumb Code     2  stm32g4xx_hal_adc_ex.o(i.HAL_ADCEx_LevelOutOfWindow2Callback)
    HAL_ADCEx_LevelOutOfWindow3Callback      0x0800305b   Thumb Code     2  stm32g4xx_hal_adc_ex.o(i.HAL_ADCEx_LevelOutOfWindow3Callback)
    HAL_ADCEx_MultiModeConfigChannel         0x0800305d   Thumb Code   326  stm32g4xx_hal_adc_ex.o(i.HAL_ADCEx_MultiModeConfigChannel)
    HAL_ADC_ConfigChannel                    0x080031bd   Thumb Code  1066  stm32g4xx_hal_adc.o(i.HAL_ADC_ConfigChannel)
    HAL_ADC_ConvCpltCallback                 0x08003629   Thumb Code    14  foc_hw.o(i.HAL_ADC_ConvCpltCallback)
    HAL_ADC_ConvHalfCpltCallback             0x08003641   Thumb Code     2  stm32g4xx_hal_adc.o(i.HAL_ADC_ConvHalfCpltCallback)
    HAL_ADC_ErrorCallback                    0x08003643   Thumb Code     2  stm32g4xx_hal_adc.o(i.HAL_ADC_ErrorCallback)
    HAL_ADC_IRQHandler                       0x08003645   Thumb Code   674  stm32g4xx_hal_adc.o(i.HAL_ADC_IRQHandler)
    HAL_ADC_Init                             0x080038fd   Thumb Code   510  stm32g4xx_hal_adc.o(i.HAL_ADC_Init)
    HAL_ADC_LevelOutOfWindowCallback         0x08003b2d   Thumb Code     2  stm32g4xx_hal_adc.o(i.HAL_ADC_LevelOutOfWindowCallback)
    HAL_ADC_MspInit                          0x08003b31   Thumb Code   420  adc.o(i.HAL_ADC_MspInit)
    HAL_ADC_Start_DMA                        0x08003cf1   Thumb Code   260  stm32g4xx_hal_adc.o(i.HAL_ADC_Start_DMA)
    HAL_DMA_IRQHandler                       0x08003e1d   Thumb Code   186  stm32g4xx_hal_dma.o(i.HAL_DMA_IRQHandler)
    HAL_DMA_Init                             0x08003ed9   Thumb Code   178  stm32g4xx_hal_dma.o(i.HAL_DMA_Init)
    HAL_DMA_Start_IT                         0x08003f99   Thumb Code   140  stm32g4xx_hal_dma.o(i.HAL_DMA_Start_IT)
    HAL_Delay                                0x08004025   Thumb Code    32  stm32g4xx_hal.o(i.HAL_Delay)
    HAL_GPIO_Init                            0x08004049   Thumb Code   550  stm32g4xx_hal_gpio.o(i.HAL_GPIO_Init)
    HAL_GPIO_ReadPin                         0x08004291   Thumb Code    10  stm32g4xx_hal_gpio.o(i.HAL_GPIO_ReadPin)
    HAL_GPIO_TogglePin                       0x0800429b   Thumb Code    16  stm32g4xx_hal_gpio.o(i.HAL_GPIO_TogglePin)
    HAL_GPIO_WritePin                        0x080042ab   Thumb Code    10  stm32g4xx_hal_gpio.o(i.HAL_GPIO_WritePin)
    HAL_GetTick                              0x080042b5   Thumb Code     6  stm32g4xx_hal.o(i.HAL_GetTick)
    HAL_IncTick                              0x080042c1   Thumb Code    12  stm32g4xx_hal.o(i.HAL_IncTick)
    HAL_Init                                 0x080042d1   Thumb Code    30  stm32g4xx_hal.o(i.HAL_Init)
    HAL_InitTick                             0x080042f1   Thumb Code    58  stm32g4xx_hal.o(i.HAL_InitTick)
    HAL_MspInit                              0x08004335   Thumb Code    54  stm32g4xx_hal_msp.o(i.HAL_MspInit)
    HAL_NVIC_EnableIRQ                       0x08004371   Thumb Code    26  stm32g4xx_hal_cortex.o(i.HAL_NVIC_EnableIRQ)
    HAL_NVIC_SetPriority                     0x0800438d   Thumb Code    60  stm32g4xx_hal_cortex.o(i.HAL_NVIC_SetPriority)
    HAL_NVIC_SetPriorityGrouping             0x080043cd   Thumb Code    26  stm32g4xx_hal_cortex.o(i.HAL_NVIC_SetPriorityGrouping)
    HAL_PCDEx_ActivateLPM                    0x080043f1   Thumb Code    36  stm32g4xx_hal_pcd_ex.o(i.HAL_PCDEx_ActivateLPM)
    HAL_PCDEx_LPM_Callback                   0x08004415   Thumb Code     2  stm32g4xx_hal_pcd_ex.o(i.HAL_PCDEx_LPM_Callback)
    HAL_PCDEx_PMAConfig                      0x08004417   Thumb Code    60  stm32g4xx_hal_pcd_ex.o(i.HAL_PCDEx_PMAConfig)
    HAL_PCD_DataInStageCallback              0x08004453   Thumb Code    18  usbd_conf.o(i.HAL_PCD_DataInStageCallback)
    HAL_PCD_DataOutStageCallback             0x08004465   Thumb Code    20  usbd_conf.o(i.HAL_PCD_DataOutStageCallback)
    HAL_PCD_EP_Close                         0x08004479   Thumb Code    74  stm32g4xx_hal_pcd.o(i.HAL_PCD_EP_Close)
    HAL_PCD_EP_ClrStall                      0x080044c3   Thumb Code    90  stm32g4xx_hal_pcd.o(i.HAL_PCD_EP_ClrStall)
    HAL_PCD_EP_GetRxCount                    0x08004939   Thumb Code    18  stm32g4xx_hal_pcd.o(i.HAL_PCD_EP_GetRxCount)
    HAL_PCD_EP_Open                          0x0800494b   Thumb Code    88  stm32g4xx_hal_pcd.o(i.HAL_PCD_EP_Open)
    HAL_PCD_EP_Receive                       0x080049a3   Thumb Code    46  stm32g4xx_hal_pcd.o(i.HAL_PCD_EP_Receive)
    HAL_PCD_EP_SetStall                      0x080049d1   Thumb Code    94  stm32g4xx_hal_pcd.o(i.HAL_PCD_EP_SetStall)
    HAL_PCD_EP_Transmit                      0x08004a2f   Thumb Code    46  stm32g4xx_hal_pcd.o(i.HAL_PCD_EP_Transmit)
    HAL_PCD_IRQHandler                       0x08004a5d   Thumb Code   330  stm32g4xx_hal_pcd.o(i.HAL_PCD_IRQHandler)
    HAL_PCD_Init                             0x08004ba9   Thumb Code   156  stm32g4xx_hal_pcd.o(i.HAL_PCD_Init)
    HAL_PCD_MspInit                          0x08004c45   Thumb Code    80  usb.o(i.HAL_PCD_MspInit)
    HAL_PCD_ResetCallback                    0x08004c9d   Thumb Code    44  usbd_conf.o(i.HAL_PCD_ResetCallback)
    HAL_PCD_ResumeCallback                   0x08004d01   Thumb Code    40  usbd_conf.o(i.HAL_PCD_ResumeCallback)
    HAL_PCD_SOFCallback                      0x08004d41   Thumb Code     8  usbd_conf.o(i.HAL_PCD_SOFCallback)
    HAL_PCD_SetAddress                       0x08004d49   Thumb Code    38  stm32g4xx_hal_pcd.o(i.HAL_PCD_SetAddress)
    HAL_PCD_SetupStageCallback               0x08004d6f   Thumb Code    14  usbd_conf.o(i.HAL_PCD_SetupStageCallback)
    HAL_PCD_Start                            0x08004d7d   Thumb Code    42  stm32g4xx_hal_pcd.o(i.HAL_PCD_Start)
    HAL_PCD_SuspendCallback                  0x08004da9   Thumb Code    42  usbd_conf.o(i.HAL_PCD_SuspendCallback)
    HAL_PWREx_ControlVoltageScaling          0x08004df9   Thumb Code   174  stm32g4xx_hal_pwr_ex.o(i.HAL_PWREx_ControlVoltageScaling)
    HAL_PWREx_DisableUCPDDeadBattery         0x08004eb5   Thumb Code    12  stm32g4xx_hal_pwr_ex.o(i.HAL_PWREx_DisableUCPDDeadBattery)
    HAL_RCCEx_CRSConfig                      0x08004ec5   Thumb Code    66  stm32g4xx_hal_rcc_ex.o(i.HAL_RCCEx_CRSConfig)
    HAL_RCCEx_PeriphCLKConfig                0x08004f11   Thumb Code   758  stm32g4xx_hal_rcc_ex.o(i.HAL_RCCEx_PeriphCLKConfig)
    HAL_RCC_ClockConfig                      0x08005211   Thumb Code   444  stm32g4xx_hal_rcc.o(i.HAL_RCC_ClockConfig)
    HAL_RCC_GetPCLK1Freq                     0x080053ed   Thumb Code    24  stm32g4xx_hal_rcc.o(i.HAL_RCC_GetPCLK1Freq)
    HAL_RCC_GetPCLK2Freq                     0x08005411   Thumb Code    24  stm32g4xx_hal_rcc.o(i.HAL_RCC_GetPCLK2Freq)
    HAL_RCC_GetSysClockFreq                  0x08005435   Thumb Code    98  stm32g4xx_hal_rcc.o(i.HAL_RCC_GetSysClockFreq)
    HAL_RCC_OscConfig                        0x080054a5   Thumb Code  1028  stm32g4xx_hal_rcc.o(i.HAL_RCC_OscConfig)
    HAL_SYSCFG_DisableVREFBUF                0x080058a9   Thumb Code    12  stm32g4xx_hal.o(i.HAL_SYSCFG_DisableVREFBUF)
    HAL_SYSCFG_VREFBUF_HighImpedanceConfig   0x080058b9   Thumb Code    14  stm32g4xx_hal.o(i.HAL_SYSCFG_VREFBUF_HighImpedanceConfig)
    HAL_SYSTICK_CLKSourceConfig              0x080058cd   Thumb Code    24  stm32g4xx_hal_cortex.o(i.HAL_SYSTICK_CLKSourceConfig)
    HAL_SYSTICK_Config                       0x080058e5   Thumb Code    40  stm32g4xx_hal_cortex.o(i.HAL_SYSTICK_Config)
    HAL_TIMEx_Break2Callback                 0x0800590d   Thumb Code     2  stm32g4xx_hal_tim_ex.o(i.HAL_TIMEx_Break2Callback)
    HAL_TIMEx_BreakCallback                  0x0800590f   Thumb Code     2  stm32g4xx_hal_tim_ex.o(i.HAL_TIMEx_BreakCallback)
    HAL_TIMEx_CommutCallback                 0x08005911   Thumb Code     2  stm32g4xx_hal_tim_ex.o(i.HAL_TIMEx_CommutCallback)
    HAL_TIMEx_ConfigBreakDeadTime            0x08005915   Thumb Code   154  stm32g4xx_hal_tim_ex.o(i.HAL_TIMEx_ConfigBreakDeadTime)
    HAL_TIMEx_DirectionChangeCallback        0x080059bd   Thumb Code     2  stm32g4xx_hal_tim_ex.o(i.HAL_TIMEx_DirectionChangeCallback)
    HAL_TIMEx_EncoderIndexCallback           0x080059bf   Thumb Code     2  stm32g4xx_hal_tim_ex.o(i.HAL_TIMEx_EncoderIndexCallback)
    HAL_TIMEx_HallSensor_Init                0x080059c1   Thumb Code   208  stm32g4xx_hal_tim_ex.o(i.HAL_TIMEx_HallSensor_Init)
    HAL_TIMEx_HallSensor_MspInit             0x08005a9d   Thumb Code   102  tim.o(i.HAL_TIMEx_HallSensor_MspInit)
    HAL_TIMEx_IndexErrorCallback             0x08005b0d   Thumb Code     2  stm32g4xx_hal_tim_ex.o(i.HAL_TIMEx_IndexErrorCallback)
    HAL_TIMEx_MasterConfigSynchronization    0x08005b11   Thumb Code   150  stm32g4xx_hal_tim_ex.o(i.HAL_TIMEx_MasterConfigSynchronization)
    HAL_TIMEx_PWMN_Start                     0x08005bc9   Thumb Code   170  stm32g4xx_hal_tim_ex.o(i.HAL_TIMEx_PWMN_Start)
    HAL_TIMEx_PWMN_Stop                      0x08005c95   Thumb Code   104  stm32g4xx_hal_tim_ex.o(i.HAL_TIMEx_PWMN_Stop)
    HAL_TIMEx_TransitionErrorCallback        0x08005cfd   Thumb Code     2  stm32g4xx_hal_tim_ex.o(i.HAL_TIMEx_TransitionErrorCallback)
    HAL_TIM_Base_Init                        0x08005cff   Thumb Code    98  stm32g4xx_hal_tim.o(i.HAL_TIM_Base_Init)
    HAL_TIM_Base_MspInit                     0x08005d61   Thumb Code    50  tim.o(i.HAL_TIM_Base_MspInit)
    HAL_TIM_Base_Start_IT                    0x08005d9d   Thumb Code   106  stm32g4xx_hal_tim.o(i.HAL_TIM_Base_Start_IT)
    HAL_TIM_Encoder_Init                     0x08005e29   Thumb Code   162  stm32g4xx_hal_tim.o(i.HAL_TIM_Encoder_Init)
    HAL_TIM_Encoder_MspInit                  0x08005ed1   Thumb Code    84  tim.o(i.HAL_TIM_Encoder_MspInit)
    HAL_TIM_Encoder_Start                    0x08005f31   Thumb Code   142  stm32g4xx_hal_tim.o(i.HAL_TIM_Encoder_Start)
    HAL_TIM_IC_CaptureCallback               0x08005fc1   Thumb Code    38  foc_hw.o(i.HAL_TIM_IC_CaptureCallback)
    HAL_TIM_IC_ConfigChannel                 0x08005ff5   Thumb Code   292  stm32g4xx_hal_tim.o(i.HAL_TIM_IC_ConfigChannel)
    HAL_TIM_IC_Init                          0x08006119   Thumb Code    98  stm32g4xx_hal_tim.o(i.HAL_TIM_IC_Init)
    HAL_TIM_IC_MspInit                       0x0800617d   Thumb Code   102  tim.o(i.HAL_TIM_IC_MspInit)
    HAL_TIM_IC_Start_IT                      0x080061ed   Thumb Code   286  stm32g4xx_hal_tim.o(i.HAL_TIM_IC_Start_IT)
    HAL_TIM_IRQHandler                       0x0800632d   Thumb Code   418  stm32g4xx_hal_tim.o(i.HAL_TIM_IRQHandler)
    HAL_TIM_MspPostInit                      0x080064d1   Thumb Code   136  tim.o(i.HAL_TIM_MspPostInit)
    HAL_TIM_OC_DelayElapsedCallback          0x08006565   Thumb Code     2  foc_hw.o(i.HAL_TIM_OC_DelayElapsedCallback)
    HAL_TIM_OC_Start_IT                      0x08006569   Thumb Code   278  stm32g4xx_hal_tim.o(i.HAL_TIM_OC_Start_IT)
    HAL_TIM_OC_Stop_IT                       0x080066a9   Thumb Code   222  stm32g4xx_hal_tim.o(i.HAL_TIM_OC_Stop_IT)
    HAL_TIM_PWM_ConfigChannel                0x080067a1   Thumb Code   292  stm32g4xx_hal_tim.o(i.HAL_TIM_PWM_ConfigChannel)
    HAL_TIM_PWM_Init                         0x080068c5   Thumb Code    98  stm32g4xx_hal_tim.o(i.HAL_TIM_PWM_Init)
    HAL_TIM_PWM_MspInit                      0x08006929   Thumb Code    50  tim.o(i.HAL_TIM_PWM_MspInit)
    HAL_TIM_PWM_PulseFinishedCallback        0x08006965   Thumb Code     2  stm32g4xx_hal_tim.o(i.HAL_TIM_PWM_PulseFinishedCallback)
    HAL_TIM_PWM_Start                        0x08006969   Thumb Code   234  stm32g4xx_hal_tim.o(i.HAL_TIM_PWM_Start)
    HAL_TIM_PWM_Stop                         0x08006a7d   Thumb Code   158  stm32g4xx_hal_tim.o(i.HAL_TIM_PWM_Stop)
    HAL_TIM_PeriodElapsedCallback            0x08006b35   Thumb Code    38  foc_hw.o(i.HAL_TIM_PeriodElapsedCallback)
    HAL_TIM_TriggerCallback                  0x08006b6d   Thumb Code     2  stm32g4xx_hal_tim.o(i.HAL_TIM_TriggerCallback)
    HAL_UARTEx_DisableFifoMode               0x08006b6f   Thumb Code    62  stm32g4xx_hal_uart_ex.o(i.HAL_UARTEx_DisableFifoMode)
    HAL_UARTEx_SetRxFifoThreshold            0x08006bad   Thumb Code    76  stm32g4xx_hal_uart_ex.o(i.HAL_UARTEx_SetRxFifoThreshold)
    HAL_UARTEx_SetTxFifoThreshold            0x08006bf9   Thumb Code    76  stm32g4xx_hal_uart_ex.o(i.HAL_UARTEx_SetTxFifoThreshold)
    HAL_UART_Init                            0x08006c45   Thumb Code   106  stm32g4xx_hal_uart.o(i.HAL_UART_Init)
    HAL_UART_MspInit                         0x08006cb1   Thumb Code   112  usart.o(i.HAL_UART_MspInit)
    Hall_Parameter_Calculate                 0x08006d2d   Thumb Code     2  foc_hall.o(i.Hall_Parameter_Calculate)
    Hall_Parameter_Debug                     0x08006d2f   Thumb Code     2  foc_hall.o(i.Hall_Parameter_Debug)
    Hall_SectorComp_Caculate                 0x08006d31   Thumb Code    54  foc_hall.o(i.Hall_SectorComp_Caculate)
    HardFault_Handler                        0x08006d67   Thumb Code     2  stm32g4xx_it.o(i.HardFault_Handler)
    Limit_Angle                              0x08006e45   Thumb Code    56  foc_math.o(i.Limit_Angle)
    MX_ADC1_Init                             0x08006e85   Thumb Code   214  adc.o(i.MX_ADC1_Init)
    MX_ADC2_Init                             0x08006f69   Thumb Code   190  adc.o(i.MX_ADC2_Init)
    MX_ADC3_Init                             0x08007035   Thumb Code   216  adc.o(i.MX_ADC3_Init)
    MX_DMA_Init                              0x08007119   Thumb Code    56  dma.o(i.MX_DMA_Init)
    MX_GPIO_Init                             0x08007155   Thumb Code   104  gpio.o(i.MX_GPIO_Init)
    MX_TIM1_Init                             0x080071c1   Thumb Code   260  tim.o(i.MX_TIM1_Init)
    MX_TIM2_Init                             0x080072cd   Thumb Code   104  tim.o(i.MX_TIM2_Init)
    MX_TIM3_Init                             0x08007339   Thumb Code   102  tim.o(i.MX_TIM3_Init)
    MX_TIM5_Init                             0x080073a9   Thumb Code    80  tim.o(i.MX_TIM5_Init)
    MX_TIM6_Init                             0x08007405   Thumb Code    64  tim.o(i.MX_TIM6_Init)
    MX_USART1_UART_Init                      0x0800744d   Thumb Code    94  usart.o(i.MX_USART1_UART_Init)
    MX_USB_Device_Init                       0x080074b5   Thumb Code    42  usb_device.o(i.MX_USB_Device_Init)
    MX_USB_PCD_Init                          0x080074f1   Thumb Code    46  usb.o(i.MX_USB_PCD_Init)
    MemManage_Handler                        0x08007529   Thumb Code     2  stm32g4xx_it.o(i.MemManage_Handler)
    Motor_ABZ_ENC_CALIB                      0x0800752d   Thumb Code    90  foc_motor.o(i.Motor_ABZ_ENC_CALIB)
    Motor_ABZ_ENC_RUN                        0x08007591   Thumb Code   200  foc_motor.o(i.Motor_ABZ_ENC_RUN)
    Motor_HALL_RUN                           0x08007659   Thumb Code   200  foc_motor.o(i.Motor_HALL_RUN)
    Motor_Run_Open                           0x08007721   Thumb Code   136  foc_motor.o(i.Motor_Run_Open)
    Motor_SL_RUN                             0x080077a9   Thumb Code   416  foc_motor.o(i.Motor_SL_RUN)
    Move_Filter_Clear                        0x0800794d   Thumb Code    44  foc_filter.o(i.Move_Filter_Clear)
    Move_Filter_Init                         0x0800797d   Thumb Code    34  foc_filter.o(i.Move_Filter_Init)
    Move_Filter_calculate                    0x080079a1   Thumb Code    60  foc_filter.o(i.Move_Filter_calculate)
    Move_Filter_fill                         0x080079e1   Thumb Code    74  foc_filter.o(i.Move_Filter_fill)
    NMI_Handler                              0x08007a2b   Thumb Code     2  stm32g4xx_it.o(i.NMI_Handler)
    PID_Clear                                0x08007dc5   Thumb Code    54  foc_pid.o(i.PID_Clear)
    PID_Init                                 0x08007e01   Thumb Code    38  foc_pid.o(i.PID_Init)
    PID_Position_ctrl                        0x08007e2d   Thumb Code   598  foc_pid.o(i.PID_Position_ctrl)
    PLL_Cale_HFI                             0x0800808d   Thumb Code   158  foc_filter.o(i.PLL_Cale_HFI)
    PLL_Cale_SMO                             0x08008135   Thumb Code   162  foc_filter.o(i.PLL_Cale_SMO)
    PLL_Clear                                0x080081e1   Thumb Code    30  foc_filter.o(i.PLL_Clear)
    PLL_Init                                 0x08008205   Thumb Code    14  foc_filter.o(i.PLL_Init)
    PendSV_Handler                           0x08008213   Thumb Code     2  stm32g4xx_it.o(i.PendSV_Handler)
    SVC_Handler                              0x08008215   Thumb Code     2  stm32g4xx_it.o(i.SVC_Handler)
    SysTick_Handler                          0x080082c9   Thumb Code    38  stm32g4xx_it.o(i.SysTick_Handler)
    SystemClock_Config                       0x080082f5   Thumb Code   110  main.o(i.SystemClock_Config)
    SystemInit                               0x08008365   Thumb Code    12  system_stm32g4xx.o(i.SystemInit)
    TIM1_UP_TIM16_IRQHandler                 0x08008375   Thumb Code     6  stm32g4xx_it.o(i.TIM1_UP_TIM16_IRQHandler)
    TIM2_IRQHandler                          0x08008381   Thumb Code     6  stm32g4xx_it.o(i.TIM2_IRQHandler)
    TIM5_IRQHandler                          0x0800838d   Thumb Code     6  stm32g4xx_it.o(i.TIM5_IRQHandler)
    TIM6_DAC_IRQHandler                      0x08008399   Thumb Code     6  stm32g4xx_it.o(i.TIM6_DAC_IRQHandler)
    TIM_Base_SetConfig                       0x080083a5   Thumb Code   190  stm32g4xx_hal_tim.o(i.TIM_Base_SetConfig)
    TIM_CCxChannelCmd                        0x08008489   Thumb Code    26  stm32g4xx_hal_tim.o(i.TIM_CCxChannelCmd)
    TIM_OC2_SetConfig                        0x08008569   Thumb Code   132  stm32g4xx_hal_tim.o(i.TIM_OC2_SetConfig)
    TIM_TI1_SetConfig                        0x0800883d   Thumb Code   100  stm32g4xx_hal_tim.o(i.TIM_TI1_SetConfig)
    UART_AdvFeatureConfig                    0x08008939   Thumb Code   200  stm32g4xx_hal_uart.o(i.UART_AdvFeatureConfig)
    UART_CheckIdleState                      0x08008a01   Thumb Code   172  stm32g4xx_hal_uart.o(i.UART_CheckIdleState)
    UART_SetConfig                           0x08008b01   Thumb Code   614  stm32g4xx_hal_uart.o(i.UART_SetConfig)
    UART_WaitOnFlagUntilTimeout              0x08008d99   Thumb Code   148  stm32g4xx_hal_uart.o(i.UART_WaitOnFlagUntilTimeout)
    USBD_CDC_ConfigStrDescriptor             0x08008e2d   Thumb Code    16  usbd_desc.o(i.USBD_CDC_ConfigStrDescriptor)
    USBD_CDC_DeviceDescriptor                0x08008f15   Thumb Code     8  usbd_desc.o(i.USBD_CDC_DeviceDescriptor)
    USBD_CDC_GetDeviceQualifierDescriptor    0x08008f51   Thumb Code     8  usbd_cdc.o(i.USBD_CDC_GetDeviceQualifierDescriptor)
    USBD_CDC_InterfaceStrDescriptor          0x08009011   Thumb Code    16  usbd_desc.o(i.USBD_CDC_InterfaceStrDescriptor)
    USBD_CDC_LangIDStrDescriptor             0x08009035   Thumb Code     8  usbd_desc.o(i.USBD_CDC_LangIDStrDescriptor)
    USBD_CDC_ManufacturerStrDescriptor       0x08009041   Thumb Code    16  usbd_desc.o(i.USBD_CDC_ManufacturerStrDescriptor)
    USBD_CDC_ProductStrDescriptor            0x08009069   Thumb Code    16  usbd_desc.o(i.USBD_CDC_ProductStrDescriptor)
    USBD_CDC_ReceivePacket                   0x080090a1   Thumb Code    40  usbd_cdc.o(i.USBD_CDC_ReceivePacket)
    USBD_CDC_RegisterInterface               0x080090c9   Thumb Code    14  usbd_cdc.o(i.USBD_CDC_RegisterInterface)
    USBD_CDC_SerialStrDescriptor             0x080090d9   Thumb Code    48  usbd_desc.o(i.USBD_CDC_SerialStrDescriptor)
    USBD_CDC_SetRxBuffer                     0x08009111   Thumb Code    18  usbd_cdc.o(i.USBD_CDC_SetRxBuffer)
    USBD_CDC_SetTxBuffer                     0x08009123   Thumb Code    22  usbd_cdc.o(i.USBD_CDC_SetTxBuffer)
    USBD_CDC_TransmitPacket                  0x080091f7   Thumb Code    54  usbd_cdc.o(i.USBD_CDC_TransmitPacket)
    USBD_Clock_Config                        0x0800922d   Thumb Code    88  usb_device.o(i.USBD_Clock_Config)
    USBD_ClrClassConfig                      0x08009289   Thumb Code    16  usbd_core.o(i.USBD_ClrClassConfig)
    USBD_CtlContinueRx                       0x08009299   Thumb Code    16  usbd_ioreq.o(i.USBD_CtlContinueRx)
    USBD_CtlContinueSendData                 0x080092a9   Thumb Code    16  usbd_ioreq.o(i.USBD_CtlContinueSendData)
    USBD_CtlError                            0x080092b9   Thumb Code    22  usbd_ctlreq.o(i.USBD_CtlError)
    USBD_CtlPrepareRx                        0x080092cf   Thumb Code    30  usbd_ioreq.o(i.USBD_CtlPrepareRx)
    USBD_CtlReceiveStatus                    0x080092ed   Thumb Code    22  usbd_ioreq.o(i.USBD_CtlReceiveStatus)
    USBD_CtlSendData                         0x08009303   Thumb Code    26  usbd_ioreq.o(i.USBD_CtlSendData)
    USBD_CtlSendStatus                       0x0800931d   Thumb Code    22  usbd_ioreq.o(i.USBD_CtlSendStatus)
    USBD_GetString                           0x08009419   Thumb Code    72  usbd_ctlreq.o(i.USBD_GetString)
    USBD_Init                                0x08009479   Thumb Code    38  usbd_core.o(i.USBD_Init)
    USBD_LL_ClearStallEP                     0x0800949f   Thumb Code    18  usbd_conf.o(i.USBD_LL_ClearStallEP)
    USBD_LL_CloseEP                          0x080094b1   Thumb Code    18  usbd_conf.o(i.USBD_LL_CloseEP)
    USBD_LL_DataInStage                      0x080094c3   Thumb Code   168  usbd_core.o(i.USBD_LL_DataInStage)
    USBD_LL_DataOutStage                     0x0800956b   Thumb Code   108  usbd_core.o(i.USBD_LL_DataOutStage)
    USBD_LL_GetRxDataSize                    0x080095d7   Thumb Code     8  usbd_conf.o(i.USBD_LL_GetRxDataSize)
    USBD_LL_Init                             0x080095e1   Thumb Code   108  usbd_conf.o(i.USBD_LL_Init)
    USBD_LL_IsStallEP                        0x08009655   Thumb Code    30  usbd_conf.o(i.USBD_LL_IsStallEP)
    USBD_LL_OpenEP                           0x08009673   Thumb Code    24  usbd_conf.o(i.USBD_LL_OpenEP)
    USBD_LL_PrepareReceive                   0x0800968b   Thumb Code    18  usbd_conf.o(i.USBD_LL_PrepareReceive)
    USBD_LL_Reset                            0x0800969d   Thumb Code    90  usbd_core.o(i.USBD_LL_Reset)
    USBD_LL_Resume                           0x080096f7   Thumb Code    20  usbd_core.o(i.USBD_LL_Resume)
    USBD_LL_SOF                              0x0800970b   Thumb Code    32  usbd_core.o(i.USBD_LL_SOF)
    USBD_LL_SetSpeed                         0x0800972b   Thumb Code     6  usbd_core.o(i.USBD_LL_SetSpeed)
    USBD_LL_SetUSBAddress                    0x08009731   Thumb Code    24  usbd_conf.o(i.USBD_LL_SetUSBAddress)
    USBD_LL_SetupStage                       0x0800974d   Thumb Code    96  usbd_core.o(i.USBD_LL_SetupStage)
    USBD_LL_StallEP                          0x080097ad   Thumb Code    18  usbd_conf.o(i.USBD_LL_StallEP)
    USBD_LL_Start                            0x080097bf   Thumb Code    18  usbd_conf.o(i.USBD_LL_Start)
    USBD_LL_Suspend                          0x080097d1   Thumb Code    18  usbd_core.o(i.USBD_LL_Suspend)
    USBD_LL_Transmit                         0x080097e3   Thumb Code    18  usbd_conf.o(i.USBD_LL_Transmit)
    USBD_ParseSetupRequest                   0x080097f5   Thumb Code    44  usbd_ctlreq.o(i.USBD_ParseSetupRequest)
    USBD_RegisterClass                       0x08009821   Thumb Code    36  usbd_core.o(i.USBD_RegisterClass)
    USBD_SetClassConfig                      0x08009845   Thumb Code    20  usbd_core.o(i.USBD_SetClassConfig)
    USBD_Start                               0x08009915   Thumb Code     4  usbd_core.o(i.USBD_Start)
    USBD_StdDevReq                           0x08009919   Thumb Code   276  usbd_ctlreq.o(i.USBD_StdDevReq)
    USBD_StdEPReq                            0x08009a2d   Thumb Code   320  usbd_ctlreq.o(i.USBD_StdEPReq)
    USBD_StdItfReq                           0x08009b6d   Thumb Code    82  usbd_ctlreq.o(i.USBD_StdItfReq)
    USB_ActivateEndpoint                     0x08009bbf   Thumb Code   668  stm32g4xx_ll_usb.o(i.USB_ActivateEndpoint)
    USB_DeactivateEndpoint                   0x08009e5b   Thumb Code   270  stm32g4xx_ll_usb.o(i.USB_DeactivateEndpoint)
    USB_DevConnect                           0x08009f69   Thumb Code    14  stm32g4xx_ll_usb.o(i.USB_DevConnect)
    USB_DevInit                              0x08009f77   Thumb Code    18  stm32g4xx_ll_usb.o(i.USB_DevInit)
    USB_DisableGlobalInt                     0x08009f89   Thumb Code    16  stm32g4xx_ll_usb.o(i.USB_DisableGlobalInt)
    USB_EPClearStall                         0x08009f99   Thumb Code   120  stm32g4xx_ll_usb.o(i.USB_EPClearStall)
    USB_EPSetStall                           0x0800a011   Thumb Code    50  stm32g4xx_ll_usb.o(i.USB_EPSetStall)
    USB_EPStartXfer                          0x0800a043   Thumb Code  1250  stm32g4xx_ll_usb.o(i.USB_EPStartXfer)
    USB_EnableGlobalInt                      0x0800a525   Thumb Code    18  stm32g4xx_ll_usb.o(i.USB_EnableGlobalInt)
    USB_LP_IRQHandler                        0x0800a539   Thumb Code     6  stm32g4xx_it.o(i.USB_LP_IRQHandler)
    USB_ReadInterrupts                       0x0800a545   Thumb Code     6  stm32g4xx_ll_usb.o(i.USB_ReadInterrupts)
    USB_ReadPMA                              0x0800a54b   Thumb Code    40  stm32g4xx_ll_usb.o(i.USB_ReadPMA)
    USB_SetDevAddress                        0x0800a573   Thumb Code    12  stm32g4xx_ll_usb.o(i.USB_SetDevAddress)
    USB_WritePMA                             0x0800a581   Thumb Code    38  stm32g4xx_ll_usb.o(i.USB_WritePMA)
    UsageFault_Handler                       0x0800a5a7   Thumb Code     2  stm32g4xx_it.o(i.UsageFault_Handler)
    _MecAngle_to_ElAngle                     0x0800a805   Thumb Code    14  foc_math.o(i._MecAngle_to_ElAngle)
    _is_digit                                0x0800a851   Thumb Code    14  __printf_wp.o(i._is_digit)
    _sys_exit                                0x0800a85f   Thumb Code     2  my_usart.o(i._sys_exit)
    cdc_vcp_data_rx                          0x0800a861   Thumb Code    78  usbd_cdc_if.o(i.cdc_vcp_data_rx)
    cdc_vcp_data_tx                          0x0800a8b9   Thumb Code    22  usbd_cdc_if.o(i.cdc_vcp_data_tx)
    delay_init                               0x0800a8d5   Thumb Code    44  delay.o(i.delay_init)
    delay_ms                                 0x0800a905   Thumb Code    26  delay.o(i.delay_ms)
    delay_us                                 0x0800a921   Thumb Code    48  delay.o(i.delay_us)
    fputc                                    0x0800a955   Thumb Code    18  my_usart.o(i.fputc)
    main                                     0x0800a96d   Thumb Code    66  main.o(i.main)
    uart_init                                0x0800a9b1   Thumb Code    28  my_usart.o(i.uart_init)
    __fpl_fnaninf                            0x0800a9d5   Thumb Code   140  fnaninf.o(x$fpl$fnaninf)
    _fp_init                                 0x0800aa61   Thumb Code    10  fpinit.o(x$fpl$fpinit)
    __fplib_config_fpu_vfp                   0x0800aa69   Thumb Code     0  fpinit.o(x$fpl$fpinit)
    __fplib_config_pureend_doubles           0x0800aa69   Thumb Code     0  fpinit.o(x$fpl$fpinit)
    __aeabi_f2lz                             0x0800aa6d   Thumb Code     0  ffixll.o(x$fpl$llsfromf)
    _ll_sfrom_f                              0x0800aa6d   Thumb Code   134  ffixll.o(x$fpl$llsfromf)
    UARTPrescTable                           0x0800aaf2   Data          24  stm32g4xx_hal_uart.o(.constdata)
    __I$use$fp                               0x0800aaf2   Number         0  usenofp.o(x$fpl$usenofp)
    AHBPrescTable                            0x0800ab1a   Data          16  system_stm32g4xx.o(.constdata)
    APBPrescTable                            0x0800ab2a   Data           8  system_stm32g4xx.o(.constdata)
    sinTable_f32                             0x0800ab50   Data        2052  arm_common_tables.o(.rodata.sinTable_f32)
    Region$$Table$$Base                      0x0800b354   Number         0  anon$$obj.o(Region$$Table)
    Region$$Table$$Limit                     0x0800b374   Number         0  anon$$obj.o(Region$$Table)
    SysTick_count                            0x20000004   Data           4  stm32g4xx_it.o(.data)
    uwTickPrio                               0x20000008   Data           4  stm32g4xx_hal.o(.data)
    uwTickFreq                               0x2000000c   Data           4  stm32g4xx_hal.o(.data)
    uwTick                                   0x20000010   Data           4  stm32g4xx_hal.o(.data)
    SystemCoreClock                          0x20000014   Data           4  system_stm32g4xx.o(.data)
    u32SysTickCount                          0x2000001c   Data           4  delay.o(.data)
    __stdout                                 0x20000020   Data           4  my_usart.o(.data)
    USBD_CDC                                 0x20000100   Data          56  usbd_cdc.o(.data)
    g_usb_usart_rx_sta                       0x20000138   Data           2  usbd_cdc_if.o(.data)
    LineCoding                               0x2000013c   Data           8  usbd_cdc_if.o(.data)
    USBD_Interface_fops_FS                   0x20000144   Data          20  usbd_cdc_if.o(.data)
    g_device_state                           0x20000158   Data           1  usbd_conf.o(.data)
    CDC_Desc                                 0x2000015c   Data          28  usbd_desc.o(.data)
    USBD_LangIDDesc                          0x20000178   Data           4  usbd_desc.o(.data)
    USBD_CDC_DeviceDesc                      0x2000017c   Data          18  usbd_desc.o(.data)
    USBD_StringSerial                        0x20000190   Data          26  usbd_desc.o(.data)
    VOFA_Handle                              0x200001ac   Data          84  debug.o(.data)
    adc_flag                                 0x20000200   Data           3  foc_hw.o(.data)
    FOC_MOTOR                                0x20000204   Data       28372  foc_app.o(.data)
    hadc1                                    0x200070d8   Data         108  adc.o(.bss)
    hadc2                                    0x20007144   Data         108  adc.o(.bss)
    hadc3                                    0x200071b0   Data         108  adc.o(.bss)
    hdma_adc1                                0x2000721c   Data          96  adc.o(.bss)
    htim1                                    0x2000727c   Data          76  tim.o(.bss)
    htim2                                    0x200072c8   Data          76  tim.o(.bss)
    htim3                                    0x20007314   Data          76  tim.o(.bss)
    htim5                                    0x20007360   Data          76  tim.o(.bss)
    htim6                                    0x200073ac   Data          76  tim.o(.bss)
    huart1                                   0x200073f8   Data         148  usart.o(.bss)
    hpcd_USB_FS                              0x2000748c   Data         732  usb.o(.bss)
    USBD_CDC_Handle                          0x20007768   Data         540  usbd_cdc.o(.bss)
    hUsbDeviceFS                             0x20007984   Data         720  usb_device.o(.bss)
    g_usb_usart_printf_buffer                0x20007c54   Data         200  usbd_cdc_if.o(.bss)
    g_usb_rx_buffer                          0x20007d1c   Data         200  usbd_cdc_if.o(.bss)
    g_usb_usart_rx_buffer                    0x20007de4   Data         200  usbd_cdc_if.o(.bss)
    USBD_StrDesc                             0x20007eac   Data         256  usbd_desc.o(.bss)
    __libspace_start                         0x20007fac   Data          96  libspace.o(.bss)
    __temporary_stack_top$libspace           0x2000800c   Data           0  libspace.o(.bss)



==============================================================================

Memory Map of the image

  Image Entry point : 0x080001d9

  Load Region LR_IROM1 (Base: 0x08000000, Size: 0x0001244c, Max: 0x00020000, ABSOLUTE, COMPRESSED[0x0000b5d0])

    Execution Region ER_IROM1 (Base: 0x08000000, Size: 0x0000b374, Max: 0x00020000, ABSOLUTE)

    Base Addr    Size         Type   Attr      Idx    E Section Name        Object

    0x08000000   0x000001d8   Data   RO            3    RESET               startup_stm32g473xx.o
    0x080001d8   0x00000008   Code   RO         7324  * !!!main             c_w.l(__main.o)
    0x080001e0   0x00000034   Code   RO         7636    !!!scatter          c_w.l(__scatter.o)
    0x08000214   0x0000005a   Code   RO         7634    !!dczerorl2         c_w.l(__dczerorl2.o)
    0x0800026e   0x00000002   PAD
    0x08000270   0x0000001c   Code   RO         7638    !!handler_zi        c_w.l(__scatter_zi.o)
    0x0800028c   0x00000000   Code   RO         7315    .ARM.Collect$$_printf_percent$$00000000  c_w.l(_printf_percent.o)
    0x0800028c   0x00000006   Code   RO         7314    .ARM.Collect$$_printf_percent$$00000009  c_w.l(_printf_d.o)
    0x08000292   0x00000004   Code   RO         7397    .ARM.Collect$$_printf_percent$$00000017  c_w.l(_printf_percent_end.o)
    0x08000296   0x00000002   Code   RO         7504    .ARM.Collect$$libinit$$00000000  c_w.l(libinit.o)
    0x08000298   0x00000004   Code   RO         7525    .ARM.Collect$$libinit$$00000001  c_w.l(libinit2.o)
    0x0800029c   0x00000000   Code   RO         7528    .ARM.Collect$$libinit$$00000004  c_w.l(libinit2.o)
    0x0800029c   0x00000000   Code   RO         7531    .ARM.Collect$$libinit$$0000000A  c_w.l(libinit2.o)
    0x0800029c   0x00000000   Code   RO         7533    .ARM.Collect$$libinit$$0000000C  c_w.l(libinit2.o)
    0x0800029c   0x00000000   Code   RO         7535    .ARM.Collect$$libinit$$0000000E  c_w.l(libinit2.o)
    0x0800029c   0x00000000   Code   RO         7538    .ARM.Collect$$libinit$$00000011  c_w.l(libinit2.o)
    0x0800029c   0x00000000   Code   RO         7540    .ARM.Collect$$libinit$$00000013  c_w.l(libinit2.o)
    0x0800029c   0x00000000   Code   RO         7542    .ARM.Collect$$libinit$$00000015  c_w.l(libinit2.o)
    0x0800029c   0x00000000   Code   RO         7544    .ARM.Collect$$libinit$$00000017  c_w.l(libinit2.o)
    0x0800029c   0x00000000   Code   RO         7546    .ARM.Collect$$libinit$$00000019  c_w.l(libinit2.o)
    0x0800029c   0x00000000   Code   RO         7548    .ARM.Collect$$libinit$$0000001B  c_w.l(libinit2.o)
    0x0800029c   0x00000000   Code   RO         7550    .ARM.Collect$$libinit$$0000001D  c_w.l(libinit2.o)
    0x0800029c   0x00000000   Code   RO         7552    .ARM.Collect$$libinit$$0000001F  c_w.l(libinit2.o)
    0x0800029c   0x00000000   Code   RO         7554    .ARM.Collect$$libinit$$00000021  c_w.l(libinit2.o)
    0x0800029c   0x00000000   Code   RO         7556    .ARM.Collect$$libinit$$00000023  c_w.l(libinit2.o)
    0x0800029c   0x00000000   Code   RO         7558    .ARM.Collect$$libinit$$00000025  c_w.l(libinit2.o)
    0x0800029c   0x00000000   Code   RO         7562    .ARM.Collect$$libinit$$0000002C  c_w.l(libinit2.o)
    0x0800029c   0x00000000   Code   RO         7564    .ARM.Collect$$libinit$$0000002E  c_w.l(libinit2.o)
    0x0800029c   0x00000000   Code   RO         7566    .ARM.Collect$$libinit$$00000030  c_w.l(libinit2.o)
    0x0800029c   0x00000000   Code   RO         7568    .ARM.Collect$$libinit$$00000032  c_w.l(libinit2.o)
    0x0800029c   0x00000002   Code   RO         7569    .ARM.Collect$$libinit$$00000033  c_w.l(libinit2.o)
    0x0800029e   0x00000002   Code   RO         7593    .ARM.Collect$$libshutdown$$00000000  c_w.l(libshutdown.o)
    0x080002a0   0x00000000   Code   RO         7617    .ARM.Collect$$libshutdown$$00000002  c_w.l(libshutdown2.o)
    0x080002a0   0x00000000   Code   RO         7619    .ARM.Collect$$libshutdown$$00000004  c_w.l(libshutdown2.o)
    0x080002a0   0x00000000   Code   RO         7622    .ARM.Collect$$libshutdown$$00000007  c_w.l(libshutdown2.o)
    0x080002a0   0x00000000   Code   RO         7625    .ARM.Collect$$libshutdown$$0000000A  c_w.l(libshutdown2.o)
    0x080002a0   0x00000000   Code   RO         7627    .ARM.Collect$$libshutdown$$0000000C  c_w.l(libshutdown2.o)
    0x080002a0   0x00000000   Code   RO         7630    .ARM.Collect$$libshutdown$$0000000F  c_w.l(libshutdown2.o)
    0x080002a0   0x00000002   Code   RO         7631    .ARM.Collect$$libshutdown$$00000010  c_w.l(libshutdown2.o)
    0x080002a2   0x00000000   Code   RO         7332    .ARM.Collect$$rtentry$$00000000  c_w.l(__rtentry.o)
    0x080002a2   0x00000000   Code   RO         7419    .ARM.Collect$$rtentry$$00000002  c_w.l(__rtentry2.o)
    0x080002a2   0x00000006   Code   RO         7431    .ARM.Collect$$rtentry$$00000004  c_w.l(__rtentry4.o)
    0x080002a8   0x00000000   Code   RO         7421    .ARM.Collect$$rtentry$$00000009  c_w.l(__rtentry2.o)
    0x080002a8   0x00000004   Code   RO         7422    .ARM.Collect$$rtentry$$0000000A  c_w.l(__rtentry2.o)
    0x080002ac   0x00000000   Code   RO         7424    .ARM.Collect$$rtentry$$0000000C  c_w.l(__rtentry2.o)
    0x080002ac   0x00000008   Code   RO         7425    .ARM.Collect$$rtentry$$0000000D  c_w.l(__rtentry2.o)
    0x080002b4   0x00000002   Code   RO         7512    .ARM.Collect$$rtexit$$00000000  c_w.l(rtexit.o)
    0x080002b6   0x00000000   Code   RO         7571    .ARM.Collect$$rtexit$$00000002  c_w.l(rtexit2.o)
    0x080002b6   0x00000004   Code   RO         7572    .ARM.Collect$$rtexit$$00000003  c_w.l(rtexit2.o)
    0x080002ba   0x00000006   Code   RO         7573    .ARM.Collect$$rtexit$$00000004  c_w.l(rtexit2.o)
    0x080002c0   0x0000003c   Code   RO            4    .text               startup_stm32g473xx.o
    0x080002fc   0x00000002   Code   RO         7280    .text               c_w.l(use_no_semi_2.o)
    0x080002fe   0x000000ee   Code   RO         7282    .text               c_w.l(lludivv7m.o)
    0x080003ec   0x00000018   Code   RO         7286    .text               c_w.l(__2printf.o)
    0x08000404   0x00000078   Code   RO         7292    .text               c_w.l(_printf_dec.o)
    0x0800047c   0x00000188   Code   RO         7311    .text               c_w.l(__printf_flags_ss_wp.o)
    0x08000604   0x00000064   Code   RO         7318    .text               c_w.l(rt_memcpy_w.o)
    0x08000668   0x0000004e   Code   RO         7320    .text               c_w.l(rt_memclr_w.o)
    0x080006b6   0x00000006   Code   RO         7322    .text               c_w.l(heapauxi.o)
    0x080006bc   0x00000002   Code   RO         7330    .text               c_w.l(use_no_semi.o)
    0x080006be   0x000000b2   Code   RO         7343    .text               c_w.l(_printf_intcommon.o)
    0x08000770   0x00000030   Code   RO         7347    .text               c_w.l(_printf_char_common.o)
    0x080007a0   0x00000024   Code   RO         7351    .text               c_w.l(_printf_char_file.o)
    0x080007c4   0x00000008   Code   RO         7448    .text               c_w.l(ferror.o)
    0x080007cc   0x0000004a   Code   RO         7454    .text               c_w.l(sys_stackheap_outer.o)
    0x08000816   0x00000012   Code   RO         7493    .text               c_w.l(exit.o)
    0x08000828   0x00000008   Code   RO         7509    .text               c_w.l(libspace.o)
    0x08000830   0x00000098   Code   RO         7141    .text.arm_cos_f32   arm_cortexM4lf_math.lib(arm_cos_f32.o)
    0x080008c8   0x00000090   Code   RO         7150    .text.arm_sin_f32   arm_cortexM4lf_math.lib(arm_sin_f32.o)
    0x08000958   0x0000001c   Code   RO          536    i.ADC1_2_IRQHandler  stm32g4xx_it.o
    0x08000974   0x0000000c   Code   RO          537    i.ADC3_IRQHandler   stm32g4xx_it.o
    0x08000980   0x00000068   Code   RO          688    i.ADC_DMAConvCplt   stm32g4xx_hal_adc.o
    0x080009e8   0x0000001a   Code   RO          689    i.ADC_DMAError      stm32g4xx_hal_adc.o
    0x08000a02   0x0000000a   Code   RO          690    i.ADC_DMAHalfConvCplt  stm32g4xx_hal_adc.o
    0x08000a0c   0x00000070   Code   RO          691    i.ADC_Disable       stm32g4xx_hal_adc.o
    0x08000a7c   0x000000c4   Code   RO          692    i.ADC_Enable        stm32g4xx_hal_adc.o
    0x08000b40   0x00000038   Code   RO         5007    i.BSP_Init          bsp.o
    0x08000b78   0x00000002   Code   RO          538    i.BusFault_Handler  stm32g4xx_it.o
    0x08000b7a   0x00000002   PAD
    0x08000b7c   0x00000054   Code   RO         5102    i.CC6920SO_CalcCur  cc6920so.o
    0x08000bd0   0x00000054   Code   RO         5602    i.CDC_Control_FS    usbd_cdc_if.o
    0x08000c24   0x00000004   Code   RO         5603    i.CDC_DeInit_FS     usbd_cdc_if.o
    0x08000c28   0x00000018   Code   RO         5604    i.CDC_Init_FS       usbd_cdc_if.o
    0x08000c40   0x0000001c   Code   RO         5605    i.CDC_Receive_FS    usbd_cdc_if.o
    0x08000c5c   0x0000000c   Code   RO          539    i.DMA1_Channel1_IRQHandler  stm32g4xx_it.o
    0x08000c68   0x00000040   Code   RO         2001    i.DMA_CalcDMAMUXChannelBaseAndMask  stm32g4xx_hal_dma.o
    0x08000ca8   0x00000024   Code   RO         2002    i.DMA_CalcDMAMUXRequestGenBaseAndMask  stm32g4xx_hal_dma.o
    0x08000ccc   0x0000003e   Code   RO         2003    i.DMA_SetConfig     stm32g4xx_hal_dma.o
    0x08000d0a   0x00000002   Code   RO          540    i.DebugMon_Handler  stm32g4xx_it.o
    0x08000d0c   0x000000c0   Code   RO         5929    i.Debug_Task        debug.o
    0x08000dcc   0x00000004   Code   RO           13    i.Error_Handler     main.o
    0x08000dd0   0x00000064   Code   RO         7095    i.FOC_ABZENC_Angle_Calc  foc_abzenc.o
    0x08000e34   0x00000014   Code   RO         5967    i.FOC_ABZENC_HW_Dir  foc_hw.o
    0x08000e48   0x0000000c   Code   RO         5968    i.FOC_ABZENC_HW_GetCount  foc_hw.o
    0x08000e54   0x0000004c   Code   RO         5969    i.FOC_ABZENC_HW_IRQHandler  foc_hw.o
    0x08000ea0   0x00000020   Code   RO         5970    i.FOC_ABZENC_HW_Init  foc_hw.o
    0x08000ec0   0x00000020   Code   RO         7097    i.FOC_ABZENC_Init   foc_abzenc.o
    0x08000ee0   0x000000b8   Code   RO         7098    i.FOC_ABZENC_Speed_Calc_M  foc_abzenc.o
    0x08000f98   0x00000038   Code   RO         6153    i.FOC_App_Run       foc_app.o
    0x08000fd0   0x00000038   Code   RO         5972    i.FOC_CURRENT_HW_Init  foc_hw.o
    0x08001008   0x0000002a   Code   RO         6336    i.FOC_CURRENT_Init  foc_current.o
    0x08001032   0x00000002   PAD
    0x08001034   0x00000144   Code   RO         6337    i.FOC_CURRENT_OffsetCalc  foc_current.o
    0x08001178   0x00000080   Code   RO         5973    i.FOC_CURRENT_Update  foc_hw.o
    0x080011f8   0x0000001c   Code   RO         6572    i.FOC_Clarke        foc_math.o
    0x08001214   0x0000002c   Code   RO         6573    i.FOC_ERR           foc_math.o
    0x08001240   0x000000f8   Code   RO         6972    i.FOC_FLUX_Angle_Calc  foc_flux.o
    0x08001338   0x000000a8   Code   RO         6973    i.FOC_FLUX_Angle_PLL  foc_flux.o
    0x080013e0   0x00000018   Code   RO         6975    i.FOC_FLUX_Clear    foc_flux.o
    0x080013f8   0x00000054   Code   RO         6976    i.FOC_FLUX_EFFECTIVE_Angle_Calc  foc_flux.o
    0x0800144c   0x0000005c   Code   RO         6977    i.FOC_FLUX_I_Calc   foc_flux.o
    0x080014a8   0x00000084   Code   RO         6978    i.FOC_FLUX_Init     foc_flux.o
    0x0800152c   0x00000080   Code   RO         6979    i.FOC_FLUX_Speed_Calc  foc_flux.o
    0x080015ac   0x000000b8   Code   RO         6980    i.FOC_FLUX_V_Calc   foc_flux.o
    0x08001664   0x000000a8   Code   RO         6915    i.FOC_HALL_Angle_Calc  foc_hall.o
    0x0800170c   0x00000184   Code   RO         5975    i.FOC_HALL_HW_IRQ_Handler  foc_hw.o
    0x08001890   0x0000013c   Code   RO         6916    i.FOC_HALL_Init     foc_hall.o
    0x080019cc   0x000000b4   Code   RO         6491    i.FOC_HFI_Angle_Calc  foc_hfi.o
    0x08001a80   0x00000006   Code   RO         6492    i.FOC_HFI_Clear     foc_hfi.o
    0x08001a86   0x0000003a   Code   RO         6495    i.FOC_HFI_Init      foc_hfi.o
    0x08001ac0   0x00000034   Code   RO         6496    i.FOC_HFI_Inject    foc_hfi.o
    0x08001af4   0x000000d0   Code   RO         6497    i.FOC_HFI_InjectPolIdent  foc_hfi.o
    0x08001bc4   0x0000003c   Code   RO         6498    i.FOC_HFI_Speed_Calc  foc_hfi.o
    0x08001c00   0x00000016   Code   RO         6499    i.FOC_HFI_alphabeta_HF  foc_hfi.o
    0x08001c16   0x00000016   Code   RO         6500    i.FOC_HFI_alphabeta_LF  foc_hfi.o
    0x08001c2c   0x00000040   Code   RO         6917    i.FOC_Hall_Speed_Calc  foc_hall.o
    0x08001c6c   0x00000190   Code   RO         6155    i.FOC_Init          foc_app.o
    0x08001dfc   0x00000006   Code   RO         6256    i.FOC_Motor_Init    foc_motor.o
    0x08001e02   0x00000002   PAD
    0x08001e04   0x000000ec   Code   RO         6258    i.FOC_Motor_Run     foc_motor.o
    0x08001ef0   0x00000032   Code   RO         6259    i.FOC_Motor_Speed_Calc  foc_motor.o
    0x08001f22   0x00000002   PAD
    0x08001f24   0x00000030   Code   RO         6260    i.FOC_Motor_Speed_Ctrl  foc_motor.o
    0x08001f54   0x00000030   Code   RO         5978    i.FOC_PWM_HW_Init   foc_hw.o
    0x08001f84   0x0000008c   Code   RO         5979    i.FOC_PWM_HW_ON_OFF  foc_hw.o
    0x08002010   0x00000020   Code   RO         6698    i.FOC_PWM_Init      foc_pwm.o
    0x08002030   0x0000004c   Code   RO         6699    i.FOC_PWM_Run       foc_pwm.o
    0x0800207c   0x00000014   Code   RO         6700    i.FOC_PWM_StartAll  foc_pwm.o
    0x08002090   0x00000014   Code   RO         6701    i.FOC_PWM_StopALL   foc_pwm.o
    0x080020a4   0x00000044   Code   RO         6575    i.FOC_Rev_Park      foc_math.o
    0x080020e8   0x00000012   Code   RO         6576    i.FOC_SIGN_Judgment  foc_math.o
    0x080020fa   0x00000002   PAD
    0x080020fc   0x0000009c   Code   RO         6772    i.FOC_SL_DirErr     foc_sensorless.o
    0x08002198   0x00000104   Code   RO         6773    i.FOC_SL_HFI_SMO_SW  foc_sensorless.o
    0x0800229c   0x000001c8   Code   RO         6774    i.FOC_SL_RUN        foc_sensorless.o
    0x08002464   0x000000d8   Code   RO         6832    i.FOC_SMO_Angle_Calc  foc_smo.o
    0x0800253c   0x00000024   Code   RO         6833    i.FOC_SMO_Clear     foc_smo.o
    0x08002560   0x00000022   Code   RO         6834    i.FOC_SMO_Init      foc_smo.o
    0x08002582   0x00000002   PAD
    0x08002584   0x00000088   Code   RO         6835    i.FOC_SMO_Speed_Calc  foc_smo.o
    0x0800260c   0x000000a0   Code   RO         6777    i.FOC_Sensorless_Init  foc_sensorless.o
    0x080026ac   0x0000004e   Code   RO         6778    i.FOC_Sensorless_Speed_Cale  foc_sensorless.o
    0x080026fa   0x00000002   PAD
    0x080026fc   0x00000050   Code   RO         7047    i.FOC_VBUS_Calc     foc_vbus.o
    0x0800274c   0x00000010   Code   RO         5981    i.FOC_VBUS_HW_Init  foc_hw.o
    0x0800275c   0x00000016   Code   RO         7049    i.FOC_VBUS_Init     foc_vbus.o
    0x08002772   0x00000002   PAD
    0x08002774   0x00000048   Code   RO         7050    i.FOC_VBUS_Protect  foc_vbus.o
    0x080027bc   0x00000032   Code   RO         6879    i.FOC_VF_Angle_Calc  foc_vf.o
    0x080027ee   0x00000012   Code   RO         6880    i.FOC_VF_Init       foc_vf.o
    0x08002800   0x00000058   Code   RO         6881    i.FOC_VF_Speed_Calc  foc_vf.o
    0x08002858   0x00000044   Code   RO         6577    i.Foc_Park          foc_math.o
    0x0800289c   0x00000094   Code   RO          925    i.HAL_ADCEx_Calibration_Start  stm32g4xx_hal_adc_ex.o
    0x08002930   0x00000002   Code   RO          929    i.HAL_ADCEx_EndOfSamplingCallback  stm32g4xx_hal_adc_ex.o
    0x08002932   0x00000002   PAD
    0x08002934   0x00000560   Code   RO          931    i.HAL_ADCEx_InjectedConfigChannel  stm32g4xx_hal_adc_ex.o
    0x08002e94   0x0000003c   Code   RO         5982    i.HAL_ADCEx_InjectedConvCpltCallback  foc_hw.o
    0x08002ed0   0x0000002e   Code   RO          933    i.HAL_ADCEx_InjectedGetValue  stm32g4xx_hal_adc_ex.o
    0x08002efe   0x00000002   Code   RO          935    i.HAL_ADCEx_InjectedQueueOverflowCallback  stm32g4xx_hal_adc_ex.o
    0x08002f00   0x00000158   Code   RO          937    i.HAL_ADCEx_InjectedStart_IT  stm32g4xx_hal_adc_ex.o
    0x08003058   0x00000002   Code   RO          940    i.HAL_ADCEx_LevelOutOfWindow2Callback  stm32g4xx_hal_adc_ex.o
    0x0800305a   0x00000002   Code   RO          941    i.HAL_ADCEx_LevelOutOfWindow3Callback  stm32g4xx_hal_adc_ex.o
    0x0800305c   0x00000160   Code   RO          942    i.HAL_ADCEx_MultiModeConfigChannel  stm32g4xx_hal_adc_ex.o
    0x080031bc   0x0000046c   Code   RO          694    i.HAL_ADC_ConfigChannel  stm32g4xx_hal_adc.o
    0x08003628   0x00000018   Code   RO         5983    i.HAL_ADC_ConvCpltCallback  foc_hw.o
    0x08003640   0x00000002   Code   RO          696    i.HAL_ADC_ConvHalfCpltCallback  stm32g4xx_hal_adc.o
    0x08003642   0x00000002   Code   RO          698    i.HAL_ADC_ErrorCallback  stm32g4xx_hal_adc.o
    0x08003644   0x000002b8   Code   RO          702    i.HAL_ADC_IRQHandler  stm32g4xx_hal_adc.o
    0x080038fc   0x00000230   Code   RO          703    i.HAL_ADC_Init      stm32g4xx_hal_adc.o
    0x08003b2c   0x00000002   Code   RO          704    i.HAL_ADC_LevelOutOfWindowCallback  stm32g4xx_hal_adc.o
    0x08003b2e   0x00000002   PAD
    0x08003b30   0x000001c0   Code   RO          254    i.HAL_ADC_MspInit   adc.o
    0x08003cf0   0x0000012c   Code   RO          711    i.HAL_ADC_Start_DMA  stm32g4xx_hal_adc.o
    0x08003e1c   0x000000ba   Code   RO         2009    i.HAL_DMA_IRQHandler  stm32g4xx_hal_dma.o
    0x08003ed6   0x00000002   PAD
    0x08003ed8   0x000000c0   Code   RO         2010    i.HAL_DMA_Init      stm32g4xx_hal_dma.o
    0x08003f98   0x0000008c   Code   RO         2014    i.HAL_DMA_Start_IT  stm32g4xx_hal_dma.o
    0x08004024   0x00000024   Code   RO         1141    i.HAL_Delay         stm32g4xx_hal.o
    0x08004048   0x00000248   Code   RO         1866    i.HAL_GPIO_Init     stm32g4xx_hal_gpio.o
    0x08004290   0x0000000a   Code   RO         1868    i.HAL_GPIO_ReadPin  stm32g4xx_hal_gpio.o
    0x0800429a   0x00000010   Code   RO         1869    i.HAL_GPIO_TogglePin  stm32g4xx_hal_gpio.o
    0x080042aa   0x0000000a   Code   RO         1870    i.HAL_GPIO_WritePin  stm32g4xx_hal_gpio.o
    0x080042b4   0x0000000c   Code   RO         1145    i.HAL_GetTick       stm32g4xx_hal.o
    0x080042c0   0x00000010   Code   RO         1151    i.HAL_IncTick       stm32g4xx_hal.o
    0x080042d0   0x0000001e   Code   RO         1152    i.HAL_Init          stm32g4xx_hal.o
    0x080042ee   0x00000002   PAD
    0x080042f0   0x00000044   Code   RO         1153    i.HAL_InitTick      stm32g4xx_hal.o
    0x08004334   0x0000003c   Code   RO          663    i.HAL_MspInit       stm32g4xx_hal_msp.o
    0x08004370   0x0000001a   Code   RO         2513    i.HAL_NVIC_EnableIRQ  stm32g4xx_hal_cortex.o
    0x0800438a   0x00000002   PAD
    0x0800438c   0x00000040   Code   RO         2519    i.HAL_NVIC_SetPriority  stm32g4xx_hal_cortex.o
    0x080043cc   0x00000024   Code   RO         2520    i.HAL_NVIC_SetPriorityGrouping  stm32g4xx_hal_cortex.o
    0x080043f0   0x00000024   Code   RO         4558    i.HAL_PCDEx_ActivateLPM  stm32g4xx_hal_pcd_ex.o
    0x08004414   0x00000002   Code   RO         4563    i.HAL_PCDEx_LPM_Callback  stm32g4xx_hal_pcd_ex.o
    0x08004416   0x0000003c   Code   RO         4564    i.HAL_PCDEx_PMAConfig  stm32g4xx_hal_pcd_ex.o
    0x08004452   0x00000012   Code   RO         5674    i.HAL_PCD_DataInStageCallback  usbd_conf.o
    0x08004464   0x00000014   Code   RO         5675    i.HAL_PCD_DataOutStageCallback  usbd_conf.o
    0x08004478   0x0000004a   Code   RO         4336    i.HAL_PCD_EP_Close  stm32g4xx_hal_pcd.o
    0x080044c2   0x0000005a   Code   RO         4337    i.HAL_PCD_EP_ClrStall  stm32g4xx_hal_pcd.o
    0x0800451c   0x000000dc   Code   RO         4338    i.HAL_PCD_EP_DB_Receive  stm32g4xx_hal_pcd.o
    0x080045f8   0x00000340   Code   RO         4339    i.HAL_PCD_EP_DB_Transmit  stm32g4xx_hal_pcd.o
    0x08004938   0x00000012   Code   RO         4341    i.HAL_PCD_EP_GetRxCount  stm32g4xx_hal_pcd.o
    0x0800494a   0x00000058   Code   RO         4342    i.HAL_PCD_EP_Open   stm32g4xx_hal_pcd.o
    0x080049a2   0x0000002e   Code   RO         4343    i.HAL_PCD_EP_Receive  stm32g4xx_hal_pcd.o
    0x080049d0   0x0000005e   Code   RO         4344    i.HAL_PCD_EP_SetStall  stm32g4xx_hal_pcd.o
    0x08004a2e   0x0000002e   Code   RO         4345    i.HAL_PCD_EP_Transmit  stm32g4xx_hal_pcd.o
    0x08004a5c   0x0000014a   Code   RO         4347    i.HAL_PCD_IRQHandler  stm32g4xx_hal_pcd.o
    0x08004ba6   0x00000002   PAD
    0x08004ba8   0x0000009c   Code   RO         4350    i.HAL_PCD_Init      stm32g4xx_hal_pcd.o
    0x08004c44   0x00000058   Code   RO          495    i.HAL_PCD_MspInit   usb.o
    0x08004c9c   0x00000064   Code   RO         5679    i.HAL_PCD_ResetCallback  usbd_conf.o
    0x08004d00   0x00000040   Code   RO         5680    i.HAL_PCD_ResumeCallback  usbd_conf.o
    0x08004d40   0x00000008   Code   RO         5681    i.HAL_PCD_SOFCallback  usbd_conf.o
    0x08004d48   0x00000026   Code   RO         4356    i.HAL_PCD_SetAddress  stm32g4xx_hal_pcd.o
    0x08004d6e   0x0000000e   Code   RO         5682    i.HAL_PCD_SetupStageCallback  usbd_conf.o
    0x08004d7c   0x0000002a   Code   RO         4358    i.HAL_PCD_Start     stm32g4xx_hal_pcd.o
    0x08004da6   0x00000002   PAD
    0x08004da8   0x00000050   Code   RO         5683    i.HAL_PCD_SuspendCallback  usbd_conf.o
    0x08004df8   0x000000bc   Code   RO         2269    i.HAL_PWREx_ControlVoltageScaling  stm32g4xx_hal_pwr_ex.o
    0x08004eb4   0x00000010   Code   RO         2281    i.HAL_PWREx_DisableUCPDDeadBattery  stm32g4xx_hal_pwr_ex.o
    0x08004ec4   0x0000004c   Code   RO         1494    i.HAL_RCCEx_CRSConfig  stm32g4xx_hal_rcc_ex.o
    0x08004f10   0x00000300   Code   RO         1512    i.HAL_RCCEx_PeriphCLKConfig  stm32g4xx_hal_rcc_ex.o
    0x08005210   0x000001dc   Code   RO         1387    i.HAL_RCC_ClockConfig  stm32g4xx_hal_rcc.o
    0x080053ec   0x00000024   Code   RO         1395    i.HAL_RCC_GetPCLK1Freq  stm32g4xx_hal_rcc.o
    0x08005410   0x00000024   Code   RO         1396    i.HAL_RCC_GetPCLK2Freq  stm32g4xx_hal_rcc.o
    0x08005434   0x00000070   Code   RO         1397    i.HAL_RCC_GetSysClockFreq  stm32g4xx_hal_rcc.o
    0x080054a4   0x00000404   Code   RO         1400    i.HAL_RCC_OscConfig  stm32g4xx_hal_rcc.o
    0x080058a8   0x00000010   Code   RO         1162    i.HAL_SYSCFG_DisableVREFBUF  stm32g4xx_hal.o
    0x080058b8   0x00000014   Code   RO         1167    i.HAL_SYSCFG_VREFBUF_HighImpedanceConfig  stm32g4xx_hal.o
    0x080058cc   0x00000018   Code   RO         2522    i.HAL_SYSTICK_CLKSourceConfig  stm32g4xx_hal_cortex.o
    0x080058e4   0x00000028   Code   RO         2524    i.HAL_SYSTICK_Config  stm32g4xx_hal_cortex.o
    0x0800590c   0x00000002   Code   RO         3359    i.HAL_TIMEx_Break2Callback  stm32g4xx_hal_tim_ex.o
    0x0800590e   0x00000002   Code   RO         3360    i.HAL_TIMEx_BreakCallback  stm32g4xx_hal_tim_ex.o
    0x08005910   0x00000002   Code   RO         3361    i.HAL_TIMEx_CommutCallback  stm32g4xx_hal_tim_ex.o
    0x08005912   0x00000002   PAD
    0x08005914   0x000000a8   Code   RO         3364    i.HAL_TIMEx_ConfigBreakDeadTime  stm32g4xx_hal_tim_ex.o
    0x080059bc   0x00000002   Code   RO         3372    i.HAL_TIMEx_DirectionChangeCallback  stm32g4xx_hal_tim_ex.o
    0x080059be   0x00000002   Code   RO         3386    i.HAL_TIMEx_EncoderIndexCallback  stm32g4xx_hal_tim_ex.o
    0x080059c0   0x000000dc   Code   RO         3391    i.HAL_TIMEx_HallSensor_Init  stm32g4xx_hal_tim_ex.o
    0x08005a9c   0x00000070   Code   RO          333    i.HAL_TIMEx_HallSensor_MspInit  tim.o
    0x08005b0c   0x00000002   Code   RO         3400    i.HAL_TIMEx_IndexErrorCallback  stm32g4xx_hal_tim_ex.o
    0x08005b0e   0x00000002   PAD
    0x08005b10   0x000000b8   Code   RO         3401    i.HAL_TIMEx_MasterConfigSynchronization  stm32g4xx_hal_tim_ex.o
    0x08005bc8   0x000000cc   Code   RO         3413    i.HAL_TIMEx_PWMN_Start  stm32g4xx_hal_tim_ex.o
    0x08005c94   0x00000068   Code   RO         3416    i.HAL_TIMEx_PWMN_Stop  stm32g4xx_hal_tim_ex.o
    0x08005cfc   0x00000002   Code   RO         3422    i.HAL_TIMEx_TransitionErrorCallback  stm32g4xx_hal_tim_ex.o
    0x08005cfe   0x00000062   Code   RO         2645    i.HAL_TIM_Base_Init  stm32g4xx_hal_tim.o
    0x08005d60   0x0000003c   Code   RO          335    i.HAL_TIM_Base_MspInit  tim.o
    0x08005d9c   0x0000008c   Code   RO         2650    i.HAL_TIM_Base_Start_IT  stm32g4xx_hal_tim.o
    0x08005e28   0x000000a8   Code   RO         2666    i.HAL_TIM_Encoder_Init  stm32g4xx_hal_tim.o
    0x08005ed0   0x00000060   Code   RO          337    i.HAL_TIM_Encoder_MspInit  tim.o
    0x08005f30   0x0000008e   Code   RO         2669    i.HAL_TIM_Encoder_Start  stm32g4xx_hal_tim.o
    0x08005fbe   0x00000002   PAD
    0x08005fc0   0x00000034   Code   RO         5984    i.HAL_TIM_IC_CaptureCallback  foc_hw.o
    0x08005ff4   0x00000124   Code   RO         2681    i.HAL_TIM_IC_ConfigChannel  stm32g4xx_hal_tim.o
    0x08006118   0x00000062   Code   RO         2684    i.HAL_TIM_IC_Init   stm32g4xx_hal_tim.o
    0x0800617a   0x00000002   PAD
    0x0800617c   0x00000070   Code   RO          339    i.HAL_TIM_IC_MspInit  tim.o
    0x080061ec   0x00000140   Code   RO         2689    i.HAL_TIM_IC_Start_IT  stm32g4xx_hal_tim.o
    0x0800632c   0x000001a2   Code   RO         2693    i.HAL_TIM_IRQHandler  stm32g4xx_hal_tim.o
    0x080064ce   0x00000002   PAD
    0x080064d0   0x00000094   Code   RO          340    i.HAL_TIM_MspPostInit  tim.o
    0x08006564   0x00000002   Code   RO         5985    i.HAL_TIM_OC_DelayElapsedCallback  foc_hw.o
    0x08006566   0x00000002   PAD
    0x08006568   0x00000140   Code   RO         2703    i.HAL_TIM_OC_Start_IT  stm32g4xx_hal_tim.o
    0x080066a8   0x000000f8   Code   RO         2706    i.HAL_TIM_OC_Stop_IT  stm32g4xx_hal_tim.o
    0x080067a0   0x00000124   Code   RO         2717    i.HAL_TIM_PWM_ConfigChannel  stm32g4xx_hal_tim.o
    0x080068c4   0x00000062   Code   RO         2720    i.HAL_TIM_PWM_Init  stm32g4xx_hal_tim.o
    0x08006926   0x00000002   PAD
    0x08006928   0x0000003c   Code   RO          342    i.HAL_TIM_PWM_MspInit  tim.o
    0x08006964   0x00000002   Code   RO         2723    i.HAL_TIM_PWM_PulseFinishedCallback  stm32g4xx_hal_tim.o
    0x08006966   0x00000002   PAD
    0x08006968   0x00000114   Code   RO         2725    i.HAL_TIM_PWM_Start  stm32g4xx_hal_tim.o
    0x08006a7c   0x000000b8   Code   RO         2728    i.HAL_TIM_PWM_Stop  stm32g4xx_hal_tim.o
    0x08006b34   0x00000038   Code   RO         5986    i.HAL_TIM_PeriodElapsedCallback  foc_hw.o
    0x08006b6c   0x00000002   Code   RO         2736    i.HAL_TIM_TriggerCallback  stm32g4xx_hal_tim.o
    0x08006b6e   0x0000003e   Code   RO         4208    i.HAL_UARTEx_DisableFifoMode  stm32g4xx_hal_uart_ex.o
    0x08006bac   0x0000004c   Code   RO         4217    i.HAL_UARTEx_SetRxFifoThreshold  stm32g4xx_hal_uart_ex.o
    0x08006bf8   0x0000004c   Code   RO         4218    i.HAL_UARTEx_SetTxFifoThreshold  stm32g4xx_hal_uart_ex.o
    0x08006c44   0x0000006a   Code   RO         3817    i.HAL_UART_Init     stm32g4xx_hal_uart.o
    0x08006cae   0x00000002   PAD
    0x08006cb0   0x0000007c   Code   RO          453    i.HAL_UART_MspInit  usart.o
    0x08006d2c   0x00000002   Code   RO         6918    i.Hall_Parameter_Calculate  foc_hall.o
    0x08006d2e   0x00000002   Code   RO         6919    i.Hall_Parameter_Debug  foc_hall.o
    0x08006d30   0x00000036   Code   RO         6920    i.Hall_SectorComp_Caculate  foc_hall.o
    0x08006d66   0x00000002   Code   RO          541    i.HardFault_Handler  stm32g4xx_it.o
    0x08006d68   0x00000038   Code   RO         5856    i.IntToUnicode      usbd_desc.o
    0x08006da0   0x0000000c   Code   RO          717    i.LL_ADC_GetOffsetChannel  stm32g4xx_hal_adc.o
    0x08006dac   0x0000000c   Code   RO          950    i.LL_ADC_GetOffsetChannel  stm32g4xx_hal_adc_ex.o
    0x08006db8   0x00000008   Code   RO          718    i.LL_ADC_INJ_IsConversionOngoing  stm32g4xx_hal_adc.o
    0x08006dc0   0x00000008   Code   RO          951    i.LL_ADC_INJ_IsConversionOngoing  stm32g4xx_hal_adc_ex.o
    0x08006dc8   0x00000008   Code   RO          719    i.LL_ADC_REG_IsConversionOngoing  stm32g4xx_hal_adc.o
    0x08006dd0   0x00000008   Code   RO          952    i.LL_ADC_REG_IsConversionOngoing  stm32g4xx_hal_adc_ex.o
    0x08006dd8   0x00000010   Code   RO          720    i.LL_ADC_REG_IsTriggerSourceSWStart  stm32g4xx_hal_adc.o
    0x08006de8   0x0000001e   Code   RO          722    i.LL_ADC_SetChannelSamplingTime  stm32g4xx_hal_adc.o
    0x08006e06   0x0000001e   Code   RO          953    i.LL_ADC_SetChannelSamplingTime  stm32g4xx_hal_adc_ex.o
    0x08006e24   0x00000010   Code   RO          723    i.LL_ADC_SetOffsetState  stm32g4xx_hal_adc.o
    0x08006e34   0x00000010   Code   RO          954    i.LL_ADC_SetOffsetState  stm32g4xx_hal_adc_ex.o
    0x08006e44   0x00000040   Code   RO         6578    i.Limit_Angle       foc_math.o
    0x08006e84   0x000000e4   Code   RO          255    i.MX_ADC1_Init      adc.o
    0x08006f68   0x000000cc   Code   RO          256    i.MX_ADC2_Init      adc.o
    0x08007034   0x000000e4   Code   RO          257    i.MX_ADC3_Init      adc.o
    0x08007118   0x0000003c   Code   RO          308    i.MX_DMA_Init       dma.o
    0x08007154   0x0000006c   Code   RO          229    i.MX_GPIO_Init      gpio.o
    0x080071c0   0x0000010c   Code   RO          343    i.MX_TIM1_Init      tim.o
    0x080072cc   0x0000006c   Code   RO          344    i.MX_TIM2_Init      tim.o
    0x08007338   0x00000070   Code   RO          345    i.MX_TIM3_Init      tim.o
    0x080073a8   0x0000005c   Code   RO          346    i.MX_TIM5_Init      tim.o
    0x08007404   0x00000048   Code   RO          347    i.MX_TIM6_Init      tim.o
    0x0800744c   0x00000068   Code   RO          454    i.MX_USART1_UART_Init  usart.o
    0x080074b4   0x0000003c   Code   RO         5553    i.MX_USB_Device_Init  usb_device.o
    0x080074f0   0x00000038   Code   RO          496    i.MX_USB_PCD_Init   usb.o
    0x08007528   0x00000002   Code   RO          542    i.MemManage_Handler  stm32g4xx_it.o
    0x0800752a   0x00000002   PAD
    0x0800752c   0x00000064   Code   RO         6261    i.Motor_ABZ_ENC_CALIB  foc_motor.o
    0x08007590   0x000000c8   Code   RO         6262    i.Motor_ABZ_ENC_RUN  foc_motor.o
    0x08007658   0x000000c8   Code   RO         6263    i.Motor_HALL_RUN    foc_motor.o
    0x08007720   0x00000088   Code   RO         6264    i.Motor_Run_Open    foc_motor.o
    0x080077a8   0x000001a4   Code   RO         6265    i.Motor_SL_RUN      foc_motor.o
    0x0800794c   0x00000030   Code   RO         6417    i.Move_Filter_Clear  foc_filter.o
    0x0800797c   0x00000022   Code   RO         6418    i.Move_Filter_Init  foc_filter.o
    0x0800799e   0x00000002   PAD
    0x080079a0   0x00000040   Code   RO         6419    i.Move_Filter_calculate  foc_filter.o
    0x080079e0   0x0000004a   Code   RO         6420    i.Move_Filter_fill  foc_filter.o
    0x08007a2a   0x00000002   Code   RO          543    i.NMI_Handler       stm32g4xx_it.o
    0x08007a2c   0x00000396   Code   RO         4361    i.PCD_EP_ISR_Handler  stm32g4xx_hal_pcd.o
    0x08007dc2   0x00000002   PAD
    0x08007dc4   0x0000003c   Code   RO         6641    i.PID_Clear         foc_pid.o
    0x08007e00   0x0000002c   Code   RO         6643    i.PID_Init          foc_pid.o
    0x08007e2c   0x00000260   Code   RO         6644    i.PID_Position_ctrl  foc_pid.o
    0x0800808c   0x000000a8   Code   RO         6422    i.PLL_Cale_HFI      foc_filter.o
    0x08008134   0x000000ac   Code   RO         6423    i.PLL_Cale_SMO      foc_filter.o
    0x080081e0   0x00000024   Code   RO         6424    i.PLL_Clear         foc_filter.o
    0x08008204   0x0000000e   Code   RO         6425    i.PLL_Init          foc_filter.o
    0x08008212   0x00000002   Code   RO          544    i.PendSV_Handler    stm32g4xx_it.o
    0x08008214   0x00000002   Code   RO          545    i.SVC_Handler       stm32g4xx_it.o
    0x08008216   0x0000000a   Code   RO         5313    i.SWAPBYTE          usbd_ctlreq.o
    0x08008220   0x0000002e   Code   RO         6836    i.Sat               foc_smo.o
    0x0800824e   0x00000002   PAD
    0x08008250   0x00000078   Code   RO         6704    i.Sector_Judgment   foc_pwm.o
    0x080082c8   0x0000002c   Code   RO          546    i.SysTick_Handler   stm32g4xx_it.o
    0x080082f4   0x0000006e   Code   RO           14    i.SystemClock_Config  main.o
    0x08008362   0x00000002   PAD
    0x08008364   0x00000010   Code   RO         4774    i.SystemInit        system_stm32g4xx.o
    0x08008374   0x0000000c   Code   RO          547    i.TIM1_UP_TIM16_IRQHandler  stm32g4xx_it.o
    0x08008380   0x0000000c   Code   RO          548    i.TIM2_IRQHandler   stm32g4xx_it.o
    0x0800838c   0x0000000c   Code   RO          549    i.TIM5_IRQHandler   stm32g4xx_it.o
    0x08008398   0x0000000c   Code   RO          550    i.TIM6_DAC_IRQHandler  stm32g4xx_it.o
    0x080083a4   0x000000e4   Code   RO         2738    i.TIM_Base_SetConfig  stm32g4xx_hal_tim.o
    0x08008488   0x0000001a   Code   RO         2739    i.TIM_CCxChannelCmd  stm32g4xx_hal_tim.o
    0x080084a2   0x0000001a   Code   RO         3425    i.TIM_CCxNChannelCmd  stm32g4xx_hal_tim_ex.o
    0x080084bc   0x000000ac   Code   RO         2751    i.TIM_OC1_SetConfig  stm32g4xx_hal_tim.o
    0x08008568   0x000000a0   Code   RO         2752    i.TIM_OC2_SetConfig  stm32g4xx_hal_tim.o
    0x08008608   0x000000a0   Code   RO         2753    i.TIM_OC3_SetConfig  stm32g4xx_hal_tim.o
    0x080086a8   0x000000a0   Code   RO         2754    i.TIM_OC4_SetConfig  stm32g4xx_hal_tim.o
    0x08008748   0x00000078   Code   RO         2755    i.TIM_OC5_SetConfig  stm32g4xx_hal_tim.o
    0x080087c0   0x0000007c   Code   RO         2756    i.TIM_OC6_SetConfig  stm32g4xx_hal_tim.o
    0x0800883c   0x00000080   Code   RO         2759    i.TIM_TI1_SetConfig  stm32g4xx_hal_tim.o
    0x080088bc   0x00000036   Code   RO         2761    i.TIM_TI2_SetConfig  stm32g4xx_hal_tim.o
    0x080088f2   0x00000002   PAD
    0x080088f4   0x00000044   Code   RO         4222    i.UARTEx_SetNbDataToProcess  stm32g4xx_hal_uart_ex.o
    0x08008938   0x000000c8   Code   RO         3831    i.UART_AdvFeatureConfig  stm32g4xx_hal_uart.o
    0x08008a00   0x000000ac   Code   RO         3832    i.UART_CheckIdleState  stm32g4xx_hal_uart.o
    0x08008aac   0x00000054   Code   RO         3843    i.UART_EndRxTransfer  stm32g4xx_hal_uart.o
    0x08008b00   0x00000298   Code   RO         3849    i.UART_SetConfig    stm32g4xx_hal_uart.o
    0x08008d98   0x00000094   Code   RO         3856    i.UART_WaitOnFlagUntilTimeout  stm32g4xx_hal_uart.o
    0x08008e2c   0x00000020   Code   RO         5857    i.USBD_CDC_ConfigStrDescriptor  usbd_desc.o
    0x08008e4c   0x0000005e   Code   RO         5446    i.USBD_CDC_DataIn   usbd_cdc.o
    0x08008eaa   0x0000002a   Code   RO         5447    i.USBD_CDC_DataOut  usbd_cdc.o
    0x08008ed4   0x00000040   Code   RO         5448    i.USBD_CDC_DeInit   usbd_cdc.o
    0x08008f14   0x0000000c   Code   RO         5858    i.USBD_CDC_DeviceDescriptor  usbd_desc.o
    0x08008f20   0x0000002e   Code   RO         5449    i.USBD_CDC_EP0_RxReady  usbd_cdc.o
    0x08008f4e   0x00000002   PAD
    0x08008f50   0x0000000c   Code   RO         5450    i.USBD_CDC_GetDeviceQualifierDescriptor  usbd_cdc.o
    0x08008f5c   0x0000000c   Code   RO         5451    i.USBD_CDC_GetFSCfgDesc  usbd_cdc.o
    0x08008f68   0x0000000c   Code   RO         5452    i.USBD_CDC_GetHSCfgDesc  usbd_cdc.o
    0x08008f74   0x0000000c   Code   RO         5453    i.USBD_CDC_GetOtherSpeedCfgDesc  usbd_cdc.o
    0x08008f80   0x00000090   Code   RO         5454    i.USBD_CDC_Init     usbd_cdc.o
    0x08009010   0x00000024   Code   RO         5859    i.USBD_CDC_InterfaceStrDescriptor  usbd_desc.o
    0x08009034   0x0000000c   Code   RO         5860    i.USBD_CDC_LangIDStrDescriptor  usbd_desc.o
    0x08009040   0x00000028   Code   RO         5861    i.USBD_CDC_ManufacturerStrDescriptor  usbd_desc.o
    0x08009068   0x00000038   Code   RO         5862    i.USBD_CDC_ProductStrDescriptor  usbd_desc.o
    0x080090a0   0x00000028   Code   RO         5455    i.USBD_CDC_ReceivePacket  usbd_cdc.o
    0x080090c8   0x0000000e   Code   RO         5456    i.USBD_CDC_RegisterInterface  usbd_cdc.o
    0x080090d6   0x00000002   PAD
    0x080090d8   0x00000038   Code   RO         5863    i.USBD_CDC_SerialStrDescriptor  usbd_desc.o
    0x08009110   0x00000012   Code   RO         5457    i.USBD_CDC_SetRxBuffer  usbd_cdc.o
    0x08009122   0x00000016   Code   RO         5458    i.USBD_CDC_SetTxBuffer  usbd_cdc.o
    0x08009138   0x000000be   Code   RO         5459    i.USBD_CDC_Setup    usbd_cdc.o
    0x080091f6   0x00000036   Code   RO         5460    i.USBD_CDC_TransmitPacket  usbd_cdc.o
    0x0800922c   0x0000005c   Code   RO         5554    i.USBD_Clock_Config  usb_device.o
    0x08009288   0x00000010   Code   RO         5153    i.USBD_ClrClassConfig  usbd_core.o
    0x08009298   0x00000010   Code   RO         5386    i.USBD_CtlContinueRx  usbd_ioreq.o
    0x080092a8   0x00000010   Code   RO         5387    i.USBD_CtlContinueSendData  usbd_ioreq.o
    0x080092b8   0x00000016   Code   RO         5314    i.USBD_CtlError     usbd_ctlreq.o
    0x080092ce   0x0000001e   Code   RO         5388    i.USBD_CtlPrepareRx  usbd_ioreq.o
    0x080092ec   0x00000016   Code   RO         5389    i.USBD_CtlReceiveStatus  usbd_ioreq.o
    0x08009302   0x0000001a   Code   RO         5390    i.USBD_CtlSendData  usbd_ioreq.o
    0x0800931c   0x00000016   Code   RO         5391    i.USBD_CtlSendStatus  usbd_ioreq.o
    0x08009332   0x000000e6   Code   RO         5315    i.USBD_GetDescriptor  usbd_ctlreq.o
    0x08009418   0x00000048   Code   RO         5316    i.USBD_GetString    usbd_ctlreq.o
    0x08009460   0x00000018   Code   RO         5684    i.USBD_Get_USB_Status  usbd_conf.o
    0x08009478   0x00000026   Code   RO         5155    i.USBD_Init         usbd_core.o
    0x0800949e   0x00000012   Code   RO         5685    i.USBD_LL_ClearStallEP  usbd_conf.o
    0x080094b0   0x00000012   Code   RO         5686    i.USBD_LL_CloseEP   usbd_conf.o
    0x080094c2   0x000000a8   Code   RO         5156    i.USBD_LL_DataInStage  usbd_core.o
    0x0800956a   0x0000006c   Code   RO         5157    i.USBD_LL_DataOutStage  usbd_core.o
    0x080095d6   0x00000008   Code   RO         5690    i.USBD_LL_GetRxDataSize  usbd_conf.o
    0x080095de   0x00000002   PAD
    0x080095e0   0x00000074   Code   RO         5691    i.USBD_LL_Init      usbd_conf.o
    0x08009654   0x0000001e   Code   RO         5692    i.USBD_LL_IsStallEP  usbd_conf.o
    0x08009672   0x00000018   Code   RO         5693    i.USBD_LL_OpenEP    usbd_conf.o
    0x0800968a   0x00000012   Code   RO         5694    i.USBD_LL_PrepareReceive  usbd_conf.o
    0x0800969c   0x0000005a   Code   RO         5162    i.USBD_LL_Reset     usbd_core.o
    0x080096f6   0x00000014   Code   RO         5163    i.USBD_LL_Resume    usbd_core.o
    0x0800970a   0x00000020   Code   RO         5164    i.USBD_LL_SOF       usbd_core.o
    0x0800972a   0x00000006   Code   RO         5165    i.USBD_LL_SetSpeed  usbd_core.o
    0x08009730   0x0000001c   Code   RO         5695    i.USBD_LL_SetUSBAddress  usbd_conf.o
    0x0800974c   0x00000060   Code   RO         5166    i.USBD_LL_SetupStage  usbd_core.o
    0x080097ac   0x00000012   Code   RO         5696    i.USBD_LL_StallEP   usbd_conf.o
    0x080097be   0x00000012   Code   RO         5697    i.USBD_LL_Start     usbd_conf.o
    0x080097d0   0x00000012   Code   RO         5167    i.USBD_LL_Suspend   usbd_core.o
    0x080097e2   0x00000012   Code   RO         5699    i.USBD_LL_Transmit  usbd_conf.o
    0x080097f4   0x0000002c   Code   RO         5317    i.USBD_ParseSetupRequest  usbd_ctlreq.o
    0x08009820   0x00000024   Code   RO         5168    i.USBD_RegisterClass  usbd_core.o
    0x08009844   0x00000014   Code   RO         5170    i.USBD_SetClassConfig  usbd_core.o
    0x08009858   0x000000bc   Code   RO         5318    i.USBD_SetConfig    usbd_ctlreq.o
    0x08009914   0x00000004   Code   RO         5171    i.USBD_Start        usbd_core.o
    0x08009918   0x00000114   Code   RO         5319    i.USBD_StdDevReq    usbd_ctlreq.o
    0x08009a2c   0x00000140   Code   RO         5320    i.USBD_StdEPReq     usbd_ctlreq.o
    0x08009b6c   0x00000052   Code   RO         5321    i.USBD_StdItfReq    usbd_ctlreq.o
    0x08009bbe   0x0000029c   Code   RO         4623    i.USB_ActivateEndpoint  stm32g4xx_ll_usb.o
    0x08009e5a   0x0000010e   Code   RO         4627    i.USB_DeactivateEndpoint  stm32g4xx_ll_usb.o
    0x08009f68   0x0000000e   Code   RO         4628    i.USB_DevConnect    stm32g4xx_ll_usb.o
    0x08009f76   0x00000012   Code   RO         4630    i.USB_DevInit       stm32g4xx_ll_usb.o
    0x08009f88   0x00000010   Code   RO         4631    i.USB_DisableGlobalInt  stm32g4xx_ll_usb.o
    0x08009f98   0x00000078   Code   RO         4632    i.USB_EPClearStall  stm32g4xx_ll_usb.o
    0x0800a010   0x00000032   Code   RO         4633    i.USB_EPSetStall    stm32g4xx_ll_usb.o
    0x0800a042   0x000004e2   Code   RO         4634    i.USB_EPStartXfer   stm32g4xx_ll_usb.o
    0x0800a524   0x00000012   Code   RO         4636    i.USB_EnableGlobalInt  stm32g4xx_ll_usb.o
    0x0800a536   0x00000002   PAD
    0x0800a538   0x0000000c   Code   RO          551    i.USB_LP_IRQHandler  stm32g4xx_it.o
    0x0800a544   0x00000006   Code   RO         4639    i.USB_ReadInterrupts  stm32g4xx_ll_usb.o
    0x0800a54a   0x00000028   Code   RO         4640    i.USB_ReadPMA       stm32g4xx_ll_usb.o
    0x0800a572   0x0000000c   Code   RO         4642    i.USB_SetDevAddress  stm32g4xx_ll_usb.o
    0x0800a57e   0x00000002   PAD
    0x0800a580   0x00000026   Code   RO         4644    i.USB_WritePMA      stm32g4xx_ll_usb.o
    0x0800a5a6   0x00000002   Code   RO          552    i.UsageFault_Handler  stm32g4xx_it.o
    0x0800a5a8   0x0000025c   Code   RO         6705    i.VectorActionTime  foc_pwm.o
    0x0800a804   0x0000000e   Code   RO         6579    i._MecAngle_to_ElAngle  foc_math.o
    0x0800a812   0x00000012   Code   RO         6645    i.__ARM_isinff      foc_pid.o
    0x0800a824   0x0000000c   Code   RO         6646    i.__ARM_isnanf      foc_pid.o
    0x0800a830   0x00000020   Code   RO         2526    i.__NVIC_SetPriority  stm32g4xx_hal_cortex.o
    0x0800a850   0x0000000e   Code   RO         7304    i._is_digit         c_w.l(__printf_wp.o)
    0x0800a85e   0x00000002   Code   RO         4875    i._sys_exit         my_usart.o
    0x0800a860   0x00000058   Code   RO         5606    i.cdc_vcp_data_rx   usbd_cdc_if.o
    0x0800a8b8   0x0000001c   Code   RO         5607    i.cdc_vcp_data_tx   usbd_cdc_if.o
    0x0800a8d4   0x00000030   Code   RO         4814    i.delay_init        delay.o
    0x0800a904   0x0000001a   Code   RO         4815    i.delay_ms          delay.o
    0x0800a91e   0x00000002   PAD
