:020000040800F2
:1000000010840020C10200082B7A0008676D0008E8
:1000100029750008790B0008A7A50008000000005A
:100020000000000000000000000000001582000831
:100030000B0D00080000000013820008C9820008B0
:10004000DB020008DB020008DB020008DB0200081C
:10005000DB020008DB020008DB020008DB0200080C
:10006000DB020008DB020008DB0200085D0C000870
:10007000DB020008DB020008DB020008DB020008EC
:10008000DB020008DB02000859090008DB02000857
:1000900039A50008DB020008DB020008DB020008CB
:1000A000DB02000875830008DB020008DB020008A1
:1000B00081830008DB020008DB020008DB02000885
:1000C000DB020008DB020008DB020008DB0200089C
:1000D000DB020008DB020008DB020008DB0200088C
:1000E000DB020008DB020008DB020008DB0200087C
:1000F000DB020008DB020008DB02000875090008CB
:10010000DB020008DB0200088D830008DB02000828
:10011000DB020008DB02000899830008DB0200080C
:10012000DB020008DB020008DB020008DB0200083B
:10013000DB020008DB020008DB020008DB0200082B
:10014000DB020008DB020008DB0200080000000000
:10015000000000000000000000000000000000009F
:10016000000000000000000000000000DB020008AA
:10017000DB020008DB020008DB020008DB020008EB
:10018000DB020008DB020008DB020008DB020008DB
:10019000DB02000800000000DB020008DB020008B0
:1001A000DB020008DB020008DB020008DB020008BB
:1001B000DB020008DB020008DB020008DB020008AB
:1001C000DB020008DB020008DB020008DB0200089B
:1001D000DB020008DB02000800F002F800F061F822
:1001E0000AA090E8000C82448344AAF10107DA4592
:1001F00001D100F056F8AFF2090EBAE80F0013F083
:10020000010F18BFFB1A43F00103184748B1000063
:1002100068B100000A444FF0000C10F8013B13F0E5
:10022000070408BF10F8014B1D1108BF10F8015B4F
:10023000641E05D010F8016B641E01F8016BF9D142
:1002400013F0080F1EBF10F8014BAD1C0C1B09D199
:100250006D1E58BF01F801CBFAD505E014F8016B0B
:1002600001F8016B6D1EF9D59142D6D3704700009D
:100270000023002400250026103A28BF78C1FBD8AF
:10028000520728BF30C148BF0B607047642900F097
:10029000B980002070471FB50AF0E2FB1FBD10B502
:1002A00010BD00F093FA1146FFF7F5FF0AF05EFB70
:1002B00000F0B1FA03B4FFF7F2FF03BC0AF0CFFA83
:1002C0000948804709480047FEE7FEE7FEE7FEE7EA
:1002D000FEE7FEE7FEE7FEE7FEE7FEE70448054926
:1002E000034A054B7047000065830008D9010008E8
:1002F000108000201084002010800020704753EAF6
:10030000020C00F069802DE9F04B4FF00006002B45
:100310001FBFB3FA83F503FA05F424FA05F65E402D
:1003200012BF1643B2FA82F502FA05F4C5F12005B0
:100330001EBF22FA05FC44EA0C04203556EA044CA0
:100340004FEA144418BF641C4FF000084FF0000936
:10035000904271EB030C39D3002919BFB1FA81F730
:1003600001FA07F6B0FA80F700FA07F6C7F120079E
:100370001EBF20FA07FC46EA0C062037B6FBF4FC49
:10038000A7EB0507103F07F01F0BCBF120060CFA77
:100390000BFB2CFA06F644BFB3460026202FA4BF61
:1003A0005E464FF0000B5BEA060C08BF4FF0010BF6
:1003B00019EB0B09ABFB027C48EB0608C01B06FBE4
:1003C00002CC0BFB03CC71EB0C01C1E70B460246E0
:1003D00041464846BDE8F08B13B54FF000004FF0A2
:1003E0000001AFF30080BDE81C4070470FB4044922
:1003F00010B503AA029800F0D3F910BC5DF814FB05
:10040000200000202DE9F0410646002410687529DF
:10041000314616A510D0AFF30080002802DA404222
:1004200013A507E031688A0701D512A502E0490744
:1004300004D511A5012401E0AFF3008000210A22B8
:1004400006F1240709E0B0FBF2FCB0FBF2F302FB7B
:100450001C00303078541846491C0028F3D123463C
:100460002A463046BDE8F04100F029B900000000FE
:100470002D0000002B000000200000002DE9F05F9F
:10048000894604464FF0000ADFF874B1FB44C0F817
:1004900020A02046E1688847002874D0252806D08F
:1004A000D4E901219047206A401C2062F1E7002630
:1004B0005F462046E16888472028054607DB312D46
:1004C00005D2781910F8200C08B10643F1E7B007FF
:1004D00001D526F00406C4F81CA00027C4F818A013
:1004E0002A2D09D028460AF0B3F938B304EB87085F
:1004F000303DC8F8185019E059F8041B204604EBA9
:1005000087029161E1688847012F054618D1E069AB
:10051000002820DA26F020061DE0D8F8180000EBAD
:10052000800005EB40003038C8F818002046E1682C
:10053000884705460AF08CF90028EED1012F0AD031
:100540002E2D08D12046E16888477F1C0546022FE2
:1005500046F02006C4DBA069002803DA404246F0DA
:100560000106A061F00701D026F010066C2D0BD01B
:10057000682D09D04C2D39D06A2D35D0742D35D049
:100580007A2D33D016E038E0E1682F4620468847C0
:10059000B842054609D16C2F26D04FF48060E1683F
:1005A000064320468847054604E06C2F1AD04FF4D6
:1005B000807006430DB3A5F14100192802D82035FB
:1005C00046F400664A462946204626604E46FFF716
:1005D0005DFE80B101280BD0F61D26F0070000F16A
:1005E000080956E74020E4E78020D8E70020D6E756
:1005F00006F104094DE7284652E7206ABDE8F09F5E
:10060000ACA6000010B5203AC0F00B80B1E818503D
:10061000203AA0E81850B1E81850A0E81850BFF4EC
:10062000F5AF5FEA027C24BFB1E81850A0E818508B
:1006300044BF18C918C0BDE810405FEA827C24BFDF
:1006400051F8043B40F8043B08BF7047D20728BF6D
:1006500031F8023B48BF11F8012B28BF20F8023BBC
:1006600048BF00F8012B70474FF0000200B5134659
:1006700094469646203922BFA0E80C50A0E80C50C2
:10068000B1F12001BFF4F7AF090728BFA0E80C5073
:1006900048BF0CC05DF804EB890028BF40F8042B6C
:1006A00008BF704748BF20F8022B11F0804F18BFD9
:1006B00000F8012B704770477047704770472DE96D
:1006C000F0470D4699469246044600F12408016819
:1006D000880604D5E06921F01001216000E00120C6
:1006E000A84201DD471B00E00027A1697A1902EB4F
:1006F0000900081AA0612078C00602D42046AFF392
:100700000080002608E0D4E901211AF8060090478D
:10071000206A401C761C20624E45F4DB2078C0061F
:100720000AD52046AFF3008006E0D4E9012130204D
:100730009047206A401C2062381EA7F10107F4DCB4
:1007400007E0D4E9012118F805009047206A401C11
:100750002062281EA5F10105F3DC2046AFF30080DE
:100760002078000602D50220BDE8F0870120FBE7D3
:1007700001694A1C02610878704700B58FB0CDE965
:1007800001310021059105497944CDE90310114655
:100790006846FFF773FE0FB000BD0000E5FFFFFFE6
:1007A000074B70B50D467B44FFF7E7FF044628462C
:1007B00000F008F810B14FF0FF3070BD204670BD5A
:1007C000ABA10000007B00F080007047754600F090
:1007D0002BF8AE4605006946534620F007008546D3
:1007E00018B020B5FFF77AFDBDE820404FF00006B5
:1007F0004FF000074FF000084FF0000B21F0070109
:10080000AC46ACE8C009ACE8C009ACE8C009ACE84B
:10081000C0098D46704710B50446AFF300802046EE
:10082000BDE81040FFF746BD00487047AC7F002090
:100830009FED221A9FED222A20EE010AB5EE001A42
:1008400030EE010ABDEEC01A11EE100AB5EE400AF4
:10085000F1EE10FAB8BF013801EE100AB8EEC11A75
:1008600030EE410A20EE020ABDEEC01A9FED152AB5
:1008700011EE100A002130EE021AB1EB502F4AF6A9
:1008800050311CBF0020B0EE410AC0F6000101EE5D
:10089000100A01EB8001B8EE411A30EE410A91EDE9
:1008A000001A91ED012AB7EE003A33EE403A23EEFA
:1008B000011A20EE020A31EE000A704783F9223E47
:1008C00000000044000000C49FED201A9FED202A84
:1008D00020EE010ABDEEC01A11EE100AB5EE400A74
:1008E000F1EE10FAB8BF013801EE100AB8EEC11AE5
:1008F00030EE410A20EE020ABDEEC01A9FED152A25
:1009000011EE100A002130EE021AB1EB502F4AF618
:1009100050311CBF0020B0EE410AC0F6000101EECC
:10092000100A01EB8001B8EE411A30EE410A91ED58
:10093000001A91ED012AB7EE003A33EE403A23EE69
:10094000011A20EE020A31EE000A704783F9223EB6
:1009500000000044000000C410B5044802F072FE1C
:10096000BDE81040024802F06DBE0000D8700020C3
:1009700044710020014802F065BE0000B071002003
:1009800010B5846AE16D11F0500F06D0E16DC90613
:1009900025D5204602F055FE10BDE06D40F40070F4
:1009A000E06520680168090716D506F015FA78B1E8
:1009B0002068C068800400280ADBE06D20F48070A5
:1009C000E065E06DC00403D4E06D40F00100E06537
:1009D000204602F029FE10BDC0688007EBE7616D7C
:1009E000496BBDE81040084710B5806AC16D41F001
:1009F0004001C165016E41F00401016602F021FE73
:100A000010BD10B5806A02F01BFE10BD70B5044623
:100A1000006881688268C1F3400112F0010F28D09C
:100A200039BB816801F00D01012914D18168124A96
:100A30001140891C816021680320086003F03AFCA2
:100A4000054612E003F036FC401B02280DD9206851
:100A50008068C00709D0E06D40F01000E065206EAE
:100A600040F001002066012070BD20688068C0074A
:100A7000E8D1002070BD0000C0FFFF7FF8B504463C
:100A8000002000902068816811F0010F4AD1816830
:100A9000254A114237D18168D5432940491C8160DC
:100AA0002068B0F1A04F02D02049884201D12048EF
:100AB00000E02048806800F0E07000020DD51E487C
:100AC0001E490068B0FBF1F0401C00EB40008000C4
:100AD00000E0401E00900028FBD103F0EBFB06462F
:100AE0001BE0816811F0010F03D181682940491C86
:100AF000816003F0DFFB801B02280ED920680068AC
:100B0000C043C00709D0E06D40F01000E065206EE2
:100B100040F0010020660120F8BD20680168C9434B
:100B2000C907DED10020F8BD3F0000800001005061
:100B3000000300500007005014000020400D030087
:100B400010B5AA2009F0C6FE4FF4E13009F030FFDD
:100B5000642009F0D7FE06F0ADFC03A0FFF746FCC9
:100B6000BDE8104001F082B84253505F496E69748D
:100B70003A204F4B0D0A0000FEE70000022802D980
:100B80009FED0F0A704700EE101ADFED0E0A9FED81
:100B90000F1AB8EE400A20EE200ADFED0B0A20EE15
:100BA000200AF0EE080A20EE200AF6EE000A20EEF7
:100BB000200AF0EE040A70EE600A80EE810A7047A7
:100BC0000000000000008039333353400AD7233D32
:100BD000042822DD124A202802D021281DD10BE052
:100BE000CB78086863F31F6010600879107148794A
:100BF00050718879907110E0107808701088000AA0
:100C000048701068000C88701068000EC870107969
:100C10000871507948719079887100207047000000
:100C20003C0100200020704710B50349034808F03C
:100C30006FFA002010BD00001C7D00208479002088
:100C400070B505460C46044808F02AFA2846216883
:100C500009F006FE002070BD84790020014803F0F1
:100C6000DDB800001C7200200D4902688A4201D2E2
:100C70000C4901E00B492031D2B21423083AB2FBEF
:100C8000F3F2436C02F01F0223F003031944816462
:100C900004498031C1640121914001657047000021
:100CA00008040240000802400179074A02EB810271
:100CB0004265054A4432491E826501F01F02012146
:100CC0009140C16570470000FC08024030B5D0E992
:100CD00013456560446D14B1D0E91645656090F820
:100CE000444004F01F050124AC40056C6C600468AE
:100CF00063608368102B036803D099600068C2604A
:100D000030BD9A600068C16030BD70472D4930B475
:100D10002D4891ED500A80ED000A91ED510A80EDC9
:100D2000010A91ED520A80ED020A91ED720A80EDFE
:100D3000030A91ED730A80ED040A91ED740A80EDC7
:100D4000050A91ED580A80ED060A91ED590AA1F5C0
:100D5000406180ED070A91ED8C0AA1F5006380EDFA
:100D6000080A93ED5F0AA1F5C05280ED090A92EDE1
:100D7000460AA1F5405480ED0A0A94ED0B0A01F5EC
:100D8000006280ED0B0A92ED970A80ED0C0A91ED5E
:100D90008F0AA1F5205180ED0D0A93ED620A80EDD6
:100DA0000E0A92ED9A0A80ED0F0A94ED0E0A80ED7C
:100DB000100A91ED130A542180ED110A30BC09F09C
:100DC0007BBD0000043E0020AC01002072B6FEE7AF
:100DD00010B504462DED028B90ED010AF8EE408A25
:100DE00000F032F800EE100A2046B8EE408A00F01B
:100DF00021F888EE280ADFED0E0A2072206A20EE24
:100E0000208AB0EE480A09F0FDFCD4ED0A0A30EE63
:100E1000200A06F017F8F0EE408A84ED058A06F005
:100E200011F884ED030AB0EE680ABDEC028B10BD28
:100E3000DB0FC94003480068C00601D40120704799
:100E4000002070470004004001480068406A704775
:100E500014730020094A037A11684BB1D2684A62C0
:100E60000178012906D00121017005A0FFF7BEBA63
:100E70000022F4E7C16A491CC16270471473002064
:100E800041425AB1E0C2EBC6F7D2D1B6D4C6EBB9F3
:100E9000FDD2BBB4CE5AD6E13A204F4B0D0A00002A
:100EA00010B53C21044805F043F8BDE8104004218A
:100EB000024805F09BB9000014730020C87200209E
:100EC00010B54160044600202070012104F1340077
:100ED000226206F053FD2046BDE81040FFF7E0BF58
:100EE00070B504462DED028BB0EE408AC66A002034
:100EF000E0622046FFF7A8FF05462046FFF79AFF6D
:100F0000012808D0206B4FF0FF31002E0EDD626803
:100F1000521B10440BE00121002E04DD226B60689F
:100F2000801A284403E0206B281A00E0401B012EA1
:100F300003DD6268761E06FB020000EE100ADFED9C
:100F4000150A2563B8EEC00A60EE200A94ED010A86
:100F5000B8EE401A80EE810AC0EE080A00EE101AC0
:100F6000B8EEC00A20EE808A18EE100A09F07EFD65
:100F7000024604F134000B46054606F031FD2846D2
:100F800006F00EFD84ED060AB0EE480ABDEC028BB9
:100F900070BD00000000704210B50C21084805F03B
:100FA00083FB084801F0E6FB074800F0E5F8074836
:100FB00000F028FFBDE810400C21014805F0D4BA2C
:100FC0007C720020C0680020E43F00200402002062
:100FD00010B57F210A4801F061FC642003F022F87B
:100FE0007F21084801F05AFC642003F01BF80448F4
:100FF00001F086FFBDE81040024801F081BF00000B
:1010000044710020B071002010B504462DED028B14
:10101000B0EE408AFFF7DCFF00206060A060E06077
:1010200020616061A061E06184ED008ABDEC028B0B
:1010300010BD000010B590ED040AD0ED080A04467A
:1010400070EE200AC0ED040A90ED050A90ED091A31
:1010500070EE011AC0ED051A90ED060A90ED0A1A1D
:1010600030EE011A80ED061AC069401CE061B0F54F
:101070007A7F4AD300209FED260A80EE802ADFED9A
:10108000250AC1EE802A32EE602A84ED012A72EE32
:10109000E01AC4ED021AC1EE001A31EEE00A84ED46
:1010A000030A20616061BDEEC20AA061E06110EE3A
:1010B000101A19A0FFF79AF994ED020A1BA0BDEED1
:1010C000C00A10EE101AFFF791F994ED030A1CA064
:1010D000BDEEC00A10EE101AFFF788F994ED020A6F
:1010E0001C48B0EEC00A10EE101A814207DC94EDE5
:1010F000010AB0EEC00A10EE101A814203DD16A0FC
:10110000FFF774F9FEE7002010BD4FF0FF3010BD6F
:1011100000007A440040014561645F6F6666736554
:101120007420413A2025640D0A00000061645F6F5D
:10113000666673657420423A2025640D0A0000003B
:1011400061645F6F666673657420433A2025640DA1
:101150000A0000000000C842414443B5E7C1F7B4AB
:10116000ABB8D0C6F7C6ABD6C3D3D0CECACCE2217B
:1011700021210D0A0000000010B5044609211C4879
:1011800001F0A6FE00EE100AD4ED020A0921B8EE25
:10119000400A184830EE600A84ED090A01F098FE12
:1011A00000EE100AD4ED010A0020B8EE400A30EE3D
:1011B000600A84ED080ABCEEC00A10EE101AFFF7B0
:1011C000DDFC84ED0B0A94ED090A0120BCEEC00A97
:1011D00010EE101AFFF7D2FC84ED0C0AD4ED0B0AC6
:1011E00030EE800AB1EE400A84ED0D0A10BD000019
:1011F00044710020B0710020F0EE001AB0EE401AE9
:1012000000EEA11ADFED021AC1EE210A70470000BC
:10121000D7B3DD3F30EE600A9FED071A00B530EE20
:10122000010A05F00FFE10EE100A0449884201DDA4
:1012300030EE410A00BD0000DB0FC940DB0F494022
:1012400070B500F500642DED028B054694ED192A6A
:10125000D4ED162A94ED185A62EE013A22EE214A94
:1012600094ED172A05EE410A72EEE34A32EE443A53
:1012700045EE610AD4ED0E1A24EEA41AD4ED1A5AE2
:1012800003EE031A31EEC11AD4ED0C1AB1EE615A15
:10129000B4EEC15AF1EE10FA02DDB0EE451A06E0E6
:1012A000F4EEC11AF1EE10FA01D2B0EE611AD4EDEB
:1012B0000D1A284621EEA45A61EE831A05EE010AA2
:1012C00041EE810A40EE252A00EEA52AC4ED162A39
:1012D00084ED172A84ED0F1AC4ED104A84ED113AFB
:1012E00084ED120AC4ED130AC4ED143A84ED154AD4
:1012F00032EEE30A72EE440A00F01EF8B0EE408AC5
:1013000094ED040ADFED0B0A95F9240860EE200A3B
:1013100000EE100AB8EEC01AB0EE480A00EE810ADC
:1013200005F090FD84ED030AB0EE480ABDEC028B97
:1013300070BD0000DB0F494010B504462DED048B55
:10134000B0EE408AF0EE608A90ED070AFFF7BCFA33
:10135000B0EE409A94ED070AFFF76AFA68EE800A49
:1013600048EE490AC4ED040A94ED000A20EE201A62
:1013700084ED021A94ED030AD4ED011A01EEA00ADD
:1013800084ED030A31EE000A9FED131A84ED050A7D
:10139000D4ED060A60EE810A9FED101A40EE010AB4
:1013A000C4ED060A94ED070A94ED091A00EE810ACD
:1013B00084ED070A05F046FD84ED070AA06909F0EF
:1013C00055FB02460B4604F1280006F009FB94ED9C
:1013D000070ABDEC048B10BD6666663FCDCCCC3DE4
:1013E0009FED040A00F5006181ED160A81ED170AF0
:1013F00006F0F6BE0000000010B5B0EE412A2DED5B
:10140000048BB0EE409AF0EE609A044600F500605E
:10141000F0EE610AB0EE420A90ED031AF0EE608A37
:10142000B0EE408A01F018FA204600F00FF8F0EE16
:10143000681AB0EE481AF0EE690AB0EE490ABDEC3F
:10144000048B2046BDE8104000F0B0B810B500F5A0
:1014500000642DED048BF0EE408AB0EE609AD4ED7E
:10146000039AB0EE690AFFF7E3F9F0EE401AB0EE26
:10147000690AB0EE618AFFF727FA94ED0C1AD4EDF1
:10148000190A00EE891A20EEA82A61EE080A42EE37
:10149000400A21EE000A02EE480AC4ED1B0A84ED60
:1014A0001C0ABDEC048B10BD10B500F50664A4EC5D
:1014B000030A14ED0F0A20EE000A04ED0D0AC0F82D
:1014C000201844ED141AB0EE410A6C3C06F09AFE66
:1014D000DFED131A9FED101ADFED100AC4ED211A8B
:1014E00084ED2B1A9FED0F2AC4ED2C0A9FED0E0AF6
:1014F00084ED272A84ED220A84ED250AC4ED3A1AE8
:1015000084ED441AC4ED450A84ED402A84ED3B0A7B
:1015100084ED3E0A10BD0000DD7E3C4279BD76437D
:10152000ACC52737B7433A510000C84270B50446EE
:10153000283006F035FAD4F8200804F5006500EEEE
:10154000100AD5ED020AB8EE400A80EE801A9FED2F
:10155000120A61EE000A9FED111A80EE810A85EDF4
:10156000060AD5ED070AB4EEE00AF1EE10FA05DD41
:101570000BA0FEF73BFF2046FFF732FF95ED060A72
:10158000B5EEC00AF1EE10FA01DB012000E0FF2009
:1015900084F8240870BD000000007042DB0FC940D1
:1015A000B4C5C1B4B3ACCBD90D0A000070B500F519
:1015B00000642DED028B0546D4ED182A94ED193AFE
:1015C00094ED1A2A02EEC10A23EE018A94ED241A40
:1015D00042EEE10A63EE218A05F67C0031EE001A44
:1015E00094ED3D0A70EE200A94ED1D0A01EE020A08
:1015F00084ED1D0A94ED1E1A00EE821A84ED1E1A67
:10160000D4ED1B0A30EE600A06F010FC94ED1E0AC1
:10161000D4ED1C0A05F50E6030EE600A06F006FCFB
:1016200094ED1D0AD4ED1E0A284630EE480A70EEED
:10163000E80AFFF781FED4ED040A9FED091A95F937
:10164000240820EE811A00EE900AF8EEE00A01EE7E
:10165000200A05F0F7FB84ED030ABDEC028B70BD98
:10166000DB0F494010B590ED0B0AD0ED140A04468B
:10167000DFED241A70EE200A9FED232AC0ED0B0A3D
:1016800090ED0C0A90F9540004EB800090ED0D1AD7
:1016900030EE010A84ED0C0A30EE800A94F8201036
:1016A00094ED0A1AD4ED090A012918D0B5EEC00A42
:1016B000F1EE10FA06D3D0ED281AF4EEC01AF1EECE
:1016C00010FA01D2B0EE610A31EE400A00EEC20A11
:1016D00084ED020A05F0B6FB84ED020A10BDB5EEFA
:1016E000C00AF1EE10FA06D3D0ED1C1AF4EEC01ABF
:1016F000F1EE10FA01D2B0EE610A31EE000A00EE0E
:10170000820AE5E700000000DB0F494070B504469F
:101710004FF090460121304602F0BAFD0546022105
:10172000304602F0B5FD45EA40050421304602F09E
:10173000AFFD45EA8000C6B252480068456B2046BE
:10174000294605F0F5FA002301204FF0FF31072E5E
:1017500022D2DFE806F0215B77690413850094F953
:101760005520062A02D0052A03D004E084F8200080
:1017700001E084F8201084F854300DE094F95520ED
:10178000042A02D0012A03D004E084F8200001E0FA
:1017900084F8201084F854009FED3B0A84F85560CB
:1017A00084ED0B0A84ED0C0A94F82000012894F9CA
:1017B000540004EB800061D090ED2E0A04F1D000BB
:1017C00084ED0A0A2A460023064606F009F9304647
:1017D00006F0E6F894ED011A2046C0EE010A9FEDEE
:1017E0002B1A81EE200A84ED130AD4ED000A80EE54
:1017F000201A00EE105AB8EE400A84ED141A05F0D3
:1018000095FA2046BDE8704005F091BA94F955204C
:10181000052A02D0032A03D004E084F8200001E066
:1018200084F820100220B5E794F95520012A02D04F
:10183000022A03D004E084F8200001E084F820109C
:101840000320A7E794F95520032A02D0062A03D0E3
:1018500004E084F8200001E084F82010042099E7D7
:1018600094F95520022A02D0042A03D004E084F817
:10187000200001E084F8201005208BE790ED220A7B
:101880009CE700006073002000000000920A863F81
:1018900000EE101A10B5B8EE400A0446182180ED8B
:1018A000010A00EE102AB8EE400A80ED000AC3617A
:1018B000D03006F063F8012104F6B40006F05EF8BB
:1018C000DFED2D0A9FED2D0AC4ED1C0A84ED1D0AE3
:1018D0009FED2B0A9FED351A84ED1E0A9FED290A14
:1018E00084ED1F0A9FED280A84ED200A9FED270A48
:1018F00084ED210A9FED260A84ED220AC4ED230A15
:10190000DFED240AC4ED240ADFED230AC4ED250A25
:10191000DFED220AC4ED260ADFED210AC4ED270A15
:10192000DFED200AC4ED280ADFED1F0AC4ED290A05
:1019300084ED2A1A9FED1E1A84ED2B1A9FED1D1AB5
:1019400084ED2C1A9FED1C1A84ED2D1A84ED2E0ABD
:101950009FED1A0AC4ED2F0A84ED300A9FED180A94
:1019600084ED310A9FED170A84ED320A9FED160AC5
:1019700084ED330A10BD0000796CAE3F6EAC7B3F46
:1019800093514E3F69BBAD3FBACF7E3F5661473F53
:101990000000000058211640BDB54940B9499040AB
:1019A000B023B040D6C9A93F0279823FABB44E3FC5
:1019B000B1A0A83F7D8D843F19E8463F58D3E93F49
:1019C000043A494061C08540649D9E4010B5F0EEE8
:1019D000402A90ED030AB0EE602A0446B5EEC00A34
:1019E000F1EE10FA01DD012001E04FF0FF30D4E903
:1019F0001512C4E91912D4ED1C1A94ED1B1AF0EE5D
:101A0000420AB0EE620A00F0FBF884ED150AC4ED5C
:101A1000160AD4ED1C1A94ED1B1AF0EE420AB0EE31
:101A2000620A00F0F8F884ED170AC4ED180AC4ED54
:101A30001B2A84ED1C2A94ED150AD4ED190A94EDA5
:101A40001A1A70EE600A00EE100AB8EEC00A20EE14
:101A5000800AD4ED160A30EEC11A00EE900A04F1A5
:101A60007400F8EEE00A61EE200A06F00FFB94ED38
:101A7000240A05F0E7F904F5006484ED200A10BD9E
:101A8000743006F0ADBB30B40124047480ED020A5A
:101A9000C0E90512B1FBF2F25208026280ED030ABE
:101AA00000EE101AC0ED010AB7EE001AF8EE400A77
:101AB000C0F8943830BC81EE200A743006F0A2BB26
:101AC000D0E90712914212D3017C494249B200EE9B
:101AD000101A01740022C261B8EEC00AD0ED010AEA
:101AE00090ED021A40EE010AC0ED030A7047491C4E
:101AF000C161704770B504460020D4E907129142D5
:101B00000FD3217C494249B200EE101A2174E061E2
:101B1000B8EEC00AD4ED020A20EE200A84ED030AD2
:101B200001E0491CE16104F5006194ED0A0A91EDC0
:101B3000201A224A31EE400AB0EEC00A10EE101A06
:101B4000914203DCE06A401CE06207E0E0629FED46
:101B50001C0A206384ED0D0A84ED0E0A84ED0A1A36
:101B6000E06A42F21075A84226D3D4ED160A94ED2D
:101B7000150A00F071FE84ED110AC4ED120A94ED0D
:101B8000030AB5EEC00AF1EE10FAB0EEE00A06DD87
:101B9000D4ED0E0A30EE200A84ED0E0A05E0D4EDF5
:101BA0000D0A30EE200A84ED0D0A206B401C2063E4
:101BB000A84201D30120207070BD0000CDCC4C3D67
:101BC0000000000010B504469C3005F0E9FED4F892
:101BD000940804F5006400EE900AF8EE600A80EEC6
:101BE000201A9FED050ADFED050A21EE000A80EEBE
:101BF000201A84ED231A10BD00007042DB0FC9408B
:101C000030EE410A70EEE10AB6EE001A20EE010A4B
:101C100060EE810A704730EE010A70EEA10AB6EE5E
:101C2000001A20EE010A60EE810A704790ED130A57
:101C3000DFED0C0A9FED0C1A90F9201020EE200A1F
:101C4000C0EE010A90ED070AB8EE400A80EE801A55
:101C500000EE101AB8EEC00A21EE000A80ED050A67
:101C60007047000000007042DB0FC9402DE9F047CB
:101C70002DED028B4148444B424AC168DE68490061
:101C800001F102083E49761CD768C9687F1C01F142
:101C9000010941683D48491CB0FBF1F45968B4FBA7
:101CA000F8F4491CB0FBF1F1B1FBF6FA5168224699
:101CB000491CB0FBF1F0B0FBF7F5414634A0FEF74C
:101CC00095FB2A4639463BA0FEF790FB00EE104AF2
:101CD0004148B8EE400A06F093F800EE104A3E483C
:101CE000B8EE400A643006F08BF800EE105A3B481C
:101CF000B8EE400A06F084F800EE105A3748B8EE05
:101D0000400A643806F07CF8354800F077F835482A
:101D100000F024FD9FED348A3448B0EE480AFFF706
:101D200073F92F4D494605F12000AA69FFF7C8F85D
:101D30000AFB06F1224605F63800AB69FFF7A8FD5D
:101D400000EE104AF0EE481ADFED290AB8EE401A0C
:101D50009FED280A2848A96900F058FC234895ED12
:101D6000070A4146443800F053F9BDEC028B4FF4AA
:101D70007A70BDE8F04702F055B900007C7200208F
:101D800014730020AC7300206073002080FE210AD1
:101D90006874696D315F706572696F643A2025649B
:101DA00020206874696D315F667265713A20256420
:101DB0000D0A00006874696D365F706572696F6442
:101DC0003A20256420206874696D365F66726571FB
:101DD0003A2025640D0A0000B43D0020E03E0020BA
:101DE00004020020C068002000000C42E43F0020F4
:101DF000399AC03661FD9F3DD41A0020002101723E
:101E00007047000070B50446007A43F69C5165188F
:101E10000B2857D2DFE800F0060D561B3347513F21
:101E20003A564C00284600F033F90120207226A0D3
:101E300028E043F6E0502044FFF7FCF8002841D1A9
:101E4000284600F01BF90320207221A01AE004F5B7
:101E5000745100200864486488640866486608670E
:101E600048678865C8658866C866284600F010F926
:101E7000284600F003F90420207219A002E008208F
:101E8000207219A0BDE87040FEF7B0BA2046BDE848
:101E9000704005F089BC94F8200020B12046BDE8D0
:101EA000704005F075BB2046BDE8704005F038BCB9
:101EB0002046BDE8704005F039BB2046BDE87040C3
:101EC00005F0CABB70BD000049444C450D0A000036
:101ED00049444C455F53544152540D0A00000000E0
:101EE000434C4541520D0A0053544152540D0A00CF
:101EF00010B504462DED028B41F6D000B0EE408ABD
:101F0000204400F0D3FBB0EE480A04F12000FEF7B5
:101F1000E7FFBDEC028B04F63800BDE81040FFF788
:101F200085BE000010B590ED030A00F570510C4617
:101F300081ED390A91ED630A43F6DC41084405F06E
:101F400075FF84ED5A0A9FED020A84ED5B0A10BD0D
:101F5000ACC5273710B5094803F020FF0C2107480E
:101F600004F002FB064803F019FF04480021026850
:101F7000D163026891630068416310BD7C720020E8
:101F8000AC7300202DE9F0410028DDE906780E460B
:101F90001E481C4615464FF0080102D004F0E4FC30
:101FA00001E004F06BFD19484FF0080116B103F091
:101FB0000BFE01E003F06EFE14484FF0040115B172
:101FC00004F0D2FC01E004F059FD10484FF0040188
:101FD00014B103F0F9FD01E003F05CFE0B484FF093
:101FE000000117B104F0C0FC01E004F047FD074810
:101FF000B8F1000F4FF0000103D0BDE8F04103F04D
:10200000E3BDBDE8F04103F045BE00007C72002056
:1020100010B5C16080ED020AB7EE000A044680EDFB
:10202000060AFFF797FF2046BDE8104000F026B8EB
:1020300010B504462DED028B80ED070AC0ED080AAD
:1020400000F030F884ED090AF0EE408AB0EE608AC4
:10205000C4ED0A0A204604F1100106F0F9F894EDE7
:10206000021AE268F0EE480AB0EE680A0146BDECDA
:10207000028B2046BDE8104008F096BA1CB501203E
:1020800000900346024601460190FFF77BFF1CBD0E
:102090001CB5002000900346024601460190FFF760
:1020A00071FF1CBD10B52DED048BF0EE419AB0EE22
:1020B000408AF0EE608AB0EE690AFEF7B9FBF0EEF6
:1020C000400AB0EE690AB0EE609AFEF7FDFB28EE1A
:1020D000891A68EE090A00EE481A40EE280ABDEC9B
:1020E000048BB0EE410A10BDB5EEC00AF1EE10FA55
:1020F00001DB012070470020704700002DE9F0410E
:1021000004462DED028BB0EE408A90F8380001288D
:1021100030D104F500501D4990EDB40AB0EEC00A6C
:1021200010EE100A884225DB04F5C05696ED5B0AD6
:10213000FFF7DAFF0546B0EE480AFFF7D5FF0027A4
:10214000854220D004F5805596ED580AD5ED2B0A2E
:10215000FFF760F810EE100A0D498842606B0DDD44
:10216000401C6063B0F57A7F04DD67639FED090A68
:1021700085ED410ABDEC028BBDE8F0810028F9DD58
:10218000401E6063F6E76763F4E7000000007A44EE
:1021900031AE2C3FDB0F49402DE9F04104462DEDD7
:1021A000028B002594F83910806AB0EEC00A01292C
:1021B00032D00127022953D0042929D104F58056B1
:1021C00096F8E000002823D096ED450AD6ED460AA1
:1021D0009FED2F8AB4EEE00AF1EE10FA02DD86EDF3
:1021E000418A0BE09FED2B0A86ED410AD6ED5C0A91
:1021F00030EE800A04F026FE86ED5C0A86ED458A04
:1022000086ED468AC6F80C51C6F8105184F839702C
:10221000BDEC028BBDE8F081D4ED0B0AF4EEC00AF0
:10222000F1EE10FA19D21C49226C884201DC521CD2
:1022300002E0002A01DD521E2264B2F57A7FE7DD5A
:102240008842E5DC04F58750FFF71AFC022084F889
:10225000390004F8380FA560DAE765642564D7E72C
:10226000D4ED0C0AF4EEC00AF1EE10FAF5DD606C64
:10227000401C60640228CBDD84F8397065642573E6
:1022800004F50960BDEC028BBDE8F04100F056B9E1
:1022900000000000DB0F494031AE2C3F2DE9F04734
:1022A00004462DED068BB0EE42AAB0EE408AF0EE69
:1022B000608A00F5096700F5875500F1480900F5C7
:1022C000CC569FED670A4FF0010880ED090A90F89F
:1022D0003900F0EE419AB0EE619A052868D2DFE845
:1022E00000F003354A592000484600F067FA002004
:1022F00084F83800F0EE491AB0EE691AF0EE680A78
:10230000B0EE480A384600F0ADF8F0EE681AB0EECC
:10231000481AF0EE490AB0EE690A3046FEF790FF1F
:1023200046E0F0EE680AB0EE480A2846FFF74EFB9A
:102330002846FFF7DFFB95ED030A84ED090A95EDCA
:10234000178AD5ED188A84F8388031E0F0EE680AF3
:10235000B0EE480A2846FFF739FB2846FFF7B0FBE6
:1023600095ED030A84ED090A95ED178AD5ED188AD3
:1023700084F8388002E0022084F83800F0EE491A30
:10238000B0EE691AF0EE680AB0EE480A384600F07E
:1023900069F80DE0032084F83800F0EE681AB0EE1A
:1023A000481AF0EE490AB0EE690A3046FFF724F801
:1023B000B0EE4A0A2046FFF7A1FE94F8382042F218
:1023C000C42020444AB104F5CB518846012A07D0E5
:1023D000022A09D0032A28D116E01C22494600E02F
:1023E0001C22FEF70FF920E007F61C011C220E4606
:1023F000FEF708F91C2231464046FEF703F907F5BF
:10240000006797ED070A0EE006F60C011C220F4646
:10241000FEF7F8F81C2239464046FEF7F3F806F5B9
:10242000006696ED030A85ED240A04F5C050D0ED50
:10243000580A04F5805090ED2B0AFEF7EBFE04F5E8
:10244000005084ED0A0A90EDB40A2046FFF7A4FE7E
:10245000B0EE480AF0EE680ABDEC068BBDE8F087E6
:102460000000000070B50546001D05F5006490EC05
:10247000032AD4ED123A00EE431A40EEC31A31EEAD
:10248000631AC1EE223A94ED101A03EE821A84ED1B
:10249000101A94ED133A31EE400A71EEC31A81EE30
:1024A000A23AD4ED111A43EE021AC4ED111A71EEDC
:1024B000E00A84ED0E0AC4ED0F0AF6EE000A05F0FC
:1024C000AFFED5ED000A20EE200AF6EE000A84EDFC
:1024D000120A94ED0F0A05F0A3FED5ED000A60EE96
:1024E000200AC4ED130A95F9340894ED121A00EE8F
:1024F000100AB8EEC00A60EE200A00EE100A05F1DC
:102500001000B8EEC00A20EE010A05F013FED4ED6B
:10251000080A9FED091A95F9340895ED0B0A20EE8B
:10252000811A00EE900AF8EEE00A01EE200A04F0AB
:1025300089FC84ED070A70BDDB0F49409FED070A57
:1025400000F50061103081ED100A81ED110A81ED76
:10255000120A81ED130A05F043BE000000000000DE
:1025600080ED030AC0ED020A80ED011AC0F83018B0
:1025700000F50061B0EE410AC1ED0B1A103005F014
:1025800041BE000070B50446383005F009FAD4F8B1
:10259000301804F5006500EE101AD5ED061A9FED0F
:1025A000151AB8EE402ADFED140A81EE820A20EEF9
:1025B000011A81EE200A85ED0A0AD5ED0B0AB4EE68
:1025C000E00AF1EE10FA05DD0CA0FDF70FFF204642
:1025D000FFF7B4FF95ED0A0A0B49B0EEC00A10EE02
:1025E000100A884204DA2046BDE87040FFF7A6BF13
:1025F00070BD000000007042DB0FC940BBACC4A33B
:10260000B3ACCBD90D0A00000000C84270B50D462E
:102610002DED068BF0EE418AF0EE609ABCEEE81AE2
:10262000B0EE40AA04460268D0ED020A90ED010A1D
:102630000B46B0EE619A11EE101A00F58750FFF7C5
:1026400022FAB7EE000A294680EE288ADFED168AC4
:10265000F0EE690AB0EE4A0AF0EE681A04F5096075
:10266000B0EE481AFFF77CFFB0EE481AF0EE681A99
:102670002946F0EE690AB0EE4A0A04F5CC50FEF79E
:1026800013FF00EE105AF0EE480A04F14800B8EECD
:10269000400A00F0ACF884ED069A012084F8390075
:1026A000BDEC068B70BD00000050C3472DE9F04122
:1026B000044600F5096500F5875100F1480600F56C
:1026C000CC570846FFF77EFA2846FFF75BFF3046F7
:1026D00000F096F83846FEF729FF04F5005494ED13
:1026E000B40AB5EEC00AF1EE10FA01DB012000E0F9
:1026F000FF2085F83408BDE8F08100009FED100A46
:102700005FF0000100EB8102491CD2ED030A0A29A7
:10271000F8EE600A30EE800AF4DBB2EE041AC0EE86
:10272000010A9FED081A80EE810ADFED070A20EE0C
:10273000200AF2EE060A20EE200A80ED010A704718
:102740000000000000F07F453333534000F10C01DE
:102750000A22014801F0CCBAD870002010B5044616
:1027600028210C30FDF780FF2046BDE81040FFF720
:10277000EDBF000010B50B4A4168914202DC0A4AE5
:1027800091420ADC8168491C816042F210708142EA
:1027900005D306A0FDF72AFEFEE700218160002098
:1027A00010BD00000000F0410000A041C4B8CFDF20
:1027B000B5E7D1B9D2ECB3A30D0A000070B500F5AE
:1027C0000064054694ED0A0AD4ED0D0A94ED0B1A47
:1027D00020EE200A01EE200A84ED0E0AD0ED000A58
:1027E00030EE800A04F02EFB85ED000A70BD00F586
:1027F0000061BCEEC00AC1ED100A80ED050A704709
:1028000000F5006191ED0E0A91ED101AC0EE010A7B
:1028100090ED050AB8EE400A80EE801A9FED0C0A92
:1028200061EE000A9FED0B1A80EE810A10EE101A7D
:1028300021F00041C1F1FF41C90F08D110EE101A7B
:102840004FF07F42B2EB410F01D080ED030A704799
:1028500000007042DB0FC94010B52DED048BF0EE87
:10286000419AB0EE408AF0EE608AB0EE690AFDF758
:10287000DFFFF0EE400AB0EE690AB0EE609AFEF7B4
:1028800023F828EE891A68EE090A00EE481A40EE8D
:10289000280ABDEC048BB0EE410A10BDF8B5002645
:1028A0000446009690F858000D4601280BD00120F0
:1028B00084F858002046FEF7A9F80100E06D04D026
:1028C00040F010002AE00220F8BD20F4885040F0CB
:1028D0000200E06520688268134B1A4005F08043CF
:1028E0001A4342F000428260104A20680EE0009BCA
:1028F0005B1C0093934209D3E06D20F0020040F08E
:102900001000E06584F858600120F8BD8368DB0F93
:10291000EDD1E06D20F0020040F00100E06584F8A8
:1029200058600846F8BD0000C0FFFF3F02DE04000B
:10293000704700002DE9F84F4FF000090446CDF82C
:1029400000900D4694F85820DFF8EC8361694F46FB
:102950004846012A0AD00126F84A84F8586041B155
:10296000296A012905D0A36EEBB129E00220BDE858
:10297000F88F6868092838D1A96A4FF4785041B1B6
:102980002B6801F07C0100EA53400843E96A0843E0
:1029900002E0296800EA51402368D96C11400143E4
:1029A000D964606621E0C4E91971A96A286A31B165
:1029B00001F07C01401E0843E96A084300E0401E24
:1029C00029682B79C1F3846103F01F039940014307
:1029D000A06E401EA066636E43EA0103636604D1E5
:1029E0002168C86C10401843C864206804F0E8F9F6
:1029F00058B995F8250098B12068C16895F8262047
:102A000021F4401141EA4251C160206804F0E0F92C
:102A10008246206804F0D4F95AEA00000DD0FCE0A8
:102A200095F8260095F82410400540EA01512068E9
:102A3000C26822F440121143E6E7A86A30B1E86A9E
:102A400020B195F8250001285ED003E095F8250017
:102A5000012804D02068C16821F0007103E02068DB
:102A6000C16841F00071C16095F83000012852D072
:102A70002068016921F002010161AA6829682068C3
:102A8000B2F1004F38D004F0BEF92068416921F05E
:102A90000041416120686969C268C2F3C102520005
:102AA00091402A69042A45D000EB82002B68026E0F
:102AB000DFF88CC203F0F84302EA0C020B431A431E
:102AC00042F00041016620682A69A96900EB820092
:102AD000026E22F080720A430266297F226828690A
:102AE000012924D05FF0000102EB8000026E22F089
:102AF00000720A43026690E0002204F084F9206824
:102B0000416941F00041C4E7E06D40F02000E0651C
:102B10004FF00109A8E7D5E90D01084321680A69CA
:102B200022F4FF7242F0020210430861A5E74FF061
:102B30000071D9E7002104F039F9400320684FF013
:102B4000000172D004F032F990FAA0F0B0FA80F1EE
:102B5000286842036ED090FAA0F0B0FA80F081426B
:102B600004D100221146206804F064F90121206894
:102B700004F01CF9400320684FF001015DD004F01F
:102B800015F990FAA0F0B0FA80F12868420359D004
:102B900090FAA0F0B0FA80F0814204D10022012125
:102BA000206804F047F90221206804F0FFF8400390
:102BB00020684FF0020148D004F0F8F890FAA0F035
:102BC000B0FA80F12868420344D090FAA0F0B0FA3D
:102BD00080F0814204D100220221206804F02AF909
:102BE0000321206804F0E2F8400320684FF003015D
:102BF00033D004F0DBF890FAA0F0B0FA80F1286846
:102C000042032FD090FAA0F0B0FA80F0814204D1B4
:102C100000220321206804F00DF92068816811F07A
:102C2000010F22D0B5E000E004E004F0BFF8C0F3EB
:102C300084618DE7C0F3846091E704F0B7F8C0F3D6
:102C40008461A2E7C0F38460A6E704F0AFF8C0F3A4
:102C50008461B7E7C0F38460BBE704F0A7F8C0F372
:102C60008461CCE7C0F38460D0E72A7B296850F800
:102C7000B03FC1F3120C23EA0C0302F0180C314AE6
:102C800022FA0CF20A4013430360E96841457DD102
:102C9000286841031BD090FAA0F1B1FA81F1491CD8
:102CA00001F01F0109294FEA403131D8002911D024
:102CB00090FAA0F1B1FA81F101F1010101F01F01D7
:102CC00006FA01F609D100BFC0F3846109E0C0F340
:102CD0008461E4E7C0F38461EEE790FAA0F1B1FA11
:102CE00081F101F1010101F01F0146EA816102D188
:102CF000C0F3846003E090FAA0F0B0FA80F000F135
:102D0000010000F01F0000EB400041EA00513AE0F2
:102D100000290ED090FAA0F1B1FA81F101F1010180
:102D200001F01F0106FA01F60ED100BFC0F3846165
:102D30000EE0C0F38461F1E700007F400040100422
:102D400000F0FF03FFFF070090FAA0F1B1FA81F154
:102D500001F1010101F01F0146EA816102D1C0F3D6
:102D6000846003E090FAA0F0B0FA80F000F1010076
:102D700000F01F003A4A00EB400002EB005041EA2D
:102D8000000141F00071AA68206800E001E004F051
:102D90003AF834482B6803425ED022684FF0A04CCA
:102DA0003148324E324D624501D0AA4201D101462E
:102DB00000E031468968DFF8BC8001F0E0714345EE
:102DC00003D0DFF8B480434520D15FEA01281DD449
:102DD000624505D0294B9A423ED1AA4200D03046E6
:102DE00041F40001826822F0E0720A4382602448C4
:102DF00024490068B0FBF1F0801C00EB400080002B
:102E000000E0401E00900028FBD125E0DFF878802C
:102E100043450FD15FEAC1180CD4AA4202D11B4B23
:102E20009A4219D0624502D0AA4200D0304641F001
:102E300080710CE0DFF8588043450DD14B020BD474
:102E4000AA4209D0624500D0304641F48001826830
:102E500022F0E0720A43826084F85870484686E5A2
:102E6000000020FE00000880000300500007005012
:102E700000010050000021C31000C0900006005067
:102E800014000020400D0300000052C70005005050
:102E9000000084CB0B4B01220B49984201D14A70B0
:102EA00006E00A4B984200D18A704878012807D181
:102EB0008878012804D1002048708870FEF76CB82B
:102EC000704700004471002000020020B071002013
:102ED0000068A1F580710F390ED0B1F5837F08D05D
:102EE000B1F5037F02D0D0F880007047D0F88C0095
:102EF0007047D0F888007047D0F88400704770475A
:102F00002DE9F041044600684FF0A0454C4FA8421F
:102F100001D0B84201D14B4900E04B49896801F02A
:102F20001F0603F04DFF08BB2168C868C96C00F09C
:102F3000004011F4C07F00D190B194F858000128EE
:102F400014D0012084F858002046FDF797FD0100B9
:102F50004FF000020CD084F858200846BDE8F081FC
:102F6000E06D40F02000E0650120F7E70220F5E782
:102F7000E06DC00504D5206E20F00800206600E05A
:102F80002266E06D42F20103984340F48050E06510
:102F900020682E4BDFF8B8C0B84201D1AE4604E03D
:102FA000984201D1E64600E08646864500D02EB91B
:102FB000D4F85CE02EF4801EC4F85CE04FF0600EA4
:102FC000C0F800E084F858202068C268920203D557
:102FD000426842F480624260A06908282068426822
:102FE00007D022F0400242602068426842F020028E
:102FF00006E022F0200242602068426842F040026F
:1030000042602068B84204D0984201D1654600E091
:103010000546854209D046B1062E06D0072E04D0BB
:10302000E06D40F48010E06597E7C26812F0007F21
:1030300093D18268074B1A4042F0080282608CE705
:103040000001005000030050000700500005005030
:1030500000040050C0FFFF7F704770472DE9F04F1C
:10306000044690F858009BB00F464FF0000B012823
:1030700012D0012084F85800002617961896206870
:103080004FF0A048DFF81C91DFF81CA1474D4045E8
:1030900006D12846009508E002201BB0BDE8F08F5D
:1030A00048450AD15046CDF800A003F091FE0090AB
:1030B000206803F08DFE40B109E0E06D40F0200093
:1030C000E06584F858600120E7E7009850B1E06DB2
:1030D00040F02000E0654FF0010B00BF84F858601D
:1030E0005846DAE720684146884201D0A84201D11B
:1030F0002F4800E02F48D7F800C02F4B40F61F7232
:10310000BCF1000F2DD0D0F808C094F838802CF412
:10311000604C4CEA483CD7F804804CEA080CC0F8F4
:1031200008C0D4F800C08C4501D0AC4504D18968F2
:10313000AB6801F0010109E0D9F80810DAF808508D
:1031400001F0010105F001059B68294303F001032B
:103150001943C3D1BB683968194383689343194342
:103160001DE0876827F46047876027688F4201D099
:10317000AF4204D18968AB6801F0010109E0D9F8D8
:103180000810DAF8085001F0010105F001059B680C
:10319000294303F001031943A0D181689143816061
:1031A0009CE70000000400500005005000010050A2
:1031B0000003005000070050000600502DE9F84FB2
:1031C00000270446009790F85800DFF81C840D464D
:1031D000B946012811D0012684F85860206803F010
:1031E000F3FD60B1E06D40F02000E0655FF00107A5
:1031F00084F858903846BDE8F88F0220FBE7D5E9FF
:1032000000210C23206803EA91131844036B01F09A
:103210001F014FF01F0C0CFA01FCC2F3846223EA79
:103220000C038A4013430363206803F0CDFD8246FC
:10323000206803F0C1FD5AEA00003CD1AA68296861
:103240002068B2F1004F37D003F0CEFD206841690D
:1032500021F00041416120686969C268C2F3C1027E
:10326000520091402A69042A31D000EB82002B6879
:10327000026EDFF878C303F0F84302EA0C020B4356
:103280001A4342F00041016622682869A96902EBED
:103290008000026E22F080720A430266297F226853
:1032A0002869012910D0002102EB8000026E22F073
:1032B00000720A4302667DE0002203F095FD20685B
:1032C000416941F00041C5E74FF00071ECE7002192
:1032D00003F066FD400320684FF0000172D003F058
:1032E0005FFD90FAA0F0B0FA80F1286842036ED03A
:1032F00090FAA0F0B0FA80F0814204D10022114689
:10330000206803F08FFD0121206803F049FD400390
:1033100020684FF001015DD003F042FD90FAA0F06B
:10332000B0FA80F12868420359D090FAA0F0B0FAC0
:1033300080F0814204D100220121206803F072FD57
:103340000221206803F02CFD400320684FF00201A9
:1033500048D003F025FD90FAA0F0B0FA80F128687B
:10336000420344D090FAA0F0B0FA80F0814204D138
:1033700000220221206803F055FD0321206803F09C
:103380000FFD400320684FF0030133D003F008FD28
:1033900090FAA0F0B0FA80F1286842032FD090FA9A
:1033A000A0F0B0FA80F0814204D10022032120680D
:1033B00003F038FD2068816811F0010F22D0ACE0E5
:1033C00000E004E003F0ECFCC0F384618DE7C0F39F
:1033D000846091E703F0E4FCC0F38461A2E7C0F3EA
:1033E0008460A6E703F0DCFCC0F38461B7E7C0F3B8
:1033F0008460BBE703F0D4FCC0F38461CCE7C0F386
:103400008460D0E72A7B296850F8B03FC1F3120CE2
:1034100023EA0C0302F0180C754A22FA0CF20A4057
:1034200013430360E968414577D1286841031CD004
:1034300090FAA0F1B1FA81F1491C01F01F010929AC
:103440004FEA403132D8002912D000BF90FAA0F1E3
:10345000B1FA81F101F1010101F01F0106FA01F653
:1034600009D100BFC0F3846109E0C0F38461E3E7E0
:10347000C0F38461EEE790FAA0F1B1FA81F101F1B5
:10348000010101F01F0146EA816102D1C0F38460AD
:1034900003E090FAA0F0B0FA80F000F1010000F033
:1034A0001F0000EB400041EA005132E000290ED03D
:1034B00090FAA0F1B1FA81F101F1010101F01F01CF
:1034C00006FA01F606D100BFC0F3846106E0C0F33E
:1034D0008461F1E790FAA0F1B1FA81F101F1010103
:1034E00001F01F0146EA816102D1C0F3846003E06C
:1034F00090FAA0F0B0FA80F000F1010000F01F0097
:103500003C4A00EB400002EB005041EA000141F070
:103510000071AA68206803F067FC37482B680342F3
:103520003FF466AE21684FF0A04C3448344E354D20
:10353000614501D0A94201D1024600E032469268BD
:10354000DFF8C48002F0E072434503D0DFF8BC80AE
:10355000434521D15FEA02281ED4614506D02C4B99
:1035600099427FF445AEA94200D0304642F40001B2
:10357000826822F0E0720A43826026482649006889
:10358000B0FBF1F0401C00EB4000800000E0401E6A
:1035900000900028FBD12BE6DFF8808043450FD157
:1035A0005FEAC2180CD4A94202D11D4B9942F2D055
:1035B000614502D0A94200D0304642F080710CE053
:1035C000DFF860804345E6D15302E4D4A942E2D05B
:1035D000614500D0304642F48001826822F0E072FA
:1035E0000A43826004E6000000007F4000F0FF0311
:1035F000FFFF0700000020FE0000088000030050CD
:103600000007005000010050000021C31000C090CE
:103610000006005014000020400D0300000052C7B7
:1036200000050050000084CB0349884202D10348C2
:10363000FFF764B870470000D8700020C068002011
:10364000704770472DE9F84F0446006806684568E2
:103650004FF0A048DFF89092404501D0484501D195
:10366000A24800E0A248806800F01F07B0070ED50E
:10367000A8070CD5E06DC00603D4E06D40F40060EF
:10368000E0652046FFF754F9216802200860DFF862
:1036900064B2DFF864A2700701D5680703D430076D
:1036A0003FD528073DD5E06DC00603D4E06D40F45A
:1036B0000070E065206803F08FFB60B32068484528
:1036C00001D1424604E0584501D1524600E002468D
:1036D000824208D03FB1052F05D0092F03D04845BD
:1036E00003D1414606E0C16805E0584501D1514685
:1036F00000E00146C96889040DD4016809070AD5AC
:1037000003F062FB58B3E06D40F01000E065206EFE
:1037100040F0010020662046FFF786FF21680C205C
:103720000860B00601D5A80603D470065FD5680608
:103730005DD5E06DC00603D4E06D40F40050E06557
:103740002068C16C11F4C07F1AD00021009103F0F1
:1037500043FB02462068484514D1434617E02068E1
:10376000416821F00C014160E06D20F48070E0655B
:10377000E06DC004CFD4E06D40F00100E065CAE721
:103780000121E3E7584501D1534600E00346834257
:1037900008D03FB1062F05D0072F03D0484503D1ED
:1037A000414606E0C16805E0584501D1514600E0B8
:1037B0000146C968009BA3B18B0102D58AB18A0476
:1037C0000FD4026852060CD589020AD403F0F4FA29
:1037D000F0B3E06D40F01000E065206E40F00100B5
:1037E00020662046FFF756FB2168602008603006FF
:1037F0000BD5280609D5E06D40F48030E065204601
:1038000000F094F9216880200860F0050CD5E805E7
:103810000AD5E06D40F40030E0652046FFF71CFC5F
:1038200021684FF480700860B0050CD5A8050AD552
:10383000E06D40F48020E0652046FFF70EFC216833
:103840004FF400700860F00631D5E8062FD500E08F
:1038500009E0E06BE8B12068EFB3404501D048458E
:1038600012D1224811E02068416821F060014160D6
:10387000E06D20F48050E065E06DC005B1D4E06DEE
:1038800040F00100E065ACE71948806800F4604052
:1038900050B1E06D40F48060E065206E40F00200C1
:1038A00020662046FFF7CDFE2168102008607005D5
:1038B00017D5680515D5E06D40F48040E065206EB1
:1038C00040F00800206621684FF4806008602046C0
:1038D000BDE8F84F00E001E0FFF711BBC068C0078A
:1038E000D6E7BDE8F88F000000010050000300504B
:1038F000000700500005005000040050F8B54FF0DC
:10390000000504002E46009502D0E06D10B107E0DE
:103910000120F8BD204600F00BF9266684F85860B7
:1039200020688168C1F3407119B18168734A114000
:10393000816020688168C1F3007189B98168704A2B
:10394000114041F0805181606E486F490068B0FBC2
:10395000F1F04000801C00E0401E00900028FBD1E8
:1039600020688168C1F3007141B9E16D41F0100137
:10397000E165216E41F001012166012503F024FA81
:10398000E16DC90600D430B1E06D40F01000E06593
:1039900001252846F8BDE06D20F4807040F002005B
:1039A000E0652068816811F0010F27D14FF0A04336
:1039B000564A984201D0904204D19968966801F025
:1039C00001010AE052498968524E01F00101B668CE
:1039D00006F001063143504EB66806F00106314349
:1039E0000CD1984201D0904201D14C4800E04C48A3
:1039F0006168826822F47C120A438260E168E06BAD
:103A0000627F0843A16841EA4231084394F82410D8
:103A100040EA0140012904D1218D424A02EB414193
:103A20000843E16A29B101F47871226B014342EA4B
:103A300001002268D1683C4B19400143D1602068E5
:103A40000169626B21F0406111430161206803F05C
:103A5000B3F970BB207F94F838102268800340EAE5
:103A60004100D16844F2020399430143D1602069C7
:103A70000028206801690AD041F480310161206882
:103A800050F8C01F22696FF30D01114307E021F4C4
:103A900080310161206850F8C01F6FF30D01016093
:103AA00094F8400001280CD02068016921F0010140
:103AB0000161606901282068016B21F00F0111D0BC
:103AC00013E0D4E911010843D4E913121143084368
:103AD00021680A6940F2FC739A43104340F00100E8
:103AE0000861E6E7226A521E11430163E06D20F08F
:103AF000020040F00100E0654BE70000C0FFFF5FFF
:103B0000C0FFFF7F14000020400D030000010050A3
:103B10000004005000050050000600500003005053
:103B2000000700500000FEFF0740F0FF7047000054
:103B30002DE9F04F9BB00646142115A8FCF794FD23
:103B400054216846FCF790FD4FF400413068002591
:103B50008A03DFF880810327DFF87CA15F4C4FF0F8
:103B6000904B4FF02009B0F1A04F12D05C4B98421F
:103B70007ED168461192009101F0CAF908B1FDF7B3
:103B800025F9D8F80000401CC8F80000012850D0E2
:103B900057E068461192009101F0BAF908B1FDF7BB
:103BA00015F9D8F80000401CC8F80000012807D11A
:103BB000E06C40F40050E064E06C00F400501A90B7
:103BC000E06C40F00100E064E06C00F001001A904D
:103BD000E06C40F00200E064E06C179500F0020039
:103BE0001A900820CDE9150715A9584600F02CFABF
:103BF0004FF480501795CDE9150715A9504600F0F0
:103C000023FA394C374820600520C4E9010580209B
:103C1000C4E903508000606180002562C4E90609A0
:103C2000204600F059F908B1FDF7D0F87465A66296
:103C300017E0E06C40F40050E064E06C00F40050E9
:103C40001A90E06C40F00100E064E06CCDF8549014
:103C500000F00100CDE916751A9015A9584600F03C
:103C6000F3F900221146122000F090FB122000E030
:103C700004E000F07DFB1BB0BDE8F08F1B498842DB
:103C8000F9D180010090C0031290684601F040F91C
:103C900008B1FDF79BF8E06C40F48040E064E06C14
:103CA00000F480401A90E06C40F00200E064E06CA8
:103CB000179500F002001A900120CDE9150715A90B
:103CC000504600F0C1F9002211462F2000F05EFBA3
:103CD0002F20CCE700000020000400480010024024
:103CE00000010050080002401C7200200004005037
:103CF0002DE9F047044600684FF0A0483D4F91463B
:103D00008A46404501D0B84201D13B4900E03B49D9
:103D1000896801F01F0503F057F8002868D194F86E
:103D20005800012864D0012084F8580034492068E4
:103D3000884201D1012000E00020401E28424FF0BF
:103D4000000605D0052D03D0092D01D0012003E088
:103D50002046FCF793FE18B184F85860BDE8F08760
:103D6000E06D40F60161884340F48070E0652068B2
:103D7000B84201D1414605E02249884201D1224999
:103D800000E00146814200D01DB9E06D20F48010B2
:103D9000E065E06DC00404D5206E20F006002066CA
:103DA00000E02666616D1948C862616D18480863B5
:103DB000616D1848486321681C20086084F85860C9
:103DC0002068416841F0100141602068C16841F0FD
:103DD0000101C16021684B4652464031606D00F0E0
:103DE000DBF821688A680C4B1A40121D8A60B5E71F
:103DF0000220B3E70001005000030050000700500C
:103E00000006005000050050000400508109000821
:103E1000030A0008E9090008C0FFFF7FF0B4016C45
:103E20000C6801680D6890F8442002F01F06042217
:103E300002FA06F3234211D06B070FD50B689B06DD
:103E400003D40B6823F004030B6090F8441001F0D6
:103E50001F018A40016C4A60016B1DE0022303FAD6
:103E600006F727424FF0000C4FF0010218D0AF07C1
:103E700016D50C68A40605D40C6824F00A040C605E
:103E800080F8252090F8441001F01F018B40016C50
:103E90004B6080F824C0C16A00291AD0F0BC0847E2
:103EA0000823B340234214D02B0712D50B6823F00C
:103EB0000E030B6090F84410036C01F01F0102FA2E
:103EC00001F15960C26380F8252080F824C0416B5D
:103ED000E2E7F0BC7047000070B504000CD02B4A3C
:103EE00021681420914209D2294A0A44B2FBF0F019
:103EF0008000606427480AE0012070BD234A5242D6
:103F00000A44B2FBF0F08000606420480838206466
:103F1000022084F825000A6847F6F0708243D4E94D
:103F200002031843D4E904352B431843A36918430B
:103F3000E3691843236A1843104308602046FCF7DE
:103F400093FEA0680025B0F5804F00D16560A16C9C
:103F500020790860D4E9130141606068401E03289D
:103F600008D82046FCF7A0FE606D0560D4E9160174
:103F7000416002E06565A565E565E563012084F8BB
:103F8000250084F82450002070BD00000804024081
:103F9000F8FFFDBF0000024070B5044690F8240011
:103FA000002501280CD0012084F8240094F8256015
:103FB0000020012E06D084F824000225284670BD7A
:103FC000022070BD022684F82560E0632068066840
:103FD00026F0010606602046FCF778FE206B0028DC
:103FE0002068016802D041F00E0106E021F00401D2
:103FF00001602068016841F00A010160A06C01685D
:10400000C90303D5016841F480710160606D18B186
:10401000016841F4807101602068016841F001018C
:104020000160CBE770B5044600F044F90546601C1A
:1040300002D004484068044400F03CF9401BA04210
:10404000FAD370BD080000202DE9F04FDFF8209270
:10405000002301260324A9F1040B85B00F2709F1E1
:10406000040AABF1040EFAE006FA03F52A407CD00C
:1040700091F804C00CF0030CBCF1010F02D0BCF1AC
:10408000020F26D1D0F808C0CDF800C04FEA430C8B
:1040900004FA0CF8CDF810C0DDF800C02CEA080CCA
:1040A000CDF800C0D1F80C80DDF810C008FA0CF88B
:1040B000DDF800C048EA0C08C0F80880D0F804C059
:1040C0002CEA050C0D79C5F300159D4045EA0C0559
:1040D00045600D79ED43AD070ED0C5684FEA430842
:1040E00004FA08FC25EA0C05D1F808C00CFA08FC13
:1040F0004CEA050CC0F80CC00D7905F00305022D43
:1041000016D1DD0800EB850CCDF808C0DCF8208066
:104110005D074FEAD56C07FA0CF528EA05080D692A
:1041200005FA0CF5DDF808C045EA0805CCF8205082
:1041300005684FEA430CCDF808C004FA0CFC25EAE8
:104140000C0591F804C00CF00308DDF808C008FA6B
:104150000CF848EA0508C0F800804D6815F4403FA7
:104160007CD0444DD5F860C000E077E04CF0010C05
:10417000C5F860C02D6E23F0030C05F00105009515
:104180003D4D65440295AD684FEA837C4FEA1C784B
:1041900007FA08FC25EA0C05B0F1904F06D0DFF8CD
:1041A000DCC0604505D14FF0010C20E04FF0000C61
:1041B0001DE0DFF8CCC0604502D14FF0020C16E0E4
:1041C000DFF8C0C0604502D14FF0030C0FE0DFF80C
:1041D000B8C0604502D14FF0040C08E0DFF8ACC075
:1041E000604502D14FF0050C01E04FF0060C0CFACF
:1041F00008FC4CEA050C029DC5F808C0D9F800502F
:10420000CC46D1F8048095435FEAC82800D5154311
:10421000CCF80050DAF80050D446D1F80480954329
:104220005FEA882800D51543CCF80050DBF8005031
:10423000DC46D1F8048095435FEA883800D5154301
:10424000CCF80050DEF80050F446D1F804809543D5
:104250005FEAC83800D51543CCF800505B1C0A68EB
:1042600032FA03F57FF400AF05B0BDE8F08F00002F
:104270000804014000100240000001400004004812
:1042800000080048000C00480010004800140048D6
:104290000069084000D001207047426921EA02030A
:1042A0000A4043EA0241816170470AB18161704767
:1042B0008162704701488068704700000800002054
:1042C00002488168426811448160704708000020FC
:1042D00010B50024032000F079F80F2000F008F852
:1042E00008B1012401E000F025F8204610BD0000CF
:1042F00070B50E4E05460024706898B14FF47A717F
:10430000B1FBF0F00A490968B1FBF0F001F0EAFAFC
:1043100040B9102D06D200222946501E00F036F872
:10432000356000E00124204670BD00000800002038
:10433000140000200D4808B5016E41F0010101662E
:10434000016E01F001010091816D41F080518165A4
:10435000806D00F08050009001F0A6FA022001F07C
:10436000ABFABDE8084000F0A5BD00000010024017
:10437000002809DB00F01F02012191404009800064
:1043800000F1E020C0F8001170470000F0B40E4BBF
:104390001B680C46C3F30223C3F10705042D00D9A3
:1043A0000425191D072901D2002300E0DB1E012688
:1043B00006FA05F1491E214099409E40761E16409E
:1043C0003143F0BC06F034BA0CED00E0064900F0D1
:1043D000070208684FF6FF03184040EA0220034A2C
:1043E00010430860704700000CED00E00000FA0583
:1043F00001220168C0F8D022002280F8C82231F8DA
:10440000540F40F001000880088840F00200088046
:1044100010467047704710B50C0607D501F007012C
:1044200001EB810100EBC100103005E001EB8101DF
:1044300000EBC10000F5A87099B232B101220273FD
:104440000181190C4181002010BD00220273C1803E
:10445000F9E701EB810200EBC202D0F8D802526A00
:1044600005F02FB801EB810200EBC202D0F8D802B0
:10447000D2F8642105F079B870B504460B0601F056
:10448000070000EB800104EBC1014FF001024FF087
:10449000000502D54A74103103E081F8515101F54D
:1044A000A871087094F89002012808D084F890222E
:1044B000206805F0D2FC84F89052002070BD0220E4
:1044C00070BD70B5044601F00F002279904201D909
:1044D000012070BD0B0601F0070000EB800104EB2A
:1044E000C1014FF001024FF0000502D54A741031AE
:1044F00003E081F8515101F5A8718D70087094F8AE
:104500009002012808D084F89022206805F044FD2C
:1045100084F89052002070BD022070BD2DE9F04754
:1045200004685FEA42480B788D69B4F850804FF018
:10453000000C4BF68F7748F2800648F68F7948F2E8
:10454000C00A444428D540F2024808EBC30834F8B6
:104550000840C4F30904A54203D32D1B8D6102D08A
:104560000BE0C1F818C0D0F800C03CF823503D4023
:1045700085F4005535432CF82350520609D50B78A5
:10458000056835F8232002EA090242EA0A0225F802
:10459000232074B30A8927E040F2064808EBC308D9
:1045A00034F80840C4F30904A54203D32D1B8D61E0
:1045B00002D00BE0C1F818C0D0F800C03CF823507E
:1045C0003D4085F4005535432CF82350520609D45C
:1045D0000D78036833F8252002EA090242EA0A024C
:1045E00023F825202CB14A8949690068234605F043
:1045F000ACFF2046BDE8F0872DE9F047054600688E
:104600000C465FEA42681646D1F818C02278B0F826
:10461000508048F68F774CF280094FF400434FF6F4
:10462000FF7A4FF00001404472D540F2024808EB97
:10463000C20830F80800C0F30900844514D9BCEB67
:10464000000CC4F818C010D0760408D5D5F800C006
:104650003CF822603E4046EA09062CF8226094F8B5
:104660002420012A47D056E1A161607810B10128C9
:1046700013D01AE02868B0F85030184400EBC2009C
:10468000B0F80224C2F30902A0F80224B0F8022410
:1046900042F40042A0F8022407E02868B0F8503045
:1046A000184400EBC200A0F802146278286812B126
:1046B000012A11D018E0B0F850100844217800EB1E
:1046C000C100B0F80614C1F30901A0F80614B0F84F
:1046D000061441F4004105E0B0F85020104422785F
:1046E00000EBC200A0F8061421782846FFF7B1FEBF
:1046F00070046ED40FE1626902446261E2690244AF
:10470000E2612669226AB24203D33046111A04E0FC
:1047100040E084F824100AB110462162617811B19A
:1047200001292BD033E02968B1F8502011442278B8
:1047300001EBC201B1F80224C2F30902A1F802247C
:1047400001F202413E2809D94209C60600D1521E93
:104750000E8843EA822216430E8018E048B14208D0
:10476000C30700D0521C0B880AEA822213430B8035
:104770000DE00A8842F400420A8008E02968B1F896
:1047800050201144227801EBC201A1F8020483B247
:104790002289BCE040F2064808EBC20830F8080065
:1047A000C0F30900844515D3BCEB000CC4F818C055
:1047B00011D0760408D4D5F800C03CF822603E4001
:1047C00046EA09062CF8226094F82420012A51D0E8
:1047D000A1E045E0A161607810B1012813D01AE092
:1047E0002868B0F85030184400EBC200B0F802243A
:1047F000C2F30902A0F80224B0F8022442F40042F5
:10480000A0F8022407E02868B0F85030184400EB04
:10481000C200A0F802146278286812B1012A11D0EF
:1048200018E0B0F850100844217800EBC100B0F84F
:104830000614C1F30901A0F80614B0F8061441F4F7
:10484000004105E0B0F850201044227800EBC2008F
:10485000A0F8061421782846FFF7FBFD70045AD40F
:1048600021782A6832F82100384040EA090022F80D
:10487000210050E0626902446261E2690244E2613F
:104880002669226AB24203D33046111A216204E03B
:104890000AB11046216284F824106278296812B1A6
:1048A000012A2AD031E0B1F850201144227801EBDE
:1048B000C201B1F80624C2F30902A1F8062401F2EC
:1048C00006413E2809D94209C60600D1521E0E886B
:1048D00043EA822216430E8017E048B14208C3071C
:1048E00000D0521C0B880AEA822213430B800CE092
:1048F0000A8842F400420A8007E0B1F850201144CF
:10490000227801EBC201A1F80604628983B26169D1
:10491000286805F035FE21782A6832F8210048F62B
:10492000BF73184080F0300048F28003184322F82B
:1049300021000020BDE8F08701F0070101EB8101B3
:1049400000EBC100D0F86C0170472DE9F04104463E
:104950000F0601F0070000EB800104EBC1014FF0EE
:1049600001064FF0000502D54E74103103E081F8C6
:10497000515101F5A871022B08700A61CB7000D16A
:104980000D7194F89002012809D084F89062206893
:1049900005F015F9284684F89052BDE8F081022010
:1049A000FBE710B501F0070404EB840100EBC10143
:1049B000C1E959230022C1F86C2181F8512181F805
:1049C0005041006801F5A87105F03BFB002010BDC7
:1049D00070B5044601F007002279904201D9012008
:1049E00070BD0B064FF000054FF0010206D500EB3D
:1049F000800104EBC1014A74103107E001EB810131
:104A000004EBC10181F8515101F5A8718A70087059
:104A100094F89002012808D084F89022206805F0CC
:104A2000F7FA84F89052002070BD022070BD10B5D6
:104A300001F0070404EB840100EBC101C1E9092383
:104A4000012281F834200B630023CB624A7401F801
:104A5000104F006805F0F5FA002010BD10B50446AF
:104A6000006805F06FFD010404D52046BDE8104044
:104A700002F0DCBF41050ED5206830F8441F21F458
:104A800080610180204600F009F92046BDE8104011
:104A9000002100F059B9410405D5206830F8441FC1
:104AA00021F480417DE0810405D5206830F8441F61
:104AB00021F4005175E0C1041FD5206830F8401F73
:104AC00021F004010180206830F8401F21F0080126
:104AD000018094F8C802012806D1002084F8C80299
:104AE00001462046FFF796FC204600F009F92068B1
:104AF00030F8441F21F4805153E0010512D520689D
:104B000030F8401F41F008010180206830F8441F50
:104B100021F400610180206830F8401F41F0040159
:104B200001800AE0010629D5206830F8441F21F0F1
:104B30008001018094F8C80218B1204600F034F9D1
:104B400010BD206830F8401F41F00401018020684A
:104B500030F8401F41F008010180012084F8C802AC
:104B60002068B0F854003C2101EA9000C4F8CC025F
:104B70002046BDE810400121FFF74CBC810509D556
:104B8000206830F8441F21F400710180204600F0B5
:104B9000D7F810BDC005FCD5206830F8441F21F4BB
:104BA0008071018010BD000070B5040004D094F83D
:104BB0009102002510B106E0012070BD84F89052EA
:104BC000204600F03FF8032084F89102206805F0A9
:104BD000DBF9002001260BE000EB800104EBC101B2
:104BE0004E740874CD740D624D62401CC0B28D626B
:104BF00021798142F0D8002012E000BF00EB800153
:104C000004EBC10181F8515181F8500181F85351F1
:104C1000C1F86051C1F86451401CC0B2C1F868517C
:104C200021798142EAD894E8070005F0A4F92573B8
:104C300084F89162A07A012802D12046FFF7D8FBC0
:104C4000002070BD10B596B0044654216846FBF7AD
:104C50000BFD1049206888421AD1401400900020B2
:104C60000F90684600F054F908B1FCF7AFF80A4815
:104C7000816D41F400018165806D002200F4000027
:104C8000159002211420FFF781FB1420FFF770FB21
:104C900016B010BD005C00400010024070B5044624
:104CA00040790125022801D007A000E00DA0FBF704
:104CB0009DFB2946D4F8D80204F037FDD4F8D80279
:104CC000BDE8704004F0EABC555342204465766963
:104CD0006365204C69627261727920205B46533FA4
:104CE0005D0D0A0055534220446576696365204C8A
:104CF00069627261727920205B46535D0D0A000083
:104D000010B5044608A0FBF771FB607A30B10B4880
:104D1000016821F00601016004F088FAD4F8D80295
:104D2000BDE8104004F0E7BC446576696365205235
:104D30006573756D65640D0A0000000010ED00E0FC
:104D4000D0F8D80204F0E1BC10B5044690F8900207
:104D500001280AD0012084F890022173206805F010
:104D600008FC002084F8900210BD022010BDD0F88D
:104D7000D82200F52671104604F0E8BC10B50446B0
:104D800090F8900201280CD0012084F8900220684D
:104D900005F0C8FB206805F0E7F8002084F89002D1
:104DA00010BD022010BD000010B50A4904460020C5
:104DB000087009A0FBF71AFBD4F8D80204F008FD2C
:104DC000607A002804D00B48016841F006010160B8
:104DD00010BD0000580100204465766963652049D4
:104DE0006E2073757370656E64206D6F64652E0D33
:104DF0000A00000010ED00E02B492C4B0A6832211C
:104E00004A432B4940B1B0F5007F086829D020F40F
:104E1000C06040F480602CE00868C0F341200228A4
:104E200004D051F8800F20F4807022E0D1F8800087
:104E300020F48070C1F88000086820F4C06040F45D
:104E400000700860B2FBF3F0401C00E0401E4A69AD
:104E5000520501D50028F9D1486940050AD503203B
:104E60007047C0F34120022806D051F8800F40F46B
:104E70008070086000207047D1F8800040F4807096
:104E8000C1F88000086820F4C06040F40070086039
:104E9000B2FBF3F0401C00E0401E4A695205DBD52E
:104EA0000028F9D1D8E700001400002040420F008C
:104EB000007000400248816841F480418160704781
:104EC0000070004010498A6B42F480728A638A6BDA
:104ED00022F480728A63D0E9001211438268114380
:104EE000C2680A43018A42EA014208494A600A68E4
:104EF000406922F4FE4242EA00200860086840F05F
:104F00006000086070470000001002400020004070
:104F10002DE9F843044600680026BB4D00035ED52A
:104F2000A86D0027C00008D4A86D40F08050A86587
:104F3000A86D012700F080500090DFF8D092D9F8DA
:104F4000001041F48071C9F80010FFF7B3F98046F2
:104F500006E000BFFFF7AEF9A0EB080002282BD84F
:104F6000D9F80000C005F5D5D5F8900010F44070D0
:104F700014D0216D814211D0D5F89000D5F8901051
:104F800020F4407041F48031C5F89010D5F89010AD
:104F900021F48031C5F89010C5F89000C00711D0F9
:104FA000FFF788F9804641F2883907E0FFF782F978
:104FB000A0EB0801494501D903260BE0D5F8900084
:104FC0008007F3D5D5F89000216D20F44070084398
:104FD000C5F890001FB1A86D20F08050A86520781A
:104FE000C00707D0D5F88800616820F003000843A7
:104FF000C5F888002078800707D5D5F88800A16813
:1050000020F00C000843C5F888002078400707D539
:10501000D5F88800E16820F030000843C5F8880022
:105020002078000707D5D5F88800216920F0C00056
:105030000843C5F888002078C00607D5D5F8880051
:10504000616920F440700843C5F888002078800624
:1050500007D5D5F88800A16920F440600843C5F859
:1050600088002078400607D5D5F88800E16920F44B
:1050700040500843C5F888002078000607D5D5F8C9
:105080008800216A20F440400843C5F88800208841
:10509000C00507D5D5F88800616A20F44030084380
:1050A000C5F888002068800307D5D5F89C00A16A60
:1050B00020F003000843C5F89C002088800507D530
:1050C000D5F88800E16A20F440200843C5F888003C
:1050D000208840050FD5D5F88800216B20F44010BA
:1050E0000843C5F88800206BB0F5801F03D1E8683D
:1050F00040F48010E860208800050FD5D5F88800BE
:10510000616B20F440000843C5F88800606BB0F57F
:10511000800F03D1E86840F48010E8602088C00464
:105120000FD5D5F88800A16B20F040700843C5F872
:105130008800A06BB0F1807F03D1E86840F4801054
:10514000E86020884FF0006180040ED5D5F8880013
:10515000E26B20F040601043C5F88800E06B8842A5
:1051600003D1E86840F48010E860208840040ED540
:10517000D5F88800226C20F040601043C5F8880004
:10518000206C884203D1E86840F48010E8602088F1
:1051900000040FD5D5F88800616C20F0405008431A
:1051A000C5F88800606CB0F1805F03D1E86840F416
:1051B0008030E8602068C0030FD5D5F88800A16C66
:1051C00020F040400843C5F88800A06CB0F1804F43
:1051D00003D1E86840F48030E860206840030FD5D0
:1051E000D5F89C00E16C20F440100843C5F89C0001
:1051F000E06CB0F5001F03D1E86840F48010E8606F
:105200003046BDE8F8830000001002400070004006
:105210002DE9F0470E4605004FF0000725D0DFF8D6
:10522000AC81D8F8000000F00F00B0420CD2D8F8E2
:10523000001021F00F013143C8F80010D8F8000029
:1052400000F00F00B04210D12968614CC80741F24C
:10525000883A5AD06868DFF87C91032808D0022881
:1052600020682DD0400500282CDB0120BDE8F08708
:1052700020688001F9D5E06800F00302E068C0F31F
:105280000310401C032A19D0534A00BFB2FBF0F0B0
:10529000E268C2F306225043E268C2F34162521C44
:1052A0005200B0FBF2F0484517D9A06810F0F00F9B
:1052B0000CD0880711D5A86840B10EE0474AE5E751
:1052C0008003D0E700F0B6F8484506D9A06820F082
:1052D000F00040F08000A0608027A068696820F09E
:1052E00003000843A060FEF7E5FF814606E000BF2B
:1052F000FEF7E0FFA0EB090151453AD8A0686968C4
:1053000000F00C00B0EB810FF2D12868810714D5B2
:10531000400703D5A06840F4E060A060287800074B
:1053200005D5A06820F4605040F4E060A060A0685B
:10533000A96820F0F000084304E0802F03D1A068A2
:1053400020F0F000A060D8F80010404601F00F01F6
:10535000B14216D9016821F00F0131430160FEF717
:10536000A9FF074607E000BFFEF7A4FFC11B514598
:1053700001D903207AE7D8F8000000F00F00B0420E
:10538000F2D12878400705D5A068E96820F4E060EC
:105390000843A0602878000706D5A068296920F492
:1053A000605040EAC100A06000F044F8A1680C4AD7
:1053B000C1F30311515C01F01F01C84009490860A5
:1053C00009480068BDE8F047FEF792BF00200240A0
:1053D0000010024000B4C4040024F40040787D01B1
:1053E0001AAB0008140000200800002005480649F8
:1053F00000688968054AC1F30221515C01F01F0170
:10540000C840704714000020001002402AAB00087A
:105410000548064900688968054AC1F3C221515C04
:1054200001F01F01C8407047140000200010024026
:105430002AAB0008184910B58868C0F381021748E4
:10544000012A0BD08A68164BC2F38102022A06D0C9
:105450008A68C2F38102032A03D0002010BD1846D7
:1054600010BDCA6802F00304CA68C2F30312521CDA
:10547000032C02D0B0FBF2F001E0B3FBF2F0CA68FB
:10548000C968C2F306225043C1F34161491C490077
:10549000B0FBF1F010BD0000001002400024F40049
:1054A00040787D012DE9F84304007AD02078F84D4A
:1054B000C00747D0A868E96800F00C0001F00301BC
:1054C0000C2802D0082817D001E0032914D0606806
:1054D000B0F5803F17D0B0F5A02F286817D020F482
:1054E00080302860286820F4802028606068E0B15F
:1054F000FEF7E0FE064614E02868800322D56068C7
:105500000028D2D01EE0286840F48030EDE740F457
:1055100080202860F7E700BFFEF7CCFE801B6428E0
:1055200070D828688003F7D50CE0FEF7C3FE064666
:1055300005E000BFFEF7BEFE801B6428F0D8286897
:105540008003F7D4207880074CD5A868E96800F07C
:105550000C0001F003010C2802D004280DD001E05A
:1055600002290AD0E068002828682BD040F4807017
:105570002860FEF79FFE064619E02868400502D520
:10558000E068002891D06868217C20F0FE4040EA65
:1055900001606860BF480068FEF7AAFE002800D1DD
:1055A00020E072E1FEF786FE801B0228B8D828684A
:1055B0004005F7D56868217C20F0FE4040EA016094
:1055C00068600FE020F480702860FEF773FE0646E6
:1055D00005E000BFFEF76EFE801B0228A0D82868F9
:1055E0004005F7D42078000729D560690028D5F850
:1055F000940013D040F00100C5F89400FEF75AFE65
:10560000064606E090E000BFFEF754FE801B02282D
:1056100086D8D5F894008007F6D510E020F0010078
:10562000C5F89400FEF746FE064604E0FEF742FE8B
:10563000801B022878D8D5F894008007F6D420780B
:10564000400761D5A86D0026C00008D4A86D40F0C1
:105650008050A865A86D012600F0805000908E480B
:105660000168C90511D40168804641F48071016068
:10567000FEF720FE074604E0FEF71CFEC01B0228D2
:1056800052D8D8F80000C005F6D5A068012815D07A
:105690000528D5F8900016D020F00100C5F890003C
:1056A000D5F8900020F00400C5F89000A06841F201
:1056B0008838B8B1FEF7FEFD07460EE0D5F8900039
:1056C00040F00100F0E740F00400C5F89000F5E775
:1056D000FEF7F0FDC11B414526D8D5F890008007A4
:1056E000F6D50CE0FEF7E6FD074604E0FEF7E2FD26
:1056F000C11B414518D8D5F890008007F6D41EB1DB
:10570000A86D20F08050A8652078800629D5A06972
:105710000028D5F8980013D040F00100C5F8980093
:10572000FEF7C8FD064606E075E000BFFEF7C2FDC5
:10573000801B02286FD8D5F898008007F6D510E0B6
:1057400020F00100C5F89800FEF7B4FD064604E01D
:10575000FEF7B0FD801B02285DD8D5F898008007C1
:10576000F6D4E069F0B3A968C1F3810103295DD0E3
:105770000228286820F08070286003D0FEF79AFD88
:1057800004464BE0FEF796FD064604E0FEF792FD68
:10579000801B02283FD828688001F7D4F4E908016B
:1057A0006FF00F0202EB01110843218A52044908ED
:1057B00002EB4151A26841EA02210843217D4FF0EA
:1057C0007E42490802EB41610843217B40EAC16007
:1057D000E968324A11400843E860286840F0807068
:1057E000286000E05EE0E86840F08070E860FEF766
:1057F00061FD044605E000BFFEF75CFD001B0228CA
:1058000009D828688001F7D54CE000BFFEF752FDAB
:10581000001B022802D90320BDE8F8832868800114
:10582000F4D4E8681E490840E8603BE00128F3D062
:10583000E868226A00F00301914226D1616A00F013
:10584000F0020901103991421FD1A26A00F4FE4111
:10585000B1EB022F19D194F82C2000F07841B1EB74
:10586000C26F12D1218E00F4C00249084905A1F58A
:105870000011914209D194F8341000F0C060490839
:105880004906A1F1007181420CD00120C4E700005B
:105890000010024008000020007000400C809F01B2
:1058A000FCFFEEFE0020B7E70248016B21F001018A
:1058B000016370470000014003490A6B22F00202B5
:1058C00002430A6370470000000001404FF0E021EE
:1058D0000428086903D020F004000861704740F0F4
:1058E0000400FAE710B5401EB0F1807F01D301201B
:1058F00010BD4FF0E02460610F21601704F098FFA5
:105900000020A06107202061002010BD7047704773
:105910007047000030B590F83C20012A45D00122A4
:1059200080F83C20CA688B6822F440721A434B68A6
:1059300022F480621A430B6822F400621A430B6956
:1059400022F480521A434B6922F400521A430B6B23
:1059500022F480421A430B8B22F4702242EA034263
:10596000CB6922F080521A43114D03680024AB42E8
:1059700005D0104DAB4202D00F4DAB4210D10D8D72
:1059800022F4700242EA05520D6A22F080722A4324
:105990004D6A22F000722A43C96A22F000520A437B
:1059A0005A6480F83C40002030BD022030BD000029
:1059B000002C014000340140005001407047704706
:1059C00070B588B00E46040004D094F83D00002560
:1059D00018B107E0012008B070BD84F83C502046A3
:1059E00000F05CF8022084F83D00211D206802F0E0
:1059F000D9FCB36831680322206802F01FFF2068D9
:105A0000816921F00C01816120688169726811430C
:105A100081612068416841F08001416020688168AF
:105A20001B4A114081602068816841F0400181601B
:105A300020688168174A114081602068816841F0C0
:105A400004018160702005950495069503950295E3
:105A50000090F06801906946206802F085FD20689A
:105A600041680D4A114041602068416841F0500191
:105A70004160012084F8480084F83E0084F83F002B
:105A800084F8440084F8450084F83D000020A2E733
:105A90008FFFCFFFF8FFFEFF8FFFFFFD10B586B031
:105AA000044614216846FAF7DFFD1649206888424B
:105AB00025D11548816D41F008018165816D01F0A6
:105AC00008010591C16C41F00101C164C06C002165
:105AD00000F001000590072000900220CDE90101AF
:105AE000CDE9031069464FF09040FEF7ADFA002271
:105AF00003213220FEF74AFC3220FEF739FC06B0C3
:105B000010BD0000000C0040001002407047000073
:105B1000F0B590F83C20012A43D0012580F83C5094
:105B2000022280F83D2003685A689C681E4E1F4F71
:105B3000DFF87CC0B34203D0BB4201D0634504D13F
:105B400022F4700E4A6842EA0E02DFF868E002EAC8
:105B50000E02D1F800E04EEA020EC3F804E002683B
:105B6000B24212D0B2F1804F0FD0134B9A420CD0F8
:105B7000124B9A4209D0124B9A4206D0BA4204D034
:105B8000104B9A4201D0624504D1896824F0800309
:105B90001943916080F83D50002180F83C10084680
:105BA000F0BD0220F0BD0000002C01400034014097
:105BB000005001408FFFFFFD00040040000800403E
:105BC000000C00400040014010B50446022249B1DB
:105BD00004290ED0082913D094F84700012816D0C4
:105BE000012010BD94F844000128F9D184F8442024
:105BF0000FE094F845000128F2D184F8452008E030
:105C000094F846000128EBD184F8462001E084F89E
:105C100047200422206802F044FC2068416C41F4D3
:105C20000041416413492068884214D0B0F1804F8C
:105C300011D0114988420ED0104988420BD010492A
:105C4000884208D00F49884205D00F49884202D0C7
:105C50000E49884207D181680D4A1140062906D0B5
:105C6000B1F5803F03D0016841F0010101600020DF
:105C700010BD0000002C014000040040000800405E
:105C8000000C004000340140004001400050014041
:105C90000700010070B504460D460068002202F0BE
:105CA00000FC2068036A41F211110B4244F24442A5
:105CB00006D1036A134203D1436C23F400434364C7
:105CC0002068036A0B4206D1016A114203D10168C0
:105CD00021F00101016001203DB1042D08D0082D03
:105CE00009D084F84700002070BD84F84400FAE72A
:105CF00084F84500F7E784F84600F4E7704710B5EC
:105D0000040003D094F83D0010B107E0012010BD5D
:105D1000002084F83C00204600F022F8022084F89D
:105D20003D00211D206802F03DFB012084F8480061
:105D300084F83E0084F83F0084F8400084F8410075
:105D400084F8420084F8430084F8440084F8450055
:105D500084F8460084F8470084F83D00002010BD18
:105D600008B500680B49884212D10B48816D41F09B
:105D700010018165806D002200F010000090052167
:105D80003620FEF703FBBDE808403620FEF7F0BAE8
:105D900008BD0000001000400010024090F83D10C7
:105DA000012901D001207047022180F83D100168CF
:105DB000CA6842F00102CA6000681349884214D0E0
:105DC000B0F1804F11D0114988420ED0104988425D
:105DD0000BD01049884208D00F49884205D00F499E
:105DE000884202D00E49884207D181680D4A11408D
:105DF000062906D0B1F5803F03D0016841F00101CA
:105E00000160002070470000002C014000040040A9
:105E100000080040000C00400034014000400140F8
:105E200000500140070001002DE9F0410D4604003B
:105E300003D094F83D0018B108E00120BDE8F081DE
:105E4000002084F83C00204600F042F8022084F84C
:105E50003D00206881681D4A11408160211D206835
:105E600002F0A0FA226890689169166A2B68AF69FF
:105E7000034340F20330814341EA0721A868EF69F8
:105E800008434FF6FC418843E96840EA0720014394
:105E900028692F6A000140EA0730084369686D6984
:105EA00026F0AA0646EA0515294393602268906108
:105EB00054F8480B0162012004F81F096075A075B1
:105EC000E076207720750020B8E70000F8BFFEFFDD
:105ED00010B586B0044614216846FAF7C5FB11498F
:105EE000206888421CD11048816D41F00201816513
:105EF000816D01F002010591C16C41F00201C164A4
:105F0000C06C002100F002000590302000900220BB
:105F1000CDE90101CDE9031069460448FEF794F884
:105F200006B010BD0004004000100240000400480C
:105F300070B590F83E60044690F83F5090F84430B9
:105F400090F84520022021B104290ED0012E1BD14A
:105F500014E0012E18D1012B16D184F83E0084F8EC
:105F6000440001220021206820E0012D0CD1012AEB
:105F70000AD184F83F0084F8450014E0012D03D1D4
:105F8000012B01D1012A01D0012070BD84F83E000F
:105F900084F83F0084F8440084F845000122002181
:105FA000206802F071FA01220421206802F06CFAE4
:105FB0002068016841F001010160002070BD00000F
:105FC00010B504460068B0F1804F02D10648FAF7D8
:105FD00041FF06492068884204D1BDE810400448CA
:105FE000FBF794BB10BD000024020020000C004011
:105FF0003C0A00202DE9F041054690F83C000026BF
:106000000C46012810D0012085F83C0072B1042A0A
:106010001CD0082A2CD00C2A50D00126002085F84C
:106020003C003046BDE8F0810220FBE7D4E90012D5
:10603000E368286802F002FC2868816921F00C01FD
:10604000816128688169A26811430FE0D4E90012D8
:10605000E368286802F032FC2868816921F4406115
:10606000816128688169A26841EA02218161D5E7DE
:106070002868D4E9002C277B036A016A21F4807127
:106080000162C16923F4206321F0030141EA0C019C
:1060900021F0F00C39074FF420674CEA116107EA50
:1060A00002221A43C16102622868C16921F00C0111
:1060B000C1612868C169A26811432BE02868D4E94E
:1060C0000021E768036AD0F820C02CF4805CC0F897
:1060D00020C0D0F81CC023F420432CF4407C4CEAB0
:1060E000012121F4704C4FF6FF7101EA07314FF4A2
:1060F000204741EA0C0107EA02321A43C1610262F9
:106100002868C16921F44061C1612868C169A26839
:1061100041EA0221C16181E710B5040003D094F87F
:106120003D0010B107E0012010BD002084F83C00C4
:10613000204600F023F8022084F83D00211D20684D
:1061400002F030F9012084F8480084F83E0084F819
:106150003F0084F8400084F8410084F8420084F84D
:10616000430084F8440084F8450084F8460084F82D
:10617000470084F83D00002010BD000010B586B037
:10618000044614216846FAF76FFA2068B0F1804F90
:1061900025D11448816D41F001018165816D01F0C7
:1061A00001010591C16C41F00201C164C06C6946F6
:1061B00000F00200059008200090022001900020CD
:1061C00002900390012004900748FDF73DFF002254
:1061D00001211C20FEF7DAF81C20FEF7C9F806B0F2
:1061E00010BD0000001002400004004830B5044615
:1061F000002571B1042911D0082914D00C2917D019
:10620000102918D094F8430094F84720012817D19A
:1062100014E094F83E0094F84420F7E794F83F0027
:1062200094F84520F2E794F8400094F84620EDE712
:1062300094F84100E8E794F84200E5E7012A01D02C
:10624000012030BD022079B1042916D008291DD0C3
:106250000C294FD0102950D084F8430084F847000F
:106260000C294DD0012543E084F83E0084F8440019
:106270002068C26842F0020210E084F83F0084F80F
:1062800045002068C26842F0040207E084F840003C
:1062900084F846002068C26842F00802C260012209
:1062A000206802F0F1F819492068884214D0B0F152
:1062B000804F11D0164988420ED0164988420BD023
:1062C0001549884208D01549884205D014498842AA
:1062D00002D01449884207D18168134A1140062927
:1062E00006D0B1F5803F03D0016841F001010160A3
:1062F000284630BD84F84100B0E784F84200ADE79D
:106300002068C26842F01002C8E70000002C01407B
:106310000004004000080040000C00400034014030
:106320000040014000500140070001002DE9F0410C
:1063300004460068C66805694FF00007A90713D531
:10634000B10711D5F91E016101202077206880690D
:106350008007204602D0FFF733FE04E000F002F988
:10636000204600F0FFFA2777680716D5700714D586
:1063700021686FF00400086102202077206880699E
:1063800010F4407F204602D0FFF71AFE04E000F030
:10639000E9F8204600F0E6FA2777280715D53007F8
:1063A00013D521686FF00800086104202077206869
:1063B000C0698007204602D0FFF702FE04E000F02B
:1063C000D1F8204600F0CEFA2777E80616D5F00679
:1063D00014D521686FF0100008610820207720682C
:1063E000C06910F4407F204602D0FFF7E9FD04E0C9
:1063F00000F0B8F8204600F0B5FA2777E80708D093
:10640000F00706D021686FF001000861204600F017
:1064100091FB280601D4A80408D5300606D52168CA
:106420006FF4025008612046FFF771FAE80508D5BD
:10643000300606D521686FF4807008612046FFF7AA
:1064400065FA680608D5700606D521686FF0400029
:106450000861204600F08AFBA80608D5B00606D5DC
:1064600021686FF0200008612046FFF751FAE8022A
:1064700008D5F00206D521686FF480100861204627
:10648000FFF79DFAA80208D5B00206D521686FF47F
:10649000001008612046FFF791FA680208D57002E3
:1064A00006D521686FF4800008612046FFF72EFBB7
:1064B00028020AD5300208D521686FF4000008616F
:1064C0002046BDE8F041FFF719BCBDE8F0810000AF
:1064D000F0B587B0044614216846FAF7C5F81E499E
:1064E0002068884236D11D48C16C41F00201C16468
:1064F000C16C01F002010591C16C41F00101C16460
:10650000C06C022500F0010005904FF4C0400090DF
:106510000024CDE901540626114FCDE90346694612
:106520003846FDF791FDA8030090CDE90154042001
:10653000CDE9034069463846FDF786FD4FF4E0603B
:106540000090CDE90154CDE9034669464FF09040F3
:10655000FDF77AFD07B0F0BD002C014000100240AD
:106560000004004870470000F0B5002504460222F0
:1065700069B1042916D008295DD00C2966D01029EC
:106580006BD094F8430001286ED00120F0BD94F840
:106590003E000128F9D184F83E202068C26842F00C
:1065A000020209E094F83F000128EED184F83F2070
:1065B0002068C26842F00402C2600122206801F033
:1065C00063FF2F4920682F4A2F4B304E88420BD053
:1065D000904209D0984207D02D4FB84204D02D4F99
:1065E000B84201D0B04203D1476C47F4004747643A
:1065F0002068884211D0B0F1804F0ED026498842E1
:106600000BD02649884208D02549884205D09042BF
:1066100003D0984201D0B04207D18168214A11408D
:10662000062906D0B1F5803F03D0016841F0010191
:1066300001602846F0BD94F840000128A5D184F8F7
:1066400040202068C26842F00802B5E794F8410093
:1066500001289AD184F8412008E094F842000128EA
:1066600093D184F8422003E084F843200C2901D020
:106670000125DEE72068C26842F010029CE70000B6
:10668000002C014000340140004001400050014016
:106690000044014000480140000400400008004060
:1066A000000C00400700010070B50D0004464FF0DB
:1066B000000607D0042D0AD0082D0DD00C2D10D0C7
:1066C00001264FE02068C16821F002010DE020683A
:1066D000C16821F0040108E02068C16821F00801C8
:1066E00003E02068C16821F01001C1600022294642
:1066F000206801F0C9FE244B41F2111120688A0084
:1067000098420ED0214B98420BD0214B984208D092
:10671000204B984205D0204B984202D01F4B984204
:1067200009D1036A0B4206D1036A134203D1436CB9
:1067300023F4004343642068036A0B4206D1016AD4
:10674000114203D1016821F00101016001205DB116
:10675000042D0CD0082D0DD00C2D0ED0102D0FD0E7
:1067600084F84300304670BD84F83E00FAE784F8B0
:106770003F00F7E784F84000F4E784F84100F1E7D0
:1067800084F84200EEE70000002C01400034014094
:1067900000400140004401400048014000500140D9
:1067A00070B5044690F83C0000260D4601280BD039
:1067B000012084F83C000C2A4AD007DC82B1042A6C
:1067C00020D0082A06D131E0022070BD102A53D013
:1067D000142A63D00126002084F83C00304670BDA6
:1067E000206801F06BFE2068816941F00801816139
:1067F0002068816921F004018161206881692A692A
:10680000114311E0206801F0AFFE2068816941F476
:10681000006181612068816921F480618161206863
:1068200081692A6941EA02218161D4E7206801F087
:10683000EBFE2068C16941F00801C1612068C169AF
:1068400021F00401C1612068C1692A69114311E086
:10685000206801F029FF2068C16941F40061C1612D
:106860002068C16921F48061C1612068C1692A6919
:1068700041EA0221C161AEE7206801F065FF2068AE
:10688000016D41F0080101652068016D21F00401EE
:1068900001652068016D2A69114311E0206801F04B
:1068A0008FFF2068016D41F4006101652068016D72
:1068B00021F4806101652068016D2A6941EA0221A5
:1068C000016588E710B5040003D094F83D0010B1CD
:1068D00007E0012010BD002084F83C00204600F0B5
:1068E00023F8022084F83D00211D206801F05AFDA4
:1068F000012084F8480084F83E0084F83F0084F8C2
:10690000400084F8410084F8420084F8430084F891
:10691000440084F8450084F8460084F8470084F871
:106920003D00002010BD000008B500680B498842FA
:1069300012D10B48016E41F400610166006E002225
:1069400000F40060009001211920FDF71FFDBDE853
:1069500008401920FDF70CBD08BD0000002C0140C7
:10696000001002407047000070B50446022269B171
:10697000042912D0082917D00C291CD0102921D0A5
:1069800094F84300012824D0012070BD94F83E0003
:106990000128F9D184F83E201DE094F83F00012839
:1069A000F2D184F83F2016E094F840000128EBD1A2
:1069B00084F840200FE094F841000128E4D184F8E5
:1069C000412008E094F842000128DDD184F84220FB
:1069D00001E084F843200122206801F055FD1D49A3
:1069E00020681D4A1D4B1E4D88420BD0904209D095
:1069F000984207D01B4EB04204D01B4EB04201D08B
:106A0000A84203D1466C46F400464664206888429A
:106A100011D0B0F1804F0ED0144988420BD01449E8
:106A2000884208D01349884205D0904203D098424A
:106A300001D0A84207D181680F4A1140062906D02B
:106A4000B1F5803F03D0016841F0010101600020F1
:106A500070BD0000002C01400034014000400140A6
:106A60000050014000440140004801400004004043
:106A700000080040000C00400700010030B504464B
:106A80000D460068002201F0FFFC244B41F2111179
:106A900020688A0098420ED0214B98420BD0214B9F
:106AA000984208D0204B984205D0204B984202D003
:106AB0001F4B984209D1036A0B4206D1036A134265
:106AC00003D1436C23F4004343642068036A0B4200
:106AD00006D1016A114203D1016821F00101016070
:106AE00001205DB1042D0CD0082D0DD00C2D0ED041
:106AF000102D0FD084F84300002030BD84F83E00F4
:106B0000FAE784F83F00F7E784F84000F4E784F8F8
:106B10004100F1E784F84200EEE70000002C01405C
:106B20000034014000400140004401400048014061
:106B30000050014010B50068084988420CD008494F
:106B4000884209D108489FED070AFBF7D1F9BDE853
:106B500010400548FBF7E6B910BD0000002C0140CD
:106B6000001000406F12033A04020020704790F8B2
:106B70008410012918D0012180F884102421C0F844
:106B8000881001680A680B6823F001030B6022F08B
:106B9000005100224266036819602021C0F8881065
:106BA00080F88420104670470220704770B5044674
:106BB00090F8840001281DD0012084F8840024204E
:106BC000C4F8880020680568026822F001020260AB
:106BD0002068826822F060620A438260204601F0E9
:106BE00089FE206805602020C4F88800002084F811
:106BF000840070BD022070BD70B5044690F884001A
:106C000001281DD0012084F884002420C4F88800C5
:106C100020680568026822F001020260206882682C
:106C200022F060420A438260204601F063FE206841
:106C300005602020C4F88800002084F8840070BD1E
:106C4000022070BD10B5040003D0D4F8880010B144
:106C500007E0012010BD002084F88400204600F0E9
:106C600027F82420C4F888002068016821F0010179
:106C70000160A06A10B1204601F05EFE204601F0DE
:106C80003FFF0128E6D02068416821F4904141602F
:106C90002068816821F02A0181602068016841F044
:106CA000010101602046BDE8104001F0A9BE0000CE
:106CB00010B59CB00446142115A8F9F7D5FC542151
:106CC0006846F9F7D1FC16492068884226D1012090
:106CD0000024CDE900046846FEF71AF908B1FAF776
:106CE00075F81048016E41F480410166016E01F4AF
:106CF00080411A91C16C41F00201C164C06C15A9B8
:106D000000F002001A90C02015900220CDE9160470
:106D10000720CDE918400448FDF796F91CB010BDD6
:106D200000380140001002400004004870477047DE
:106D300090F9542090ED0B0A00EB820290ED011ABD
:106D4000D2ED1C0A30EEC00A00EE901AF8EE601A7E
:106D5000C1EE810A80EE201AD0ED000A81EE200AF1
:106D600082ED0D0A7047FEE7F0B500230A243025B6
:106D700037261F4611E000BFB4EB107F02D905EBA8
:106D8000107C01E006EB107C01F813C001EB430C12
:106D900000015B1C8CF80170DBB29342ECD3F0BDB8
:106DA00000EB8100006E00F0F840704700EB8100BE
:106DB000006E00F0F84070478068C0F3C000704774
:106DC0008068C0F3C00070478068C0F380007047DF
:106DD0008068C0F380007047C06810F4406F01D035
:106DE0000020704701207047042303EAD15310B5F7
:106DF00018444369C1F3045107248C40A3438A40DB
:106E00001343436110BD042303EAD15310B5184462
:106E10004369C1F3045107248C40A3438A401343C0
:106E2000436110BD00EB8100016E21F00041114370
:106E30000166704700EB8100016E21F000411143B3
:106E400001667047DFED0D0A0D480DE010EE101AD7
:106E5000814202DD30EE600A06E0B5EEC00AF1EED6
:106E600010FA01D230EE200A10EE101A8142EDDC49
:106E7000B5EEC00AF1EE10FAE8D37047DB0FC94057
:106E8000DB0FC9402DE9F0419AB000241794189403
:106E900020210FA81994F9F7E7FB3C216846F9F780
:106EA000E3FB2E484FF0A0414FF0010801604FF482
:106EB0004031C0E90114C46008210461C0E9054102
:106EC000047780F81D80C0F8208080F82440C462D8
:106ED000046380F838804902C16380F84040FCF7C1
:106EE0000DFD08B1F9F772FF17A91C481794FCF7BC
:106EF000B5F808B1F9F76AFF19480625CDE90F057D
:106F00000427CDE913747F26CDE911560FA9134844
:106F1000FCF754F908B1F9F759FF1248009001A99C
:106F20000920059481E8E10084200A908DF82480EE
:106F300080208DF825400B90CDF820808DF82640DC
:106F40008DF8304069460548FBF7F4FC002801D075
:106F5000F9F73CFF1AB0BDE8F0810000D8700020BE
:106F60001000C0100008302E2DE9F04397B03C21EE
:106F70006846F9F779FB20210FA8F9F775FB2B4834
:106F80002949002401604FF44031C0E90114C46074
:106F900008210461C0E90541047744774FF00109F5
:106FA000C0F8209080F82440C462046380F8384020
:106FB0004902C16380F84040FCF7A0FC08B1F9F732
:106FC00005FF1B4E01A9092006254FF07F080096FA
:106FD00081E821010427CDE9047484200A908DF80A
:106FE000249080208DF825400B90CDF820908DF8CE
:106FF00026408DF8304069460C48FBF79BFC08B1F1
:10700000F9F7E4FECDE90F65CDE91374CDE9115828
:107010000FA90648FCF7D2F8002801D0F9F7D6FEF0
:1070200017B0BDE8F083000000010050447100205B
:10703000002090362DE9F0439BB00024179418945B
:1070400020210FA81994F9F70FFB3C216846F9F7A6
:107050000BFB2F482D494FF0010901604FF44031DF
:10706000C0E90114C46008210461C0E90541047746
:107070004477C0F8209080F82440C462046380F80C
:1070800038404902C16380F84040FCF737FC08B142
:10709000F9F79CFE17A91E481794FBF7DFFF08B10C
:1070A000F9F794FE06260320CDE91060194D4FF044
:1070B0007F080427CDF848800F95CDE913740FA9F8
:1070C0001348FCF77BF808B1F9F780FE01A9092005
:1070D000009581E84101CDE9047484200A908DF87F
:1070E000249080208DF825400B90CDF820908DF8CD
:1070F00026408DF8304069460548FBF71BFC002808
:1071000001D0F9F763FE1BB0BDE8F0830004005026
:10711000B0710020001060320D4808B5816C41F05C
:1071200004018164816C01F004010091816C41F0E3
:1071300001018164806C002200F0010000900321B5
:107140000B20FDF723F9BDE808400B20FDF710B92F
:107150000010024010B586B014216846F9F784FA91
:107160001648C16C41F02001C164C16C01F02001DE
:107170000591C16C41F00101C164C16C01F00101D4
:107180000591C16C41F00201C164C06C4FF09044A4
:1071900000F002000590002210212046FDF785F83E
:1071A0001020009001200190022002900020039006
:1071B00069462046FCF748FF06B010BD00100240AB
:1071C00070B598B00024149415941C216846169448
:1071D000F9F74AFA342107A8F9F746FA3A4D39483F
:1071E000C5E900042020A86041F29900C5E9030424
:1071F0006C612846AC61FFF765FB08B1F9F7E6FD65
:107200007026CDE9146414A92F481694FEF780FC6B
:1072100008B1F9F7DBFD6020CDE900040294039486
:10722000049405940022694627480694FFF7B8FAAB
:1072300008B1F9F7CBFD2868816921F00801816167
:10724000042269462048FFF7ABFA08B1F9F7BEFD02
:107250002868816921F400618161082269461A4821
:10726000FFF79EFA08B1F9F7B1FD41F29000CDE9C0
:1072700000600C2269461448FFF792FA08B1F9F74A
:10728000A5FD2868C16921F40061C16107940894D3
:1072900009944FF400500A94CDE90B400D9400037B
:1072A0000E94CDE90F401194129407A90648139447
:1072B000FEF730FB08B1F9F789FD0348FFF708F93D
:1072C00018B070BD002C01407C72002010B588B051
:1072D00000241848059406940494009401940294A0
:1072E0004FF0804103940160A921C0E90114611E9F
:1072F000C0E903148461FEF70FFF08B1F9F766FDDA
:10730000049404A90B480694FEF702FC08B1F9F7AF
:107310005DFD0120CDE900400920CDE902400422B5
:1073200069460448FEF766FE002801D0F9F74EFDD5
:1073300008B010BDC872002010B58CB0242168467A
:10734000F9F792F90024174809940A9414490B9408
:10735000C0E9001440F6FF71C0E902410461846194
:107360000320CDE900040120CDE902040A210491A3
:10737000CDE90540CDE9074169460A48FEF754FDCD
:1073800008B1F9F723FD099409A906480B94FEF703
:10739000BFFB002801D0F9F719FD0CB010BD0000AB
:1073A000000400401473002010B588B00024134876
:1073B000069403940494009401940F490294C0E944
:1073C00000140F49C0E90241046184610520059061
:1073D00003A90A48FEF7F4FA08B1F9F7F7FC5020C0
:1073E0000090694602940548FEF792FB002801D000
:1073F000F9F7ECFC08B010BD000C004060730020F1
:107400007F2C80003EB500240F48009401940D4964
:1074100002940160A921C0E9011440F2F3118461D2
:10742000C160FEF76CFC08B1F9F7D0FC2020009099
:10743000694602940448FEF76BFB002801D0F9F777
:10744000C5FC3EBD00100040AC730020184810B5CC
:10745000164901604FF4E1314160002181600C2246
:10746000C160C0E904128161C1610162416281624F
:10747000FFF7E8FB08B1F9F7A9FC00210C48FFF77A
:10748000BBFB08B1F9F7A2FC00210948FFF78EFB0E
:1074900008B1F9F79BFC0648FFF769FB002803D009
:1074A000BDE81040F9F792BC10BD00000038014063
:1074B000F873002010B501F0B9FE00220849094810
:1074C00001F0DAFF0849074802F0AAF90749054820
:1074D00001F0FAFDBDE81040024802F01BBA0000BE
:1074E0005C0100208479002000010020440100207C
:1074F0000C4810B50A49016008210171022141714F
:10750000C1710021017241728172C172FDF74CFBA1
:10751000002803D0BDE81040F9F758BC10BD0000AA
:10752000005C00408C740020FEE7000070B505464A
:107530002DED048B002114489FED148AD0EC028AB3
:1075400041F6D0002C1805F1200085ED128A064680
:1075500084F83910F9F73CFC307828B904F1480078
:10756000FBF72CF994ED128AF0EE490AB0EE680AA6
:10757000B0EE481ABDEC048B43F69C502844BDE89D
:107580007040FAF755BD000034AB00080000000061
:1075900070B504462DED0A8B00F578500C30D0EC18
:1075A000039AB0EE690AB0EE6A1AF0EE4A0AF9F7E9
:1075B00023FEB0EE408AF0EE608A04F12000F9F775
:1075C00007FCB0EE40BAF0EE680AB0EE4B1AB0EE2F
:1075D000480AFBF741F904F57050F0EE60BAD0EDBF
:1075E0005A0A04F56051B0EE409AC1EDEE0AD0EDB2
:1075F0005B0AC0ED070A43F6B030204400F016FCE9
:10760000B0EE40CA43F61440B0EE6B0A204400F0DE
:107610000DFCF0EE400A43F69C50B0EE4B1AB0EE73
:107620004C0A2044FAF704FD04F576501C2204F1BC
:107630002C010546F8F7E6FF04F57554E4EC039ACF
:10764000D5E90E01C4E90901C4ED06BA0C3484EC95
:10765000038ABDEC0A8B70BD70B504462DED0A8B14
:1076600000F578500C30D0EC039AB0EE690AB0EE19
:107670006A1AF0EE4A0AF9F7BFFDB0EE408AF0EE62
:10768000608A04F63800F9F7EDFFB0EE40BAF0EE8C
:10769000680AB0EE4B1AB0EE480AFBF7DDF804F5C5
:1076A0007050F0EE60BAD0ED5A0A04F56051B0EEB9
:1076B000409AC1EDEE0AD0ED5B0AC0ED070A43F631
:1076C000B030204400F0B2FBB0EE40CA43F61440A4
:1076D000B0EE6B0A204400F0A9FBF0EE400A43F63E
:1076E0009C50B0EE4B1AB0EE4C0A2044FAF7A0FCC6
:1076F00004F576501C2204F504610546F8F782FF74
:1077000004F57554E4EC039AD5E90E01C4E90901C6
:10771000C4ED06BA0C3484EC038ABDEC0A8B70BD50
:1077200070B5044641F6181025182DED048B05F5AB
:107730000060B7EE000A80ED0A0A2846FBF73EF823
:1077400004F578500C3095ED008A07C804F575559E
:1077500001EE102A85E8070000EE901A00EE100AEC
:10776000403DF9F749FD85ED160AC5ED170AB0EE63
:10777000481AFBF771F842F218102044F0EE408AE4
:10778000B0EE609AD0ED0B0A90ED0A0A43F69C50D9
:10779000B0EE481A2044FAF74BFCC5ED188A85ED87
:1077A000199ABDEC048B70BD2DE9F04F04462DED08
:1077B0000A8B41F6D00081B02518DFED63BA04F5DD
:1077C0007650009090ED108AD0ED118A8030D0ED87
:1077D00003AA90ED04BA90ED05AAB0EE6A0AF0EEA5
:1077E0004B0AB0EE4A1AF9F707FDF0EE409AB0EEF8
:1077F000609A04F12000F9F7EBFA94ED032AF0EE19
:10780000681AB0EE481AF0EE490AB0EE690A284646
:10781000FAF744FD04F56056F0EE408A96EDE5CAAD
:10782000B0EE609AB0EE4C1AFBF716F804F5705003
:10783000B0EE608AD0ED5A0AF0EE409AC6EDEE0A3C
:10784000D0ED5B0AC0ED070A43F6B0302044804615
:1078500000F0ECFA43F6144010EE10AA2044B0EE0B
:10786000480A074600F0E2FAD5ED090A95F8390012
:1078700043F6DC4130EE200A04EB010B052810EE44
:10788000109A35D2DFE800F0031F5D5D110040461D
:1078900000F098FA384600F095FA584600F092FA4F
:1078A000D5F870A8D5F8749822E0404600F08AFA1E
:1078B000384600F087FA584600F084FA1BEE90AA8A
:1078C000D5F8249014E0384600F07CFA96EDF20AE0
:1078D000D4ED050AD5F82490B4EE600AF1EE10FA62
:1078E00006D0404600F06EFA94ED050A86EDF20AE5
:1078F00043F69C50B0EE4C1A00EE909A00EE10AA9F
:107900002044FAF795FB43F6943021181C22009886
:10791000F8F778FE04F57454C4ED10AA84ED11BA9A
:1079200084ED12AA0098D0E90E10C4E91C1084ED71
:10793000198A5834C4EC038A01B0BDEC0A8BBDE847
:10794000F08F94ED040AD1E7000000000022C0F897
:10795000DC27C0F8D02711464FF4FA73C0F8D827B7
:1079600040F82120491C9942FAD300F580609FED30
:10797000020A80EDF80A7047000000004FF4FA7226
:10798000914200D9114600221346C0F8D41703E0F3
:1079900040F82230521C92B28A42F9D3704700005C
:1079A000D0F8D01700EE101AD0F8DC17F8EEC00AA5
:1079B00031B1D0F8D427914205D200EE101A04E07C
:1079C0009FED060A704700EE102A00F58060B8EEC1
:1079D000401A80EE810A80EDF80A7047000000002E
:1079E00010B5D0F8D817D0F8D03750F821401B1B6D
:1079F000C0F8D03740F82120D0F8D037D0F8D817C9
:107A00001A44491CC0F8D027C0F8D817D0F8D4279A
:107A1000914202D30021C0F8D817D0F8DC17914268
:107A200002D2491CC0F8DC1710BDFEE72DE9F84F63
:107A3000044640F68F7A40F2064B48F60F784FF036
:107A40000009B5E1B0F8441011F00F053AD030F854
:107A5000256031047DD530F8251001EA0A0141F096
:107A6000800120F8251005EB850004EBC00797F88E
:107A70005C0107F5A87700286CD0F87802286AD056
:107A80003978226832F8210048F68F73184048F29E
:107A9000C003184322F821003878D4F800C03CF81D
:107AA00020104904BCF8501001EB0C027ED540F2C6
:107AB000024101EBC000105A8005800D009076D085
:107AC0003A89D0E0C9062AD4018801EA080141F4C4
:107AD00000410180206804F11005B0F85010227CAC
:107AE000014440F2024000EBC200085AC0F3090012
:107AF000E062616A0844606200212046FCF7A9FC4C
:107B0000207B00289DD0A86900289AD1207B40F0D6
:107B100080012068A0F84C1084F80C9048E101889E
:107B200004F5A8750A051ED5B0F850102A7801444E
:107B30000BEBC200085A04F52671C0F30903EB6190
:107B4000EA88206802F001FD2168088800EA0A003E
:107B500002E0A4E068E077E040F080000880204682
:107B6000FDF705F924E10904D8D5018801EA0A01E5
:107B700041F0800101802068B0F850100A18287880
:107B80000BEBC000105A83059B0DEB610DD06969AA
:107B900059B1EA88206802F0D8FCE96968690844AC
:107BA000686100212046FCF75DFC01E053E051E0F4
:107BB000206801880A05B1D4C1F301310329ADD091
:107BC000B0F850100844B0F80614C1F30901A0F849
:107BD0000614296900F206403E2909D94A09C90656
:107BE00000D1521E01884FF4004343EA822209E08B
:107BF000B1B14A08C90700D0521C01884FF6FF7383
:107C000003EA822211430180216808884BF68F72B3
:107C1000104080F4405048F2800210430880C7E0D2
:107C2000018841F40041EEE72068B0F850103B783D
:107C30000A180BEBC301515A8905890D009117D021
:107C4000FA887969009B11E0324639462046FCF7F4
:107C500065FC00900CE00BEBC000105A8005800D15
:107C6000009005D07A8903466046796902F06DFC80
:107C7000F96900980844F8617969009808447861C6
:107C8000B86918B139690098814204D93978204619
:107C9000FCF7E8FB03E03946206802F0D2F9300631
:107CA0002DD505EB850004EBC001206830F82520B8
:107CB00002EA080242F4004220F82520C87C103174
:107CC00001281DD0F0056FD42268B2F85000831847
:107CD0000A7840F2024000EBC200185A8A69C0F3E9
:107CE0000900824258D9121A8A6157D04A6902445F
:107CF0004A61CA691044C861206802F0A2F957E0DD
:107D0000C1F818900A7B48461AB3720622D54A7801
:107D100012B1012A14D041E02068B0F8502010447C
:107D20000A7800EBC200B0F80224C2F30902A0F8FE
:107D30000224B0F8022442F40042A0F802242DE00C
:107D40002268B2F850301A440B7802EBC302A2F852
:107D5000020423E04B78226813B1012B13D01DE0FD
:107D6000B2F8500010440A7800EBC200B0F80624C4
:107D7000C2F30902A0F80624B0F8062442F4004237
:107D8000A0F806240AE0B2F850301A440B7802EB4F
:107D9000C302A2F8060401E0C1F818900978204651
:107DA000FCF757FB04E0FFE732462046FCF724FCD3
:107DB0002068B0F8441009043FF544AE0020BDE847
:107DC000F88F00009FED0D0A80ED070A80ED090A8B
:107DD00080ED0A0A80ED0B0A80ED0F0A80ED100A93
:107DE00080ED110A80ED120A80ED130A80ED140A6D
:107DF00080ED150A80ED050A7047000000000000C4
:107E0000DFED090AC0ED050AC0ED0F0AC0ED100A4A
:107E1000C0ED110AC0ED070AF7EE000A80EE801AE5
:107E200080ED161A704700000000000010B50446EF
:107E30002DED028BB0EE408A90ED0D0ADFED918AB8
:107E4000B5EEC00AF1EE10FA03D1C4ED0A8AC4ED12
:107E5000078A18EE100A02F0E5FCE0BB18EE100AE3
:107E600002F0D7FCB8BB94ED0C0A10EE100A02F039
:107E7000D9FC80BB94ED0C0A10EE100A02F0C9FC8C
:107E800048BB94ED0D0A10EE100A02F0CBFC10BBBB
:107E900094ED0D0A10EE100A02F0BBFCD8B994ED77
:107EA0000E0A10EE100A02F0BDFCA0B994ED0E0A05
:107EB00010EE100A02F0ADFC68B994ED160A10EE4F
:107EC000100A02F0AFFC30B994ED160A10EE100A59
:107ED00002F09FFC20B1B0EE680ABDEC028B10BD31
:107EE00094F8600020B1C4ED078A002084F8600097
:107EF000D4ED030A94ED020AF1EE600AB4EEE00A52
:107F0000F1EE10FA04D294ED030AB1EE400A0DE04E
:107F100094ED020AD4ED030AB4EEE00AF1EE10FA91
:107F200002DD94ED030A01E094ED020A84ED020AF9
:107F300084ED048A94ED020A30EE480A84ED0F0ABB
:107F400094ED0C0AD4ED0F0A20EE200A84ED090A04
:107F500094ED0D0AD4ED070A20EE200AD4ED160A9E
:107F600020EE200A84ED0A0A94ED090AD4ED0A0AEB
:107F700030EE200A84ED050AD4ED060A94ED050AD8
:107F8000F1EE600AB4EEE00AF1EE10FA04D294EDDC
:107F9000060AB1EE400A0DE094ED050AD4ED060A9A
:107FA000B4EEE00AF1EE10FA02DD94ED060A01E00B
:107FB00094ED050A84ED050A94ED0F0AB5EEC00AAA
:107FC000F1EE10FA06D094ED020AB5EEC00AF1EE19
:107FD00010FA06D194ED070ADFED2B0A20EE200AF5
:107FE00010E094ED050AD4ED060AB0EEC00AB4EE36
:107FF000E00AF1EE10FA07D294ED070AD4ED0F0A69
:1080000030EE200A84ED070AD4ED080A94ED070A41
:10801000F1EE600AB4EEE00AF1EE10FA04D294ED4B
:10802000080AB1EE400A0DE094ED070AD4ED080A03
:10803000B4EEE00AF1EE10FA02DD94ED080A01E078
:1080400094ED070A84ED070A94ED050AD4ED150AAC
:10805000B4EEE00AF1EE10FA03DD94ED050A84EDCA
:10806000150A94ED050AD4ED140AB4EEE00AF1EE17
:1080700010FA03D294ED050A84ED140A94ED050A72
:108080002BE7000000000000A4707D3F10B50446FF
:108090002DED048BB0EE408AF0EE608A90ED070A79
:1080A000F8F712FCB0EE409A94ED070AF8F7C0FB1F
:1080B00068EE800A48EE490AC4ED040A94ED000A0D
:1080C00020EE201A84ED021A94ED030AD4ED011A71
:1080D00001EEA00A84ED030A31EE000A9FED131AA7
:1080E00084ED050AD4ED060A60EE810A9FED101AB0
:1080F00040EE010AC4ED060A94ED070A94ED091A50
:1081000000EE810A84ED070AFEF79CFE84ED070A63
:10811000A06902F0ABFCBDEC048B024604F1280020
:10812000BDE810400B46FFF75BBC00006666663F8B
:10813000CDCCCC3D10B504462DED048BF0EE408A3D
:10814000B0EE608A90ED070AF8F7BEFBB0EE409AF9
:1081500094ED070AF8F76CFB28EEC01A08EE491AEE
:1081600084ED041A94ED000A60EE010AC4ED020ADF
:1081700094ED010A60EE011A94ED091A94ED030AD8
:1081800001EE810ADFED141A84ED030A30EE800A55
:1081900084ED050AD4ED060A60EEA10ADFED0F1AA0
:1081A00040EE210AC4ED060A94ED070A00EE810AAA
:1081B00084ED070AFEF746FE84ED070AA06902F087
:1081C00055FCBDEC048B024604F12800BDE81040CC
:1081D0000B46FFF705BC00006666663FCDCCCC3D84
:1081E0009FED070A80ED040A80ED020A80ED030A84
:1081F00080ED050A80ED060A2830FFF7A7BB0000D6
:108200000000000080ED090A4FF496712830FFF756
:10821000B5BB704770470178407841EA002070474D
:10822000B4EEE00AF1EE10FA02DDB7EE000A704794
:10823000B1EE601AB4EEC10AF1EE10FA02D2BFEE4E
:10824000000A704780EE201AB0EE410A7047000025
:108250009FED1C1AF5EEC00A012220EE010AB6EECF
:10826000001A20EE811A80ED000A80ED011A70EEEE
:10827000411AB1EE400A002030EE410AF1EE10FA48
:1082800000DD0120F5EEC01AF1EE10FA00DD801CD1
:10829000B5EEC00AF1EE10FA00DD001D072806D287
:1082A000DFE800F005060E040A080C000A707047AB
:1082B0000222FBE70322F9E70422F7E70522F5E7AC
:1082C0000622F3E7D7B35D3F10B5094C2068401C88
:1082D0002060B0F5FA7F06D310214FF09040FBF7F5
:1082E000DCFF00202060BDE81040FBF7E9BF000084
:1082F0000400002010B594B038216846F8F7B4F9AE
:1083000014210EA8F8F7B0F90020FCF775FD212024
:1083100000904FF480300190032405210120CDE925
:108320000841069002204421CDE90A100790082157
:10833000CDE90C106846FDF7B5F808B172B6FEE756
:108340000F20CDE90E04002010901190129004210E
:108350000EA8FCF75DFF002801D072B6FEE714B04E
:1083600010BD00000248016841F4700101607047CF
:1083700088ED00E00148FDF7D9BF00007C720020C5
:108380000148FDF7D3BF0000C87200200148FDF787
:10839000CDBF0000607300200148FDF7C7BF00009B
:1083A000AC7300202DE9F04F02682E4B2E4E2F4F5C
:1083B000DFF8BCC02F4C304D4FF0804B98420BD0B3
:1083C000584509D0B04207D0B84205D0604503D027
:1083D000A04201D0A84204D122F070084A6842EAC3
:1083E0000802DFF89880DFF89890DFF898A09842AC
:1083F00011D058450FD0B0420DD0B8420BD06045D7
:1084000009D0A04207D0404505D0484503D050458B
:1084100001D0A84203D122F44076CA6832434E69A3
:1084200022F08002324302608A68C2620A68826275
:10843000984209D0A04207D0404505D0484503D016
:10844000504501D0A84201D1096901630121416170
:108450000169C90703D0016921F001010161BDE88B
:10846000F08F0000002C0140000400400008004094
:10847000000C004000340140005001400040014029
:10848000004401400048014010B501F01F030121E4
:10849000046A99408C430462016A9A401143016264
:1084A00010BD10B501F00F030421046A99408C43FC
:1084B0000462016A9A401143016210BD2DE9F04740
:1084C000056A026A22F001020262436882691F4C57
:1084D00025F0020522400C6822F0030214438A684A
:1084E0001C4E2A431A4D1C4FDFF870C0DFF8709005
:1084F000DFF870A0A84209D0B04207D0B84205D03A
:10850000604503D0484501D0504506D122F0080807
:10851000CA6842EA080222F00402A84209D0B04226
:1085200007D0B84205D0604503D0484501D050453A
:1085300005D14D6923F440731D438B692B43436080
:108540008461496841630262BDE8F0878FFFFEFFE6
:10855000002C014000340140004001400044014033
:108560000048014000500140F0B5056A026A22F05F
:1085700010020262426883691C4C1E4E23400C6844
:1085800023F4407343EA042425F020038D681A4F36
:1085900043EA0513164DA84203D0B04201D0B842B9
:1085A00007D1D1F80CC023F0800343EA0C1323F069
:1085B0004003A8420CD0B0420AD0104DA84207D0C8
:1085C0000F4DA84204D00F4DA84201D0B84207D1A8
:1085D0004D6922F4406242EA85028D6942EA8502D1
:1085E00042608461496881630362F0BDFF8FFFFED2
:1085F000002C014000340140005001400040014087
:108600000044014000480140F0B5056A026A22F4C6
:10861000807202624368C2691C4C1E4E22400C6884
:1086200022F00302144325F400728D681A4F42EAC7
:108630000522174DA84203D0B04201D0B84207D15D
:10864000D1F80CC022F4006242EA0C2222F48062CB
:10865000A8420CD0B0420AD0104DA84207D0104D0D
:10866000A84204D00F4DA84201D0B84207D14D69AD
:1086700023F4405343EA05138D6943EA051343602D
:10868000C4614968C1630262F0BD00008FFFFEFF54
:10869000002C0140003401400050014000400140E6
:1086A0000044014000480140F0B5056A026A22F426
:1086B000805202624268C3691C4C1E4E23400C6803
:1086C00023F4407343EA042425F400538D681A4FC1
:1086D00043EA0533164DA84203D0B04201D0B84258
:1086E00007D1D1F80CC023F4004343EA0C3323F440
:1086F0008043A8420CD0B0420AD0104DA84207D007
:108700000F4DA84204D00F4DA84201D0B84207D166
:108710004D6922F4404242EA85128D6942EA85128F
:108720004260C461496801640362F0BDFF8FFFFECF
:10873000002C014000340140005001400040014045
:10874000004401400048014030B5056A026A22F445
:10875000803202624268036D124C23400C681C4355
:1087600025F400330D8943EA05430F4DA8420ED08E
:108770000E4DA8420BD00E4DA84208D00D4DA84278
:1087800005D00D4DA84202D00C4DA84204D14D6930
:1087900022F4803242EA052242600465496881641D
:1087A000036230BD8FFFFEFF002C0140003401400A
:1087B0000040014000440140004801400050014099
:1087C00030B5046A026A22F4801202624268036DC4
:1087D000134D24F400142B400D6843EA05230D8942
:1087E00044EA05540F4DA8420ED00F4DA8420BD0BD
:1087F0000E4DA84208D00E4DA84205D00D4DA842FE
:1088000002D00D4DA84204D14D6922F4802242EAE3
:108810008522426003654968C164046230BD00007E
:10882000FF8FFFFE002C014000340140004001405A
:1088300000440140004801400050014070B5056A05
:10884000046A24F0010404628469154EB04214D015
:10885000B0F1804F11D0134EB0420ED0124EB04244
:108860000BD0124EB04208D0114EB04205D0114E7E
:10887000B04202D0104EB04203D124F0030414439E
:1088800001E044F001041A0724F0F00444EA126203
:1088900025F00A0301F00A0119438261016270BDEB
:1088A000002C01400004004000080040000C004083
:1088B00000340140004001400050014030B5046ADE
:1088C000056A25F010050562856925F4407545EABD
:1088D000022222F470454FF6FF7202EA033224F0BE
:1088E000A0032A43A02404EA011119438261016212
:1088F00030BD000030B5416EB9B102689168926830
:10890000C1F342610B4B520F9C5CE50003F108047C
:10891000A25CB5FBF2F2A0F86A205A5C615CD2005E
:10892000B2FBF1F1A0F8681030BD0121A0F86A1087
:10893000F8E700000AAB000890F82810090706D5F0
:1089400001684A68836B22F400421A434A6090F837
:108950002810C90706D001684A68C36A22F40032A9
:108960001A434A6090F82810890706D501684A68BA
:10897000036B22F480321A434A6090F828104907AA
:1089800006D501684A68436B22F480221A434A6084
:1089900090F82810C90606D501688A68C36B22F4CE
:1089A00080521A438A6090F82810890606D501681B
:1089B0008A68036C22F400521A438A6090F82810E7
:1089C000490611D501684A68436C22F480121A43A3
:1089D0004A60416CB1F5801F06D101684A68836C1A
:1089E00022F4C0021A434A6090F82810090606D5FE
:1089F00001684A68C06C22F4002202434A60704752
:108A00002DE9F84300260446C0F89060FBF752FCBD
:108A10008046206800684FF0200500076FF07E4711
:108A200013D54346002229042046009700F0B4F9EC
:108A300058B1216851E8000F20F0800041E80002A1
:108A4000002AF6D1C4F8885021E020680068400769
:108A500022D5434600224FF480012046009700F0C3
:108A60009BF9C8B1216851E8000F20F4907041E8EB
:108A70000002002AF6D12068083050E8001F21F0DB
:108A8000010140E80012002AF5D1C4F88C5084F8A6
:108A900084600320BDE8F883C4F88850C4F88C5083
:108AA00044F86C6F666026760020F3E710B5026824
:108AB00052E8001F21F4907142E80013002BF6D118
:108AC0000E4B0268083252E8001F194042E80014B9
:108AD000002CF6D1C16E012908D1016851E8002FA0
:108AE00022F0100241E80023002BF6D12021C0F82B
:108AF0008C100021C166416710BD0000FEFFFFEF32
:108B00002DE9F0410446016880682269E369104359
:108B1000626900251A431043DFF84CC20A68934B80
:108B20001A4002430A6020684168E26821F440511B
:108B3000114341602168A069614501D0226A104358
:108B40008A688B4B1A4002438A602068C16A626A55
:108B500021F00F011143C1628649236886488B4288
:108B60000DD1D0F8880010F0030006D0012867D09E
:108B7000022854D0032851D164E001204FE07F49FE
:108B80008B420BD1D0F8880010F00C0047D004289D
:108B900045D0082852D00C2840D153E078498B4268
:108BA0000BD1D0F8880010F0300038D0102847D012
:108BB000202843D0302831D144E072498B420BD178
:108BC000D0F8880010F0C00029D0402838D0802884
:108BD00034D0C02822D135E06B498B420ED1D0F879
:108BE000880010F440701AD0B0F5807F28D0B0F51E
:108BF000007F23D0B0F5407F10D123E063450DD135
:108C0000D0F8880010F4406009D0B0F5806F17D01C
:108C1000B0F5006F12D0B0F5406F13D010205B4A52
:108C20005B4F00264FF40041634539D160B1022803
:108C30000DD004280DD0082831D10EE00220EEE737
:108C40000420ECE70820EAE7FCF7D0FB03E011463C
:108C500003E0FCF7EFFB01007BD0606A37F81020DF
:108C60006768B1FBF2F007EB4703834269D8B0EBCA
:108C7000073F66D8002308461946F7F740FB09026C
:108C800041EA106102027808101871413A46002347
:108C9000F7F735FB3F4AA0F54071914257D950E0B4
:108CA000E3694FF6EF788B422BD1092849D2DFE8F0
:108CB00000F005080D48254848480E00FCF796FBD3
:108CC00001E0FCF7A5FB010001D142E01146606A1A
:108CD00037F81000B1FBF0F04100606801EB500183
:108CE000B1FBF0F1A1F1100040452AD84FF6F07227
:108CF00001EA0200C1F34201084328E0FCF79AFBB5
:108D0000E1E709281DD2DFE800F005080D1C1E1C54
:108D10001C1C0E00FCF76AFB01E0FCF779FB01006C
:108D200001D116E01146606A37F81000B1FBF0F18E
:108D3000606801EB5001B1FBF0F0A0F1100141457A
:108D400004D9012505E0FCF775FBE8E780B221684E
:108D5000C8600120A4F86A0024F8680F2846E6607D
:108D60002661BDE8F081000000800040F369FFCF7C
:108D7000FFF4FF11003801400010024000440040A1
:108D800000480040004C0040005000400024F40027
:108D9000F2AA0008FFFC0F002DE9F047994617469C
:108DA0000D4604464FF00008089E33E0701C31D099
:108DB000FBF780FAA0EB0900B04218D8BEB12068DA
:108DC0000168490726D5802D24D0402D22D0C169C5
:108DD000C94309070DD4082505622046FFF766FE42
:108DE000C4F8905084F884800120BDE8F087032007
:108DF000FBE7C069C04300050CD421684FF4006054
:108E000008622046FFF752FE2020C4F8900084F844
:108E10008480ECE72068C06935EA000004D00020B7
:108E2000B842C3D00020E0E70120F9E710B50A46B8
:108E3000024903A000F0F0FA004810BDAC7E00200B
:108E400043444320436F6E66696700002DE9F0419B
:108E50000C46D0F8C422D0F8BC12E9B104EB840669
:108E600000EB86050027AB693BB102EBC602126A34
:108E7000B3FBF2F602FB163282B1C1F81472D0F8DD
:108E8000C00203692BB1D1F80802224601F5047132
:108E900098470020BDE8F0810320FBE700231A4635
:108EA0002146AF6100F09DFCF3E770B5D0F8BC42FD
:108EB00005466CB100F08FFBC4F80C02D5F8C01267
:108EC000D4F80402CA6804F503719047002070BD0D
:108ED000032070BD70B50446812100F0E9FA002539
:108EE00025870121204600F0E3FAA4F87851822179
:108EF000204600F0DDFAA4F84C50A4F84E50D4F807
:108F0000BC0228B1D4F8C00240688047C4F8BC5203
:108F1000002070BD12200880004870477C010020AE
:108F200010B5D0F8BC4284B1D0F8C01259B194F851
:108F30000002FF2807D08B6894F801222146984749
:108F4000FF2084F80002002010BD032010BD0000A7
:108F50000A21018000487047280000204321018039
:108F60000048704778000020432101800048704786
:108F7000340000204321018000487047BC000020DD
:108F80002DE9F041214E0446C0F8BC62007C102758
:108F90004FF40078012568B3402302228121204646
:108FA00000F067FB2587402302220121204600F0C4
:108FB00060FBA4F87851A4F84E70082303228221A4
:108FC000204600F056FBA4F84C50D4F8C0020068CC
:108FD00080470020C6F81402C6F81802207CD6F894
:108FE000042280B140230121204600F04EFB0020E6
:108FF000BDE8F081434602228121204600F039FB82
:1090000025874346D0E74346EDE700006877002018
:1090100010B50A46024903A000F0FEF9004810BD51
:10902000AC7E002043444320496E746572666163E0
:109030006500000004200880004870477801002087
:1090400010B50A46024903A000F0E6F9004810BD39
:10905000AC7E002053544D6963726F656C65637418
:10906000726F6E696373000010B50A46024903A06F
:1090700000F0D2F9004810BDAC7E002053544D33AF
:1090800032205669727475616C20436F6D506F7237
:109090007420696E204653204D6F64650000000007
:1090A00010B5D0F8BC1251B1027C002AD1F80422CC
:1090B00007D04023012100F0E8FA002010BD032072
:1090C00010BD4FF40073F5E719B1C0F8C0120020CD
:1090D000704703207047000010B51A2008800A4826
:1090E0000168001D0468001D0068081809D00822E6
:1090F0000649FDF739FE0549042210312046FDF7E7
:1091000033FE0248801E10BD9075FF1F92010020A3
:10911000D0F8BC0218B1C0F8041200207047032038
:109120007047D0F8BC0228B1C0F81022C0F808126D
:1091300000207047032070472DE9FC410646D0F817
:10914000BC7200200C468DF80000ADF80400054606
:1091500037B1207810F0600128D0202944D102E0F6
:109160000320BDE8FC81E288C2B1000660780AD520
:10917000D6F8C0128B6839469847E288072A00D98A
:109180000722394628E087F80002A07987F8010213
:10919000E2883946304600F09AF82AE0D6F8C01244
:1091A000607800228B682146984722E0607830B1D1
:1091B00001281ED00A2809D00B2815D110E096F8F6
:1091C0009C02032810D1022201A905E096F89C0216
:1091D000032809D101226946304600F092F808E0E0
:1091E00096F89C02032804D02146304600F064F82B
:1091F00003252846B5E710B5D0F8BC12012219B1F5
:10920000D1F8143213B10FE0032010BD0122C1F8D0
:109210001422D1F81022C262D1F81032D1F80822FB
:10922000812100F0DEFA0022104610BD10B596B084
:1092300038216846F7F718FA18210EA8F7F714FA3C
:109240002020009001200024CDE906046846FCF7A8
:1092500029F90C48816D41F480718165806D00F4BD
:10926000807014904FF00050CDE90E404BF67F30E7
:10927000119022201290402013900EA8FBF722FE9E
:1092800016B010BD0010024010B5D0F8B8220AB1D7
:1092900052689047002010BD134610B50A460021C1
:1092A00000F0F3F9002010BD134610B50A46002166
:1092B00000F097FA002010BD10B50446802100F0A0
:1092C00075FA2046BDE81040002100F06FBA10B5D5
:1092D0000323C0F89432C0F858211346C0F85C212B
:1092E0000A46002100F0D1F9002010BD10B505217B
:1092F000C0F8941200231A46194600F0C6F900205F
:1093000010BD10B50223C0F8943282611346C261C9
:109310000A46002100F065FA002010BD10B50421B6
:10932000C0F8941200231A46194600F05AFA002099
:1093300010BDF8B504460020ADF8000048880D4681
:10934000010A08295FD2DFE801F05E0409175E5EBA
:109350003C45D4F8B412207C0A6819E0207C02262F
:109360000028D4F8B80205D0C16A6846884701468B
:10937000467039E0816AF8E7C0B2062843D2DFE8D8
:1093800000F0030A1014181CD4F8B402426805E077
:10939000694690471CE0D4F8B402826892B3207CFE
:1093A000F6E7D4F8B402C268F8E7D4F8B402026968
:1093B000F4E7D4F8B4024269F0E7D4F8B402826961
:1093C000ECE7207CF0B9D4F8B802416B68468847D6
:1093D000014609E0207CA8B9D4F8B802016B6846C0
:1093E0008847014607204870EA888AB1BDF8000026
:1093F00040B1824200D90246ADF800202046FFF776
:1094000080FFF8BDFFE729462046FFF755FFF8E744
:109410002046FFF783FFF4E770B5002300281ED035
:109420000025044602E06D1CEDB2641C2678002E77
:10943000F9D1022404EB450414801278CA545B1C51
:109440000322CA5400245B1C06E0CA545B1CDAB237
:109450008C54521CD3B2401C0278002AF5D170BD46
:1094600001004FF0000004D0012901D0022901D0F1
:10947000032070470120704778B10023C0F8B8324C
:10948000C0F8C032C0F8CC3209B1C0F8B412012122
:1094900080F89C12027000F0A3B80320704710B54A
:1094A000D0F8C402FBF70DF8BDE81040FFF7D8BFB5
:1094B00010B5D0F8C402FAF7DFFFBDE81040FFF79F
:1094C000CFBF70B51646044621B194F89C0203281C
:1094D00041D048E0D4F8941204F114000025022988
:1094E00032D1D0E902318B4206D95A1A8260314614
:1094F0002046FFF7D9FE0FE0994214D14068884218
:1095000011D3D4F8981288420DD200221146204679
:10951000FFF7CAFEC4F8985200231A46194620469F
:1095200000F0B3F810E094F89C02032805D1D4F8B9
:10953000B802C16809B1204688478021204600F062
:1095400035F92046FFF7D2FE94F8A00201280AD18F
:1095500084F8A05207E0D4F8B80242691AB1204654
:109560009047002800D1002070BD10B51346044676
:1095700021B194F89C02032823D02AE0D4F8941255
:1095800004F5AA70032924D1D0E9021291420AD924
:109590008A1A8260C068824200D302461946204679
:1095A000FFF77AFE15E094F89C02032805D1D4F861
:1095B000B802016909B1204688472046FFF7AEFE90
:1095C00007E0D4F8B80282691AB120469047002813
:1095D00000D1002010BDD0F8C402FBF7ADB90000E7
:1095E0001A4910B5C1F8D802C0F8C412184808606A
:1095F0000820087102204871C87100200872487262
:109600008872C8720846FBF7CFFA0022142311466D
:109610000E48FAF700FF5423002280210B48FAF786
:10962000FAFE9423002281210848FAF7F4FED4239D
:10963000002201210548FAF7EEFE4FF48A7300225A
:1096400082210248FAF7E7FE002010BD8C7400204A
:10965000005C00400A0601F07F01D0F8C40201EB73
:10966000810100EBC10001D5807C704790F8520168
:10967000704710B51C461346D0F8C4022246FBF7CB
:1096800064F9BDE81040FFF7EBBE10B5D0F8C40296
:10969000FBF787F9BDE81040FFF7E2BE70B5012582
:1096A000044680F89C520020C4F894026060C4F81C
:1096B000A402D4F8B802E0B1D4F8BC1221B14268D7
:1096C00012B1002120469047002240231146204637
:1096D000FFF7CFFF4026A4F86451334600228021D3
:1096E0002046C4F86061FFF7C4FFA584002026620D
:1096F00070BD032070BD90F89C12042903D190F82E
:109700009D1280F89C120020704710B5D0F8B81256
:1097100021B190F89C22032A02D004E0032010BD5E
:10972000C96901B18847002010BD0174002070474D
:10973000054B10B501221A70D0F8C402FBF704FBE8
:10974000BDE81040FFF78CBE5801002070B50446FC
:1097500000F2AA20054600F04DF80120C4F894025A
:10976000B4F8B002C4F8980294F8AA0210F01F01ED
:109770000AD001290ED0022912D000F08001204623
:10978000BDE8704000F012B829462046BDE87040A0
:1097900000F0C2B829462046BDE8704000F0E6B9A6
:1097A00029462046BDE8704000F040B910B5D0F819
:1097B000C402FBF70DF9BDE81040FFF751BE10B52C
:1097C000D0F8C402FBF7DAFABDE81040FFF748BE54
:1097D00090F89C1280F89D12042180F89C120020C1
:1097E000704710B5D0F8C402FBF721F9BDE810406E
:1097F000FFF736BE70B5054611F8010B28700878E2
:1098000068704C1C2046FEF706FD6880A41C2046AC
:10981000FEF701FDA880A01CFEF7FDFCE88070BDEE
:1098200038B504460020ADF8000049B1C4F8B812BC
:10983000C96A19B168468847C4F8CC02002038BD0F
:10984000032038BD02460320D2F8B832002B02D0E4
:109850001B681046184770472DE9F0410F462C4E03
:109860008978002504463170012906D939462046F9
:10987000FFF722FD0320BDE8F08194F89C02022846
:109880000CD003281DD039462046FFF715FD31784E
:109890002046FFF7F9FC03252846ECE799B320465C
:1098A0006160FFF7CFFF050004D039462046FFF77F
:1098B00003FDF1E72046FFF731FD032084F89C0209
:1098C000EAE74FF00208C1B1606888421BD0C1B21C
:1098D0002046FFF7D9FC317820466160FFF7B2FFE0
:1098E000050010D039462046FFF7E6FC21792046D6
:1098F000FFF7CAFC84F89C82CEE784F89C8220465D
:109900006160FFF7C1FC2046FFF708FDC4E70000D7
:1099100024000020FFF753BF2DE9F0410A7800250D
:1099200012F0600208D0202A01D0402A71D1D0F86C
:10993000B8229268904731E04B78002201260A2B2A
:1099400067D2DFE803F0415E6658660805662D2998
:10995000FFF7EFFC5FE004468888D8B9C888C8B92B
:109960004888802816D200F07F0794F89C020328CC
:1099700010D084F89E7239462046FFF7D9FE204663
:10998000FFF7CCFC1FB1022084F89C0243E084F86E
:109990009C6240E020463CE0FFF75EFF05463AE06F
:1099A000CB88012B35D190F89C32012B04D0022BAF
:1099B00002D0032B2DD104E08260012200F10801C6
:1099C00016E00122011D13E090F89C22012A03D029
:1099D000022A01D0032A1CD1CA88022A19D1C660E2
:1099E000D0F8A41209B10321C160022200F10C01D8
:1099F000FFF787FC0FE0498801290CD1C0F8A46269
:109A000011E090F89C32012B08D0022B06D0032BDA
:109A100004D0FFF751FC2846BDE8F08149880129B0
:109A2000F9D1C0F8A422FFF779FCF4E72DE9F04161
:109A30000D46044628780026097910F060000BD006
:109A4000202801D040286DD1D4F8B8022946826878
:109A500020469047064686E06878A8B3012822D0C1
:109A600003287CD194F89C02022802D0032876D1E6
:109A70000BE0002973D0802971D02046FFF796FEB5
:109A800080212046FFF792FE6DE0688838B931B139
:109A9000802904D0E88810B92046FFF787FE2046C9
:109AA000FFF73CFC5FE094F89C020228E1D0032819
:109AB00055D16888A8BB480602D02046FFF7EFFCC6
:109AC0002046FFF72BFCBFE7FFE794F89C02002736
:109AD000022802D0032842D111E009B180293ED1E9
:109AE000080601F07F0000EB800004EB800101D547
:109AF000143101E001F5AA7102220F602BE0080683
:109B000001F00F0000EB800004EB80000BD5808C8F
:109B100040B101F07F0000EB800004EB80051435BC
:109B20000CE020E01BE0B0F86401C0B101F07F0060
:109B300000EB800004EB800505F5AA7541B1802992
:109B400006D02046FFF786FD10B10120286000E016
:109B50002F60022229462046FFF7D3FB03E0294667
:109B60002046FFF7A9FB3046BDE8F08170B50646F8
:109B7000087800240D4610F0600003D0202801D0A2
:109B8000402817D196F89C02012803D0022801D062
:109B900003280FD1287901280CD8D6F8B80282689A
:109BA000304690470446E888204306D13046FFF708
:109BB000B5FB02E03046FFF77FFB204670BD2DE984
:109BC000F0470C78002630F8243048F68F12134006
:109BD000CA78002A78D0012A7CD0022A02D0032A2F
:109BE00075D0012648F28002134320F824300D7806
:109BF00030F8253048F68F7423402B43134320F868
:109C000025300D7B48F2C00948F6BF734CF2800A3C
:109C10004BF68F77EDB3CD7891F800C0022D30F878
:109C20002C507DD048F68F6805EA0805154320F8CA
:109C30002C50B0F8505091F800C0054405EBCC050D
:109C4000B1F808C02CF0010CA5F800C4B0F85050D1
:109C500091F800C0054405EBCC05B1F80AC02CF022
:109C6000010CA5F804C44D78002D7ED00D7830F895
:109C700025C05FEA4C4C07D530F825C00CEA040C2F
:109C80004CEA0A0C20F825C091F800C030F82C509E
:109C900000E022E06D0606D530F82C50254045EA5C
:109CA000090520F82C50CC780D78012C30F825408F
:109CB00004EA03047CD084F02003134320F8253009
:109CC000C1E001E006E002E043F400738AE743F4F8
:109CD000C06387E743F4806384E74D784DB3B0F801
:109CE00050500F78054405EBC705CF8827F00107D2
:109CF000A5F800740F7830F827506D0606D530F8B7
:109D00002750254045EA090520F82750CC78012C3A
:109D100007D00C7830F82410194081F0200104E0BD
:109D200064E00C7830F824101940114320F8241016
:109D300090E0B0F850300D78034403EBC503CD88B4
:109D400025F00105A3F80454B0F850300D78034411
:109D500003EBC503B3F80654C5F30905A3F806548D
:109D60000D6903F206433E2D00E045E00BD94FEAB2
:109D7000551CED0601D1ACF1010C1D884FF40048D3
:109D800048EA8C2C0BE035B34FEA550CED0701D0B7
:109D90000CF1010C1D884FF6FF7808EA8C2C45EA7F
:109DA0000C051D800D7830F825305B0408D500E0E7
:109DB00046E030F82530234043EA0A0320F82530F6
:109DC000097861B130F821303B4083F400531343EC
:109DD00020F821303EE01D8845F40045E1E7018888
:109DE000394081F440511143018033E0254048F26D
:109DF000801845EA08051AE791F800C030F82C50A1
:109E00006D0406D530F82C50254045EA0A0520F8A7
:109E10002C5091F800C030F82C506D0606D530F863
:109E20002C50254045EA090520F82C500D7830F8D3
:109E300025403C4084F44054144320F8254070E70A
:109E4000144320F825400B7830F823103940114393
:109E500020F823103046BDE8F0872DE9F04391F853
:109E60000C804F780A7848F6BF7C4BF68F7948F221
:109E7000800348F2C0054CF2800648F68F74B8F1B2
:109E8000000F28D0002F30F822704FEA474748D003
:109E9000002F05DA30F822702740374320F822706F
:109EA0000A7830F822707F0605D530F822702740F6
:109EB0002F4320F822700D7830F8252022403243BD
:109EC00020F825200C7830F8242002EA0C021A43EE
:109ED00020F824201AE07FB130F82260760605D5FC
:109EE00030F8226026402E4320F822600A7830F8AD
:109EF000221001EA0C010EE030F822506D0405D565
:109F000030F822502540354320F822500A7830F8A6
:109F1000221001EA0901194320F822100020BDE8AF
:109F2000F083002F05DA30F822702740374320F8FD
:109F300022700A7830F82260760605D530F8226063
:109F400026402E4320F822600E7830F8262022404A
:109F50002A4320F826200C7830F8242002EA09024F
:109F60001A4320F82420C1E730F8581F41F400417B
:109F7000018000207047012120F8401F002101804E
:109F8000818001820846704730F8401F4BF680728E
:109F9000914301800020704730B50A7BB2BB4A78FC
:109FA00048F68F7548F28004C2B10B7830F8232050
:109FB000520607D530F823202A4048F2C0052A432C
:109FC00020F82320CA78012A20D00A7830F82210FD
:109FD00048F6BF73194081F0200114E00A7830F888
:109FE00022305B0407D530F822302B404CF280053C
:109FF0002B4320F822300A7830F822104BF68F736A
:10A00000194081F44051214320F82210002030BD36
:10A0100010B54A780978002A48F2800330F82120E8
:10A0200005D048F6BF74224082F0100204E04BF6DF
:10A030008F74224082F480521A4320F8212000209D
:10A0400010BD2DE9F0470D464B78097B04464FF0D3
:10A05000000948F68F7248F2800A4FF400474FF625
:10A06000FF78012B09D000296FD0E87802286DD045
:10A0700001286CD00120BDE8F087AE6928698642CE
:10A0800000D9064691B1E97802291ED0286A801BC2
:10A090002862287834F820104906B4F8501021447A
:10A0A00001EBC00073D5A0F8066416E1B3B2EA88EC
:10A0B0002046696900F064FAB4F850002978204419
:10A0C00000EBC100A0F802640DE1296A814277D952
:10A0D000297834F82100104048F28012104324F807
:10A0E0002100286A801B2862287834F8201049064D
:10A0F000697871D511B101292AD030E0B4F8501037
:10A10000214401EBC000B0F80614C1F30901A0F826
:10A11000061400F206403E2E07D97109F20600D15E
:10A12000491E028847EA812107E04EB17108F20713
:10A1300000D0491C028808EA81210A4302800EE00F
:10A14000018841F40041018009E0F1E020E195E15E
:10A15000B4F85020111901EBC000A0F806646A8918
:10A16000B3B22046696900F00BFA6869304468614F
:10A170002969286A884202D9801B286202E00646C3
:10A18000C5F82090687818B101282BD032E02FE074
:10A19000B4F850002978204400EBC100B0F8021454
:10A1A000C1F30901A0F8021400F202403E2E08D9C2
:10A1B0007109F20600D1491E028847EA812108E0B0
:10A1C000A1E056B17108F20700D0491C028808EAE4
:10A1D00081210A4302800DE00EE0018841F4004134
:10A1E000018007E0B4F850002978204400EBC1005A
:10A1F000A0F802642A8971E011B1012927D02DE06D
:10A20000B4F85010214401EBC000B0F80214C1F3BF
:10A210000901A0F8021400F202403E2E07D971098C
:10A22000F20600D1491E028847EA812107E04EB1BB
:10A230007108F20700D0491C028808EA81210A430C
:10A2400002800BE0018841F40041018006E0B4F88F
:10A250005010214401EBC000A0F802642A89B3B277
:10A260002046696900F08CF96869304468612969A1
:10A27000286A884202D9801B286202E00646C5F897
:10A280002090687810B1012836D026E0B4F850004C
:10A290002978204400EBC100B0F80614C1F309018D
:10A2A000A0F8061400F206403E2E07D97109F20606
:10A2B00000D1491E028847EA812107E04EB17108AA
:10A2C000F20700D0491C028808EA81210A43028073
:10A2D00003E0018841F4004101806A89B3B220465D
:10A2E000696900F04DF9297834F8210048F6BF7209
:10A2F000104080F030000FE1B4F8501008192978B0
:10A3000000EBC100CFE62A7834F8220048F68F63CC
:10A31000184040EA0A0024F82200B4F850002A78D5
:10A32000204400EBC2008BB2A0F802342A89D6E7A1
:10A33000A9692869814202D9091AA96102E008467F
:10A34000C5F81890B4F850102A78214401EBC201E6
:10A35000B1F80624C2F30902A1F8062401F206416D
:10A360003E287DD94209C00600D1521E088847EA1E
:10A3700082220AE0088840F4004007E04208C00753
:10A3800000D0521C088808EA822210430880BBE0F3
:10A3900033BBB4F850002978204400EBC100B0F87A
:10A3A0000214C1F30901A0F80214296900F2024065
:10A3B0003E2907D94B09C90600D15B1E018847EA2F
:10A3C000832307E041B14B08C90700D05B1C01881B
:10A3D00008EA8323194302E0018841F40041018027
:10A3E000687810B1012828D030E0B4F850002978FE
:10A3F000204400EBC100B0F80614C1F30901A0F835
:10A400000614296900F206403E2907D94B09C906FE
:10A4100000D15B1E018847EA832307E041B14B0866
:10A42000C90700D05B1C018808EA8323194302E0B6
:10A43000018841F40041018008E0B4F85010081987
:10A44000297800EBC100298AA0F80614E869C0B396
:10A45000297834F82100430401D5430605D400E0EF
:10A4600046E044F2400318424ED134F82100104037
:10A4700048F2C002104324F8210045E0A969286988
:10A48000814202D9091AA96102E00846C5F818906C
:10A4900013BBB4F850102A78214401EBC201B1F883
:10A4A0000224C2F30902A1F8022401F202413E286B
:10A4B00008D94209C30600D1521E0B8847EA8222FE
:10A4C00008E021E078B14208C30700D0521C0B8895
:10A4D00008EA822213430B80697800293FF42EAFEB
:10A4E000012909D010E00A8842F400420A80F3E70B
:10A4F00000287FF443AF3DE7B4F8502011192A78C3
:10A5000001EBC201A1F80604297834F821004BF6CA
:10A510008F72104080F4405040EA0A0024F8210075
:10A520000020A8E50021A0F844104BF68071A0F8A7
:10A5300040100020704700000148FAF78FBA000071
:10A540008C740020B0F84400704710B510445C08CB
:10A5500000F5806008D030F8022B01F8012B120AB8
:10A5600001F8012B641EF6D1DA0701D000880870CB
:10A5700010BD11B98021A0F84C10002070470000D8
:10A5800010B55B1C10445B0800F580600AD000BF6A
:10A5900011F8012B11F8014B42EA042220F8022B9A
:10A5A0005B1EF5D110BDFEE7B7EE080AF0B521EE4F
:10A5B000000A01EE102AB8EE411ADFED8F1A0027CB
:10A5C0003E4661EE211A3D463C463B4681EE801AEE
:10A5D000D0EC021A072931EE820A72EE611A60EE9F
:10A5E000810A20EE010A21EE811A13D2DFE801F080
:10A5F0001204095D666F7600FCEEC10A10EE907AD7
:10A6000074E0BCEEC00A10EE107AB1EE600A6DE0A4
:10A6100010EE106A00EE902A07EB060C00EE10CA4E
:10A62000F8EE600AB8EE401A90ED060A60EE200AD5
:10A63000B4EEE01AF1EE10FA25DDB7FBFCF700EE00
:10A64000907AB8EE601A00EE902AF8EE600A60EE9A
:10A65000200A61EE200AFCEEE00A10EE907A07EB89
:10A66000060CB6FBFCF600EE906AB8EE601A00EE3F
:10A67000902AF8EE600A20EE200A21EE000ABCEED5
:10A68000C00A10EE106AA2EB070C0729ACEB060C0F
:10A690004FEA9C0C0CEB570707EB56063DD2DFE860
:10A6A00001F03C282B2E32353900B1EE410ABCEEC8
:10A6B000C00A10EE107ABCEEE00AA9E7B1EE600A1B
:10A6C000BCEEC00A10EE107ABCEEC10AA0E7FCEEA8
:10A6D000E00AB1EE400A10EE907A07E0B1EE400ACF
:10A6E000BCEEC00A10EE107AB1EE410ABCEEC00A10
:10A6F0008EE73D46644604E06546344608E065461C
:10A700003C46334609E035463C4605E0354664465E
:10A710003B4602E03D463446634600EE105A384957
:10A72000B8EE400A80ED0E0A00EE104AB8EE400A7C
:10A7300080ED0F0A00EE103AB8EE400A80ED100AE4
:10A7400000EE105A0F68F8EE400A9FED2C0A70EEEA
:10A75000800AFCEEE00A10EE906AFE6300EE904A7A
:10A760000F68F8EE600A70EE800AFCEEE00A10EE68
:10A77000906ABE6300EE903A0968F8EE600A30EE27
:10A78000800ABCEEC00A10EE106A4E6300EE102A7A
:10A79000F8EE400AB6EE000A60EE801A00EE905A1B
:10A7A000F8EE600A80EEA11AF3EE080A21EE201AF4
:10A7B00080ED0B1A01EE102AB8EE411A61EE001A74
:10A7C00001EE104AB8EE412A82EE211A21EE201A3B
:10A7D00080ED0C1A01EE102AB8EE411A21EE001A93
:10A7E00000EE103AF8EE401A81EE810A20EE200ABF
:10A7F00080ED0D0AF0BD0000D7B3DD3FCFF78740F5
:10A800007C72002000EE900AF8EE600A20EE200A2A
:10A8100070474FF07F41B1EB400F01D101207047ED
:10A820000020704720F00040C0F1FF40C00F70478B
:10A830000907090E002804DB00F1E02080F800146D
:10A84000704700F00F0000F1E02080F8141D704701
:10A8500030380A2801D20120704700207047704725
:10A86000F0B500242646124A1AE01388055D1F043D
:10A8700014D45F0404D50A2D0FD143F4004314E02F
:10A880000D2D10D0C3F30D07DFF828C05B1C9BB261
:10A890000CF807501380C72B00D91680641CE4B253
:10A8A0008C42E2D3F0BD43F480431380F6E700000E
:10A8B00038010020E47D00200A4610B50146044816
:10A8C000FEF72FFCBDE810400148FEF794BC0000E5
:10A8D0008479002010B504460420FAF7F7FF0848F1
:10A8E0004FF0E02104604FF47A704443086940F06F
:10A8F000020008614C61086940F00100086110BD68
:10A900001800002070B5054600244FF47A7603E065
:10A91000304600F005F8641CAC42F9D370BD00006D
:10A9200070B54FF0E024002265690949A369096800
:10A930004843A1699942FCD002D2A3EB010302E093
:10A94000A5EB010633441A440B468242F1D370BD95
:10A950001800002004490A685206FCD5024AC1B218
:10A960000C321160704700001C380140F9F7B0FC50
:10A97000FDF7C0FCFCF7EEFBFCF7CEFBFCF720FC80
:10A98000FCF764FDFCF7B4FDFCF77CFAFCF7ECFA8D
:10A99000FCF750FBFCF736FDFCF798FCFCF7CCFC11
:10A9A000FCF702FDF6F7CCF8F6F7B0F9FCE700008B
:10A9B0000749064AC1E9002000208860C860086194
:10A9C00088610C2048610846FCF73CB9003801401A
:10A9D000F87300200EF1020E2EF0030E5EF8044B09
:10A9E000244204D44FEA4102B2F17F4F11D84FEA1A
:10A9F0004003B3F17F4F0CD80ED14FEAD07CB2F1B7
:10AA00007F4F0CEB4C0C0CF1020C08BF4CEBD17CD3
:10AA100004E04FF0080C01E04FEAD17C0CEB4C0352
:10AA200024FA03F404F00704B4F1040C06D20EEB8C
:10AA3000840CBDE810404CF0010C6047DFE80CF0DE
:10AA4000070802024FF00040A0F5800010BD084644
:10AA5000420018BFD2F1807288BF00F0004010BDE4
:10AA60004FF04070E1EE100A70470000C2154FEA47
:10AA7000002318BF43F0004300F11080D2F1BE0262
:10AA800040F2288023FA02F1B2F1200C2EBF23FA03
:10AA90000CF0C2F1200C03FA0CF07047B0F15F4FDC
:10AAA00000F2188012F0FF0208BF23F00043C2F149
:10AAB000BE0223FA02F1B2F1200C2EBF23FA0CF0F1
:10AAC000C2F1200C03FA0CF04042C1F1000138BF82
:10AAD000491E704710B5FFF77DFF00BF92244980E3
:10AAE00000204FF0000170476FEAE07080F00041F5
:10AAF0007047010002000400060008000A000C0074
:10AB00001000200040008000000101010103070146
:10AB10000000080402040801010100000000000018
:10AB200000000102030406070809000000000102FA
:10AB300003040000000000000000003F04000008C3
:10AB400000000000000000020001000010000000F2
:10AB500000000000920E493CB10AC93C2BC3163DCF
:10AB60002EFB483D752B7B3D04A9963D80B6AF3D3D
:10AB700036BDC83D2FBCE13D73B2FA3D87CF093EDB
:10AB80008340163EB5AB223EA2102F3ECF6E3B3E19
:10AB9000C2C5473E0115543E135C603E7F9A6C3E31
:10ABA000CCCF783EC07D823E938E883E229A8E3EE8
:10ABB00032A0943E86A09A3EE59AA03E128FA63E11
:10ABC000D47CAC3EEF63B23E2A44B83E491DBE3E43
:10ABD00015EFC33E53B9C93ECA7BCF3E4136D53E81
:10ABE00080E8DA3E4F92E03E7533E63EBBCBEB3E6B
:10ABF000EA5AF13ECBE0F63E275DFC3EE4E7003F3B
:10AC00003D9C033F824B063F9BF5083F6B9A0B3FF1
:10AC1000DA390E3FCDD3103F2A68133FD9F6153FDE
:10AC2000C07F183FC6021B3FD17F1D3FCBF61F3FA1
:10AC30009967223F25D2243F5636273F1594293F56
:10AC40004AEB2B3FDE3B2E3FBB85303FC9C8323F2E
:10AC5000F304353F233A373F4268393F3B8F3B3F50
:10AC6000F9AE3D3F67C73F3F70D8413F01E2433FE8
:10AC700003E4453F65DE473F12D1493FF8BB4B3FF8
:10AC8000029F4D3F207A4F3F3D4D513F4918533F62
:10AC900031DB543FE595563F5348583F6AF2593FE0
:10ACA0001A945B3F532D5D3F05BE5E3F2146603FDA
:10ACB00097C5613F5A3C633F59AA643F880F663F7E
:10ACC000D86B673F3CBF683FA7096A3F0C4B6B3F9F
:10ACD0005E836C3F93B26D3F9ED86E3F73F56F3FBE
:10ACE0000809713F5213723F4714733FDD0B743FE5
:10ACF0000BFA743FC6DE753F07BA763FC58B773FC8
:10AD0000F853783F9812793F9DC7793F02737A3F95
:10AD1000BE147B3FCDAC7B3F283B7C3FC9BF7C3F13
:10AD2000AC3A7D3FCCAB7D3F23137E3FB0707E3F7E
:10AD30006DC47E3F580E7F3F6D4E7F3FAB847F3F9B
:10AD40000FB17F3F97D37F3F43EC7F3F11FB7F3FA6
:10AD50000000803F11FB7F3F43EC7F3F97D37F3F55
:10AD60000FB17F3FAB847F3F6D4E7F3F580E7F3FDB
:10AD70006DC47E3FB0707E3F23137E3FCCAB7D3FE2
:10AD8000AC3A7D3FC9BF7C3F283B7C3FCDAC7B3F8D
:10AD9000BE147B3F02737A3F9DC7793F9812793F7B
:10ADA000F853783FC58B773F07BA763FC6DE753FCD
:10ADB0000BFA743FDD0B743F4714733F5213723F1D
:10ADC0000809713F73F56F3F9ED86E3F93B26D3F98
:10ADD0005E836C3F0C4B6B3FA7096A3F3CBF683FEB
:10ADE000D86B673F880F663F59AA643F5A3C633F60
:10ADF00097C5613F2146603F05BE5E3F532D5D3FD5
:10AE00001A945B3F6AF2593F5348583FE595563FC5
:10AE100031DB543F4918533F3D4D513F207A4F3F5E
:10AE2000029F4D3FF8BB4B3F12D1493F65DE473F84
:10AE300003E4453F01E2433F70D8413F67C73F3FCE
:10AE4000F9AE3D3F3B8F3B3F4268393F233A373FA6
:10AE5000F304353FC9C8323FBB85303FDE3B2E3F50
:10AE60004AEB2B3F1594293F5636273F25D2243FE6
:10AE70009967223FCBF61F3FD17F1D3FC6021B3F84
:10AE8000C07F183FD9F6153F2A68133FCDD3103F36
:10AE9000DA390E3F6B9A0B3F9BF5083F824B063F1A
:10AEA0003D9C033FE4E7003F275DFC3ECBE0F63EE0
:10AEB000EA5AF13EBBCBEB3E7533E63E4F92E03EA5
:10AEC00080E8DA3E4136D53ECA7BCF3E53B9C93E13
:10AED00015EFC33E491DBE3E2A44B83EEF63B23E65
:10AEE000D47CAC3E128FA63EE59AA03E86A09A3E48
:10AEF00032A0943E229A8E3E938E883EC07D823E42
:10AF0000CCCF783E7F9A6C3E135C603E0115543E78
:10AF1000C2C5473ECF6E3B3EA2102F3EB5AB223E90
:10AF20008340163E87CF093E73B2FA3D2FBCE13D08
:10AF300036BDC83D80B6AF3D04A9963D752B7B3D1F
:10AF40002EFB483D2BC3163DB10AC93C920E493C2D
:10AF500000000000920E49BCB10AC9BC2BC316BD4B
:10AF60002EFB48BD752B7BBD04A996BD80B6AFBD39
:10AF700036BDC8BD2FBCE1BD73B2FABD87CF09BED7
:10AF8000834016BEB5AB22BEA2102FBECF6E3BBE15
:10AF9000C2C547BE011554BE135C60BE7F9A6CBE2D
:10AFA000CCCF78BEC07D82BE938E88BE229A8EBEE4
:10AFB00032A094BE86A09ABEE59AA0BE128FA6BE0D
:10AFC000D47CACBEEF63B2BE2A44B8BE491DBEBE3F
:10AFD00015EFC3BE53B9C9BECA7BCFBE4136D5BE7D
:10AFE00080E8DABE4F92E0BE7533E6BEBBCBEBBE67
:10AFF000EA5AF1BECBE0F6BE275DFCBEE4E700BF37
:10B000003D9C03BF824B06BF9BF508BF6B9A0BBFED
:10B01000DA390EBFCDD310BF2A6813BFD9F615BFDA
:10B02000C07F18BFC6021BBFD17F1DBFCBF61FBF9D
:10B03000996722BF25D224BF563627BF159429BF52
:10B040004AEB2BBFDE3B2EBFBB8530BFC9C832BF2A
:10B05000F30435BF233A37BF426839BF3B8F3BBF4C
:10B06000F9AE3DBF67C73FBF70D841BF01E243BFE4
:10B0700003E445BF65DE47BF12D149BFF8BB4BBFF4
:10B08000029F4DBF207A4FBF3D4D51BF491853BF5E
:10B0900031DB54BFE59556BF534858BF6AF259BFDC
:10B0A0001A945BBF532D5DBF05BE5EBF214660BFD6
:10B0B00097C561BF5A3C63BF59AA64BF880F66BF7A
:10B0C000D86B67BF3CBF68BFA7096ABF0C4B6BBF9B
:10B0D0005E836CBF93B26DBF9ED86EBF73F56FBFBA
:10B0E000080971BF521372BF471473BFDD0B74BFE1
:10B0F0000BFA74BFC6DE75BF07BA76BFC58B77BFC4
:10B10000F85378BF981279BF9DC779BF02737ABF91
:10B11000BE147BBFCDAC7BBF283B7CBFC9BF7CBF0F
:10B12000AC3A7DBFCCAB7DBF23137EBFB0707EBF7A
:10B130006DC47EBF580E7FBF6D4E7FBFAB847FBF97
:10B140000FB17FBF97D37FBF43EC7FBF11FB7FBFA2
:10B15000000080BF11FB7FBF43EC7FBF97D37FBF51
:10B160000FB17FBFAB847FBF6D4E7FBF580E7FBFD7
:10B170006DC47EBFB0707EBF23137EBFCCAB7DBFDE
:10B18000AC3A7DBFC9BF7CBF283B7CBFCDAC7BBF89
:10B19000BE147BBF02737ABF9DC779BF981279BF77
:10B1A000F85378BFC58B77BF07BA76BFC6DE75BFC9
:10B1B0000BFA74BFDD0B74BF471473BF521372BF19
:10B1C000080971BF73F56FBF9ED86EBF93B26DBF94
:10B1D0005E836CBF0C4B6BBFA7096ABF3CBF68BFE7
:10B1E000D86B67BF880F66BF59AA64BF5A3C63BF5C
:10B1F00097C561BF214660BF05BE5EBF532D5DBFD1
:10B200001A945BBF6AF259BF534858BFE59556BFC1
:10B2100031DB54BF491853BF3D4D51BF207A4FBF5A
:10B22000029F4DBFF8BB4BBF12D149BF65DE47BF80
:10B2300003E445BF01E243BF70D841BF67C73FBFCA
:10B24000F9AE3DBF3B8F3BBF426839BF233A37BFA2
:10B25000F30435BFC9C832BFBB8530BFDE3B2EBF4C
:10B260004AEB2BBF159429BF563627BF25D224BFE2
:10B27000996722BFCBF61FBFD17F1DBFC6021BBF80
:10B28000C07F18BFD9F615BF2A6813BFCDD310BF32
:10B29000DA390EBF6B9A0BBF9BF508BF824B06BF16
:10B2A0003D9C03BFE4E700BF275DFCBECBE0F6BEDC
:10B2B000EA5AF1BEBBCBEBBE7533E6BE4F92E0BEA1
:10B2C00080E8DABE4136D5BECA7BCFBE53B9C9BE0F
:10B2D00015EFC3BE491DBEBE2A44B8BEEF63B2BE61
:10B2E000D47CACBE128FA6BEE59AA0BE86A09ABE44
:10B2F00032A094BE229A8EBE938E88BEC07D82BE3E
:10B30000CCCF78BE7F9A6CBE135C60BE011554BE74
:10B31000C2C547BECF6E3BBEA2102FBEB5AB22BE8C
:10B32000834016BE87CF09BE73B2FABD2FBCE1BD04
:10B3300036BDC8BD80B6AFBD04A996BD752B7BBD1B
:10B340002EFB48BD2BC316BDB10AC9BC920E49BC29
:10B350000000008074B3000800000020D8700000D6
:10B3600014020008D0B50008D8700020381300007F
:10B37000700200088132108201031124F4130A06BE
:10B3800032022A4024140902431302011DC032096B
:10B3900004351A020B1305241610010524011009A7
:10B3A000010424020205240617010705820308157B
:10B3B0001009040133020A1D07050102432C070589
:10B3C00081070938442A40072A8107112B090744BD
:10B3D0000A3B044413818F1408D58E140839914216
:10B3E000081A21101A4D101AAB04C11A69181A5DF7
:10B3F000041A75041A51045133C201120813290C9E
:10B400001B08250413D10B1B084108811A15281BA2
:10B4100035901419041A69041AD9041A2D581A11EE
:10B42000081E0403090412931302021E4083044001
:10B4300057C91B02034F036C1A030312807F237A40
:10B440004423A04154C03F071AC00C012605FF5DEC
:10B45000AAB0C001FF01FF01FF01FF01FF01FF01D1
:10B46000FF01FF01FF01FF01FF01FF01FF01FF01DC
:10B47000FF01FF01FF01FF01FF01FF01FF01FF01CC
:10B48000FF019C53102706223FCDCC4C3E23FA44AB
:10B490001AE10401FF01FF01FF01FF01FF01FF01AC
:10B4A000FF01FF014285CDCC4C3E0513BB7AD43C55
:10B4B000D23F0008FFC02845E035324901FF01FFB7
:10B4C00001FF01FF01FF01FF01FF011005A29A9991
:10B4D000993E07FF074332BB134101FF01FF01FF04
:10B4E00001FF01FF01FF01FF012D1424744904FF36
:10B4F000401C4601FF01FF01FF01FF01FF01FF01A9
:10B50000FF01300009FF0742323A8096984B011143
:10B510000522CDCCCCBDA3C84243A041C5B7433A18
:10B520005100093A9C16BC3B61FD9F3D0920640017
:10B530000939431CEB3CB9FC473FA430F2463A7052
:10B5400064C58096184B0009276F12833A4260E564
:10B550003B09108CB9643A48D4E9640009269A99E9
:10B56000193E3433324049A801A20AA5A0A801FF20
:10B5700001FF01FF01FF01FF01FF01FF01FF01FFCB
:10B5800001FF01FF01FF01FF01FF01FF01FF01FFBB
:10B5900001FF01FF01FF01FF01FF01FF01FF01FFAB
:10B5A00001FF01FF01FF01FF01FF01FF01FF01FF9B
:10B5B00001FF01FF01FF01FF01FF01FF01FF01FF8B
:10B5C00001FF01FF01FF01FF01FF01FF01FF017A00
:04000005080001D915
:00000001FF
